:020000040800F2
:10000000500F0020255C0008D15A0008D35A000880
:10001000D55A0008D75A0008D95A00080000000035
:10002000000000000000000000000000DB5A000893
:10003000DD5A000800000000DF5A0008E15A0008FD
:100040004D5C0008515C0008555C0008595C0008D4
:100050005D5C0008615C0008655C0008695C000884
:100060006D5C0008715C0008755C0008E55A0008CA
:10007000795C00087D5C0008815C0008855C0008F4
:10008000895C00088D5C0008915C0008955C0008A4
:10009000995C00089D5C0008A15C0008A55C000854
:1000A00000000000A95C0008AD5C0008B15C00081D
:1000B000EB5A0008F15A0008B55C0008B95C00086A
:1000C000BD5C0008C15C0008C55C0008C95C000894
:1000D000CD5C0008D15C0008F75A0008FD5A000802
:1000E000D55C0008D95C0008DD5C0008E15C000814
:1000F000E55C0008E95C0008ED5C0008F15C0008C4
:10010000F55C0008035B0008F95C0008FD5C000872
:10011000015D0008055D0008095D000800000000A1
:100120000D5D00082DE9F0439FB000BF65A6269C39
:10013000DFF8B48A8DF83B40029100240B944FF015
:10014000FF37044691461D460AE019F8011B029844
:10015000A0470028029000F0A1800B98401C0B9053
:1001600099F8000050B12528EFD100210022059117
:1001700006920791089209910A9203E00B98A5E074
:1001800041F0010119F8010F2028F9D023280CD0E3
:100190002B2804D02D2805D0302809D080E041F04C
:1001A0000201EFE741F00401ECE741F00801E9E763
:1001B00041F01001E6E70D920AE00D98404505DA9E
:1001C00000EB800002EB4002303A0D9209F1010988
:1001D00099F80020A2F130000A28EED399F8000027
:1001E0002E2818BF0C9726D119F8010F2A2808D1FC
:1001F0002868286009F1010950F8042B28600C9246
:1002000019E02D280CBF09F10109002000220C92F1
:100210000BE040B90C9A424505DA02EB820203EB8F
:100220004203303B0C9309F1010999F80030A3F126
:1002300030020A2AEDD3ADF83810304699F8001094
:1002400000F086FE08B119F8010B8DF83A009DF810
:100250003A00682805D199F8000068280CD162217D
:1002600006E06C2804BF99F800006C2804D17121C5
:100270008DF83A1009F1010910A804902A4619F8DE
:10028000013B6946204600F061F838B910AA69467A
:10029000204600F08FF900287FF562AF384615E060
:1002A0002A2888D12A682A6052F8040B2A6000287C
:1002B0000D9003D540420D9041F0040109F1010970
:1002C0008CE70000686A6C747A4C00001FB0BDE8CF
:1002D000F083622820D0682811D06A2803D06C28C7
:1002E00027D0712825D10868C01D20F007000860BC
:1002F000D0E9002308300860194610467047002AEC
:100300000A680A60106803D0121D0A6000B217E084
:10031000121D0A6080B217E0002A0A680A6010689D
:1003200003D0121D0A6040B20AE0121D0A60C0B27A
:100330000AE0002A0A680A60106803D0121D0A60E9
:10034000C1177047121D0A600021704770B51C4626
:100350000D46B4F125002E69114600F019811C38B4
:1003600068D0001F022865D9133842D0093861D0FF
:10037000801E16D0401E1ED0401E02285AD9001FD3
:1003800019D0401F00F08180401E32D0401E00F086
:10039000CB80C01E00F0DA80801E2AD0C01E28D07C
:1003A000FCE06869421C6A610A680A6052F8043B12
:1003B0000A603354FCE095F83A000122FFF789FF08
:1003C000C5E90001002904D56869411C69612D2235
:1003D0000DE0288F810704D56869411C69612B22D3
:1003E00005E0C00721D56869411C696120223254AB
:1003F0001BE095F83A000022FFF76BFFC5E900010A
:1004000095F83800010710D5D5E90023002B08BF67
:10041000002A0AD044F02000782806D168693021EB
:100420003154401C421C6A6134542146686930448E
:10043000E86087E00868C01D20F007000860D0E988
:10044000002308300860C5E90023D5E90001C80F82
:1004500004D06869411C69612D220DE0288F810755
:1004600004D56869411C69612B2205E0C00704D5E9
:100470006869411C69612022325468693044E8602F
:100480002146284600F0C4F992E005F13A0250787E
:1004900020B14FF0FF340FF6202062E01078622880
:1004A00008D0682824D06A2812D06C282ED0712851
:1004B0000ED02BE00A680A6052F8040B0A6020B9DB
:1004C0004FF0FF340FF608204BE0E96A01706FE04F
:1004D0000A680A6052F8040B0A6020B94FF0FF3432
:1004E0000FF6EC103DE0EA6AD317C0E900235FE0A5
:1004F0000A680A6052F8040B0A6020B94FF0FF3412
:100500000FF6CC102DE0E96A018051E00A680A601C
:1005100052F8040B0A6020B94FF0FF340FF6B01008
:100520001FE0E96A016043E00A680A6052F8040BC0
:100530000A60002120F0000221F0FF33C5E900230A
:10054000EE607821284600F0BBF831E008680860CA
:1005500050F8044B0860EC603CB94FF0FF340FF6E4
:10056000881000F001FD201A70BD2E6B002E04D5FE
:10057000204600F019FD044608E0324600212046DE
:1005800000F02EFD002814BF041B3446AC610FE0C0
:100590006869411C69612522325409E06969481C77
:1005A000686125227254210002D0431C6B613454CF
:1005B000002070BD2DE9FC410F46064690467A6B3F
:1005C0007869396ABC6A121AB869521A796A121AB9
:1005D000F869521A121A97F83800141B41070FD401
:1005E0002020002C8DF800000ADD254601236A46F4
:1005F0003946304600F048FC00285DD16D1EF5D12B
:100600007B6942463946304600F03EFC002853D113
:1006100030208DF800003D6A002D09DD01236A4677
:100620003946304600F030FC002845D16D1EF5D12A
:10063000BB69FA683946304600F026FC00283BD1F9
:1006400030208DF800007D6A002D08DD01236A4608
:100650003946304600F018FC70BB6D1EF6D1F868C4
:10066000B969FB6942183946304600F00DFC18BBE9
:1006700030208DF80000BD6A002D08DD01236A4698
:100680003946304600F000FCB0B96D1EF6D197F83F
:10069000380041070DD52020002C8DF8000008DD22
:1006A00001236A463946304600F0EEFB20B9641E4D
:1006B000F6D10020BDE8F6814FF0FF30BDE8F681AD
:1006C0002DE9FC4307466F293E6908BF082405D081
:1006D00041F02000782814BF0A2410243C25D7E9D3
:1006E0000023642918BF69299046994605D1002B3B
:1006F00003D5D8F1000869EB4909B9F1000F08BF2B
:10070000B8F1000F1FD1386BE8B9082C4CD197F81D
:100710003800010748D530203B2586F83B0043E0F0
:1007200000280ED597F8380000F01400102808D1E2
:100730007B6B7969386A5B1A1B1A9A1A002AC8BF40
:100740003A62BDE8F3838DF80010404649462246E0
:10075000E31700F071FC3032D0B26D1E3A280195DB
:1007600004DB9DF80000A0F151018A187255404643
:1007700049462246E31700F05FFC80465FEA010924
:1007800008BFB8F1000F03D0F86871198842DCD3B4
:10079000082C09D197F83800010705D5705D30287D
:1007A00002D06D1E30207055C5F13C02BA6171193E
:1007B000F960386B8242B3DA821A3A624FF6EF7010
:1007C000398F01403987BDE8F3832DE9D0430646D0
:1007D0000F4614464FF00008DFF8109412E0E007CF
:1007E00007D542464B463046394600F03DFD0646A9
:1007F0000F464046494642464B4600F035FD6410E0
:1008000080468946002CEAD130463946BDE8D0837F
:100810002DE9F84F05468A464AF020048EB0D5E906
:100820000089612C02AE09D0286B002848BF062041
:1008300003D408BF672C01D101202863D5E900014A
:100840004A005215521C0DD10B030BD0AAF16101C5
:1008500003201A29A86102D20FF2A86110E00FF25A
:10086000A8610DE04A005215521C0ED10B030CD1A9
:10087000AAF1610103201A29A86116D30FF2906131
:10088000E868032200F0C2FDC0E1CDE90C01DDE91A
:100890000C2323F00043B3F5801F0DD20027002B5B
:1008A00008BF002A019703D111E00FF26061E7E76A
:1008B00001AA00F0FFFD0AE0CD48CE4900EB13503D
:1008C000DDE90C2301900B40CB4910461943C5E9E3
:1008D0000001612C0DD1E86830210170821CBAF151
:1008E000610FEA600CBF7821582141706869801C53
:1008F0006861D5E90001CDE90C01DDE90C2333F095
:10090000004104BF0028002300F04881612C40F022
:10091000A080286B494600284CBF4FF0210B00F106
:10092000010B404600220023DDE90C8900F0FAFDAE
:1009300001990BF1010738BF89F00049091F002F09
:1009400001918DF808200DF1090040F33581A94986
:1009500000910646404649460022002300F0FAFD79
:1009600080F029814800400D00F11C0211D0002ABE
:100970000FDD40F2FF739A4205DBA04909F0004009
:100980000143002011E0009B194041EA025140461A
:100990000BE028F0000039F0004108BF00280FBF2D
:1009A00049461C22494600F0EDFD8046894600F08C
:1009B00087FEFF1F002F044609DD00F09FFE024660
:1009C0000B464046494600F0ABFE80468946F01D86
:1009D000072104E004F00F0200F8012D2411002C7F
:1009E00001DD491EF6D5491E5CBF002200F8012D2D
:1009F000F9D5DCE00020194602AA0A4400E05B1E9B
:100A000012F80149491E8442F9D00F2804D10DF192
:100A10000900425C521C4254002904D50198001D73
:100A200002AE5B1C0190581E0CD43118AAF13A0496
:100A30000A783032D7B23A2FA8BFA218401E01F868
:100A40000129F5D5286B002840F1A780591E29639C
:100A5000A3E001996A4A47F29750414391FBF2F2B1
:100A6000019229F00046D2F1070204DD40463146EA
:100A7000FFF7ABFE0AE0524200206249FFF7A5FEF5
:100A800002460B464046314600F0BCFE8046662CCE
:100A9000286B06BF019F0A3706273F18142FC8BFCF
:100AA000142730208DF8080089460DF1090000E078
:100AB0003046002F34DD06464046494600F0C6FF6A
:100AC00001460A4606F1080304200A26B2FBF6F6A0
:100AD00006EB860EA2EB4E02303203F8012C0A22FE
:100AE000B6FBF2F202EB820EA6EB4E063036401E4B
:100AF00003F8026DE9D1083F002F03F10806D7DDA6
:100B0000084600F0B7FF02460B464046494600F053
:100B100007FE00223C4B00F0A7FB80468946CBE74E
:100B20000DF10901401A0DF1090604E00199491E71
:100B3000401E0191761C31783029F7D0662C02D105
:100B40000199491C03E0652C0CBF012100212B6B8E
:100B5000CB189842B8BF431E002B1ED4834204DA40
:100B6000F05C3528A8BF392000DA30201946721E03
:100B700002EB010800E05B1E18F80199491E81454F
:100B8000F9D0392802D1705C401C7054002904D57A
:100B90000198401C16465B1C0190019800B2009021
:100BA0001BB232465146284600F034F82EE0C61DEE
:100BB000002F3FF7CFAE30460DF10901401A034632
:100BC0005845C8BF5B46002B0DF109063FF53AAF0B
:100BD0008342BFF60FAF0DF10900C15C07297FF713
:100BE00009AF0F2007E70000CBCCCC0C000024405D
:100BF00002FCFFFFFFFF0F800000E03F0000F07FDE
:100C0000A08601000000F03F84D797410FB0BDE8F7
:100C1000F08F00002DE9F84783B006468A46174654
:100C2000984600F035FFB8F1000F406A356B90F838
:100C3000009002DC4FF00108B6A74AF02000BDF991
:100C40003040662808BF641C15D0672840F08480B7
:100C500014F1040FC0F28680AC4280F2838096F8D3
:100C60003800641C010702D4A845B8BF454620B22D
:100C70002D1A48BF00250FFA84FAF068B169BAF15D
:100C8000000F25DC4A1C30234354002D03DC96F86A
:100C90003800010703D5F06800F80290521C15EBEC
:100CA0000A0FB8BF6C4220B2441941424445B8BF54
:100CB000A046B26171620FFA88F5F561F068B36918
:100CC0002A463946184400F0A1FB641BB462C4E014
:100CD00022B29045084417DA4246394600F096FBA6
:100CE000B0694044B061AAEB0801002D716203DCD9
:100CF00096F838100A0705D5F16801F80090F069F8
:100D0000401CF061B562A8E0394600F07FFBB06995
:100D1000002D5044A8EB040803DC96F838100A07AD
:100D200003D5F16801F80090401CB0610FFA88F01B
:100D30008542F368B069B8BFA8460FFA88F207EB9E
:100D40000A01184400F062FBB1690FFA88F001440F
:100D5000B161281A706280E0BAF1610F14D14FF0CE
:100D6000700A16E0A84504DA96F838100A0758BF4A
:100D700045466D1E48BF0025BAF1670F14BF4FF0FE
:100D8000450A4FF0650A04E0BAF1410F08BF4FF081
:100D9000500AB169F368481CB061002D17F8012BA7
:100DA0005A5403DC96F838100A071BD5F168431C27
:100DB000B36101F80090002D14DDA8F101080FFACD
:100DC00088F039468542F768B8BFA8460FFA88F21E
:100DD000F81800F01BFBB0690FFA88F108446D1A8F
:100DE000B0617562F068B1690844002C80F800A019
:100DF00003D42B224270811C03E02D2141706442F8
:100E0000811C00206A460AE023460A2493FBF4F47E
:100E100004EB8405A3EB450302F8013B401C24B21C
:100E2000002CF1DC012806DC4AF02002652A04BF10
:100E3000302201F8012B48B9302001F8010B07E0FE
:100E4000401E1DF80030303301F8013B0028F7DC6C
:100E5000F268B0691044091AF16196F8380000F0A0
:100E6000140010280DD17269B169706A8A18F1698D
:100E70008218B06A8A188218706B8242BCBF821ACC
:100E8000326204B0BDE8F087F8B505460E46174655
:100E90001C46002074B117F8011BB068A847B06069
:100EA00030B1F06A401CF0620020641EF3D1F2BD44
:100EB0004FF0FF30F2BD00007072696E74665F73B0
:100EC0003A20256E20646973616C6C6F77656400ED
:100ED0007072696E74663A2062616420256E2061CA
:100EE0007267756D656E74007072696E74665F739B
:100EF0003A2062616420257320617267756D656EAA
:100F0000740000006E616E004E414E00696E660016
:100F1000494E4600300030B4002513E050F8042B51
:100F2000D30744BFA9F101039A18091F042942F805
:100F3000045BFAD213468C0744BF15809B1CC9077B
:100F400048BF1D7050F8041B0029E7D130BC704722
:100F5000C9B202788A421AB11CBF10F8012FF9E712
:100F600018BF00207047000080B500B906A00549F1
:100F70000B681BB122220021984701E000F08CFD94
:100F8000222002BD440B0020636F6E73747261698E
:100F90006E742068616E646C65723A2062616420D0
:100FA0006D6573736167650000F10103810704D00B
:100FB00010F8011B820781B1FAD10268A2F1013158
:100FC000914311F0803104BF50F8042FF6E709BABD
:100FD000B1FA81F100EBD100401CC01A704700004B
:100FE000C9B2830706D0521E22D310F8013B9942A2
:100FF000F7D11FE0083A13D302F1040241EA0121BC
:1010000041EA014150F8043B121F21BF4B40A3F1BC
:10101000013C2CEA030C1CF0803FF3D0C9B2001F46
:10102000083210F8013B521E28BF91EA030FF8D88E
:1010300018BF0120401E7047BBBBE1B1B2F5803F35
:1010400080F07E80022A1ED98C46B1FBF2F102FBB1
:1010500011C31B0443EA1043B3FBF2FC02FB1C3335
:1010600080B240EA0343B3FBF2F002FB103240EAE5
:101070000C4000237047022A05D98446B0FBF2F0E9
:1010800002FB10C270474AB105D100F001024908C5
:101090005FEA3000704700220023704700F000BD77
:1010A0000B000200002100207047904271EB030CFE
:1010B000F6D3B3F5803F2FD2F0B5B3FA83F7B1FA88
:1010C00081F4A7F10F0E3D1B5340CEF1200602FA2A
:1010D0000EF2F3415340B5F10F0746D80F3C2C44B4
:1010E0004140C4F12006A040F1414140B1FBF3F67C
:1010F00003FB1611A2FB0645001BA94102D2761E76
:101100008018594180EA010221FA0EF362FA0EF2C8
:1011100000215A403046F0BD30B4B1FBF3FC03FB74
:101120001C11A2FB0C45001BA94103D2ACF1010C20
:101130008018594130BC02460B466046002170477A
:10114000B2F1807F65D3F0B5B2FA82F7B1FA81F4DB
:10115000C7F10F063D1B22FA06F307F1110EF2410B
:1011600020355A40B5F10F07B8D94140C4F12006E7
:10117000A040F1414140B1FBF3FC03FB1C11A2FB79
:101180000C45001BA94103D2BCF1010C8018594148
:101190000F2F12D30F3FC90341EA5041B1FBF3F6C1
:1011A00003FB1611A2FB0645D4EBC030A94102D2C5
:1011B000761E8018594146EACC3C07B34140C7F13E
:1011C0002006B840F1414140B1FBF3F603FB161194
:1011D000A2FB0645001BA94102D2761E8018594188
:1011E00080EA010221FA0EF3C7F1200462FA0EF23E
:1011F0000CFA07F05A402CFA04F13043F0BD80EAB3
:10120000010221FA0EF3002162FA0EF260465A4002
:10121000F0BD8C46B1FBF2F102FB11C31B0243EAA5
:101220001063B3FBF2FC02FB1C331B024CEA0020F0
:1012300043EA1063B3FBF2FC02FB1C331B024CEAD3
:10124000002043EA1063B3FBF2FC02FB1C331B02D9
:101250004CEA002043EA1063B3FBF2FC02FB1C32B1
:101260004CEA002000237047B0B581EA030C0CF073
:10127000004C40F2FF7515EA11541DBF15EA1357D3
:10128000AC42AF4239E0E41923EA455343F48013FA
:10129000C90241F0004141EA505EC7021100A7FBBC
:1012A000020200284FF00000EEFB01204FF0000189
:1012B000E3FB072118BF42F0010240180021494119
:1012C000E3FB0E01A4F580640F0302D252004041FB
:1012D000494154F101046CDD470872F1004250F1BC
:1012E000000051EB0451A1F580115CBF41EA0C01F3
:1012F000B0BD4CEA05510020B0BD05EA1357AC4221
:1013000014BFAF4241E050EA410E1CBF52EA430E07
:1013100002E061460020B0BD24423C441BD15FEA9C
:10132000070EF6D0090302BF01460020AEF1140EED
:10133000B1FA81F7AEEB070401FA07FE0C37C7F1EB
:10134000200100FA07F7C8404EEA000E23EA455391
:1013500043F48013A2E733F00043B3FA83F704BFEA
:10136000B2FA82FE77440B3FE41BB7F1200E2FBF89
:1013700002FA0EF3BB40C7F1200E22FA0EFE38BF70
:1013800043EA0E03BA40641C82E750EA410E14BFE0
:1013900052EA430E6FF000014FF4001717EB430FB2
:1013A0008ABF194617EB410FB5E74CEA05510020FB
:1013B000B0BDD4F10104B4F120070FDAC4F1200765
:1013C000520828BF42F0010210FA07F501FA07F7A8
:1013D000E1BF2A43E0403843E1400FE0352C98DC80
:1013E000C7F1200452EA400220FA07F218BF42F087
:1013F000010231FA07F0A1400A43002172F10042D4
:1014000050F1000051EB0C01B0BD000062B38B073E
:1014100008D0521E11F8013B00F8013B00F0248077
:101420008B07F6D1830740F0208000BF103A07D326
:1014300030B4B1E83810103AA0E83810F9D230BC16
:10144000530724BFB1E80810A0E8081044BF51F8C2
:10145000043B40F8043BD20724BF31F8022B20F8AC
:10146000022B44BF0B7803707047121F17D35B0029
:1014700009D151F8043B20F8023B1B0C121F20F845
:10148000023BF6D20BE051F8043B00F8013B1B0A8B
:1014900020F8023B1B0C121F00F8013BF3D238BFAF
:1014A000121D521E24BF11F8013B00F8013BF8D871
:1014B0007047000010B5144600F002F8226010BD1D
:1014C000C1F30A5343B14A0012F5001F28D2A3F218
:1014D000FE32A1EB0251704750EA410C20D001F0DE
:1014E000004C31EA0C01B1FA81F204BFB0FA80F38A
:1014F000D2180B3AB2F120032CBF00FA03F191404D
:1015000041EA0C013EBFC2F1200C20FA0CF3194352
:101510009040524240F2FD33D21A01EB0351704722
:10152000002270474FF4001C1CEB410F94BF1CEBD2
:10153000430F09E041EA030C50EA4C0C52EA0C0C50
:1015400003D2994208BF9042704714BF8B42824237
:10155000704700004FF4001C1CEB410F94BF1CEBC4
:10156000430F09E041EA030C50EA4C0C52EA0C0C20
:1015700003D28B4208BF8242704714BF9942904207
:1015800070470000124254D440F2FF7C1CEA115311
:101590000FD0634531D09B1863453CBF01EB02512E
:1015A000704701F0004141EA0C510020AFF3008088
:1015B000704750EA410320D001F0004C91EA0C0141
:1015C0001CD0B1FA81F30B3B9A420DD9D21A994043
:1015D00051EA0C01C3F1200C20FA0CFC6144984044
:1015E000531C40F2FF7CD7E7914041EA0C01C2F165
:1015F000200C20FA0CF3194390407047B0FA80F3A6
:101600001533202BE0D3202AEED3203A203B9A42F8
:1016100009D9D21A00FA03F141EA0C010020531C47
:1016200040F2FF7CB8E700FA02F141EA0C01002029
:101630007047524240F2FF7C1CEA11530DD06345C3
:10164000DBD0B2EB030C3CBFA1EB025170470CF1B5
:10165000010221EA035141F4801150EA410CCCD03F
:1016600001F0004C352A27DC30B481EA0C01B2F1DC
:10167000200309DAC2F12003044601FA03F5D04041
:101680002843D1409C400CE0C3F12002450020FAE1
:1016900003F418BF44F0010421FA03F091400C4315
:1016A000002174F1004550F1000051EB0C0124427F
:1016B00030BC7FF47BAF70476146002076E70000C6
:1016C000C1F30A5340F2FE329B1A14DDD3F120031A
:1016D0004FEAE17208DDC90241EA505141F0004091
:1016E000D84080185040704703F2E13010B1D24327
:1016F00082F000407047002070470000C11768B1B9
:101700004840401AB0FA80F29040D21CC907C2F596
:10171000846241EA025202EBD0214005704700008A
:1017200070B44FF0004591EA030F40F1C3816B4064
:10173000841A71EB030603D2001BB14112197341E5
:101740004FF4001C1CEB410F34BF7CEB430442E020
:101750000C0DA4EB1356352E4FDC45EAC323DB0AF0
:1017600045EAC121C912B6F120050DDD63FA05F67F
:10177000EB4086EA0305124218BF45F00105C01888
:1017800051F100010CD213E062FA06F5F240554027
:10179000F3415A40B340F3405A408018594107D3AF
:1017A00049085FEA30005FEA350528BF45F00105CA
:1017B00001F58011420875F1004250F1000041EB43
:1017C00004514E0016F5001F70BC38BF7047002052
:1017D000090D090570471CEB410F10D252EA430670
:1017E0000BD0BCEB410F05D80C0DAB43661E342E5D
:1017F000B6DD02E0AB438018594170BC704770BC45
:1018000070470000F0B540F2FF7581EA030C0CF060
:10181000004C15EA11541DBF15EA1357AC42AF42F4
:10182000E5E0BC41C1F31301C3F31303801A9941EE
:1018300043F4801304D2641E40004941801859418A
:10184000C90241EA5051B1FBF3F603FB1611A2FBAA
:101850000675D7EBC020A94102D2761E80185941E7
:10186000C90241EA5051B1FBF3FE03FB1E11A2FB7A
:101870000E75D7EBC020A94103D2AEF1010E80183E
:101880005941890241EA9051760546EA8E2EB1FB14
:10189000F3F603FB1611A2FB0675D7EB8020A941D6
:1018A00002D2761E80185941C90241EA50514EEACF
:1018B000060EB1FBF3F603FB1611A2FB0675D7EB80
:1018C000C020A94102D2761E80185941C90241EABE
:1018D0005051B1FBF3F703FB1711A2FB0735D3EB14
:1018E000C020A94167F100070CBF004247F0010783
:1018F00066F3D5274FEA1E31B80814F5806412DD6F
:10190000BD0775F1004250EB0E5051EB045111F53B
:10191000801F5CBF41EA0C01F0BD4CF07F6141F0DB
:10192000E0410020F0BDBD076D0840EA0E5041F4D3
:101930008011D4F10104B4F120060ADAC4F12006C2
:101940000200E04001FA06F3E1401843B2401543BB
:101950000EE0342C13DCC6F1200445EA40056D0886
:1019600020FA06F2154321FA06F0A1400D430021AA
:1019700075F1004250F1000051EB0C01F0BD002068
:101980005FEA0C01F0BDCFB992185B41B3FA83F75F
:1019900004BFB2FA82F6BF190B3FB7F120062FBF82
:1019A00002FA06F3BB40C7F1200622FA06F638BF5A
:1019B0003343BA401CB1E419641E33E77F4231F06F
:1019C0000041B1FA81F404BFB0FA80F6A4190B3CCF
:1019D000B4F120062FBF00FA06F1A140C4F12006A1
:1019E00020FA06F638BF3143A0403C1B1AE7AC4250
:1019F0001ABF05EA1357AF4212E050EA41061CBF76
:101A000052EA4306BFE750EA4107304661461CBF31
:101A100041EA0551F0BD52EA430C08BFC143F0BD95
:101A200000204FF4001616EB410F98BF16EB430F42
:101A300008BF16EB410F24BFC14305E016EB430F6F
:101A40000CBF61464CEA0551F0BD0000400D49183D
:101A500040EA81200CD2490DA1F58061491C40F07B
:101A6000004005DBD1F11F0154BFC840C0177047CB
:101A700000207047014648B1B0FA80F18840C91C87
:101A8000C1F58461090501EBD021400570470000D4
:101A90000048704720000020012000F0C1B800007D
:101AA0007047000070B44FF0004591EA030F7FF5D6
:101AB0003FAE6B40841A71EB030604D26E40001BEC
:101AC000B141121973414FF4001C1CEB410F34BF9C
:101AD0007CEB430683E00C0DA4EB1356362E00F38B
:101AE0007C80012E45EAC32341DC43EA525312BFF6
:101AF000D20292025B08240545EAC12141EA505115
:101B0000D2EBC020994125D407D1B0FA80F610FA63
:101B100006F162D00020203608E0B1FA81F6B1402B
:101B2000C6F1200220FA02F21143B0404FEAF474E9
:101B3000B4EB465434F001064FEA74040AD8D6F5E3
:101B40000016760D04F00044F04061FA06F25040B1
:101B5000F1404840C00A40EA415021F0004128BF0E
:101B60005FEA500550F1000044EBD12135E0DB0A7B
:101B700045EAC121C90AB6F120050EDD42EA02425A
:101B8000120CC5F1200603FA06F6EB4042EA060500
:101B90006D42984161F100010DE062FA06F5F240F4
:101BA000554063FA06FC82EA0C02F3405A406D424B
:101BB000904161EB030111F4801F05D1641E6205A1
:101BC00002D06D004041494121F48011430875F174
:101BD000004350F1000041EB045170BC70471CEB16
:101BE000410F15D223F0004352EA43060BD04FEACF
:101BF0004C0CBCEB410F04D80C0D661E342EB7DD27
:101C0000EBE7801A994150EA410608BF0021E4E75A
:101C100008BF1CEB430F28BF6FF00001DDE7000099
:101C200080B5AFF30080024A11001820ABBEFBE77D
:101C3000260002002DE9FC47040000F09181DFF846
:101C4000DC76BD6805F00C05BE6806F480362078A9
:101C5000C0070DD5082D04D00C2D47D1B6F5803F17
:101C600044D13868800303D56068002800F078818B
:101C70002078800713D5042D03D00C2D79D1002EA8
:101C800077D13868800703D5E068012840F0688183
:101C9000786820F4F850216940EA012078602078C3
:101CA000C00640F17481002D40F0B1803868800595
:101CB00003D5A069002800F05381206A796801F4F7
:101CC0006041814278D200F0ECFA002840F048816F
:101CD000796821F46041206A01437960786820F0D6
:101CE0007F40E16940EA0160786077E06068012840
:101CF00004D1386840F4803038601CE0002808D1F6
:101D0000386820F480303860386820F480203860EB
:101D100011E00528386807D140F480203860386821
:101D200040F48030386006E020F480303860386855
:101D300020F480203860606800280DD000F008FB97
:101D400080463868800393D400F002FBA0EB0800C3
:101D50006528F6D3032091E100F0FAFA804638684E
:101D6000800385D500F0F4FAA0EB08006528F6D3CF
:101D7000F0E7DFF8B415E06800280ED00120086015
:101D800000F0E6FA06463868800700F1EB8000F0C4
:101D9000DFFA801B0228F6D9DCE70020086000F09B
:101DA000D7FA0646386880077FF579AF00F0D0FA99
:101DB000801B0228F6D9CDE7796821F460410843F9
:101DC0007860786820F07F40E16940EA01607860DF
:101DD000206A00F066FA002840F0C2800120216AE3
:101DE000490B491C8840C003DFF84015BA68C2F3AC
:101DF0000312895CC840DFF828150860DFF8240565
:101E0000006800F0ABFA010000F0C18036E1DFF8B5
:101E10001815A069002816D00120086200F098FA71
:101E200006463868800500F1A58000F091FA801B15
:101E30000228F6D98EE700F08BFAA0EB0800022802
:101E400040F2B38086E70020086200F081FA06467F
:101E50003868800540F19B8000F07AFA801B0228E8
:101E6000F6D977E70020086000F072FA0646786B32
:101E7000800740F19E8000F06BFA801B0228F6D9A3
:101E800068E7002808D1786B20F480707863786B5D
:101E900020F48060786311E00528786B07D140F466
:101EA00080607863786B40F48070786306E020F49B
:101EB00080707863786B20F480607863A068002875
:101EC0000ED000F045FA0646786B800500F1A78039
:101ED00000F03EFA801B41F289318842F4D339E7A1
:101EE00000F036FA0646786B800540F1988000F0E5
:101EF0002FFA801B41F289318842F4D32AE700F09F
:101F000027FAA0EB0800022840F2A08022E700F0A8
:101F10001FFA001B022840F2AC801BE70020286655
:101F200000F016FA04463868800140F1A68000F0FF
:101F30000FFA001B0228F6D90CE7012810D0B86868
:101F400000F48031A26A91420AD100F47011E26A71
:101F5000914205D100F44000216B884200F08D8051
:101F600001208BE0786820F4F850216940EA0120D4
:101F7000786094E6796821F46041206A01437960D1
:101F8000786820F07F40E16940EA0160786020785D
:101F900000070ED5DFF89813606900283FF462AFA0
:101FA0000120086000F0D4F98046786B80077FF547
:101FB00042AF2078400739D54FF00008786AC0005A
:101FC0000AD4786A40F080507862786A00F08050D5
:101FD000009000984FF00108DFF85893D9F80000FE
:101FE000C00513D4D9F8000040F48070C9F800008F
:101FF00000F0AEF98246D9F80000C00506D400F022
:10200000A7F9A0EB0A006528F5D3A3E6A06801288C
:102010007FF437AF786B40F4807078634EE7B8F1A7
:10202000010F03D1786A20F080507862606A00283E
:1020300023D00C2D3FF481AFDFF8EC5202287FF45F
:102040006DAF0020286600F083F980463868800173
:102050003FF555AFB96821F47D01A06A0143E06AFC
:102060000143206B0143B9600120286600F070F93C
:102070000446386880017FF54AAF0020BDE8F68746
:102080002DE9F04104460F46002C00F0AF80DFF848
:10209000A862306800F00100B84210D2012F03D1CD
:1020A000306840F0040030603068400857EA400073
:1020B0003060306800F00100B84240F09780DFF8EF
:1020C0005C522078800705D5A96821F0F001A0684E
:1020D0000143A9602078C00773D56068022803D146
:1020E000296889030ED481E0032803D12968890176
:1020F00008D47BE00128296802D1890702D475E061
:10210000890573D5A968890850EA8100A86000F0A4
:102110001FF98046606802280ED1A86800F00C0004
:1021200008284ED000F014F9A0EB080041F28931E4
:102130008842F2D3032042E003280DD1A86800F0C2
:102140000C000C283DD000F003F9A0EB080041F290
:1021500089318842F2D3EDE7012849D1A86800F01F
:102160000C0004282DD000F0F3F8A0EB080041F299
:1021700089318842F2D3DDE72078400705D5A96888
:1021800021F4E061E0680143A9602078000706D5EA
:10219000A86820F46050216940EAC100A86000F0FE
:1021A00034F86249AA68C2F30312895CC8405C49EA
:1021B00008605C480068BDE8F04100F0CFB8BDE8B9
:1021C000F081306800F001008742D5D2012F03D1A1
:1021D000306840F0040030603068400857EA400042
:1021E0003060306800F00100B842C5D00120E6E759
:1021F000A86810F00C0FE4D000F0AAF8A0EB0800DB
:1022000041F289318842F3D394E710B44C484168D5
:1022100001F00C02042A04D0082A04D00C2A05D0AC
:102220001CE0484822E04FF461001FE0464AC1F339
:102230008343D45CC1F38152521C00234068C00325
:1022400006D54FF46100A0FB040110BCFEF7F4BEFC
:102250003C48A0FB040110BCFEF7EEBE0068C0F3D2
:1022600042300121401C01FA00F0C00310BC70474D
:102270002B480068704780B5FFF7FAFF33492F4AB3
:102280001268C2F30222895CC84002BD80B5FFF724
:10229000EFFF2E49294A1268C2F3C222895CC84066
:1022A00002BD18B40021254A136813F0F00F1ED1A7
:1022B000204BD469E40003D51B6803F4C0530FE03E
:1022C000D46944F08054D461D46904F080540094FB
:1022D000009C1B6803F4C053D46924F08054D4617B
:1022E000B3F5C05F03D1B0F5404F00D101211248D2
:1022F000012903D1026842F0040202600268520818
:1023000051EA42020260006800F00100884201D0F8
:10231000012000E0002012BC70470000003802409D
:102320000C0000200400002000004742C05B0008B1
:102330008006474200700040003C024008380240DE
:10234000043802400024F400B45B0008405C00083C
:1023500001480068704700BF0000002070B50446C7
:102360000025104EB068002819D04FF47A71B1FBE7
:10237000F0F00D490968B1FBF0F000F081F8002899
:102380000BD1102C07D22A4621464FF0FF3000F027
:1023900067F8746004E0012502E0012500E00125F2
:1023A000284670BD000000200C000020354A13684C
:1023B0004FF6FF010B40000200F4E0601843324981
:1023C0000843106070472F480068C0F30220704730
:1023D000010007D4012200F01F018A402B49400967
:1023E00041F8202070470901020002D42848815496
:1023F0007047284802F00F02104400F8041C704790
:1024000010B400F00700C0F10703052B00D304232C
:10241000041D072C01D2002000E0C01E012404FA94
:1024200003F35B1E1940814004FA00F0401E104087
:10243000084310BC704710B5401EB0F1807F01D337
:10244000012010BD144C60600F214FF0FF30FFF7EA
:10245000CAFF0020A06007202060002010BDA5E773
:1024600070B504460D461646FFF7ADFF32462946C5
:10247000FFF7C6FF01462046BDE87040B3E7A7E777
:10248000D9E700000CED00E00000FA0500E100E0F3
:1024900000E400E018ED00E010E000E038B50400D2
:1024A00001D1012032BD04F140056878002804D133
:1024B00000202870204600F0AEFB242068702068C1
:1024C000C16821F40051C160204600F0F9FA20688B
:1024D000016921F4904101612068416921F02A01DC
:1024E00041612068C16841F40051C160002068600A
:1024F00020206870A8700020606332BD2DE9FC4187
:1025000006460D4614461F4696F8410020283DD148
:10251000002D01D0200001D1012038E0002070649E
:10252000212086F84100FFF713FF8046B484F4842D
:10253000B068B0F5805F04D13069002801D1002473
:1025400011E02C4600250EE014F8011B416007E065
:102550003068002CF8D135F8021BC1F30801416046
:10256000F08C401EF084F08C00280097434610D079
:1025700000228021304600F065F90028E8D00320D1
:1025800005E0202086F84100002000E00220BDE8A0
:10259000F68100224021304600F054F90028F0D0A6
:1025A0000320F4E718B400F130039C7C202C0AD1FE
:1025B000002901D0140001D1012005E000241C6095
:1025C00018BC00F082B9022012BC70477CB50446EA
:1025D00025682968EA686B6911F00F0007D18E063B
:1025E00005D5960603D52046BDE87640FCE10028D7
:1025F0006ED0D80702D412F4907F69D00846C00785
:1026000005D5D00503D5606C40F001006064480733
:1026100006D51846C00703D5606C40F00200606420
:10262000880706D51846C00703D5606C40F0040043
:102630006064080707D5900601D4D80703D5606CFD
:1026400040F008006064606C002800F0FA808806A2
:1026500004D5900602D5204600F0C6F920684069EE
:10266000800900F00100616C090701D4002829D01D
:10267000204600F046F92068406940061DD52068D4
:10268000143050E8001F21F04001206800F11402CE
:1026900042E800100028F2D1E06B00280DD00FF2C4
:1026A000C5214163E06B00F02BFC002800F0C980DD
:1026B000E06B416BBDE87C4008472046BDE87640B2
:1026C00000F0C2BC204600F0BFFC0020606473BD77
:1026D000206B012840F0A580C80640F1A280D006FA
:1026E00040F19F800020009028680090686800906A
:1026F00000986869400656D5E06B0068406880B273
:10270000002800F09E80A18D884280F29A80E085AA
:10271000E06B806920283BD020680C3050E8001F17
:1027200021F48071206800F10C0242E800100028BA
:10273000F2D12068143050E8001F49084900206891
:1027400000F1140242E800100028F2D12068143091
:1027500050E8001F21F04001206800F1140242E817
:1027600000100028F2D1202084F8420000202063CD
:1027700020680C3050E8001F21F01001206800F1A3
:102780000C0242E800100028F2D1E06B00F092FB4E
:1027900002206063A18DE08D091A89B22046BDE850
:1027A0007C4000F052BCA08DE18D411AE08D0028E4
:1027B00047D0084680B2002843D020680C3050E84B
:1027C000002F22F49072206800F10C0343E80020EF
:1027D0000028F2D12068143050E8002F520852002F
:1027E000206800F1140343E800200028F2D12020E3
:1027F00084F842000020206320680C3050E8002F4D
:1028000022F01002206800F10C0343E800200028A9
:10281000F2D10220606389B22046BDE87C4000F01E
:1028200014BC080605D5100603D52046BDE8764041
:102830009EE0480605D5500603D52046BDE8764003
:10284000C5E073BD2DE9F04105460E461746984692
:10285000069C286800683040B04201D1012000E0A9
:102860000020394688422DD114F1010FF1D0002CFF
:1028700005D0FFF76DFDA0EB08008442E9D228687F
:102880000C3050E8001F21F4D071286800F10C02D0
:1028900042E800100028F2D12868143050E8001FE8
:1028A00049084900286800F1140242E80010002895
:1028B000F2D105F1400020214170817000210170AA
:1028C000032000E00020BDE8F08181628285C2859E
:1028D00000214164222180F842100169002904D0BE
:1028E0000168CA6842F48072CA6001684A6942F0AD
:1028F00001024A610068C16841F02001C160002006
:10290000704701680C3151E8002F22F49072016881
:1029100001F10C0343E800210029F2D101681431D0
:1029200051E8002F52085200016801F1140343E8F6
:1029300000210029F2D1016B01290CD101680C3171
:1029400051E8002F22F01002016801F10C0343E866
:1029500000210029F2D1202180F8421000210163DA
:1029600070470000406A0021C185C18400F06CBB43
:1029700090F84110212928D18168B1F5805F0CD1F0
:102980000169002909D1016A0988C1F308010268B7
:102990005160016A891C016205E0016A4A1C0262F9
:1029A000097802685160C18C491EC18489B200292E
:1029B00009D10168CA6822F08002CA600068C16853
:1029C00041F04001C160002070470220704780B58F
:1029D0000168CA6822F04002CA60202180F84110D4
:1029E00000F034FB002002BD80B590F8421022298F
:1029F00064D18268B2F5805F0CD10169002909D1E8
:102A000001684968C1F30801826A1180816A891CE2
:102A1000816214E0836AB2F5805F04D0002A06D197
:102A20000169002903D101684968197004E001684F
:102A3000496801F07F011970816A491C8162C18D6A
:102A4000491EC18589B2002936D10168CA6822F0C1
:102A50002002CA600168CA6822F48072CA600168F4
:102A60004A69520852004A61202180F84210002130
:102A70004163016B01291DD10021016301680C3103
:102A800051E8002F22F01002016801F10C0343E825
:102A900000210029F2D101680A68D20606D5002279
:102AA00000920A680092496800910099818D00F0B7
:102AB000CCFA01E000F0EFFB002002BD022002BDD5
:102AC00010B5044621680A6922F44052E0680243C6
:102AD0000A612168CA6828480240A0680243206948
:102AE000024360690243E0690243CA6021684A699F
:102AF00022F44072A06902434A6120681F4988425B
:102B000002D1FFF7C3FB01E0FFF7B5FB6368226862
:102B1000192148436421E469B4F5004F16D15B00E4
:102B2000B0FBF3F00B46B0FBF3F301FB1301C9005C
:102B300032316420B1FBF0F0410001F4F87101EB97
:102B4000031100F007004018906010BD9B00B0FB1F
:102B5000F3F00B46B0FBF3F301FB13010901323133
:102B60006420B1FBF0F000F0F00101EB031100F084
:102B70000F004018906010BDF369FFFF003801405E
:102B800080B57E487E4901604FF4E131416000210B
:102B90008160C16001610C21416100218161C161DD
:102BA000FFF77CFC002803D0BDE8014000F020BD09
:102BB00001BD80B57348744901604FF416514160FE
:102BC00000218160C16001610C21416100218161AE
:102BD000C161FFF763FC002803D0BDE8014000F0AD
:102BE00007BD01BD80B56948694901604FF41651C0
:102BF000416000218160C16001610C2141610021BF
:102C00008161C161FFF74AFC002803D0BDE80140A3
:102C100000F0EEBC01BD10B586B004466846142134
:102C200000F0F2FC20685649884241D15948816839
:102C300041F480118160816801F48011059105994A
:102C4000016841F004010160016801F0040105918F
:102C50000599016841F008010160006800F0080072
:102C6000059005984FF480500090022001900120BB
:102C7000029003200390082004906946464800F023
:102C8000C7FC042000900220019001200290032044
:102C90000390082004906946404800F0B9FC0022E7
:102CA00011463120FFF7DCFB3120FFF7E8FB59E04C
:102CB0003549884229D13748816841F40031816023
:102CC000816801F4003105910599016841F0010125
:102CD0000160006800F00100059005980C2000904C
:102CE000022001900020029003200390072004900E
:102CF00069462B4800F08CFC002211462620FFF785
:102D0000AFFB2620FFF7BBFB2CE02149884229D1ED
:102D10002048816841F480218160816801F480212C
:102D200005910599016841F002010160006800F019
:102D30000200059005984FF4406000900220019039
:102D40000020029003200390072004906946154854
:102D500000F05EFC002211462720FFF781FB2720B0
:102D6000FFF78DFB06B010BD01B54FF6FF730122D2
:102D700069460248FFF7C2FB009802BD4C090020DB
:102D8000005000409409002000440040DC0900206D
:102D9000004800401C38024000080240000C02407D
:102DA000000002400004024010B4002801D10120BC
:102DB00037E0036800F138021B498B4209D21B49F6
:102DC000CB181421B3FBF1F18900916018495160CF
:102DD00008E01849CB181421B3FBF1F18900916088
:102DE00015495160022180F8211003681C686FF3B7
:102DF0000E1441680C4381680C43C1680C4301699F
:102E00000C4341690C4381690C43C1690C431C604C
:102E100000211160012180F82110002180F820108C
:102E2000084610BC7047000008640240F89FFDBFD0
:102E300000600240F89BFDBF00640240F8B5044604
:102E4000002594F82000012801D10220F2BD0120C4
:102E500084F8200094F82100012825D1022084F86C
:102E6000210004F12C062846F060206807687F08DE
:102E70007F000760204600F0CFF821683068002806
:102E8000086803D040F00E00086007E020F004005E
:102E900008602068016841F00A010160206801684B
:102EA00041F00101016003E0284684F8200002257A
:102EB0002846F2BD00F1380190F82120022A06D000
:102EC00004220A60002180F8201001207047026867
:102ED000136823F00E031360026813685B085B003D
:102EE000136001220B7A03F01C039A4049684A6080
:102EF000012180F82110002180F820100846704739
:102F000010B5002400F1340190F82120022A03D0EA
:102F10000420486001241AE00268136823F00E03BD
:102F20001360026813685B085B00136001220B7B6F
:102F300003F01C039A408B685A60012280F821201C
:102F4000224680F820200968002900D088472046C2
:102F500010BDF0B400F128014A69146802681568D0
:102F60000E7E06F01C06042303FA06F73C4213D03B
:102F70006F0711D51468A40603D4146824F0040460
:102F800014600A7E02F01C0293404A69536049684B
:102F900000293ED0F0BC0847022303FA06F73C4262
:102FA00019D0AF0717D51468A40606D4146824F006
:102FB0000A041460012280F821200A7E02F01C021B
:102FC00093404A695360002280F820200968002954
:102FD0001FD0F0BC0847082303FA06F6344218D085
:102FE0002B0716D5136823F00E03136001220B7E06
:102FF00003F01C039A404B695A6001220A6180F871
:103000002120002280F820208968002901D0F0BC0E
:103010000847F0BC7047000030B4012490F84050DD
:1030200005F01C05AC40C56B6C6004686360036808
:103030004468102C03D19A600068C16002E0996076
:103040000068C26030BC704770477047704700002E
:10305000F8B58EB0DFF8A443204600F0E5FBDFF8BA
:10306000A01384B068464822FEF7E0F90FBC00F0D8
:10307000ABFDDFF8905301202870DFF88C632878CF
:10308000002809D03078002806D1DFF880030078C6
:103090000028F4D0012030703078002839D1042085
:1030A000DFF86C7310E0DFF86C1300EBD072521095
:1030B00002EB820301EB03113A5C7B1C1B5C43EACD
:1030C0000223A1F80032801C1428ECDB0022FF212F
:1030D000384600F089FD204600F0A6FBDFF83813E3
:1030E00084B068464822FEF7A1F90FBC00F06CFDE1
:1030F000012028702878002808D03078002805D1D1
:10310000C24800780028F5D00120307030780028BF
:1031100009D00020C1490870132170200FB0BDE80C
:10312000F04001F01FB804200FE0BA4900EBD07264
:10313000521002EB820301EB03113A5C7B1C1B5C17
:1031400043EA022321F8803C801C1428EDDB002296
:10315000FF21384600F048FD204600F065FBB04DE9
:1031600010222946AF4801F01DF9AF49012008702F
:1031700008780028FCD1AD4C10222146284601F0E9
:10318000D1FA00252AE030894FF0010C0CFA03FC3B
:1031900010EA0C0F0DD002F1200001FB03FC30F807
:1031A0000C00BC465FFA8CFC06EB4C0CACF8200023
:1031B0007F1C5B1C102BE6DB306C0290F06B0190E7
:1031C000B0790090B07F034606F12002B07A014644
:1031D00006F10C0001F075FC70636D1C102D58DABF
:1031E00050218C4A01FB05F0161896F84C00002877
:1031F000F3D0605DB0777079A12809D0EDD3A32812
:1032000024D011D3A52837D02CD3A6283ED0E4E76C
:10321000F06B0090B07F0346328CB07A0146B089E3
:1032200001F069FB7063D8E7B06C0390706C02909A
:10323000306C0190F06B0090B07F0346328CB07A16
:103240000146B08901F0AFFB7063C6E7F06B0090F8
:10325000B07F0346328CB07A0146B08901F0EEFAB5
:103260007063BAE7B07F0346328CB07A0146B0890A
:1032700001F0A6FA7063B0E7B07F0346328CB07AF3
:103280000146B08901F05EFA7063A6E700273B466D
:1032900090E70FB0F0BD2DE9F8430446644D29785E
:1032A000644801702068644A904202D0634A9042A8
:1032B0004DD1634E307800283FD0624F3878DFF828
:1032C0005081024608F80210401C3870DFF87891EF
:1032D00099F8000088422DD1AA292BD098F8030034
:1032E000052807D101204D4908700022FF214046E2
:1032F00000F07AFC98F80300732802D100205349AB
:10330000087000203870307089F800003D4908705E
:10331000012229463A48FFF745F9012229463E484D
:10332000FFF740F9354C204600F0ACFA0020216848
:10333000486229E0091889F800100122294630481E
:10334000FFF730F9012229463348FFF72BF92068AF
:103350003F49884218D13B4801782A783D4B0C46BA
:103360001A55491C01703C4C204600F08BFA002095
:1033700021684862204600F057FA01222946374862
:10338000BDE8F843FFF70EB9BDE8F18300683449A2
:10339000884205D1002024490870184800F072BA0C
:1033A000704710B504462068B0F1804F11D1134822
:1033B00000210268516200F037FA012013490870B9
:1033C00000201049087015490870204908701D49EF
:1033D00008702068234988420FD11F4C204600F016
:1033E00051FA002021684862164801781E4A11707F
:1033F0000021017001201D49087010BD680A0020DD
:10340000DC090020A0060020A3060020A106002061
:10341000A8070020A000002094090020A506002095
:10342000E80A0020A8080020490B0020080B002013
:10343000A7060020480B0020004800400044004040
:103440004D0B00204B0B00204A0B0020A206002051
:1034500000500040A0050020A80A00204C090020D0
:1034600000240140000400404C0B0020A406002072
:1034700070B58EB001F002FC00F077F801F00EFCA0
:1034800001F06AFC01F080FCFFF7ACFBFFF791FB59
:1034900001F0E6FDFFF774FB01F020FE4E4C04F254
:1034A00007164E4D012231462846FFF77BF80122D0
:1034B00031464B48FFF776F8012231464948FFF77D
:1034C00071F801F0D2FE01F0B8FE00BF49A001F092
:1034D000E5FE04F5807601E000F0A6F90020F0702A
:1034E0003079002803D00020307100F0B1FB7079F2
:1034F000002810D13C4831780029EDD101213170EC
:1035000000F092F9294684B068464822FDF78EFF04
:103510000FBC00F04DFB7079002816D0B078002861
:1035200013D0FFF795FDB078012802D1207900F083
:103530003EFDB078032801D100F09BFDB07805284E
:1035400001D100F02AFE0020B0707078002808D069
:103550007079002805D0002070701321B07900F038
:1035600001FE322001F0AEFEB8E780B592B005A8AA
:10357000342100F049F86846142100F045F81B4852
:10358000016821F4C05141F4006101600B200590F5
:1035900005200690012008901020099001200A9033
:1035A00000200E9005A8FEF745FB002801D000F092
:1035B0001FF80F200090022001900020029003903D
:1035C000049001466846FEF75BFD002801D000F03C
:1035D0000FF813B000BD0000A0050020DC0900209A
:1035E000940900204C090020680A00200070004067
:1035F00072B6FEE754544D3A52454E2D495344326B
:103600003139300D0A000000002201F06FBE0000C9
:10361000F8B502460B4600242DE04FF0070C05E0FC
:10362000DFF8A0C16245F8D14FF0060C0CFA06FC99
:103630004CEA070C45F821C063498E68C5432E400B
:103640005F68FF0200D506438E60CE682E405F683B
:10365000BF0200D50643CE604E682E405F68BF03B0
:1036600000D506434E600E682E405D68ED0300D520
:1036700006430E60641C18680146E14000F0998022
:103680000127A7403840F5D0610003258D40ED4368
:103690005E6806F0030CBCF1010F03D006F00306D0
:1036A000022E10D196682E40D3F80CC00CFA01FC03
:1036B0004CEA060696605668BE435F68C7F300177B
:1036C000A7403E4356601E7906F00306032E05D040
:1036D000D6682E409F688F403E43D6601E7906F024
:1036E0000306022E15D12646F60802EB86073E6A2F
:1036F0004FEA840C0CF01C0C4FF00F0E0EFA0CFE6F
:1037000026EA0E06D3F810E00EFA0CFC4CEA060688
:103710003E6216682E401D7905F0030505FA01F199
:103720000E431660596811F4403FA3D027490D6835
:1037300045F001050D60096801F001010091009953
:1037400021468908224D55F82170A60006F00C0686
:103750004FF00F0C0CFA06FC27EA0C07DFF874C0D8
:10376000624502D14FF0000C60E7DFF86CC06245A3
:1037700002D14FF0010C59E7DFF860C0624502D179
:103780004FF0020C52E7DFF858C0624502D14FF00B
:10379000030C4BE7DFF84CC0624502D14FF0040C3C
:1037A00044E7DFF844C062457FF43AAF4FF0050CC0
:1037B0003CE7F1BD002A01D08161704709048161B5
:1037C0007047000000180240000401402038024009
:1037D00008000140000002400004024000080240CE
:1037E000000C0240001002400014024038B50400F2
:1037F00001D1012032BD04F138056878002804D1D8
:1038000000202870204601F0A0FC02206870211DD5
:10381000206800F04EF90120A871A870E8702871A6
:1038200068716870002032BD90F83910012901D00C
:1038300001207047022180F839100168CA6842F0FF
:103840000102CA600068B0F1804F0BD0DFF85C1055
:10385000884207D0DFF85810884203D0DFF85410B0
:10386000884209D1816801F00701062908D0016862
:1038700041F00101016003E0016841F001010160D4
:10388000002070470168CA6852085200CA60016887
:103890000A6A41F211131A4203D10A68520852000F
:1038A0000A60012180F839100020704700040040B0
:1038B000000800400008014010B504462068016976
:1038C000890717D5C168890714D56FF00201016116
:1038D000012020762068806910F0030F204602D076
:1038E00001F01DFD04E001F01BFD204601F019FD73
:1038F0000020207620680169490717D5C16849076B
:1039000014D56FF0040101610220207620688069DF
:1039100010F4407F204602D001F001FD04E001F0E8
:10392000FFFC204601F0FDFC0020207620680169A4
:10393000090717D5C168090714D56FF0080101619F
:10394000042020762068C06910F0030F204602D0C2
:1039500001F0E5FC04E001F0E3FC204601F0E1FCAD
:103960000020207620680169C90617D5C168C906FC
:1039700014D56FF010010161082020762068C0691D
:1039800010F4407F204602D001F0C9FC04E001F0B1
:10399000C7FC204601F0C5FC0020207620680169A4
:1039A000C90708D5C168C90705D56FF001010161D4
:1039B0002046FFF7F6FC2068016949060AD5C16870
:1039C000490607D56FF0400101612046BDE810406F
:1039D00001F0A8BC10BD70B50646002406F13805FC
:1039E0002878012801D1022070BD01202870022012
:1039F000687033689A68DFF82C0102409A600868A2
:103A000002004AD0102A48D0202A46D0302A44D07A
:103A1000402A38D0502A22D0602A2AD0702A06D0D4
:103A2000B2F5805F3FD0B2F5005F0CD03AE0CB68D2
:103A30004A688968306800F0B0F83168886840F0FA
:103A4000770088602FE0CB684A688968306800F0AA
:103A5000A4F83068816841F48041816023E0CA683D
:103A60004968306800F06CF85021306800F08DF83B
:103A700019E0CA684968306800F074F8602130685D
:103A800000F083F80FE0CA684968306800F058F821
:103A90004021306800F079F805E00146306800F018
:103AA00074F800E00124012068700020287020468E
:103AB00070BD0368B0F1804F0BD01B4A904208D014
:103AC0001A4A904205D01A4A904202D0194A9042AE
:103AD00003D123F070034A681343B0F1804F11D033
:103AE000114A90420ED0114A90420BD0104A904297
:103AF00008D0104A904205D00F4A904202D00F4A97
:103B0000904203D123F44073CA68134323F0800327
:103B10000A69134303608A68C262096881620121ED
:103B2000416170478800FFFF00040040000800402A
:103B3000000C004000080140000C01400010014052
:103B400010B4036A046A640864000462846924F09F
:103B5000F00444EA0214846123F00A031943016269
:103B600010BC704710B4036A046A24F010040462A5
:103B7000846924F4704444EA0234846123F0A0038D
:103B800043EA0113036210BC7047826822F070029E
:103B9000114341F007018160704710B4846824F438
:103BA0007F442143114341EA0321816010BC7047E7
:103BB0000FB480B54FF6FF730722094902A8FEF73C
:103BC0009DFC01BC5DF814FB0FB480B54FF6FF738C
:103BD0000522044902A8FEF791FC01BC5DF814FB24
:103BE000100000201800002062F30F2262F31F4231
:103BF000401810F0030308D0C91A1FD3DB0748BFD1
:103C000000F8012D28BF20F8022D130030B414460F
:103C10001546103928BF20E93C00FAD8490728BFCB
:103C200020E90C0048BF40F8042D890028BF20F887
:103C3000022D48BF00F8012D30BC7047C91818BFCD
:103C400000F8012DCB0728BF00F8012D70470000B8
:103C50002DE9F843DFF878452078A02840F0A180CE
:103C6000A078012840F09D80DFF8685528786178B9
:103C7000884206D01521012000F074FA0020287037
:103C80008FE001462144891E0A784E7846EA0226D2
:103C9000811EC9B2204600F0A9FA864204D0142140
:103CA000E078BDE8F4435DE2E278DFF82C050270CD
:103CB00000202870402A70D0502A19D0602A10D0D5
:103CC000612A12D0702A02D0712A05D069E0012041
:103CD000DFF80815087064E00320DFF800150870AD
:103CE0005FE02079BDE8F2435DE0BDE8F143C7E065
:103CF000A37AE27A42EA03220346054617E0022746
:103D00003836377512E004EB4E0898F80D9098F8A5
:103D10000E8048EA092806EB8E09C9F83C800EF1AE
:103D2000010EE046C645EEDB2E463E755B1C102BB1
:103D300025DA16461E41F607F8D5491CDFF8A064BF
:103D400003EB830706EB07162F00D8D10125184691
:103D5000002706E004F1040C1CF807C006F807C0B1
:103D60007F1C042FF6DD3281677A777106F1380700
:103D700094F80CC087F800C04FF0000ED1E7DFF8D0
:103D8000602400EB800302EB0310817101F01EFA46
:103D9000A0215020BDE8F443E4E10520DFF83C1405
:103DA0000870BDE8F183F8B5DFF83844A021217030
:103DB0000121A1706021E170002103E0525C6318D1
:103DC0001A71491CDFF81824034603EB830502EB44
:103DD00005120429F2DD5079607210890146090A42
:103DE000A172E0720C2000230BE002EB4305AD89C9
:103DF0002E46360A26540846C9B26554401C5B1C40
:103E0000DBB2411CC0B29579AB42EEDB937A23540E
:103E100092F838000B46DBB2E054491C002311E055
:103E200002EB8301CF6B39460914615531463D469B
:103E30002D12F6B2A555491C0D46EDB26755491C29
:103E40005B1CDBB24E1C0D46EDB20746BB42E7DB06
:103E5000881C6070C9B2204600F0C8F901460912FA
:103E600061553146C9B260544FF0FF33761CF6B24B
:103E700032462146DC4801B0BDE8F040FEF73EBBCB
:103E8000F8B50022D74DA02028700120A87061202D
:103E9000E8700524104620E001EB8607FF6BBC4666
:103EA0004FEA2C4CA6461FFA8EFE05F80EC0641C85
:103EB000BC464FEA2C2CA6461FFA8EFE05F80EC013
:103EC000641CA4461FFA8CFC05F80C70641C761C5C
:103ED000F6B21F46BE42DFDB401C10284ADAC0495A
:103EE00000EB800301EB031101F138031E7D012E6D
:103EF000F2D1521C002705E011F80CC005F804C0EF
:103F000034467F1C661CA4B2BC465FFA8CFCBCF134
:103F1000040FF1DD4F792F550C8927463F0AB4462F
:103F20001FFA8CFC05F80C70761C3746BFB2EC55B6
:103F3000761C00270FE001EB470CBCF80CC0E646EE
:103F40004FEA1E2E05F806E02646A4B205F804C086
:103F5000761C7F1CFFB2741CB6B291F806C0674590
:103F6000E9DB8F7AAF551B782646B6B2AB55641C99
:103F70000026AEE72A71A01C68702146C9B2284607
:103F800000F034F901460912224692B2A954641C89
:103F9000214689B268544FF0FF33641C224692B226
:103FA0002946914801B0BDE8F040FEF7A7BAF8B540
:103FB0008C4CA02121700121A1707021E1700021A1
:103FC00003E06A5C63181A71491C854A034603EBD7
:103FD000830512EB05150429F3DD68796072A87971
:103FE000A0720B2100220BE005EB42031B8C1F4645
:103FF0003F0A67543146F6B2A355491C521CD2B24F
:104000004E1CC9B203469A42EEDB00206054686B36
:1040100001F08AF96421024692B2120A4A433346F9
:10402000DBB2E254761C48433146C9B26054761C78
:10403000A87F3146C9B26054761CB01C607031460E
:10404000C9B2204600F0D2F8014609123246D2B277
:10405000A154761C3146C9B260544FF0FF33761C30
:10406000F6B232462146604801B0BDE8F040FEF7A6
:1040700045BA2DE9F0414FF000085A4CA0202070BD
:104080000120A0707120E070052546462BE007EB6B
:1040900041031B8C9C464FEA1C2C04F800C02846A8
:1040A000EDB26355401C491CC9B2451CC0B2134651
:1040B0009942ECDB00212154786B01F035F9642141
:1040C000024692B2120A4A432B46DBB2E2546D1CFE
:1040D00048432946C9B260546D1CB87F2946C9B20D
:1040E00060546D1C761C102E1FDA3D4806EB8601CD
:1040F00010EB011797F84C000128F3D108F10108E3
:10410000002103E0BA5C62550546491C681CEDB20B
:104110000A46D2B2042AF5DD79796155BA790146A9
:10412000C9B26254401C0021BFE784F80480A81C77
:1041300060702946C9B2204600F058F801460912BD
:104140002A46D2B2A1546D1C2946C9B260544FF020
:10415000FF336D1CEDB22A4621462348BDE8F041ED
:10416000FEF7CCB910B51F4CA02222700722627056
:104170000122A270E07021710521204600F036F87E
:10418000014609126171A0714FF0FF3307222146E9
:104190001548BDE81040FEF7B1B910B510480C49FC
:1041A000097901EB810200EB0210A0F14A042278A8
:1041B0005200A0F130014438FDF728F9207E20712B
:1041C00001F004F8A0214020BDE81040CAE700003B
:1041D000A00500204C0B0020A6060020A20600200F
:1041E000A0000020A80600204C09002030B40246A0
:1041F00000244FF6FF7009E080F4204080F00100B9
:1042000080B25B1C0CE030BC7047641C23460D463A
:10421000DBB2AB42F7D22346DBB2D35C584000237B
:104220001D46EDB2082DF0DA05466D10C007284690
:10423000E2D480B2E5E70000F8B504460025002C82
:1042400001D10120F2BD04F148067068002810D1A8
:104250002846B0603070DFF8E803016841F00101E2
:104260000160006800F0010000900098204600F016
:104270007BFE7068C00600F19280706820F4885060
:1042800040F002007060DFF8BC130A6822F440328C
:10429000606802430A6004F124031878E2686169E7
:1042A0000A43197E42EA4122216A0A43014642EA50
:1042B00041021F69102F02D059690F433A43216808
:1042C0000968490630D4A1690A432169B1F5807FA4
:1042D00001D0012902D14FF4807700E02F46D4F8B5
:1042E00008C0E16941EA0C0C47EA0C07197A012978
:1042F00010D1002806D1D868401E400340F4006069
:10430000074307E0706840F020007060B06840F03C
:104310000100B0602168D1F804C0DFF82C0300EA86
:104320000C0C47EA0C074F6021688F68DFF81C030C
:10433000074017438F602069B0F5807F01D00128C6
:1043400002D14FF4807000E028462168B0F5807FEC
:10435000086B20F0F87005D15B685B1E40EA0350E3
:10436000086300E0086320688168DFF8E402014028
:10437000914208D12846B060706820F0020040F0F9
:10438000010070600CE0706820F0020040F0100046
:104390007060B06840F00100B060012500E00125C8
:1043A0002846F2BD2DE9F04105460E46174605F1B7
:1043B000480898F80000012801D1022059E00120A6
:1043C00088F80000284600F0FEF8040050D1D8F824
:1043D0000410DFF88002014041F48071C8F8041035
:1043E00028684068400507D5D8F8040020F400503C
:1043F00040F48050C8F80400D8F80400C00406D582
:10440000D8F8080020F00600C8F8080002E00020F4
:10441000C8F80800002088F800000FF24520696CF9
:1044200088620FF29D20696CC8620FF29D20696C52
:1044300008636FF02200296808602868416841F02D
:10444000806141602868816841F4807181603B46E9
:104450003246286800F15801686CFEF7EFFC2868C6
:10446000816811F0405F03D1816841F08041816033
:104470002046BDE8F08178B402460020009092F812
:104480004800012801D102209BE0012082F8480069
:104490004D68086813681F24072D0AD26D1E05EBAE
:1044A00085051E6CAC4026EA0404A840204318642D
:1044B00030E00D2D0AD2ED1F05EB8505DE6BAC401B
:1044C00026EA0404A8402043D86323E0132D0AD22F
:1044D0000D3D05EB85059E6BAC4026EA0404A84023
:1044E0002043986316E0192D0AD2133D05EB85058C
:1044F0005E6BAC4026EA0404A8402043586309E000
:10450000193D05EB85051E6BAC4026EA0404A84066
:1045100020431863886813680C6807250A2C09D2A1
:1045200004EB44045E69A54026EA0505A040284343
:10453000586123E0142C0AD20A3C04EB44041E699F
:10454000A54026EA0505A0402843186116E01E2C68
:104550000AD2143C04EB4404DE68A54026EA0505B3
:10456000A0402843D86009E01E3C04EB4404DE6D03
:10457000A54026EA0505A0402843D865086810280C
:1045800001D011281AD12F4803681B0216D40368E2
:1045900043F400030360086810280FD12E48006818
:1045A0002E49B0FBF1F000EB80014800009002E0E2
:1045B0000098401E009000980028F9D1002082F851
:1045C000480072BC704738B504460020009020684F
:1045D0000168490630D4816841F0010181601E48BC
:1045E00000681E49B0FBF1F000EB4000009002E0D3
:1045F0000098401E009000980028F9D1FDF7A8FE11
:10460000054620680068400616D4FDF7A1FE401B51
:104610000328F6D3206800684006F2D404F148006D
:10462000416841F010014160816841F00101816001
:1046300000210170012032BD002032BD00000000C9
:104640002038024004270140FF16FCFC89F1FFC01E
:10465000FEFF80BFFEF9FFFF0C00002040420F006C
:10466000416A01F12402936A13F0500F24D1906A39
:1046700040F4007090620B68986810F0405F18D1A9
:104680001078002815D1186B10F0F87F02D09868C8
:1046900040050ED4586820F020005860906A20F43D
:1046A00080709062906AC00403D4906A40F0010068
:1046B00090620846FEF76ABE116A096B084700005F
:1046C000406A00F046BE0000406AC16C41F0400103
:1046D000C164016D41F00401016500F03BBE0000C2
:1046E000F8B504464FF6FF7500263C38B0F5717FEB
:1046F00011D237460DE00A4830F817002146401A1B
:1047000000F029FE294689B2884201DA05463E4674
:104710007F1C512FEFDBA6F11E0040B2F2BD00005E
:104720002C5A0008F8B504460D461646002705E049
:1047300034F81700FFF7D4FFE8557F1C3046874256
:10474000F6DBF1BD2DE9F0478A4691469846DFF841
:10475000F044DFF8F054FDF78DF922462B46FCF7C4
:1047600083FD06460F464846FDF784F922462B4650
:10477000FCF77AFD02460B46FCF776FD00F0F0FDF3
:1047800004463046394632463B46FCF76DFD00F0A4
:10479000E7FD0146204600F017FEDFF8AC1400F0FC
:1047A00053FE0446A8EB0A0A504600F0B9FEDFF8B3
:1047B0009C1400F049FE2146BDE8F04700F0C2BE5F
:1047C0002DE9F0478A4691469846DFF87444DFF8B1
:1047D0007454FDF74FF922462B46FCF745FD06467B
:1047E0000F464846FDF746F922462B46FCF73CFDAE
:1047F00002460B46FCF738FD00F0B2FD0446304699
:10480000394632463B46FCF72FFD00F0A9FD014634
:10481000204600F0D9FDDFF8381400F015FE0446FC
:10482000A8EB0A0A504600F07BFEDFF8201400F0E7
:104830000BFE2146BDE8F04700F084BE2DE9FE4F97
:104840008B4691469846DDF830A0DFF8F443DFF858
:10485000F453FDF70FF922462B46FCF705FD0646FB
:104860000F464846FDF706F922462B46FCF7FCFCAE
:1048700004460D465046FCF741FFDFF8D823DFF829
:10488000D833FCF7F1FC4FF04042DFF8D033FCF7AF
:10489000EBFCCDE900012046294622462B46FCF7D9
:1048A000E3FC00F05DFD04463046394632463B46A7
:1048B000FCF7DAFC00F054FD0146204600F084FDD0
:1048C00000F0B2FEDDE90023FCF7CEFC04460D4605
:1048D000A8EB0B0B584600F023FEDC4900F0B4FDBA
:1048E00000F0A2FE22462B46FDF7DCF803B0BDE83F
:1048F000F04F00F035BD2DE9FE4F8B4691469846AE
:10490000DDF830A0CE4CCF4DFDF7B4F822462B4653
:10491000FCF7AAFC06460F464846FDF7ABF82246D0
:104920002B46FCF7A1FC04460D465046FCF7E6FE7C
:10493000C84AC94BFCF798FC4FF00042C84BFCF743
:1049400093FCCDE900012046294622462B46FCF780
:104950008BFC00F005FD04463046394632463B46A6
:10496000FCF782FC00F0FCFC0146204600F02CFD28
:1049700000F05AFEDDE90023FCF776FC04460D4604
:10498000A8EB0B0B584600F0CBFDB04900F05CFDE6
:1049900000F04AFE22462B46FDF784F803B0BDE83E
:1049A000F04F00F0DDBC2DE9F24F82B09146984601
:1049B000DDF830B0A24EA34FFDF75CF832463B461F
:1049C000FCF752FCA74CA84D02460B46FCF74CFCEA
:1049D00022462B46FCF748FC00F0C2FC82464846C3
:1049E000FDF748F832463B46FCF73EFC02460B46D4
:1049F000FCF73AFC22462B46FCF736FC00F0B0FCF4
:104A0000514600F0E1FC0646924C934D5846FCF7A7
:104A100075FE22462B46FCF727FC82468B46304625
:104A200000F002FE52465B46FCF71EFC82468B46B7
:104A3000304600F0F9FD52465B46FCF715FCCDE927
:104A400000010D98FCF75AFE22462B46FCF70CFCA1
:104A500082468B46304600F0E7FD52465B46FCF747
:104A600003FCDDE90023FDF71DF806460F460E980E
:104A7000FCF744FE22462B46FCF7F6FB32463B464B
:104A8000FDF710F806460F460F98FCF737FE224652
:104A90002B46FCF7E9FB04460D469DF80800A8EB01
:104AA00000084046FCF72AFE22462B46FCF7DCFBBA
:104AB00032463B46FCF7F6FF03B0BDE8F04F00F08E
:104AC0004FBC2DE9FF4F85B0DDF8489049460629D7
:104AD00002D166490291664E4946042903D16349D1
:104AE00002914FF03F464946032902D161490291A4
:104AF000614E0027B846009020E0009830F818007A
:104B0000FCF7B8FF4E4A4F4BFCF7AEFB04460D4690
:104B1000384600F089FD82468B46204629462246CB
:104B20002B46FCF7A1FB52465B46FCF7BBFF00F0AF
:104B300017FC074608F101085FFA88F848468045E7
:104B4000DBDB00F095FD03903846039900F09EFDF5
:104B500004904FF000084746DDF81CA08DF84890FF
:104B60001DE03AF81700FCF785FF354A354BFCF796
:104B70007BFB04460D46404600F056FD80468946C4
:104B80002046294622462B46FCF76EFB42464B4602
:104B9000FCF788FF00F0E4FB80467F1CFFB29DF825
:104BA00048008742DDDBDDF85090DDF84CA09DF831
:104BB0002070284C284D029800F036FDCDE9000108
:104BC0005046FCF79BFD22462B46FCF74DFBDDE9EA
:104BD0000023FCF749FB82468B464046039900F0D0
:104BE00055FD049900F0F0FB00F01EFD52465B46B7
:104BF000FCF73AFB82468B464846FCF77FFD22468F
:104C00002B46FCF731FB02460B4650465946FCF753
:104C100087FD04460D469DF818003F1A384600F0FF
:104C20007FFC314600F010FC00F0FEFC22462B46D3
:104C3000FCF738FF09B0BDE8F04F00F091BB000071
:104C40009A9999999999B93F15046A3BCDCC0C4032
:104C500037D34E3B2D431CEBE2361A3F8353473F7D
:104C600096A3413FFCA9F1D24D62503F417B5C3A93
:104C7000333333BFB41C0D3A9A9999BE10B5002452
:104C80000320FDF7ECFB0F20FDF768FB002801D0A7
:104C9000012401E000F078FD204610BD38B586B053
:104CA00001A81421FEF7B0FC2848016841F020015A
:104CB0000160016801F0200100910099016841F054
:104CC00004010160016801F004010091009901688C
:104CD00041F001010160016801F0010100910099BA
:104CE000016841F002010160016801F002010091D8
:104CF0000099016841F008010160006800F00800B7
:104D000000900098124D012220212846FEF752FD06
:104D1000104C012202212046FEF74CFD202001907C
:104D20000120029003900020049001A92846FEF77C
:104D30006FFC02200190012002900390002004905B
:104D400001A92046FEF764FC07B030BD1C380240C4
:104D5000000802400004024080B50A48016841F0A2
:104D600080710160006800F080700090009800225F
:104D700011460B20FDF774FB0B20BDE80240FDF748
:104D80007EBB00BF1C3802401FB5684600210A46A2
:104D90000B4680E80E00AA4CAA48206008466060D6
:104DA0004FF08070A0600846E0604FF48070206192
:104DB00008466061A061E061206204F124000121E5
:104DC00001701021416011460172102101611146EC
:104DD000416101762046FFF72FFA002801D0FEF747
:104DE00007FC0B20009001200190042002906946EE
:104DF0002046FFF740FB002801D0FEF7F9FB0A2010
:104E000000900220019069462046FFF734FB0028FD
:104E100001D0FEF7EDFB0D200090032001906946C4
:104E20002046FFF728FB002801D0FEF7E1FB0C200D
:104E300000900420019069462046FFF71CFB0028E3
:104E400001D0FEF7D5FB01200090052001906946B6
:104E50002046FFF710FB002801D0FEF7C9FB002019
:104E600000900620019069462046FFF704FB0028C9
:104E700001D0FEF7BDFB0520009007200190694698
:104E80002046FFF7F8FA002801D0FEF7B1FB042016
:104E900000900820019069462046FFF7ECFA0028B0
:104EA00001D0FEF7A5FB062000900920019069467D
:104EB0002046FFF7E0FA002801D0FEF799FB072013
:104EC00000900A20019069462046FFF7D4FA002896
:104ED00001D0FEF78DFB082000900B200190694661
:104EE0002046FFF7C8FA002801D0FEF781FB0E200C
:104EF00000900C20019069462046FFF7BCFA00287C
:104F000001D0FEF775FB122000900D20019069463C
:104F10002046FFF7B0FA002801D0FEF769FB132006
:104F200000900E20019069462046FFF7A4FA002861
:104F300001D0FEF75DFB142000900F200190694620
:104F40002046FFF798FA002801D0FEF751FB152004
:104F500000901020019069462046FFF78CFA002847
:104F600001D0FEF745FB1FBD38B586B00446684644
:104F70001421FEF749FB2068324988425ED132484D
:104F8000416841F400714160416801F4007105918C
:104F90000599016841F004010160016801F0040114
:104FA00005910599016841F001010160016801F076
:104FB000010105910599016841F002010160006855
:104FC00000F00200059005981F200090032001903A
:104FD0000020029069461D48FEF71AFBF32000905E
:104FE000032001900020029069461948FEF710FB4B
:104FF0004FF20100009003200190002002906946CA
:105000001448FEF705FB144D144828600020686022
:10501000A8608020E8604FF4807028614FF48060C1
:1050200068612020A8610020E8612846FDF7BCFEE9
:10503000002801D0FEF7DCFA65646C6207B030BD71
:10504000A8080020002401401C380240000802404B
:105050000000024000040240240A002008600240D0
:1050600010B586B002A81021FEF7CEFA53A0D0E901
:105070000023CDE900234D4C4FF08040206048F6DE
:10508000FF7060600020A06041F63F70E06000208B
:10509000206160612046FEF7A9FB002801D0FEF7E1
:1050A000A7FA4FF48050029002A92046FEF793FC25
:1050B000002801D0FEF79CFA00200090019069467C
:1050C000204600F083FB002801D0FEF791FA6FF034
:1050D00001002168086106B010BD000010B586B05F
:1050E00002A81021FEF790FA36A0D0E90023CDE9FE
:1050F00000232F4C2F48206048F6FF70606000208E
:10510000A0600820E0600020206160612046FEF77A
:105110006DFB002801D0FEF76BFA4FF4805002902F
:1051200002A92046FEF757FC002801D0FEF760FADE
:105130000020009001906946204600F047FB0028BF
:1051400001D0FEF755FA06B010BD80B50068B0F189
:10515000804F13D11848016841F0010101600068D7
:1051600000F0010000900098002211461C20FDF77D
:1051700077F91C20BDE80240FDF781B90D4988424E
:1051800013D10D48016841F002010160006800F090
:10519000020000900098002211461D20FDF760F9E2
:1051A0001D20BDE80240FDF76AB901BD680A002074
:1051B000A80A00200004004024380240000000003B
:1051C0000000000000000000000000007FB5304C2F
:1051D00000F049FB002001900294012003906946F1
:1051E00001A800F0D3FB010020D1002521E0241DFF
:1051F000361D502E1CD2274805EB850100EB01100F
:105200003044D0F80520244802602146022000F0F6
:105210000FFB0028EBD000F046FB044600F03CFBFF
:105220002046C0B202E000F037FB002004B070BDA1
:105230006D1C102DF7DA0026DBE710B414480021AE
:105240000DE0144B01EB810403EB041313440468D9
:10525000C3F80540001D121D502AF2D3491C102925
:1052600001DA0022F8E710BC70471FB500F0FBFA26
:10527000002001900648029001200390694601A891
:1052800000F084FB044600F007FB204604B010BD8C
:1052900000F00508A0000020400B00200EB4C0B5AF
:1052A000024603A800210190009101AB01210448AE
:1052B00078440C30FAF736FF06BC5DF810FB00BFEF
:1052C0004309000038B50446FDF742F8054614F1DD
:1052D000010F02D0044880680419FDF739F8401B1B
:1052E000A042FAD331BD00BF0000002000B500BFCE
:1052F000130096469446103928BFA0E80C50FAD8FF
:105300005FEA417C28BF0CC048BF40F8042BC907A6
:1053100028BF20F8022B48BF00F8012B00BD7047C2
:105320007047704770470000C0F3C7517E390EDDEB
:10533000C217D1F1200106DD000240F00040C84054
:10534000104450407047D04380F000407047002028
:10535000704770477047002848BF404270470000C0
:1053600001F000428B1AA3F16051B1F5801F0ADBF6
:10537000B1F17F6F1FD242EAC102C10071F1004159
:1053800042EB507070470B15C3F10903212B10D26B
:10539000890241EA905180020128494141F00041CF
:1053A00021FA03F0C3F12003994071F1004150410B
:1053B0007047100070476FF0000013EB103F5CBFA8
:1053C000000E42EAC050704790EA010F40F1C080E1
:1053D00081F00041421A3CBF801A89184FF0004CFE
:1053E000C0F3C752FF2A24D0C1F3C75313B3D21A54
:1053F000D2F1190327DD4CEA01214CFA03F321EA2B
:105400000303D140C20D4CEA0020401834BF20EA0B
:105410000C004CEA5000D20553EA006373EB0C0C0D
:1054200052EB1020420012F1807F38BF7047C00D50
:10543000C0057047490212BF9A4200EB5120F8E7BD
:10544000D2F11703D9D57047FF2212EAD05C1DBFF5
:1054500012EAD153944593422BE09C44D30780EA4F
:1054600001021A4043EA002043EA0121A1FB003077
:10547000C04238BF40007CF17F010BDBFE294ADAD5
:105480005B0842EAC15153EA006373F1004C51EBEF
:1054900010207047D1F1080CDCF120012FDB5B08F4
:1054A00010FA01F10B4320FA0CF073F10041504166
:1054B000704794451CBF02EAD153934280EA01022F
:1054C00002F000421DD0400019D0490017D05BB94E
:1054D000634514D00902B1FA81F39940BCEB030C87
:1054E000C00140F00040C1E70002B0FA80FC10FAB1
:1054F0000CF0B3EB0C0CC90141F00041B6E7100011
:10550000704740000AD0490008D010F1807F94BF56
:1055100011F1807F02E042F0FF407047D0437047B6
:10552000C2175040801AB0FA80F10AD08840D1F1F9
:105530009D01D20742EAC151020672F1004241EBDD
:105540001020704790EA010F7FF544AF81F00041D1
:10555000431A4FF000423EBF5340C01AC91800BF63
:10556000D3095FEAD05C13EB400F34BFB3EB410FBC
:1055700040E07CEBD1530CD342EA012122D8D1EB9D
:10558000402009D3400A28BF5FEA500140EBCC50CD
:105590007047401A15D04002B0FA80F2521C904079
:1055A000400A4FEA3C23B3EB026384BF00EB730075
:1055B00007E040F400001A16DB07C2F10102D040F8
:1055C00018437047182BFCDC31FA03F202FA03F39C
:1055D000591A38BF42F00102D2EB40203CBF4000D4
:1055E000ACF1010C5FEACC5CC20572F100414CEBFE
:1055F0005020704713EB400F0FD2C94209D0ACEBDB
:10560000D153022B03DB4902172BDDDD7047914399
:10561000401AC042D5D10020704713EB410FD0D3C0
:105620006FF0000070470000C0F3C75181B1FF293F
:1056300006D0C110400721F0E04101F160517047F0
:1056400041020CBF40F4E0016FF0004100207047C0
:1056500000F0004100020AD0B0FA80FC00FA0CF021
:1056600001F16051A1EB0C5101EBD02140057047D5
:1056700000280AD0B0FA80F18840D1F19D01C90517
:10568000020672F1004241EB1020704710B5FF2373
:1056900013EAD0541DBF13EAD1529C429A4239E01A
:1056A000A41ADA0780EA0103134042EA012142EA20
:1056B0000020421A3CBF641E01EB4202090AB2FB01
:1056C000F1FE01FB1E221202B2FBF1F001FB1022DF
:1056D0006EF30F201202B2FBF1FE4EEA00207F347F
:1056E00006DDFE2C24DA53EA500050EBC45010BD06
:1056F000D4F1020401FB1E2240F08071192C1DDC44
:1057000021FA04F0C4F12004A140114371F10042D8
:10571000584110BD9C421ABF03EAD1529A420FE091
:1057200080EA010E0EF00043400004D0490016D17B
:1057300043F0FF4010BD490008BFD343180010BD1F
:105740009C4205D1D21AF7D001F00041484010BD6B
:105750004A0212BF0846484000F0004010BD4AB956
:105760000902B1FA81F2914044B1A418C00140F09D
:1057700000409EE7C90141F0004152420002B0FAE8
:1057800080F4A040141B94E781B00F48416841F0B9
:1057900000414160416801F00041009100990168B9
:1057A00041F001010160016801F0010100910099DF
:1057B000416841F080514160406800F080500090A5
:1057C000009801B0704700BF2038024070B400F16B
:1057D00038031A78012A01D1022021E001221A702F
:1057E00002225A7005686E68AC6826F070060A6876
:1057F00016436E600268B2F1804F08D009488242B9
:1058000005D00948824202D00848824204D124F0DF
:105810008004486804439460012058700020187088
:1058200070BC7047000400400008004000080140C0
:10583000F8B50D4616464E4C207C012801D10220B9
:10584000F2BD012020744CF25037384600F02EF89B
:10585000010005D1002060612E60384600F026F876
:1058600000212174F2BD43480168890712D50168FF
:10587000C90706D540498160404981600168C90770
:1058800006D43F49C1603F49C1600068800701D527
:1058900001207047002070473648016841F002013E
:1058A00001600020704732484069704738B50446AF
:1058B000FCF74EFD054634480168C9070DD514F1C3
:1058C000010FF8D0002C04D0FCF742FD401B8442AD
:1058D000F1D2032032BD002032BD0168890701D515
:1058E000022101600168C9050BD40168090508D4CB
:1058F0000168C90405D40168490502D4006880051F
:10590000E9D500F002F8012032BD002218481E49F6
:105910000B68DB0505D5426942F0020242614FF493
:1059200080720B689B0505D5436943F00103436111
:1059300042F400720B681B0505D5436943F004036C
:10594000436142F400620B68DB0405D5436943F010
:105950002003436142F480520B685B0505D543691F
:1059600043F00803436142F480620A60704700001C
:10597000280B0020043C0240EFCDAB890504030254
:10598000BFAE9D8C16151413183C02402DE9F04152
:1059900004460D46DFF88C60307C012801D10220DE
:1059A0002CE0012030744CF250373846FFF77EFF70
:1059B000010021D14FF0FF312960D4F8048001E0CB
:1059C00008F58078A168626802EB0122904513D245
:1059D000404600F015F83846FFF768FFDFF848103A
:1059E0000A6822F008020A600A6822F400720A605B
:1059F0000100E5D0C5F8008000213174BDE8F081D8
:105A00000021084A516108490A6842F400720A609C
:105A10000A6842F008020A600021000A00020160E0
:105A200070470000280B0020043C0240FF03EE03F7
:105A3000D803C203AC0395037F03680351033B0300
:105A400024030E03F802E202CC02B602A1028C0289
:105A5000770262024E023B02270214020202F001A8
:105A6000DE01CD01BD01AC019D018D017F01700101
:105A70006201550148013C013001240119010E0168
:105A80000601F900F000E600DD00D500CD00C500FC
:105A9000BD00B600AF00A800A1009B0095008F00DC
:105AA0008A00850080007B00760071006D0069002F
:105AB000650061005D005A005700530050004D0022
:105AC0004A0048004500430040003E003C00000002
:105AD000FEE7FEE7FEE7FEE7FEE770477047704728
