:020000040800F2
:1000000060060020B52300087D2200087F2200083A
:1000100081220008832200088522000800000000D9
:10002000000000000000000000000000872200081F
:1000300089220008000000008B2200088D220008A1
:10004000D9230008DD230008E1230008E523000888
:10005000E9230008ED230008F1230008F523000838
:10006000F9230008FD23000801240008912200085C
:1000700005240008092400080D24000811240008A4
:1000800015240008192400081D2400082124000854
:1000900025240008292400082D2400083124000804
:1000A0000000000035240008392400083D24000821
:1000B0004124000845240008492400084D24000874
:1000C0005124000855240008592400085D24000824
:1000D0006124000865240008A1220008A722000866
:1000E000692400086D2400087124000875240008A4
:1000F000792400087D240008812400088524000854
:10010000892400088D240008912400089524000803
:10011000992400089D240008A12400080000000084
:10012000A52400082DE9FC47040000F09181DFF8C8
:10013000DC76BD6805F00C05BE6806F480362078D4
:10014000C0070DD5082D04D00C2D47D1B6F5803F42
:1001500044D13868800303D56068002800F07881B6
:100160002078800713D5042D03D00C2D79D1002ED3
:1001700077D13868800703D5E068012840F06881AE
:10018000786820F4F850216940EA012078602078EE
:10019000C00640F17481002D40F0B18038688005C0
:1001A00003D5A069002800F05381206A796801F422
:1001B0006041814278D200F0ECFA002840F048819A
:1001C000796821F46041206A01437960786820F001
:1001D0007F40E16940EA0160786077E0606801286B
:1001E00004D1386840F4803038601CE0002808D121
:1001F000386820F480303860386820F48020386017
:1002000011E00528386807D140F48020386038684C
:1002100040F48030386006E020F480303860386880
:1002200020F480203860606800280DD000F008FBC2
:1002300080463868800393D400F002FBA0EB0800EE
:100240006528F6D3032091E100F0FAFA8046386879
:10025000800385D500F0F4FAA0EB08006528F6D3FA
:10026000F0E7DFF8B415E06800280ED00120086040
:1002700000F0E6FA06463868800700F1EB8000F0EF
:10028000DFFA801B0228F6D9DCE70020086000F0C6
:10029000D7FA0646386880077FF579AF00F0D0FAC4
:1002A000801B0228F6D9CDE7796821F46041084324
:1002B0007860786820F07F40E16940EA016078600A
:1002C000206A00F066FA002840F0C2800120216A0E
:1002D000490B491C8840C003DFF84015BA68C2F3D7
:1002E0000312895CC840DFF828150860DFF8240590
:1002F000006800F0ABFA010000F0C18036E1DFF8E1
:100300001815A069002816D00120086200F098FA9C
:1003100006463868800500F1A58000F091FA801B40
:100320000228F6D98EE700F08BFAA0EB080002282D
:1003300040F2B38086E70020086200F081FA0646AA
:100340003868800540F19B8000F07AFA801B022813
:10035000F6D977E70020086000F072FA0646786B5D
:10036000800740F19E8000F06BFA801B0228F6D9CE
:1003700068E7002808D1786B20F480707863786B88
:1003800020F48060786311E00528786B07D140F491
:1003900080607863786B40F48070786306E020F4C6
:1003A00080707863786B20F480607863A0680028A0
:1003B0000ED000F045FA0646786B800500F1A78064
:1003C00000F03EFA801B41F289318842F4D339E7CC
:1003D00000F036FA0646786B800540F1988000F010
:1003E0002FFA801B41F289318842F4D32AE700F0CA
:1003F00027FAA0EB0800022840F2A08022E700F0D4
:100400001FFA001B022840F2AC801BE70020286680
:1004100000F016FA04463868800140F1A68000F02A
:100420000FFA001B0228F6D90CE7012810D0B86893
:1004300000F48031A26A91420AD100F47011E26A9C
:10044000914205D100F44000216B884200F08D807C
:1004500001208BE0786820F4F850216940EA0120FF
:10046000786094E6796821F46041206A01437960FC
:10047000786820F07F40E16940EA01607860207888
:1004800000070ED5DFF89813606900283FF462AFCB
:100490000120086000F0D4F98046786B80077FF572
:1004A00042AF2078400739D54FF00008786AC00085
:1004B0000AD4786A40F080507862786A00F0805000
:1004C000009000984FF00108DFF85893D9F8000029
:1004D000C00513D4D9F8000040F48070C9F80000BA
:1004E00000F0AEF98246D9F80000C00506D400F04D
:1004F000A7F9A0EB0A006528F5D3A3E6A0680128B8
:100500007FF437AF786B40F4807078634EE7B8F1D2
:10051000010F03D1786A20F080507862606A002869
:1005200023D00C2D3FF481AFDFF8EC5202287FF48A
:100530006DAF0020286600F083F98046386880019E
:100540003FF555AFB96821F47D01A06A0143E06A27
:100550000143206B0143B9600120286600F070F967
:100560000446386880017FF54AAF0020BDE8F68771
:100570002DE9F04104460F46002C00F0AF80DFF873
:10058000A862306800F00100B84210D2012F03D1F8
:10059000306840F0040030603068400857EA40009E
:1005A0003060306800F00100B84240F09780DFF81A
:1005B0005C522078800705D5A96821F0F001A06879
:1005C0000143A9602078C00773D56068022803D171
:1005D000296889030ED481E0032803D129688901A1
:1005E00008D47BE00128296802D1890702D475E08C
:1005F000890573D5A968890850EA8100A86000F0D0
:100600001FF98046606802280ED1A86800F00C002F
:1006100008284ED000F014F9A0EB080041F289310F
:100620008842F2D3032042E003280DD1A86800F0ED
:100630000C000C283DD000F003F9A0EB080041F2BB
:1006400089318842F2D3EDE7012849D1A86800F04A
:100650000C0004282DD000F0F3F8A0EB080041F2C4
:1006600089318842F2D3DDE72078400705D5A968B3
:1006700021F4E061E0680143A9602078000706D515
:10068000A86820F46050216940EAC100A86000F029
:1006900034F86249AA68C2F30312895CC8405C4915
:1006A00008605C480068BDE8F04100F0CFB8BDE8E4
:1006B000F081306800F001008742D5D2012F03D1CC
:1006C000306840F0040030603068400857EA40006D
:1006D0003060306800F00100B842C5D00120E6E784
:1006E000A86810F00C0FE4D000F0AAF8A0EB080006
:1006F00041F289318842F3D394E710B44C48416801
:1007000001F00C02042A04D0082A04D00C2A05D0D7
:100710001CE0484822E04FF461001FE0464AC1F364
:100720008343D45CC1F38152521C00234068C00350
:1007300006D54FF46100A0FB040110BC00F0AEB878
:100740003C48A0FB040110BC00F0A8B80068C0F34E
:1007500042300121401C01FA00F0C00310BC704778
:100760002B480068704780B5FFF7FAFF33492F4ADE
:100770001268C2F30222895CC84002BD80B5FFF74F
:10078000EFFF2E49294A1268C2F3C222895CC84091
:1007900002BD18B40021254A136813F0F00F1ED1D2
:1007A000204BD469E40003D51B6803F4C0530FE069
:1007B000D46944F08054D461D46904F08054009426
:1007C000009C1B6803F4C053D46924F08054D461A6
:1007D000B3F5C05F03D1B0F5404F00D101211248FD
:1007E000012903D1026842F0040202600268520843
:1007F00051EA42020260006800F00100884201D024
:10080000012000E0002012BC7047000000380240C8
:100810003000002028000020000047425C23000830
:100820008006474200700040003C02400838024009
:10083000043802400024F40050230008D0230008AC
:1008400001480068704700BF2400002070B50446CE
:100850000025104EB068002819D04FF47A71B1FB12
:10086000F0F00D490968B1FBF0F000F099F90028AB
:100870000BD1102C07D22A4621464FF0FF3000F052
:100880007FF9746004E0012502E0012500E0012504
:10089000284670BD2400002030000020BBBBE1B121
:1008A000B2F5803F80F07E80022A1ED98C46B1FBD3
:1008B000F2F102FB11C31B0443EA1043B3FBF2FC49
:1008C00002FB1C3380B240EA0343B3FBF2F002FBAD
:1008D000103240EA0C4000237047022A05D98446B2
:1008E000B0FBF2F002FB10C270474AB105D100F034
:1008F000010249085FEA3000704700220023704778
:1009000000F05CB90B00020000210020704790420B
:1009100071EB030CF6D3B3F5803F2FD2F0B5B3FAE9
:1009200083F7B1FA81F4A7F10F0E3D1B5340CEF1CE
:10093000200602FA0EF2F3415340B5F10F0746D8F4
:100940000F3C2C444140C4F12006A040F1414140FD
:10095000B1FBF3F603FB1611A2FB0645001BA941F0
:1009600002D2761E8018594180EA010221FA0EF364
:1009700062FA0EF200215A403046F0BD30B4B1FBAD
:10098000F3FC03FB1C11A2FB0C45001BA94103D285
:10099000ACF1010C8018594130BC02460B46604650
:1009A00000217047B2F1807F65D3F0B5B2FA82F7CB
:1009B000B1FA81F4C7F10F063D1B22FA06F307F1E5
:1009C000110EF24120355A40B5F10F07B8D9414018
:1009D000C4F12006A040F1414140B1FBF3FC03FB10
:1009E0001C11A2FB0C45001BA94103D2BCF1010C58
:1009F000801859410F2F12D30F3FC90341EA5041CC
:100A0000B1FBF3F603FB1611A2FB0645D4EBC03095
:100A1000A94102D2761E8018594146EACC3C07B360
:100A20004140C7F12006B840F1414140B1FBF3F627
:100A300003FB1611A2FB0645001BA94102D2761E3C
:100A40008018594180EA010221FA0EF3C7F120040F
:100A500062FA0EF20CFA07F05A402CFA04F1304315
:100A6000F0BD80EA010221FA0EF3002162FA0EF2D3
:100A700060465A40F0BD8C46B1FBF2F102FB11C357
:100A80001B0243EA1063B3FBF2FC02FB1C331B02A4
:100A90004CEA002043EA1063B3FBF2FC02FB1C3378
:100AA0001B024CEA002043EA1063B3FBF2FC02FB9A
:100AB0001C331B024CEA002043EA1063B3FBF2FC38
:100AC00002FB1C324CEA002000237047354A1368B1
:100AD0004FF6FF010B40000200F4E060184332497A
:100AE0000843106070472F480068C0F30220704729
:100AF000010007D4012200F01F018A402B49400960
:100B000041F8202070470901020002D4284881548E
:100B10007047284802F00F02104400F8041C704788
:100B200010B400F00700C0F10703052B00D3042325
:100B3000041D072C01D2002000E0C01E012404FA8D
:100B400003F35B1E1940814004FA00F0401E104080
:100B5000084310BC704710B5401EB0F1807F01D330
:100B6000012010BD144C60600F214FF0FF30FFF7E3
:100B7000CAFF0020A06007202060002010BDA5E76C
:100B800070B504460D461646FFF7ADFF32462946BE
:100B9000FFF7C6FF01462046BDE87040B3E7A7E770
:100BA000D9E700000CED00E00000FA0500E100E0EC
:100BB00000E400E018ED00E010E000E0704730B421
:100BC000002513E050F8042BD30744BFA9F101031B
:100BD0009A18091F042942F8045BFAD213468C07BD
:100BE00044BF15809B1CC90748BF1D7050F8041BEB
:100BF0000029E7D130BC704738B5040001D101208D
:100C000032BD04F140056878002804D10020287026
:100C1000204600F095FB242068702068C16821F40C
:100C20000051C160204600F0F9FA2068016921F402
:100C3000904101612068416921F02A0141612068E9
:100C4000C16841F40051C1600020686020206870D4
:100C5000A8700020606332BD2DE9FC4106460D46B8
:100C600014461F4696F8410020283DD1002D01D0A2
:100C7000200001D1012038E000207064212086F896
:100C80004100FFF7DDFD8046B484F484B068B0F520
:100C9000805F04D13069002801D1002411E02C4686
:100CA00000250EE014F8011B416007E03068002CBD
:100CB000F8D135F8021BC1F308014160F08C401EE9
:100CC000F084F08C00280097434610D00022802149
:100CD000304600F065F90028E8D0032005E0202028
:100CE00086F84100002000E00220BDE8F6810022E5
:100CF0004021304600F054F90028F0D00320F4E7FA
:100D000018B400F130039C7C202C0AD1002901D0BA
:100D1000140001D1012005E000241C6018BC00F083
:100D200082B9022012BC70477CB504462568296848
:100D3000EA686B6911F00F0007D18E0605D596069B
:100D400003D52046BDE87640FCE100286ED0D807E8
:100D500002D412F4907F69D00846C00705D5D005AB
:100D600003D5606C40F001006064480706D5184662
:100D7000C00703D5606C40F002006064880706D5A8
:100D80001846C00703D5606C40F004006064080793
:100D900007D5900601D4D80703D5606C40F0080051
:100DA0006064606C002800F0FA80880604D5900624
:100DB00002D5204600F0C6F920684069800900F09D
:100DC0000100616C090701D4002829D0204600F0F9
:100DD00046F92068406940061DD52068143050E867
:100DE000001F21F04001206800F1140242E80010C9
:100DF0000028F2D1E06B00280DD00FF2C52141632D
:100E0000E06B00F0BBFB002800F0C980E06B416B99
:100E1000BDE87C4008472046BDE8764000F052BC63
:100E2000204600F04FFC0020606473BD206B012859
:100E300040F0A580C80640F1A280D00640F19F8016
:100E40000020009028680090686800900098686909
:100E5000400656D5E06B0068406880B2002800F07C
:100E60009E80A18D884280F29A80E085E06B806947
:100E700020283BD020680C3050E8001F21F48071FE
:100E8000206800F10C0242E800100028F2D120682E
:100E9000143050E8001F49084900206800F114028E
:100EA00042E800100028F2D12068143050E8001FFA
:100EB00021F04001206800F1140242E800100028EF
:100EC000F2D1202084F842000020206320680C30FA
:100ED00050E8001F21F01001206800F10C0242E8E8
:100EE00000100028F2D1E06B00F022FB02206063CA
:100EF000A18DE08D091A89B22046BDE87C4000F042
:100F0000E2BBA08DE18D411AE08D002847D0084654
:100F100080B2002843D020680C3050E8002F22F423
:100F20009072206800F10C0343E800200028F2D101
:100F30002068143050E8002F52085200206800F159
:100F4000140343E800200028F2D1202084F8420056
:100F50000020206320680C3050E8002F22F010029F
:100F6000206800F10C0343E800200028F2D10220A1
:100F7000606389B22046BDE87C4000F0A4BB08064F
:100F800005D5100603D52046BDE876409EE048060C
:100F900005D5500603D52046BDE87640C5E073BDB3
:100FA0002DE9F04105460E4617469846069C2868EE
:100FB00000683040B04201D1012000E000203946F5
:100FC00088422DD114F1010FF1D0002C05D0FFF78C
:100FD00037FCA0EB08008442E9D228680C3050E8C6
:100FE000001F21F4D071286800F10C0242E80010C3
:100FF0000028F2D12868143050E8001F4908490041
:10100000286800F1140242E800100028F2D105F12E
:10101000400020214170817000210170032000E018
:101020000020BDE8F08181628285C2850021416493
:10103000222180F842100169002904D00168CA68A1
:1010400042F48072CA6001684A6942F001024A6152
:101050000068C16841F02001C1600020704701684C
:101060000C3151E8002F22F49072016801F10C0359
:1010700043E800210029F2D10168143151E8002F22
:1010800052085200016801F1140343E800210029CD
:10109000F2D1016B01290CD101680C3151E8002F0C
:1010A00022F01002016801F10C0343E8002100293D
:1010B000F2D1202180F84210002101637047000026
:1010C000406A0021C185C18400F0FCBA90F841104B
:1010D000212928D18168B1F5805F0CD101690029EF
:1010E00009D1016A0988C1F3080102685160016AE7
:1010F000891C016205E0016A4A1C026209780268E3
:101100005160C18C491EC18489B2002909D101688E
:10111000CA6822F08002CA600068C16841F04001DC
:10112000C160002070470220704780B50168CA681E
:1011300022F04002CA60202180F8411000F0C4FA79
:10114000002002BD80B590F84210222964D1826847
:10115000B2F5805F0CD10169002909D101684968A5
:10116000C1F30801826A1180816A891C816214E0DE
:10117000836AB2F5805F04D0002A06D10169002994
:1011800003D101684968197004E00168496801F0F9
:101190007F011970816A491C8162C18D491EC18518
:1011A00089B2002936D10168CA6822F02002CA60DB
:1011B0000168CA6822F48072CA6001684A695208EC
:1011C00052004A61202180F8421000214163016BE6
:1011D00001291DD10021016301680C3151E8002F64
:1011E00022F01002016801F10C0343E800210029FC
:1011F000F2D101680A68D20606D5002200920A6878
:101200000092496800910099818D00F05CFA01E03C
:1012100000F05CFA002002BD022002BD10B50446B9
:1012200021680A6922F44052E06802430A61216899
:10123000CA6828480240A0680243206902436069E6
:101240000243E0690243CA6021684A6922F440729D
:10125000A06902434A6120681F49884202D1FFF712
:101260008DFA01E0FFF77FFA63682268192148438D
:101270006421E469B4F5004F16D15B00B0FBF3F0D4
:101280000B46B0FBF3F301FB1301C90032316420BC
:10129000B1FBF0F0410001F4F87101EB031100F033
:1012A00007004018906010BD9B00B0FBF3F00B46A8
:1012B000B0FBF3F301FB1301090132316420B1FBF0
:1012C000F0F000F0F00101EB031100F00F00401806
:1012D000906010BDF369FFFF0038014080B54A48B7
:1012E0004A4901604FF41651416000218160C1609C
:1012F00001610C21416100218161C161FFF77CFC2A
:10130000002803D0BDE8014000F0B6BA01BD80B5A9
:101310003F48404901604FF416514160002181600F
:10132000C16001610C21416100218161C161FFF750
:1013300063FC002803D0BDE8014000F09DBA01BD68
:1013400010B586B004466846142100F097FA20686C
:101350002E49884229D13048816841F400318160AA
:10136000816801F4003105910599016841F001019E
:101370000160006800F00100059005980C200090C5
:101380000220019000200290032003900720049087
:101390006946224800F076FA002211462620FFF71F
:1013A000EFFB2620FFF7FBFB2CE01A49884229D1EE
:1013B0001948816841F480218160816801F48021AD
:1013C00005910599016841F002010160006800F093
:1013D0000200059005984FF44060009002200190B3
:1013E00000200290032003900720049069460C48D7
:1013F00000F048FA002211462720FFF7C1FB272002
:10140000FFF7CDFB06B010BD8C010020004400406A
:10141000D4010020004800401C3802400000024077
:101420000004024010B4002801D1012037E0036815
:1014300000F138021B498B4209D21B49CB181421F9
:10144000B3FBF1F1890091601849516008E0184937
:10145000CB181421B3FBF1F189009160154951605B
:10146000022180F8211003681C686FF30E14416894
:101470000C4381680C43C1680C4301690C4341690A
:101480000C4381690C43C1690C431C60002111604D
:10149000012180F82110002180F82010084610BC9E
:1014A0007047000008640240F89FFDBF00600240E2
:1014B000F89BFDBF00640240F8B50446002594F88F
:1014C0002000012801D10220F2BD012084F8200073
:1014D00094F82100012825D1022084F8210004F18C
:1014E0002C062846F060206807687F087F000760A8
:1014F000204600F0CFF8216830680028086803D043
:1015000040F00E00086007E020F00400086020684A
:10151000016841F00A0101602068016841F00101A1
:10152000016003E0284684F8200002252846F2BD29
:1015300000F1380190F82120022A06D004220A6026
:10154000002180F82010012070470268136823F002
:101550000E031360026813685B085B0013600122CE
:101560000B7A03F01C039A4049684A60012180F815
:101570002110002180F820100846704710B5002483
:1015800000F1340190F82120022A03D004204860A1
:1015900001241AE00268136823F00E031360026846
:1015A00013685B085B00136001220B7B03F01C03D4
:1015B0009A408B685A60012280F82120224680F8E8
:1015C00020200968002900D08847204610BDF0B4CB
:1015D00000F128014A691468026815680E7E06F059
:1015E0001C06042303FA06F73C4213D06F0711D5FB
:1015F0001468A40603D4146824F0040414600A7E5A
:1016000002F01C0293404A695360496800293ED0A9
:10161000F0BC0847022303FA06F73C4219D0AF0793
:1016200017D51468A40606D4146824F00A041460BC
:10163000012280F821200A7E02F01C0293404A69B0
:101640005360002280F82020096800291FD0F0BCD8
:101650000847082303FA06F6344218D02B0716D59C
:10166000136823F00E03136001220B7E03F01C03AA
:101670009A404B695A6001220A6180F821200022B9
:1016800080F820208968002901D0F0BC0847F0BC10
:101690007047000030B4012490F8405005F01C055C
:1016A000AC40C56B6C600468636003684468102CD0
:1016B00003D19A600068C16002E099600068C2606E
:1016C00030BC7047704770477047000070B50646E1
:1016D000614B03F58074614D30686149884230D1B7
:1016E0006978AA2901D10120A070A078002823D010
:1016F00060780246995422788A4219D1AA2917D0D3
:10170000D878052801D10121A970332801D1002002
:10171000E8700022FF21184600F09AF90020A0701E
:1017200020800122691C4F48BDE87040FFF7E8BAED
:1017300089182170401C60700122691C4948FFF71C
:10174000DFFA30684849884208D10120A07002467B
:10175000691C4648BDE87040FFF7D2BA70BD70B54D
:1017600000F094F900F043F800F0A0F900F0C0F99F
:1017700000F0D6F9FFF7CBFDFFF7B0FD394C374D40
:101780000122691C2046FFF7BBFA0122691C374879
:10179000FFF7B6FA4FF6FF763346072205F114013C
:1017A0002046FFF759FAA8780028FCD033460522D6
:1017B00005F11C012046FFF74FFA0120E870E87898
:1017C0000028FCD1002028700222291D284800F0A2
:1017D000F7FA28780028FCD0022205F10C01281D18
:1017E00000F0ACFC4FF4FA7000F0BCFCDBE780B515
:1017F00092B005A8342100F041F86846142100F0A9
:101800003DF81C48016821F4C05141F400610160B9
:1018100003200590052006900120089010200990D3
:1018200000200E9005A8FEF77DFC002801D000F0F6
:1018300023F80F20009002200190002002900390D6
:10184000049001466846FEF793FE002801D000F0A0
:1018500013F813B000BD0000340000200000002089
:1018600000480040D4010020004400408C010020CA
:10187000380100200070004072B6FEE7002200F040
:10188000EBB80000F8B502460B4600242DE04FF0FF
:10189000070C05E0DFF890C16245F8D14FF0060C67
:1018A0000CFA06FC4CEA070C45F821C05F498E682B
:1018B000C5432E405F68FF0200D506438E60CE68A8
:1018C0002E405F68BF0200D50643CE604E682E40B2
:1018D0005F68BF0300D506434E600E682E405D680A
:1018E000ED0300D506430E60641C18680146E14014
:1018F00000F099800127A7403840F5D0610003250A
:101900008D40ED435E6806F0030CBCF1010F03D07F
:1019100006F00306022E10D196682E40D3F80CC0B4
:101920000CFA01FC4CEA060696605668BE435F68F6
:10193000C7F30017A7403E4356601E7906F0030622
:10194000032E05D0D6682E409F688F403E43D66058
:101950001E7906F00306022E15D12646F60802EB84
:1019600086073E6A4FEA840C0CF01C0C4FF00F0EF9
:101970000EFA0CFE26EA0E06D3F810E00EFA0CFC66
:101980004CEA06063E6216682E401D7905F00305F6
:1019900005FA01F10E431660596811F4403FA3D0D7
:1019A00023490D6845F001050D60096801F001014A
:1019B00000910099214689081E4D55F82170A60016
:1019C00006F00C064FF00F0C0CFA06FC27EA0C0789
:1019D000DFF864C0624502D14FF0000C60E7DFF829
:1019E0005CC0624502D14FF0010C59E7DFF850C0EE
:1019F000624502D14FF0020C52E7DFF848C0624561
:101A000002D14FF0030C4BE7DFF83CC0624502D136
:101A10004FF0040C44E7DFF834C062457FF43AAF7E
:101A20004FF0050C3CE7F1BD0018024000040140F6
:101A3000203802400800014000000240000402403B
:101A400000080240000C0240001002400014024056
:101A500062F30F2262F31F4200B500BF13009646E7
:101A60009446103928BFA0E80C50FAD85FEA417CB0
:101A700028BF0CC048BF40F8042BC90728BF20F876
:101A8000022B48BF00F8012B00BD000010B5002458
:101A90000320FFF774F80F20FEF7D8FE002801D0CE
:101AA000012401E000F072FB204610BD81B00F4818
:101AB000016841F020010160016801F020010091FE
:101AC0000099016841F001010160016801F0010124
:101AD00000910099016841F002010160006800F086
:101AE00002000090009801B0704700BF1C3802400F
:101AF00080B50A48016841F080710160006800F01B
:101B0000807000900098002211460B20FFF738F8F3
:101B10000B20BDE80240FFF742B800BF1C3802406E
:101B20001FB5684600210A460B4680E80E00434C6C
:101B300043482060084660604FF08070A06008460F
:101B4000E0604FF48070206108466061A061E06150
:101B5000206204F12400012101700221416011463C
:101B6000017210210161114641610176204600F0A9
:101B700071F8002801D0FFF77FFE062000900120B9
:101B80000190052002906946204600F082F9002865
:101B900001D0FFF771FE07200090022001906946F6
:101BA000204600F076F9002801D0FFF765FE1FBD42
:101BB00038B586B0044601A81421FFF75FFE2068FF
:101BC0001F49884237D11F48416841F40071416084
:101BD000416801F4007100910099016841F0010130
:101BE0000160006800F0010000900098C0200190A2
:101BF000032002900020039001A91348FFF742FE42
:101C0000124D1348286000206860A8608020E860BA
:101C10004FF4007028614FF4006068612020A861D3
:101C20000020E8612846FFF7FDFB002801D0FFF700
:101C300023FE65646C6207B030BD000038010020EF
:101C4000002401401C380240000002401C02002019
:101C500008600240F8B504460025002C01D101209F
:101C6000F2BD04F148067068002810D12846B06023
:101C70003070DFF8E803016841F00101016000689D
:101C800000F00100009000982046FFF791FF706877
:101C9000C00600F19280706820F4885040F0020085
:101CA0007060DFF8BC130A6822F4403260680243B7
:101CB0000A6004F124031878E26861690A43197E16
:101CC00042EA4122216A0A43014642EA41021F696F
:101CD000102F02D059690F433A4321680968490619
:101CE00030D4A1690A432169B1F5807F01D001296F
:101CF00002D14FF4807700E02F46D4F808C0E169A4
:101D000041EA0C0C47EA0C07197A012910D1002886
:101D100006D1D868401E400340F40060074307E046
:101D2000706840F020007060B06840F00100B06062
:101D30002168D1F804C0DFF82C0300EA0C0C47EA54
:101D40000C074F6021688F68DFF81C0307401743BA
:101D50008F602069B0F5807F01D0012802D14FF457
:101D6000807000E028462168B0F5807F086B20F085
:101D7000F87005D15B685B1E40EA0350086300E021
:101D8000086320688168DFF8E4020140914208D1CD
:101D90002846B060706820F0020040F001007060DA
:101DA0000CE0706820F0020040F010007060B06835
:101DB00040F00100B060012500E001252846F2BD99
:101DC0002DE9F04105460E46174605F1480898F8FA
:101DD0000000012801D1022059E0012088F800000C
:101DE000284600F0FEF8040050D1D8F80410DFF8BF
:101DF0008002014041F48071C8F8041028684068EE
:101E0000400507D5D8F8040020F4005040F4805075
:101E1000C8F80400D8F80400C00406D5D8F80800B3
:101E200020F00600C8F8080002E00020C8F808000A
:101E3000002088F800000FF24520696C88620FF2DC
:101E40009D20696CC8620FF29D20696C08636FF079
:101E50002200296808602868416841F0806141607B
:101E60002868816841F4807181603B463246286869
:101E700000F15801686CFFF71FFB2868816811F0BA
:101E8000405F03D1816841F0804181602046BDE818
:101E9000F08178B402460020009092F848000128B2
:101EA00001D102209BE0012082F848004D680868BB
:101EB00013681F24072D0AD26D1E05EB85051E6CC5
:101EC000AC4026EA0404A8402043186430E00D2DFD
:101ED0000AD2ED1F05EB8505DE6BAC4026EA040453
:101EE000A8402043D86323E0132D0AD20D3D05EB13
:101EF00085059E6BAC4026EA0404A8402043986305
:101F000016E0192D0AD2133D05EB85055E6BAC403A
:101F100026EA0404A8402043586309E0193D05EB74
:101F200085051E6BAC4026EA0404A84020431863D4
:101F3000886813680C6807250A2C09D204EB44044E
:101F40005E69A54026EA0505A0402843586123E0C4
:101F5000142C0AD20A3C04EB44041E69A54026EA6C
:101F60000505A0402843186116E01E2C0AD2143C37
:101F700004EB4404DE68A54026EA0505A04028439A
:101F8000D86009E01E3C04EB4404DE6DA54026EA5F
:101F90000505A0402843D8650868102801D01128FD
:101FA0001AD12F4803681B0216D4036843F40003B8
:101FB0000360086810280FD12E4800682E49B0FB36
:101FC000F1F000EB80014800009002E00098401E14
:101FD000009000980028F9D1002082F8480072BCD7
:101FE000704738B504460020009020680168490613
:101FF00030D4816841F0010181601E4800681E49AB
:10200000B0FBF1F000EB4000009002E00098401EB1
:10201000009000980028F9D1FEF712FC05462068D0
:102020000068400616D4FEF70BFC401B0328F6D3CD
:10203000206800684006F2D404F14800416841F08D
:1020400010014160816841F001018160002101704F
:10205000012032BD002032BD0000000020380240C7
:1020600004270140FF16FCFC89F1FFC0FEFF80BF82
:10207000FEF9FFFF3000002040420F00416A01F1ED
:102080002402936A13F0500F24D1906A40F4007038
:1020900090620B68986810F0405F18D110780028A3
:1020A00015D1186B10F0F87F02D0986840050ED457
:1020B000586820F020005860906A20F48070906288
:1020C000906AC00403D4906A40F001009062084610
:1020D00000F07EB8116A096B08470000406A00F002
:1020E00078B80000406AC16C41F04001C164016DE4
:1020F00041F00401016500F06DB8000030B4024603
:1021000047F6FF731846A2F13C0140F2C934A142E0
:102110000DD2002400E0641C2146C9B2512906DA20
:10212000054D35F811509542F5D208461E389842B3
:1021300000D1FEE730BC7047D8210008F8B504464E
:102140000D461646002700E07F1C3046874208DA1D
:1021500054F82700FFF7D2FF45F827001828F3D0DE
:10216000FEE7F1BD38B50446FEF76AFB054614F1FB
:10217000010F02D0044880680419FEF761FB401B80
:10218000A042FAD331BD00BF2400002081B00F4827
:10219000416841F000414160416801F00041009117
:1021A0000099016841F001010160016801F001013D
:1021B00000910099416841F080514160406800F011
:1021C00080500090009801B0704700BF2038024056
:1021D00070477047704700000404EE03D803C20341
:1021E000AC0395037F03680351033B0324030E03F1
:1021F000F802E202CC02B602A1028C02770262026D
:102200004E023B02270214020202F001DE01CD0160
:10221000BD01AC019D018D017F017001620155017D
:1022200048013C013001240119010E010601F900A9
:10223000F000E600DD00D500CD00C500BD00B60011
:10224000AF00A800A1009B0095008F008A008500C8
:1022500080007B00760071006D0069006500610000
:102260005D005A005700530050004D004A004800DE
:102270004500430040003E003C000000FEE7FEE752
:10228000FEE7FEE7FEE770477047704700F016B8BC
:1022900080B50648FFF79BF901200549087001BD8C
:1022A0000448FEF741BD0448FEF73EBD1C02002075
:1022B000000000208C010020D401002002490A689F
:1022C000886882180A6070472400002030B50168D1
:1022D00084684218416802EB5103C9070BD54C448E
:1022E00009E012F9011B12F8015B002904F8015BF7
:1022F00005D5491CF9D19A42F3D10C3030BD491EA5
:10230000F1D5F8E710B5074979441831064C7C44FB
:10231000163404E00A68081D114488470146A142AA
:10232000F8D110BD080000002400000093E8FFFF72
:102330002C020000340000200000000091FFFFFF8D
:10234000680100003E00000000000020704700000F
:10235000030406080C1018203000000000000000E4
:1023600000000000010203040607080900F00DF850
:10237000002801D0FFF7C6FFAFF300800020AFF3C5
:102380000080FFF7ECF900F002F80120704700F040
:1023900001B800000746384600F002F8FBE70000ED
:1023A00080B5AFF30080024A11001820ABBEFBE7F6
:1023B0002600020001488047014800474D230008DD
:1023C000C5230008AFF30080AFF30080FFF7CEFF16
:1023D0000000000001020304FFF7FEBFFFF7FEBF8D
:1023E000FFF7FEBFFFF7FEBFFFF7FEBFFFF7FEBF21
:1023F000FFF7FEBFFFF7FEBFFFF7FEBFFFF7FEBF11
:10240000FFF7FEBFFFF7FEBFFFF7FEBFFFF7FEBF00
:10241000FFF7FEBFFFF7FEBFFFF7FEBFFFF7FEBFF0
:10242000FFF7FEBFFFF7FEBFFFF7FEBFFFF7FEBFE0
:10243000FFF7FEBFFFF7FEBFFFF7FEBFFFF7FEBFD0
:10244000FFF7FEBFFFF7FEBFFFF7FEBFFFF7FEBFC0
:10245000FFF7FEBFFFF7FEBFFFF7FEBFFFF7FEBFB0
:10246000FFF7FEBFFFF7FEBFFFF7FEBFFFF7FEBFA0
:10247000FFF7FEBFFFF7FEBFFFF7FEBFFFF7FEBF90
:10248000FFF7FEBFFFF7FEBFFFF7FEBFFFF7FEBF80
:10249000FFF7FEBFFFF7FEBFFFF7FEBFFFF7FEBF70
:1024A000FFF7FEBFFFF7FEBFEC000CAABB018500E3
:1024B00000EB00AAAA013388F9000010FD0000011A
:0724C000FD000368FF1F008F
:04000005080023C507
:00000001FF
