:020000040800F2
:10000000B8300020717D0008657B0008677B000820
:10001000697B00086B7B00086D7B00080000000016
:10002000000000000000000000000000AF760008A3
:100030006F7B00080000000069760008EB6700088D
:10004000997D00089D7D0008A17D0008A57D000820
:10005000A97D0008AD7D0008B17D0008B57D0008D0
:10006000B97D0008BD7D0008C17D0008717B0008D6
:10007000777B00087D7B0008C57D0008C97D0008EE
:10008000837B0008897B0008CD7D0008D17D0008B6
:10009000D57D0008D97D0008DD7D0008E17D0008E0
:1000A00000000000E57D0008E97D0008ED7D000806
:1000B000F17D0008F57D0008F97D0008FD7D000850
:1000C000017E0008057E0008097E00080D7E0008FC
:1000D000117E0008157E00088F7B0008957B0008C4
:1000E000197E00081D7E0008217E0008257E00087C
:1000F0009B7B0008297E00082D7E0008317E0008C9
:10010000357E0008A17B0008A77B0008AD7B0008B6
:10011000397E00083D7E0008417E00080000000096
:10012000457E00082DE9F0439FB000BF65A6269CE0
:10013000DFF8B48A8DF83B40029100240B944FF015
:10014000FF37044691461D460AE019F8011B029844
:10015000A0470028029000F0A1800B98401C0B9053
:1001600099F8000050B12528EFD100210022059117
:1001700006920791089209910A9203E00B98A5E074
:1001800041F0010119F8010F2028F9D023280CD0E3
:100190002B2804D02D2805D0302809D080E041F04C
:1001A0000201EFE741F00401ECE741F00801E9E763
:1001B00041F01001E6E70D920AE00D98404505DA9E
:1001C00000EB800002EB4002303A0D9209F1010988
:1001D00099F80020A2F130000A28EED399F8000027
:1001E0002E2818BF0C9726D119F8010F2A2808D1FC
:1001F0002868286009F1010950F8042B28600C9246
:1002000019E02D280CBF09F10109002000220C92F1
:100210000BE040B90C9A424505DA02EB820203EB8F
:100220004203303B0C9309F1010999F80030A3F126
:1002300030020A2AEDD3ADF83810304699F8001094
:1002400000F086FE08B119F8010B8DF83A009DF810
:100250003A00682805D199F8000068280CD162217D
:1002600006E06C2804BF99F800006C2804D17121C5
:100270008DF83A1009F1010910A804902A4619F8DE
:10028000013B6946204600F061F838B910AA69467A
:10029000204600F08FF900287FF562AF384615E060
:1002A0002A2888D12A682A6052F8040B2A6000287C
:1002B0000D9003D540420D9041F0040109F1010970
:1002C0008CE70000686A6C747A4C00001FB0BDE8CF
:1002D000F083622820D0682811D06A2803D06C28C7
:1002E00027D0712825D10868C01D20F007000860BC
:1002F000D0E9002308300860194610467047002AEC
:100300000A680A60106803D0121D0A6000B217E084
:10031000121D0A6080B217E0002A0A680A6010689D
:1003200003D0121D0A6040B20AE0121D0A60C0B27A
:100330000AE0002A0A680A60106803D0121D0A60E9
:10034000C1177047121D0A600021704770B51C4626
:100350000D46B4F125002E69114600F019811C38B4
:1003600068D0001F022865D9133842D0093861D0FF
:10037000801E16D0401E1ED0401E02285AD9001FD3
:1003800019D0401F00F08180401E32D0401E00F086
:10039000CB80C01E00F0DA80801E2AD0C01E28D07C
:1003A000FCE06869421C6A610A680A6052F8043B12
:1003B0000A603354FCE095F83A000122FFF789FF08
:1003C000C5E90001002904D56869411C69612D2235
:1003D0000DE0288F810704D56869411C69612B22D3
:1003E00005E0C00721D56869411C696120223254AB
:1003F0001BE095F83A000022FFF76BFFC5E900010A
:1004000095F83800010710D5D5E90023002B08BF67
:10041000002A0AD044F02000782806D168693021EB
:100420003154401C421C6A6134542146686930448E
:10043000E86087E00868C01D20F007000860D0E988
:10044000002308300860C5E90023D5E90001C80F82
:1004500004D06869411C69612D220DE0288F810755
:1004600004D56869411C69612B2205E0C00704D5E9
:100470006869411C69612022325468693044E8602F
:100480002146284600F0C4F992E005F13A0250787E
:1004900020B14FF0FF340FF6202062E01078622880
:1004A00008D0682824D06A2812D06C282ED0712851
:1004B0000ED02BE00A680A6052F8040B0A6020B9DB
:1004C0004FF0FF340FF608204BE0E96A01706FE04F
:1004D0000A680A6052F8040B0A6020B94FF0FF3432
:1004E0000FF6EC103DE0EA6AD317C0E900235FE0A5
:1004F0000A680A6052F8040B0A6020B94FF0FF3412
:100500000FF6CC102DE0E96A018051E00A680A601C
:1005100052F8040B0A6020B94FF0FF340FF6B01008
:100520001FE0E96A016043E00A680A6052F8040BC0
:100530000A60002120F0000221F0FF33C5E900230A
:10054000EE607821284600F0BBF831E008680860CA
:1005500050F8044B0860EC603CB94FF0FF340FF6E4
:10056000881000F001FD201A70BD2E6B002E04D5FE
:10057000204600F019FD044608E0324600212046DE
:1005800000F02EFD002814BF041B3446AC610FE0C0
:100590006869411C69612522325409E06969481C77
:1005A000686125227254210002D0431C6B613454CF
:1005B000002070BD2DE9FC410F46064690467A6B3F
:1005C0007869396ABC6A121AB869521A796A121AB9
:1005D000F869521A121A97F83800141B41070FD401
:1005E0002020002C8DF800000ADD254601236A46F4
:1005F0003946304600F048FC00285DD16D1EF5D12B
:100600007B6942463946304600F03EFC002853D113
:1006100030208DF800003D6A002D09DD01236A4677
:100620003946304600F030FC002845D16D1EF5D12A
:10063000BB69FA683946304600F026FC00283BD1F9
:1006400030208DF800007D6A002D08DD01236A4608
:100650003946304600F018FC70BB6D1EF6D1F868C4
:10066000B969FB6942183946304600F00DFC18BBE9
:1006700030208DF80000BD6A002D08DD01236A4698
:100680003946304600F000FCB0B96D1EF6D197F83F
:10069000380041070DD52020002C8DF8000008DD22
:1006A00001236A463946304600F0EEFB20B9641E4D
:1006B000F6D10020BDE8F6814FF0FF30BDE8F681AD
:1006C0002DE9FC4307466F293E6908BF082405D081
:1006D00041F02000782814BF0A2410243C25D7E9D3
:1006E0000023642918BF69299046994605D1002B3B
:1006F00003D5D8F1000869EB4909B9F1000F08BF2B
:10070000B8F1000F1FD1386BE8B9082C4CD197F81D
:100710003800010748D530203B2586F83B0043E0F0
:1007200000280ED597F8380000F01400102808D1E2
:100730007B6B7969386A5B1A1B1A9A1A002AC8BF40
:100740003A62BDE8F3838DF80010404649462246E0
:10075000E31700F071FC3032D0B26D1E3A280195DB
:1007600004DB9DF80000A0F151018A187255404643
:1007700049462246E31700F05FFC80465FEA010924
:1007800008BFB8F1000F03D0F86871198842DCD3B4
:10079000082C09D197F83800010705D5705D30287D
:1007A00002D06D1E30207055C5F13C02BA6171193E
:1007B000F960386B8242B3DA821A3A624FF6EF7010
:1007C000398F01403987BDE8F3832DE9D0430646D0
:1007D0000F4614464FF00008DFF8109412E0E007CF
:1007E00007D542464B463046394600F03DFD0646A9
:1007F0000F464046494642464B4600F035FD6410E0
:1008000080468946002CEAD130463946BDE8D0837F
:100810002DE9F84F05468A464AF020048EB0D5E906
:100820000089612C02AE09D0286B002848BF062041
:1008300003D408BF672C01D101202863D5E900014A
:100840004A005215521C0DD10B030BD0AAF16101C5
:1008500003201A29A86102D20FF2A86110E00FF25A
:10086000A8610DE04A005215521C0ED10B030CD1A9
:10087000AAF1610103201A29A86116D30FF2906131
:10088000E868032200F0C2FDC0E1CDE90C01DDE91A
:100890000C2323F00043B3F5801F0DD20027002B5B
:1008A00008BF002A019703D111E00FF26061E7E76A
:1008B00001AA00F0FFFD0AE0CD48CE4900EB13503D
:1008C000DDE90C2301900B40CB4910461943C5E9E3
:1008D0000001612C0DD1E86830210170821CBAF151
:1008E000610FEA600CBF7821582141706869801C53
:1008F0006861D5E90001CDE90C01DDE90C2333F095
:10090000004104BF0028002300F04881612C40F022
:10091000A080286B494600284CBF4FF0210B00F106
:10092000010B404600220023DDE90C8900F0FAFDAE
:1009300001990BF1010738BF89F00049091F002F09
:1009400001918DF808200DF1090040F33581A94986
:1009500000910646404649460022002300F0FAFD79
:1009600080F029814800400D00F11C0211D0002ABE
:100970000FDD40F2FF739A4205DBA04909F0004009
:100980000143002011E0009B194041EA025140461A
:100990000BE028F0000039F0004108BF00280FBF2D
:1009A00049461C22494600F0EDFD8046894600F08C
:1009B00087FEFF1F002F044609DD00F09FFE024660
:1009C0000B464046494600F0ABFE80468946F01D86
:1009D000072104E004F00F0200F8012D2411002C7F
:1009E00001DD491EF6D5491E5CBF002200F8012D2D
:1009F000F9D5DCE00020194602AA0A4400E05B1E9B
:100A000012F80149491E8442F9D00F2804D10DF192
:100A10000900425C521C4254002904D50198001D73
:100A200002AE5B1C0190581E0CD43118AAF13A0496
:100A30000A783032D7B23A2FA8BFA218401E01F868
:100A40000129F5D5286B002840F1A780591E29639C
:100A5000A3E001996A4A47F29750414391FBF2F2B1
:100A6000019229F00046D2F1070204DD40463146EA
:100A7000FFF7ABFE0AE0524200206249FFF7A5FEF5
:100A800002460B464046314600F0BCFE8046662CCE
:100A9000286B06BF019F0A3706273F18142FC8BFCF
:100AA000142730208DF8080089460DF1090000E078
:100AB0003046002F34DD06464046494600F0C6FF6A
:100AC00001460A4606F1080304200A26B2FBF6F6A0
:100AD00006EB860EA2EB4E02303203F8012C0A22FE
:100AE000B6FBF2F202EB820EA6EB4E063036401E4B
:100AF00003F8026DE9D1083F002F03F10806D7DDA6
:100B0000084600F0B7FF02460B464046494600F053
:100B100007FE00223C4B00F0A7FB80468946CBE74E
:100B20000DF10901401A0DF1090604E00199491E71
:100B3000401E0191761C31783029F7D0662C02D105
:100B40000199491C03E0652C0CBF012100212B6B8E
:100B5000CB189842B8BF431E002B1ED4834204DA40
:100B6000F05C3528A8BF392000DA30201946721E03
:100B700002EB010800E05B1E18F80199491E81454F
:100B8000F9D0392802D1705C401C7054002904D57A
:100B90000198401C16465B1C0190019800B2009021
:100BA0001BB232465146284600F034F82EE0C61DEE
:100BB000002F3FF7CFAE30460DF10901401A034632
:100BC0005845C8BF5B46002B0DF109063FF53AAF0B
:100BD0008342BFF60FAF0DF10900C15C07297FF713
:100BE00009AF0F2007E70000CBCCCC0C000024405D
:100BF00002FCFFFFFFFF0F800000E03F0000F07FDE
:100C0000A08601000000F03F84D797410FB0BDE8F7
:100C1000F08F00002DE9F84783B006468A46174654
:100C2000984600F035FFB8F1000F406A356B90F838
:100C3000009002DC4FF00108B6A74AF02000BDF991
:100C40003040662808BF641C15D0672840F08480B7
:100C500014F1040FC0F28680AC4280F2838096F8D3
:100C60003800641C010702D4A845B8BF454620B22D
:100C70002D1A48BF00250FFA84FAF068B169BAF15D
:100C8000000F25DC4A1C30234354002D03DC96F86A
:100C90003800010703D5F06800F80290521C15EBEC
:100CA0000A0FB8BF6C4220B2441941424445B8BF54
:100CB000A046B26171620FFA88F5F561F068B36918
:100CC0002A463946184400F0A1FB641BB462C4E014
:100CD00022B29045084417DA4246394600F096FBA6
:100CE000B0694044B061AAEB0801002D716203DCD9
:100CF00096F838100A0705D5F16801F80090F069F8
:100D0000401CF061B562A8E0394600F07FFBB06995
:100D1000002D5044A8EB040803DC96F838100A07AD
:100D200003D5F16801F80090401CB0610FFA88F01B
:100D30008542F368B069B8BFA8460FFA88F207EB9E
:100D40000A01184400F062FBB1690FFA88F001440F
:100D5000B161281A706280E0BAF1610F14D14FF0CE
:100D6000700A16E0A84504DA96F838100A0758BF4A
:100D700045466D1E48BF0025BAF1670F14BF4FF0FE
:100D8000450A4FF0650A04E0BAF1410F08BF4FF081
:100D9000500AB169F368481CB061002D17F8012BA7
:100DA0005A5403DC96F838100A071BD5F168431C27
:100DB000B36101F80090002D14DDA8F101080FFACD
:100DC00088F039468542F768B8BFA8460FFA88F21E
:100DD000F81800F01BFBB0690FFA88F108446D1A8F
:100DE000B0617562F068B1690844002C80F800A019
:100DF00003D42B224270811C03E02D2141706442F8
:100E0000811C00206A460AE023460A2493FBF4F47E
:100E100004EB8405A3EB450302F8013B401C24B21C
:100E2000002CF1DC012806DC4AF02002652A04BF10
:100E3000302201F8012B48B9302001F8010B07E0FE
:100E4000401E1DF80030303301F8013B0028F7DC6C
:100E5000F268B0691044091AF16196F8380000F0A0
:100E6000140010280DD17269B169706A8A18F1698D
:100E70008218B06A8A188218706B8242BCBF821ACC
:100E8000326204B0BDE8F087F8B505460E46174655
:100E90001C46002074B117F8011BB068A847B06069
:100EA00030B1F06A401CF0620020641EF3D1F2BD44
:100EB0004FF0FF30F2BD00007072696E74665F73B0
:100EC0003A20256E20646973616C6C6F77656400ED
:100ED0007072696E74663A2062616420256E2061CA
:100EE0007267756D656E74007072696E74665F739B
:100EF0003A2062616420257320617267756D656EAA
:100F0000740000006E616E004E414E00696E660016
:100F1000494E4600300030B4002513E050F8042B51
:100F2000D30744BFA9F101039A18091F042942F805
:100F3000045BFAD213468C0744BF15809B1CC9077B
:100F400048BF1D7050F8041B0029E7D130BC704722
:100F5000C9B202788A421AB11CBF10F8012FF9E712
:100F600018BF00207047000080B500B906A00549F1
:100F70000B681BB122220021984701E000F08CFD94
:100F8000222002BDB02C0020636F6E737472616901
:100F90006E742068616E646C65723A2062616420D0
:100FA0006D6573736167650000F10103810704D00B
:100FB00010F8011B820781B1FAD10268A2F1013158
:100FC000914311F0803104BF50F8042FF6E709BABD
:100FD000B1FA81F100EBD100401CC01A704700004B
:100FE000C9B2830706D0521E22D310F8013B9942A2
:100FF000F7D11FE0083A13D302F1040241EA0121BC
:1010000041EA014150F8043B121F21BF4B40A3F1BC
:10101000013C2CEA030C1CF0803FF3D0C9B2001F46
:10102000083210F8013B521E28BF91EA030FF8D88E
:1010300018BF0120401E7047BBBBE1B1B2F5803F35
:1010400080F07E80022A1ED98C46B1FBF2F102FBB1
:1010500011C31B0443EA1043B3FBF2FC02FB1C3335
:1010600080B240EA0343B3FBF2F002FB103240EAE5
:101070000C4000237047022A05D98446B0FBF2F0E9
:1010800002FB10C270474AB105D100F001024908C5
:101090005FEA3000704700220023704700F000BD77
:1010A0000B000200002100207047904271EB030CFE
:1010B000F6D3B3F5803F2FD2F0B5B3FA83F7B1FA88
:1010C00081F4A7F10F0E3D1B5340CEF1200602FA2A
:1010D0000EF2F3415340B5F10F0746D80F3C2C44B4
:1010E0004140C4F12006A040F1414140B1FBF3F67C
:1010F00003FB1611A2FB0645001BA94102D2761E76
:101100008018594180EA010221FA0EF362FA0EF2C8
:1011100000215A403046F0BD30B4B1FBF3FC03FB74
:101120001C11A2FB0C45001BA94103D2ACF1010C20
:101130008018594130BC02460B466046002170477A
:10114000B2F1807F65D3F0B5B2FA82F7B1FA81F4DB
:10115000C7F10F063D1B22FA06F307F1110EF2410B
:1011600020355A40B5F10F07B8D94140C4F12006E7
:10117000A040F1414140B1FBF3FC03FB1C11A2FB79
:101180000C45001BA94103D2BCF1010C8018594148
:101190000F2F12D30F3FC90341EA5041B1FBF3F6C1
:1011A00003FB1611A2FB0645D4EBC030A94102D2C5
:1011B000761E8018594146EACC3C07B34140C7F13E
:1011C0002006B840F1414140B1FBF3F603FB161194
:1011D000A2FB0645001BA94102D2761E8018594188
:1011E00080EA010221FA0EF3C7F1200462FA0EF23E
:1011F0000CFA07F05A402CFA04F13043F0BD80EAB3
:10120000010221FA0EF3002162FA0EF260465A4002
:10121000F0BD8C46B1FBF2F102FB11C31B0243EAA5
:101220001063B3FBF2FC02FB1C331B024CEA0020F0
:1012300043EA1063B3FBF2FC02FB1C331B024CEAD3
:10124000002043EA1063B3FBF2FC02FB1C331B02D9
:101250004CEA002043EA1063B3FBF2FC02FB1C32B1
:101260004CEA002000237047B0B581EA030C0CF073
:10127000004C40F2FF7515EA11541DBF15EA1357D3
:10128000AC42AF4239E0E41923EA455343F48013FA
:10129000C90241F0004141EA505EC7021100A7FBBC
:1012A000020200284FF00000EEFB01204FF0000189
:1012B000E3FB072118BF42F0010240180021494119
:1012C000E3FB0E01A4F580640F0302D252004041FB
:1012D000494154F101046CDD470872F1004250F1BC
:1012E000000051EB0451A1F580115CBF41EA0C01F3
:1012F000B0BD4CEA05510020B0BD05EA1357AC4221
:1013000014BFAF4241E050EA410E1CBF52EA430E07
:1013100002E061460020B0BD24423C441BD15FEA9C
:10132000070EF6D0090302BF01460020AEF1140EED
:10133000B1FA81F7AEEB070401FA07FE0C37C7F1EB
:10134000200100FA07F7C8404EEA000E23EA455391
:1013500043F48013A2E733F00043B3FA83F704BFEA
:10136000B2FA82FE77440B3FE41BB7F1200E2FBF89
:1013700002FA0EF3BB40C7F1200E22FA0EFE38BF70
:1013800043EA0E03BA40641C82E750EA410E14BFE0
:1013900052EA430E6FF000014FF4001717EB430FB2
:1013A0008ABF194617EB410FB5E74CEA05510020FB
:1013B000B0BDD4F10104B4F120070FDAC4F1200765
:1013C000520828BF42F0010210FA07F501FA07F7A8
:1013D000E1BF2A43E0403843E1400FE0352C98DC80
:1013E000C7F1200452EA400220FA07F218BF42F087
:1013F000010231FA07F0A1400A43002172F10042D4
:1014000050F1000051EB0C01B0BD000062B38B073E
:1014100008D0521E11F8013B00F8013B00F0248077
:101420008B07F6D1830740F0208000BF103A07D326
:1014300030B4B1E83810103AA0E83810F9D230BC16
:10144000530724BFB1E80810A0E8081044BF51F8C2
:10145000043B40F8043BD20724BF31F8022B20F8AC
:10146000022B44BF0B7803707047121F17D35B0029
:1014700009D151F8043B20F8023B1B0C121F20F845
:10148000023BF6D20BE051F8043B00F8013B1B0A8B
:1014900020F8023B1B0C121F00F8013BF3D238BFAF
:1014A000121D521E24BF11F8013B00F8013BF8D871
:1014B0007047000010B5144600F002F8226010BD1D
:1014C000C1F30A5343B14A0012F5001F28D2A3F218
:1014D000FE32A1EB0251704750EA410C20D001F0DE
:1014E000004C31EA0C01B1FA81F204BFB0FA80F38A
:1014F000D2180B3AB2F120032CBF00FA03F191404D
:1015000041EA0C013EBFC2F1200C20FA0CF3194352
:101510009040524240F2FD33D21A01EB0351704722
:10152000002270474FF4001C1CEB410F94BF1CEBD2
:10153000430F09E041EA030C50EA4C0C52EA0C0C50
:1015400003D2994208BF9042704714BF8B42824237
:10155000704700004FF4001C1CEB410F94BF1CEBC4
:10156000430F09E041EA030C50EA4C0C52EA0C0C20
:1015700003D28B4208BF8242704714BF9942904207
:1015800070470000124254D440F2FF7C1CEA115311
:101590000FD0634531D09B1863453CBF01EB02512E
:1015A000704701F0004141EA0C510020AFF3008088
:1015B000704750EA410320D001F0004C91EA0C0141
:1015C0001CD0B1FA81F30B3B9A420DD9D21A994043
:1015D00051EA0C01C3F1200C20FA0CFC6144984044
:1015E000531C40F2FF7CD7E7914041EA0C01C2F165
:1015F000200C20FA0CF3194390407047B0FA80F3A6
:101600001533202BE0D3202AEED3203A203B9A42F8
:1016100009D9D21A00FA03F141EA0C010020531C47
:1016200040F2FF7CB8E700FA02F141EA0C01002029
:101630007047524240F2FF7C1CEA11530DD06345C3
:10164000DBD0B2EB030C3CBFA1EB025170470CF1B5
:10165000010221EA035141F4801150EA410CCCD03F
:1016600001F0004C352A27DC30B481EA0C01B2F1DC
:10167000200309DAC2F12003044601FA03F5D04041
:101680002843D1409C400CE0C3F12002450020FAE1
:1016900003F418BF44F0010421FA03F091400C4315
:1016A000002174F1004550F1000051EB0C0124427F
:1016B00030BC7FF47BAF70476146002076E70000C6
:1016C000C1F30A5340F2FE329B1A14DDD3F120031A
:1016D0004FEAE17208DDC90241EA505141F0004091
:1016E000D84080185040704703F2E13010B1D24327
:1016F00082F000407047002070470000C11768B1B9
:101700004840401AB0FA80F29040D21CC907C2F596
:10171000846241EA025202EBD0214005704700008A
:1017200070B44FF0004591EA030F40F1C3816B4064
:10173000841A71EB030603D2001BB14112197341E5
:101740004FF4001C1CEB410F34BF7CEB430442E020
:101750000C0DA4EB1356352E4FDC45EAC323DB0AF0
:1017600045EAC121C912B6F120050DDD63FA05F67F
:10177000EB4086EA0305124218BF45F00105C01888
:1017800051F100010CD213E062FA06F5F240554027
:10179000F3415A40B340F3405A408018594107D3AF
:1017A00049085FEA30005FEA350528BF45F00105CA
:1017B00001F58011420875F1004250F1000041EB43
:1017C00004514E0016F5001F70BC38BF7047002052
:1017D000090D090570471CEB410F10D252EA430670
:1017E0000BD0BCEB410F05D80C0DAB43661E342E5D
:1017F000B6DD02E0AB438018594170BC704770BC45
:1018000070470000F0B540F2FF7581EA030C0CF060
:10181000004C15EA11541DBF15EA1357AC42AF42F4
:10182000E5E0BC41C1F31301C3F31303801A9941EE
:1018300043F4801304D2641E40004941801859418A
:10184000C90241EA5051B1FBF3F603FB1611A2FBAA
:101850000675D7EBC020A94102D2761E80185941E7
:10186000C90241EA5051B1FBF3FE03FB1E11A2FB7A
:101870000E75D7EBC020A94103D2AEF1010E80183E
:101880005941890241EA9051760546EA8E2EB1FB14
:10189000F3F603FB1611A2FB0675D7EB8020A941D6
:1018A00002D2761E80185941C90241EA50514EEACF
:1018B000060EB1FBF3F603FB1611A2FB0675D7EB80
:1018C000C020A94102D2761E80185941C90241EABE
:1018D0005051B1FBF3F703FB1711A2FB0735D3EB14
:1018E000C020A94167F100070CBF004247F0010783
:1018F00066F3D5274FEA1E31B80814F5806412DD6F
:10190000BD0775F1004250EB0E5051EB045111F53B
:10191000801F5CBF41EA0C01F0BD4CF07F6141F0DB
:10192000E0410020F0BDBD076D0840EA0E5041F4D3
:101930008011D4F10104B4F120060ADAC4F12006C2
:101940000200E04001FA06F3E1401843B2401543BB
:101950000EE0342C13DCC6F1200445EA40056D0886
:1019600020FA06F2154321FA06F0A1400D430021AA
:1019700075F1004250F1000051EB0C01F0BD002068
:101980005FEA0C01F0BDCFB992185B41B3FA83F75F
:1019900004BFB2FA82F6BF190B3FB7F120062FBF82
:1019A00002FA06F3BB40C7F1200622FA06F638BF5A
:1019B0003343BA401CB1E419641E33E77F4231F06F
:1019C0000041B1FA81F404BFB0FA80F6A4190B3CCF
:1019D000B4F120062FBF00FA06F1A140C4F12006A1
:1019E00020FA06F638BF3143A0403C1B1AE7AC4250
:1019F0001ABF05EA1357AF4212E050EA41061CBF76
:101A000052EA4306BFE750EA4107304661461CBF31
:101A100041EA0551F0BD52EA430C08BFC143F0BD95
:101A200000204FF4001616EB410F98BF16EB430F42
:101A300008BF16EB410F24BFC14305E016EB430F6F
:101A40000CBF61464CEA0551F0BD0000400D49183D
:101A500040EA81200CD2490DA1F58061491C40F07B
:101A6000004005DBD1F11F0154BFC840C0177047CB
:101A700000207047014648B1B0FA80F18840C91C87
:101A8000C1F58461090501EBD021400570470000D4
:101A90000048704744000020012000F0C1B8000059
:101AA0007047000070B44FF0004591EA030F7FF5D6
:101AB0003FAE6B40841A71EB030604D26E40001BEC
:101AC000B141121973414FF4001C1CEB410F34BF9C
:101AD0007CEB430683E00C0DA4EB1356362E00F38B
:101AE0007C80012E45EAC32341DC43EA525312BFF6
:101AF000D20292025B08240545EAC12141EA505115
:101B0000D2EBC020994125D407D1B0FA80F610FA63
:101B100006F162D00020203608E0B1FA81F6B1402B
:101B2000C6F1200220FA02F21143B0404FEAF474E9
:101B3000B4EB465434F001064FEA74040AD8D6F5E3
:101B40000016760D04F00044F04061FA06F25040B1
:101B5000F1404840C00A40EA415021F0004128BF0E
:101B60005FEA500550F1000044EBD12135E0DB0A7B
:101B700045EAC121C90AB6F120050EDD42EA02425A
:101B8000120CC5F1200603FA06F6EB4042EA060500
:101B90006D42984161F100010DE062FA06F5F240F4
:101BA000554063FA06FC82EA0C02F3405A406D424B
:101BB000904161EB030111F4801F05D1641E6205A1
:101BC00002D06D004041494121F48011430875F174
:101BD000004350F1000041EB045170BC70471CEB16
:101BE000410F15D223F0004352EA43060BD04FEACF
:101BF0004C0CBCEB410F04D80C0D661E342EB7DD27
:101C0000EBE7801A994150EA410608BF0021E4E75A
:101C100008BF1CEB430F28BF6FF00001DDE7000099
:101C200080B5AFF30080024A11001820ABBEFBE77D
:101C30002600020038B5040001D1012032BD04F1B4
:101C400040056878002804D100202870204600F064
:101C50000EFD242068702068C16821F40051C16025
:101C6000204600F04DFC2068016921F4904101619B
:101C70002068416921F02A0141612068C16841F46E
:101C80000051C1600020686020206870A8700020AA
:101C9000606332BD2DE9FC4106460D4614461F46E1
:101CA00096F8410020283DD1002D01D0200001D11F
:101CB000012038E000207064212086F8410000F007
:101CC00057FE8046B484F484B068B0F5805F04D1D8
:101CD0003069002801D1002411E02C4600250EE0D7
:101CE00014F8011B416007E03068002CF8D135F88A
:101CF000021BC1F308014160F08C401EF084F08C9F
:101D000000280097434610D000228021304600F082
:101D100071FA0028E8D0032005E0202086F8410071
:101D2000002000E00220BDE8F6810022402130467C
:101D300000F060FA0028F0D00320F4E710B5044664
:101D4000134694F84100202833D1002901D018000F
:101D500001D1012010BD2162A384E38400206064CE
:101D6000212084F841000FF23530A26B90620FF20F
:101D70007930A26BD0621048A26B10630020A26B76
:101D800050632068021DA06B00F042FE6FF040001F
:101D9000216808602068143050E8001F41F080017D
:101DA000206800F1140242E800100028F2D100205F
:101DB00010BD022010BD00009F2100081CB5044684
:101DC00094F8420020282AD1002901D0100001D126
:101DD000012016BD0120206300206063204600F032
:101DE0004CFA010019D1206B012815D10020009078
:101DF00020680268009240680090009820680C30CB
:101E000050E8002F42F01002206800F10C0343E874
:101E100000200028F2D100E00121084616BD022072
:101E200016BD7CB5044625682968EA686B6911F01F
:101E30000F0007D18E0605D5960603D52046BDE8CE
:101E40007640F1E200286ED0D80702D412F4907FD9
:101E500069D00846C00705D5D00503D5606C40F0B1
:101E600001006064480706D51846C00703D5606CBA
:101E700040F002006064880706D51846C00703D505
:101E8000606C40F004006064080707D5900601D438
:101E9000D80703D5606C40F008006064606C0028CF
:101EA00000F0FA80880604D5900602D5204600F09E
:101EB000BBFA20684069800900F00100616C0907E5
:101EC00001D4002829D0204600F03BFA2068406960
:101ED00040061DD52068143050E8001F21F0400155
:101EE000206800F1140242E800100028F2D1E06BF3
:101EF00000280DD00FF2AD414163E06B00F0EAFD28
:101F0000002800F0C980E06B416BBDE87C400847C9
:101F10002046BDE8764000F081BE204600F07EFEFF
:101F20000020606473BD206B012840F0A580C806C6
:101F300040F1A280D00640F19F80002000902868E8
:101F400000906868009000986869400656D5E06B7C
:101F50000068406880B2002800F09E80A18D884211
:101F600080F29A80E085E06B806920283BD0206871
:101F70000C3050E8001F21F48071206800F10C0241
:101F800042E800100028F2D12068143050E8001F09
:101F900049084900206800F1140242E800100028B6
:101FA000F2D12068143050E8001F21F04001206871
:101FB00000F1140242E800100028F2D1202084F839
:101FC00042000020206320680C3050E8001F21F000
:101FD0001001206800F10C0242E800100028F2D144
:101FE000E06B00F051FD02206063A18DE08D091AC5
:101FF00089B22046BDE87C4000F0FABEA08DE18D9C
:10200000411AE08D002847D0084680B2002843D00E
:1020100020680C3050E8002F22F49072206800F104
:102020000C0343E800200028F2D12068143050E867
:10203000002F52085200206800F1140343E80020EA
:102040000028F2D1202084F842000020206320687C
:102050000C3050E8002F22F01002206800F10C0331
:1020600043E800200028F2D10220606389B22046B4
:10207000BDE87C4000F0BCBE080605D5100603D5BF
:102080002046BDE8764093E1480605D5500603D5C5
:102090002046BDE87640BAE173BD00000146486ABB
:1020A0000968096889061CD40021C18401681431BB
:1020B00051E8002F22F08002016801F1140343E887
:1020C00000210029F2D101680C3151E8002F42F0C3
:1020D0004002016801F10C0343E800210029F2D11C
:1020E000704700F011BF0000406A00F00EBF0146CB
:1020F000486A0968096889063BD40021C1850168DE
:102100000C3151E8002F22F48072016801F10C03B8
:1021100043E800210029F2D10168143151E8002F71
:1021200052085200016801F1140343E8002100291C
:10213000F2D10168143151E8002F22F04002016809
:1021400001F1140343E800210029F2D1202180F895
:102150004210016B01290CD101680C3151E8002FAC
:1021600022F01002016801F10C0343E8002100296C
:10217000F2D100214163016B012902D1818D00F070
:1021800037BE00F0C3BE406A01214163016B0129E3
:1021900003D1818D490800F02BBE00F0B8BE38B5E0
:1021A000446A20684069C00900F0010004F141055B
:1021B0002978212906D1002804D00020E084204677
:1021C00000F0AEF820684069800900F001006978ED
:1021D000222906D1002804D00020E085204600F006
:1021E000B0F8606C40F0100060642046BDE83240FA
:1021F00000F014BD2DE9F04105460E4617469846FD
:10220000069C286800683040B04201D1012000E0FF
:102210000020394688422DD114F1010FF1D0002C55
:1022200005D000F0A5FBA0EB08008442E9D22868A5
:102230000C3050E8001F21F4D071286800F10C0226
:1022400042E800100028F2D12868143050E8001F3E
:1022500049084900286800F1140242E800100028EB
:10226000F2D105F140002021417081700021017000
:10227000032000E00020BDE8F0811CB504461346B1
:10228000A162A38500206064222084F84200DFF868
:102290002803E26B9062DFF82403E26BD062DFF880
:1022A0002003E26B10630020E26B50630A46206853
:1022B000011DE06B00F0ACFB00200090206801687D
:1022C0000091406800900098206900280CD0206898
:1022D0000C3050E8001F41F48071206800F10C02BE
:1022E00042E800100028F2D12068143050E8001FA6
:1022F00041F00101206800F1140242E800100028BA
:10230000F2D12068143050E8001F41F040012068ED
:1023100000F1140242E800100028F2D1002016BD9E
:1023200001680C3151E8002F22F0C002016801F170
:102330000C0343E800210029F2D1202180F841104C
:10234000704701680C3151E8002F22F49072016847
:1023500001F10C0343E800210029F2D10168143196
:1023600051E8002F52085200016801F1140343E8BC
:1023700000210029F2D1016B01290CD101680C3137
:1023800051E8002F22F01002016801F10C0343E82C
:1023900000210029F2D1202180F8421000210163A0
:1023A00070470000406A0021C185C18400F036BC3E
:1023B00090F84110212928D18168B1F5805F0CD1B6
:1023C0000169002909D1016A0988C1F3080102687D
:1023D0005160016A891C016205E0016A4A1C0262BF
:1023E000097802685160C18C491EC18489B20029F4
:1023F00009D10168CA6822F08002CA600068C16819
:1024000041F04001C160002070470220704780B554
:102410000168CA6822F04002CA60202180F8411099
:1024200000F072FD002002BD80B590F84210222914
:1024300064D18268B2F5805F0CD10169002909D1AD
:1024400001684968C1F30801826A1180816A891CA8
:10245000816214E0836AB2F5805F04D0002A06D15D
:102460000169002903D101684968197004E0016815
:10247000496801F07F011970816A491C8162C18D30
:10248000491EC18589B2002936D10168CA6822F087
:102490002002CA600168CA6822F48072CA600168BA
:1024A0004A69520852004A61202180F842100021F6
:1024B0004163016B01291DD10021016301680C31C9
:1024C00051E8002F22F01002016801F10C0343E8EB
:1024D00000210029F2D101680A68D20606D500223F
:1024E00000920A680092496800910099818D00F07D
:1024F0007FFC01E000F00AFD002002BD022002BDC9
:1025000010B5044621680A6922F44052E06802438B
:102510000A612168CA682B480240A068024320690A
:10252000024360690243E0690243CA6021684A6964
:1025300022F44072A06902434A612068224988421D
:1025400002D101F011F801E001F003F8636822689C
:10255000192148436421E469B4F5004F16D15B00AA
:10256000B0FBF3F00B46B0FBF3F301FB1301C90022
:1025700032316420B1FBF0F0410001F4F87101EB5D
:10258000031100F007004018906010BD9B00B0FBE5
:10259000F3F00B46B0FBF3F301FB130109013231F9
:1025A0006420B1FBF0F000F0F00101EB031100F04A
:1025B0000F004018906010BDEF2000088721000830
:1025C0009F210008F369FFFF0038014080B5DFF864
:1025D0006803DFF8681301604FF4E13141600021C6
:1025E0008160C16001610C21416100218161C16193
:1025F000FFF720FB002803D0BDE8014001F0E2B85E
:1026000001BD80B5DFF83803DFF8381301604FF4FF
:102610001651416000218160C16001610C2141615E
:1026200000218161C161FFF705FB002803D0BDE8EF
:10263000014001F0C7B801BD80B5DFF80C03DFF839
:102640000C1301604FF41651416000218160C1609C
:1026500001610C21416100218161C161FFF7EAFA4A
:10266000002803D0BDE8014001F0ACB801BDF8B5C9
:1026700086B004466846142101F0B2F82068B44DD3
:10268000AE49884270D1B348816841F480118160BD
:10269000816801F4801105910599016841F00401F8
:1026A0000160016801F0040105910599016841F09C
:1026B00008010160006800F00800059005984FF4DB
:1026C000805000900220019001200290032003908E
:1026D000082004906946A04801F086F80420009084
:1026E0000220019001200290032003900820049012
:1026F00069469A4801F078F8994E06F1140028606E
:1027000000206860A8608020E8600020286168617F
:10271000A861E861284600F031F9002801D001F0F5
:1027200051F8E5636C626E641020A8640020E864D0
:102730008020286500206865A865E865286605F1A1
:10274000440000F01BF9002801D001F03BF805F12E
:102750004400A063AC6600220521312001F078F925
:10276000312001F084F9D9E07649884269D179486D
:10277000816841F400318160816801F40031059184
:102780000599016841F001010160006800F0010055
:1027900005900598042000900220019000200290EE
:1027A00003200390072004906E4E6946304601F0E6
:1027B0001BF80820009002200190012002900320C5
:1027C0000390072004906946304601F00DF805F1AA
:1027D0008806654F07F15000306000207060B060DF
:1027E0008020F060002030617061B061F06130469F
:1027F00000F0C4F8002801D000F0E4FFE663746242
:1028000007F1640070641020B0640020F064802040
:10281000306500207065B065F0653066CC352846BF
:1028200000F0ACF8002801D000F0CCFFA563B4663E
:1028300000220521262001F00BF9262001F017F9CE
:102840006CE04249884269D14248816841F4802164
:102850008160816801F4802105910599016841F04A
:1028600002010160006800F00200059005984FF435
:1028700080600090022001900020029003200390CD
:1028800007200490394E6946304600F0ADFF4FF402
:10289000006000900220019001200290032003902C
:1028A000072004906946304600F09EFF05F58876C3
:1028B0002D4F07F11400306000207060B060802060
:1028C000F060002030617061B061F061304600F06E
:1028D00055F8002801D000F075FFE6637462776454
:1028E0001020B0640020F064802030650020706506
:1028F000B065F065306605F5AA75284600F03EF82B
:10290000002801D000F05EFFA563B4660022052117
:10291000272001F09DF8272001F0A9F807B0F0BDAD
:1029200001B54FF6FF73012269460348FFF7B2F97C
:10293000009802BD00000000482A0020005000401E
:10294000902A002000440040D82A0020004800407F
:10295000D02400201C38024000080240000C024035
:1029600008640240000002401C6002400004024073
:1029700001480068704700BF0C00002010B4002818
:1029800001D1012037E0036800F138021B498B4276
:1029900009D21B49CB181421B3FBF1F189009160D6
:1029A0001849516008E01849CB181421B3FBF1F124
:1029B0008900916015495160022180F82110036857
:1029C0001C686FF30E1441680C4381680C43C168A6
:1029D0000C4301690C4341690C4381690C43C16993
:1029E0000C431C6000211160012180F8211000219E
:1029F00080F82010084610BC7047000008640240B0
:102A0000F89FFDBF00600240F89BFDBF00640240DC
:102A1000F8B50446002594F82000012801D10220D1
:102A2000F2BD012084F8200094F82100012825D16E
:102A3000022084F8210004F12C062846F06020686A
:102A400007687F087F000760204600F0CFF8216804
:102A500030680028086803D040F00E00086007E0E6
:102A600020F0040008602068016841F00A0101605C
:102A70002068016841F00101016003E0284684F804
:102A8000200002252846F2BD00F1380190F82120EF
:102A9000022A06D004220A60002180F820100120BA
:102AA00070470268136823F00E031360026813680E
:102AB0005B085B00136001220B7A03F01C039A4051
:102AC00049684A60012180F82110002180F8201017
:102AD0000846704710B5002400F1340190F8212019
:102AE000022A03D00420486001241AE00268136817
:102AF00023F00E031360026813685B085B00136029
:102B000001220B7B03F01C039A408B685A60012260
:102B100080F82120224680F820200968002900D072
:102B20008847204610BDF0B400F128014A691468B6
:102B3000026815680E7E06F01C06042303FA06F7E9
:102B40003C4213D06F0711D51468A40603D414684F
:102B500024F0040414600A7E02F01C0293404A69C7
:102B60005360496800293ED0F0BC0847022303FAAD
:102B700006F73C4219D0AF0717D51468A40606D44F
:102B8000146824F00A041460012280F821200A7ECF
:102B900002F01C0293404A695360002280F8202012
:102BA000096800291FD0F0BC0847082303FA06F67D
:102BB000344218D02B0716D5136823F00E03136088
:102BC00001220B7E03F01C039A404B695A600122DC
:102BD0000A6180F82120002280F8202089680029DD
:102BE00001D0F0BC0847F0BC7047000030B40124AD
:102BF00090F8405005F01C05AC40C56B6C60046853
:102C0000636003684468102C03D19A600068C16057
:102C100002E099600068C26030BC704770470000F5
:102C2000F8B58EB09F4C002021684862204600F025
:102C300047FF9D4984B068464822FEF7F7FB0FBC6A
:102C400001F00EF9994984B068464822FEF7EEFB80
:102C50000FBC01F005F9964900200870954A1070E4
:102C6000954B01201870954D28701878002802D1D6
:102C70002878002803D0924800780028F5D000205A
:102C80000870107021684862204600F047FF8C48A9
:102C90000078002806D0132170200FB0BDE8F04066
:102CA00001F033BB874D10222946874801F04CFCC8
:102CB000C82001F0E7FD854C10222146284601F08E
:102CC00017FE00252CE030894FF0010C0CFA03FCB4
:102CD00010EA0C0F0DD002F1200001FB03FC30F8CC
:102CE0000C00BC465FFA8CFC06EB4C0CACF82000E8
:102CF0007F1C5B1C102BE6DB306C0290F06B0190AC
:102D0000B0790090F08B0346DBB206F120027089A7
:102D10000146C9B206F10C0001F0BBFF70636D1CE7
:102D2000102D63DA50216A4A01FB05F0161896F857
:102D30004C000028F3D034F81500F0837079A128F6
:102D400009D0ECD3A32828D013D3A5283FD032D361
:102D5000A62848D0E3E7F06B0090F08B0346DBB287
:102D6000328C70890146C9B2B08901F0ACFE706343
:102D7000D5E7B06C0390706C0290306C0190F06BF2
:102D80000090F08B0346DBB2328C70890146C9B2E9
:102D9000B08901F0F0FE7063C1E7F06B0090F08B3A
:102DA0000346DBB2328C70890146C9B2B08901F0AA
:102DB0002DFE7063B3E7F08B0346DBB2328C708973
:102DC0000146C9B2B08901F0E3FD7063A7E7F08B5B
:102DD0000346DBB2328C70890146C9B2B08901F07A
:102DE00099FD70639BE700273B4683E70FB0F0BD7A
:102DF00013B504460020009020683649884216D159
:102E000000236A4601A93448006802F0ACF9009832
:102E1000002807D04FF0805030490860BFF34F8F33
:102E2000BFF36F8F20222E491F48FEF7C7FF20688F
:102E30002C49884216D100236A4601A92A48006815
:102E400002F091F90098002807D04FF080502349F4
:102E50000860BFF34F8FBFF36F8F202223491348C1
:102E6000FEF7ACFF2068224988420BD1012021499E
:102E70000870BDF804002049087020221F4920482E
:102E8000FEF79CFF13BD00681E49884200D07047C2
:102E900010B5044C204600F041FE00202168486235
:102EA00010BD0000E42B0020902A0020D82A00202A
:102EB000992C00209A2C0020972C0020982C002080
:102EC0009B2C0020242C0020A4290020442C00202E
:102ED000B80E002000440040A42C002004ED00E0C7
:102EE0005028002000480040A82C00207028002016
:102EF00000500040B42C0020B52C002030280020C9
:102F0000482A0020002401407047704770477047EE
:102F10002DE9FC47040000F09181DFF81077BD68CF
:102F200005F00C05BE6806F480362078C0070DD584
:102F3000082D04D00C2D47D1B6F5803F44D1386818
:102F4000800303D56068002800F07881207880072E
:102F500013D5042D03D00C2D79D1002E77D13868EC
:102F6000800703D5E068012840F06881786820F484
:102F7000F850216940EA012078602078C00640F1CD
:102F80007481002D40F0B1803868800503D5A069B8
:102F9000002800F05381206A796801F46041814281
:102FA00078D200F006FB002840F04881796821F4CF
:102FB0006041206A01437960786820F07F40E169D0
:102FC00040EA0160786077E06068012804D13868E1
:102FD00040F4803038601CE0002808D1386820F4C4
:102FE00080303860386820F48020386011E005288F
:102FF000386807D140F480203860386840F4803069
:10300000386006E020F480303860386820F4802092
:103010003860606800280DD0FFF7AAFC8046386849
:10302000800393D4FFF7A4FCA0EB08006528F6D337
:10303000032091E1FFF79CFC80463868800385D52A
:10304000FFF796FCA0EB08006528F6D3F0E7DFF861
:10305000E815E06800280ED001200860FFF788FC22
:1030600006463868800700F1EB80FFF781FC801B83
:103070000228F6D9DCE700200860FFF779FC064655
:10308000386880077FF579AFFFF772FC801B022854
:10309000F6D9CDE7796821F4604108437860786813
:1030A00020F07F40E16940EA01607860206A00F02A
:1030B00080FA002840F0C2800120216A490B491C97
:1030C0008840C003DFF87415BA68C2F30312895C44
:1030D000C840DFF85C150860DFF85805006802F0AA
:1030E00033FA010000F0C18036E1DFF84C15A06929
:1030F000002816D001200862FFF73AFC064638681F
:10310000800500F1A580FFF733FC801B0228F6D96B
:103110008EE7FFF72DFCA0EB0800022840F2B380F9
:1031200086E700200862FFF723FC06463868800522
:1031300040F19B80FFF71CFC801B0228F6D977E743
:1031400000200860FFF714FC0646786B800740F10A
:103150009E80FFF70DFC801B0228F6D968E7002847
:1031600008D1786B20F480707863786B20F48060ED
:10317000786311E00528786B07D140F480607863AC
:10318000786B40F48070786306E020F48070786398
:10319000786B20F480607863A06800280ED0FFF779
:1031A000E7FB0646786B800500F1A780FFF7E0FBA0
:1031B000801B41F289318842F4D339E7FFF7D8FB0D
:1031C0000646786B800540F19880FFF7D1FB801BA5
:1031D00041F289318842F4D32AE7FFF7C9FBA0EB1B
:1031E0000800022840F2A08022E7FFF7C1FB001B85
:1031F000022840F2AC801BE700202866FFF7B8FBEE
:1032000004463868800140F1A680FFF7B1FB001B3F
:103210000228F6D90CE7012810D0B86800F48031F4
:10322000A26A91420AD100F47011E26A914205D17A
:1032300000F44000216B884200F08D8001208BE07B
:10324000786820F4F850216940EA0120786094E61B
:10325000796821F46041206A01437960786820F040
:103260007F40E16940EA01607860207800070ED570
:10327000DFF8CC13606900283FF462AF01200860DA
:10328000FFF776FB8046786B80077FF542AF2078AA
:10329000400739D54FF00008786AC0000AD4786A30
:1032A00040F080507862786A00F08050009000987A
:1032B0004FF00108DFF88C93D9F80000C00513D453
:1032C000D9F8000040F48070C9F80000FFF750FB07
:1032D0008246D9F80000C00506D4FFF749FBA0EBF1
:1032E0000A006528F5D3A3E6A06801287FF437AF6C
:1032F000786B40F4807078634EE7B8F1010F03D12A
:10330000786A20F080507862606A002823D00C2D03
:103310003FF481AFDFF8205302287FF46DAF002027
:103320002866FFF725FB8046386880013FF555AFDA
:10333000B96821F47D01A06A0143E06A0143206B72
:103340000143B96001202866FFF712FB0446386884
:1033500080017FF54AAF0020BDE8F6872DE9F041F6
:1033600004460F46002C00F0AF80DFF8DC623068C6
:1033700000F00100B84210D2012F03D1306840F0B4
:10338000040030603068400857EA40003060306820
:1033900000F00100B84240F09780DFF890522078AA
:1033A000800705D5A96821F0F001A0680143A96054
:1033B0002078C00773D56068022803D12968890383
:1033C0000ED481E0032803D12968890108D47BE069
:1033D0000128296802D1890702D475E0890573D5CF
:1033E000A968890850EA8100A860FFF7C1FA804601
:1033F000606802280ED1A86800F00C0008284ED0A2
:10340000FFF7B6FAA0EB080041F289318842F2D307
:10341000032042E003280DD1A86800F00C000C281E
:103420003DD0FFF7A5FAA0EB080041F289318842B0
:10343000F2D3EDE7012849D1A86800F00C00042878
:103440002DD0FFF795FAA0EB080041F289318842B0
:10345000F2D3DDE72078400705D5A96821F4E061C3
:10346000E0680143A9602078000706D5A86820F429
:103470006050216940EAC100A86000F034F86F494B
:10348000AA68C2F30312895CC840694908606948A8
:103490000068BDE8F04102F057B8BDE8F08130683F
:1034A00000F001008742D5D2012F03D1306840F0EF
:1034B000040030603068400857EA400030603068EF
:1034C00000F00100B842C5D00120E6E7A86810F07E
:1034D0000C0FE4D0FFF74CFAA0EB080041F2893161
:1034E0008842F3D394E710B45948416801F00C02C4
:1034F000042A04D0082A04D00C2A05D01CE0554820
:1035000022E04FF461001FE0534AC1F38343D45CCF
:10351000C1F38152521C00234068C00306D54FF40A
:103520006100A0FB040110BCFDF786BD4948A0FB6B
:10353000040110BCFDF780BD0068C0F342300121DA
:10354000401C01FA00F0C00310BC70473848006806
:10355000704780B5FFF7FAFF40493C4A1268C2F352
:103560000222895CC84002BD80B5FFF7EFFF3B49EE
:10357000364A1268C2F3C222895CC84002BD0F22DB
:103580000260324A136803F003034360136803F0D8
:10359000F0038360136803F4E063C3601268D20829
:1035A00002F4E06202612848006800F0010008604F
:1035B000704718B40021254A136813F0F00F1ED18C
:1035C000204BD469E40003D51B6803F4C0530FE01B
:1035D000D46944F08054D461D46904F080540094D8
:1035E000009C1B6803F4C053D46924F08054D46158
:1035F000B3F5C05F03D1B0F5404F00D101211248AF
:10360000012903D1026842F00402026002685208F4
:1036100051EA42020260006800F00100884201D0D5
:10362000012000E0002012BC70470000003802407A
:103630001800002010000020000047420C7D000808
:103640008006474200700040003C024008380240BB
:10365000043802400024F400007D00088C7D00083E
:1036600070B501F0BFFF00F03FF801F0CBFF02F0B2
:1036700027F802F075F8FEF7DFFFFEF7C2FF02F051
:10368000D9F9FEF7A3FF02F02BFA46480168CA6891
:1036900042F01002CA60444C2168CA6842F010022D
:1036A000CA60424D2968CA6842F01002CA60404EA2
:1036B000202206F12001FEF781FB202206F14001C5
:1036C0002046FEF77BFB202231462846FEF776FB9C
:1036D00002F053FA3CA002F06FFA02F081FA02F015
:1036E0006BFB02F09BFAFEE780B592B005A834218F
:1036F00000F076F86846142100F072F82D48016851
:1037000021F4C05141F4006101600B2005900520B7
:103710000690012008901020099001200A900020B6
:103720000E9005A8FFF7F4FB002801D000F04AF83E
:103730000F2000900220019000200290039004903E
:1037400001466846FFF70AFE002801D000F03AF86B
:1037500013B000BD38B504462068B0F1804F17D1D2
:10376000154D284600F0DAF900202968486213490F
:103770000120C8710020C8700871087048790028BD
:1037800001D1002048708879002801D1002088707C
:1037900020680B49884203D1BDE8314002F054BD96
:1037A00031BD0000902A0020D82A0020482A00209D
:1037B0003028002000700040E42B0020942C0020D2
:1037C0000014004072B6FEE754544D3A52454E2D57
:1037D000495344323139302D30320D0A0000000097
:1037E000002202F03DBD0000F8B502460B46002461
:1037F0002DE04FF0070C05E0DFF8A0C16245F8D1DD
:103800004FF0060C0CFA06FC4CEA070C45F821C0F8
:1038100063498E68C5432E405F68FF0200D50643AA
:103820008E60CE682E405F68BF0200D50643CE6032
:103830004E682E405F68BF0300D506434E600E6899
:103840002E405D68ED0300D506430E60641C1868C9
:103850000146E14000F099800127A7403840F5D0AB
:10386000610003258D40ED435E6806F0030CBCF15A
:10387000010F03D006F00306022E10D196682E40E9
:10388000D3F80CC00CFA01FC4CEA060696605668A8
:10389000BE435F68C7F30017A7403E4356601E79DA
:1038A00006F00306032E05D0D6682E409F688F4091
:1038B0003E43D6601E7906F00306022E15D1264639
:1038C000F60802EB86073E6A4FEA840C0CF01C0CEB
:1038D0004FF00F0E0EFA0CFE26EA0E06D3F810E09B
:1038E0000EFA0CFC4CEA06063E6216682E401D7964
:1038F00005F0030505FA01F10E431660596811F44D
:10390000403FA3D027490D6845F001050D600968C7
:1039100001F001010091009921468908224D55F8D6
:103920002170A60006F00C064FF00F0C0CFA06FCF6
:1039300027EA0C07DFF874C0624502D14FF0000C93
:1039400060E7DFF86CC0624502D14FF0010C59E727
:10395000DFF860C0624502D14FF0020C52E7DFF899
:1039600058C0624502D14FF0030C4BE7DFF84CC062
:10397000624502D14FF0040C44E7DFF844C06245D1
:103980007FF43AAF4FF0050C3CE7F1BD002A01D0BF
:10399000816170470904816170470000001802408E
:1039A00000040140203802400800014000000240AD
:1039B0000004024000080240000C024000100240D7
:1039C000001402402A4A13684FF6FF010B40000220
:1039D00000F4E0601843274908431060704724480A
:1039E0000068C0F302207047010007D4012200F0F4
:1039F0001F018A402049400941F8202070470901F1
:103A0000020002D41D48815470471D4802F00F0285
:103A1000104400F8041C704710B400F00700C0F117
:103A20000703052B00D30423041D072C01D200201B
:103A300000E0C01E012404FA03F35B1E194081401C
:103A400004FA00F0401E1040084310BC7047B9E76C
:103A500070B504460D461646FFF7C1FF32462946AB
:103A6000FFF7DAFF01462046BDE87040C7E7BBE735
:103A70000CED00E00000FA0500E100E000E400E0E9
:103A800018ED00E038B5040001D1012032BD04F189
:103A900038056878002804D100202870204602F0FC
:103AA00006F802206870211D206800F04EF9012000
:103AB000A871A870E870287168716870002032BD24
:103AC00090F83910012901D001207047022180F8B7
:103AD00039100168CA6842F00102CA600068B0F19A
:103AE000804F0BD0DFF85C10884207D0DFF8581009
:103AF000884203D0DFF85410884209D1816801F070
:103B00000701062908D0016841F00101016003E0C6
:103B1000016841F001010160002070470168CA6836
:103B200052085200CA6001680A6A41F211131A422F
:103B300003D10A68520852000A60012180F8391046
:103B400000207047000400400008004000080140C9
:103B500010B5044620680169890717D5C16889072F
:103B600014D56FF002010161012020762068806980
:103B700010F0030F204602D002F08BFB04E002F0AD
:103B800089FB204602F087FB00202076206801692F
:103B9000490717D5C168490714D56FF004010161C1
:103BA000022020762068806910F4407F204602D0F1
:103BB00002F06FFB04E002F06DFB204602F06BFBAD
:103BC0000020207620680169090717D5C168090718
:103BD00014D56FF008010161042020762068C069C7
:103BE00010F0030F204602D002F053FB04E002F075
:103BF00051FB204602F04FFB00202076206801692F
:103C0000C90617D5C168C90614D56FF01001016146
:103C1000082020762068C06910F4407F204602D03A
:103C200002F037FB04E002F035FB204602F033FBE4
:103C30000020207620680169C90708D5C168C90736
:103C400005D56FF0010101612046FFF783FD206873
:103C5000016949060AD5C168490607D56FF04001D8
:103C600001612046BDE8104002F016BB10BD70B5E2
:103C70000646002406F138052878012801D10220E3
:103C800070BD012028700220687033689A68DFF8E0
:103C90002C0102409A60086802004AD0102A48D0DD
:103CA000202A46D0302A44D0402A38D0502A22D068
:103CB000602A2AD0702A06D0B2F5805F3FD0B2F5D4
:103CC000005F0CD03AE0CB684A688968306800F041
:103CD000B0F83168886840F0770088602FE0CB68E2
:103CE0004A688968306800F0A4F83068816841F457
:103CF0008041816023E0CA684968306800F06CF850
:103D00005021306800F08DF819E0CA6849683068C1
:103D100000F074F86021306800F083F80FE0CA68A2
:103D20004968306800F058F84021306800F079F8B0
:103D300005E00146306800F074F800E0012401203D
:103D4000687000202870204670BD0368B0F1804F75
:103D50000BD01B4A904208D01A4A904205D01A4A0A
:103D6000904202D0194A904203D123F070034A686E
:103D70001343B0F1804F11D0114A90420ED0114A36
:103D800090420BD0104A904208D0104A904205D081
:103D90000F4A904202D00F4A904203D123F440735D
:103DA000CA68134323F080030A69134303608A68D7
:103DB000C262096881620121416170478800FFFF8A
:103DC0000004004000080040000C004000080140D2
:103DD000000C01400010014010B4036A046A64083A
:103DE00064000462846924F0F00444EA02148461EB
:103DF00023F00A031943016210BC704710B4036A30
:103E0000046A24F010040462846924F4704444EACF
:103E10000234846123F0A00343EA0113036210BC5F
:103E20007047826822F07002114341F007018160FF
:103E3000704710B4846824F47F442143114341EA5D
:103E40000321816010BC70470FB480B54FF6FF733B
:103E500008221B4902A8FDF71DFF01BC5DF814FBF9
:103E60000FB480B54FF6FF730822164902A8FDF77C
:103E700011FF01BC5DF814FB0FB480B54FF6FF7362
:103E80000822114902A8FDF705FF01BC5DF814FBEB
:103E90000FB480B54FF6FF7308220C4902A8FDF756
:103EA000F9FE01BC5DF814FB0FB480B54FF6FF734B
:103EB0000822074902A8FDF7EDFE01BC5DF814FBDE
:103EC0001C00002024000020340000202C000020D2
:103ED0003C0000202DE9F047DFF898442078A02826
:103EE00040F09E80A078012840F09A80DFF8885446
:103EF00028786178884204D015210120BDE8F04778
:103F000003E201462144891E0A784E7846EA0226D9
:103F1000811EC9B2204600F03BFA864204D014212B
:103F2000E078BDE8F047F0E1DFF85024E078107069
:103F3000002028701278402A6ED0502A0FD0602AB4
:103F400006D0612A08D0702A66D0712A64D067E052
:103F50002079BDE8F04765E0BDE8F047CCE0A37A02
:103F6000E27A42EA0322034605461FE0022738367A
:103F700037751AE00EEB4E0804EB080999F80DA00E
:103F800099F80E804FEA082848EA0A4899F80F90F5
:103F900049EA080806EB8E09C9F83C800EF1010ECB
:103FA000E046C645E6DB2E463E755B1C0F2B25DC46
:103FB00016461E41F607F8D5491CDFF8C46303EB2B
:103FC000830706EB07162F00D0D1012518460027DE
:103FD00006E004F1040C1CF807C006F807C07F1CBB
:103FE000042FF6DD3281677A777106F1380794F88D
:103FF0000CC087F800C04FF0000ED1E7DFF8802337
:1040000000EB800302EB0310817101F07FFDA02122
:104010005020BDE8F04778E10120DFF86813087010
:10402000BDE8F087F8B5DFF86043A02121700121D9
:10403000A1706021E170002103E0525C63181A71E5
:10404000491CDFF83C23034603EB830502EB051212
:104050000429F2DD5079607210890146090AA172C3
:10406000E0720C2000230BE002EB4305AD892E46E5
:10407000360A2654084689B26554401C5B1CDBB2E4
:10408000411C80B29579AB42EEDB5389235492F800
:1040900038000B469BB2E054491C002311E002EBB0
:1040A0008301CF6B39460914615531463D462D12C7
:1040B000B6B2A555491C0D46ADB26755491C5B1CEF
:1040C000DBB24E1C0D46ADB20746BB42E7DB881C97
:1040D0006070C9B2204600F05BF9014609126155D3
:1040E000314689B26054761C324692B22146A748C6
:1040F000BDE8F840FDF722BEF8B50022A24DA02091
:1041000028700120A8706120E8700524104620E086
:1041100001EB8607FF6BBC464FEA2C4CA6461FFA04
:104120008EFE05F80EC0641CBC464FEA2C2CA64639
:104130001FFA8EFE05F80EC0641CA4461FFA8CFC04
:1041400005F80C70641C761CF6B21F46BE42DFDB1D
:10415000401C10284ADA8A4900EB800301EB031166
:1041600001F138031E7D012EF2D1521C002705E01B
:1041700011F80CC005F804C034467F1C661CA4B2BC
:10418000BC465FFA8CFCBCF1040FF1DD4F792F5572
:104190000C8927463F0AB4461FFA8CFC05F80C70C0
:1041A000761C3746BFB2EC55761C00270FE001EBBA
:1041B000470CBCF80CC0E6464FEA1E2E05F806E098
:1041C0002646A4B205F804C0761C7F1CFFB2741CFE
:1041D000B6B291F806C06745E9DB4F89AF551B7849
:1041E0002646B6B2AB55641C0026AEE72A71A01C69
:1041F00068702146C9B2284600F0CAF80146091283
:10420000224692B2A954641C214689B26854641CA7
:10421000224692B229465D48BDE8F840FDF78EBDC2
:10422000F8B50020584CA02121700121A170712106
:10423000E170052501462DE002EB460CBCF820C0DC
:10424000E6464FEA1E2E04F803E02B46ADB204F812
:1042500005C05B1C761CF6B25D1C9BB2BC46664575
:10426000EADB02F134063778E75473782F46BFB2A1
:10427000E3556D1CB3782F46BFB2E3556D1CF37840
:104280002E46B6B2A3556D1CD28B2B469BB2E25480
:104290006D1C491C10291EDA394A01EB810302EB1F
:1042A000031292F84C30012BF3D1401C002603E09E
:1042B000D75D67551D46761C6B1CADB23746FFB205
:1042C000042FF5DD5679665597791D46ADB26755D1
:1042D0005B1C0026C0E72071A81C60702946C9B28B
:1042E000204600F055F8014609122A4692B2A15420
:1042F0006D1C294689B260546D1C2A4692B2214633
:104300002248BDE8F840FDF719BD10B51E4CA022AB
:104310002270072262700122A270E07021710521D3
:10432000204600F035F8014609126171A07107229C
:1043300021461648BDE81040FDF700BD10B51048F5
:104340000C49097901EB810200EB0210A0F14A044B
:1043500022785200A0F130014438FDF757F8208B45
:10436000A08001F0D3FBA0214020BDE81040CCE7A5
:104370000000000030280020B52C0020B62C0020C2
:10438000B80E0020942C0020D01E0020482A0020C7
:1043900030B4024600244FF6FF7009E080F420405C
:1043A00080F0010080B25B1C0CE030BC7047641CE4
:1043B00023460D46DBB2AB42F7D22346DBB2D35CD9
:1043C000584000231D46EDB2082DF0DA05466D1069
:1043D000C0072846E2D480B2E5E70000F8B50446FD
:1043E0000025002C01D10120F2BD04F148067068BF
:1043F000002810D12846B0603070DFF8E80301686B
:1044000041F001010160006800F001000090009897
:10441000204601F093FA7068C00600F1928070683F
:1044200020F4885040F002007060DFF8BC130A6886
:1044300022F44032606802430A6004F124031878D1
:10444000E26861690A43197E42EA4122216A0A430D
:10445000014642EA41021F69102F02D059690F43F9
:104460003A4321680968490630D4A1690A432169A1
:10447000B1F5807F01D0012902D14FF4807700E0AF
:104480002F46D4F808C0E16941EA0C0C47EA0C0752
:10449000197A012910D1002806D1D868401E40039E
:1044A00040F40060074307E0706840F0200070604F
:1044B000B06840F00100B0602168D1F804C0DFF8B6
:1044C0002C0300EA0C0C47EA0C074F6021688F6848
:1044D000DFF81C03074017438F602069B0F5807F29
:1044E00001D0012802D14FF4807000E028462168F5
:1044F000B0F5807F086B20F0F87005D15B685B1E1B
:1045000040EA0350086300E0086320688168DFF830
:10451000E4020140914208D12846B060706820F062
:10452000020040F0010070600CE0706820F00200B2
:1045300040F010007060B06840F00100B0600125EC
:1045400000E001252846F2BD2DE9F04105460E4662
:10455000174605F1480898F80000012801D102200B
:1045600059E0012088F80000284600F0FEF8040019
:1045700050D1D8F80410DFF88002014041F4807176
:10458000C8F8041028684068400507D5D8F804002A
:1045900020F4005040F48050C8F80400D8F804001B
:1045A000C00406D5D8F8080020F00600C8F80800B6
:1045B00002E00020C8F80800002088F800000FF290
:1045C0004520696C88620FF29D20696CC8620FF209
:1045D0009D20696C08636FF02200296808602868D4
:1045E000416841F0806141602868816841F48071D0
:1045F00081603B463246286800F15801686CFEF73E
:1046000007FA2868816811F0405F03D1816841F0A2
:10461000804181602046BDE8F08178B402460020E8
:10462000009092F84800012801D102209BE001206F
:1046300082F848004D68086813681F24072D0AD2C5
:104640006D1E05EB85051E6CAC4026EA0404A840EF
:104650002043186430E00D2D0AD2ED1F05EB8505CF
:10466000DE6BAC4026EA0404A8402043D86323E074
:10467000132D0AD20D3D05EB85059E6BAC4026EA55
:104680000404A8402043986316E0192D0AD2133D74
:1046900005EB85055E6BAC4026EA0404A840204388
:1046A000586309E0193D05EB85051E6BAC4026EA11
:1046B0000404A84020431863886813680C68072521
:1046C0000A2C09D204EB44045E69A54026EA0505DC
:1046D000A0402843586123E0142C0AD20A3C04EB82
:1046E00044041E69A54026EA0505A0402843186138
:1046F00016E01E2C0AD2143C04EB4404DE68A540EC
:1047000026EA0505A0402843D86009E01E3C04EBDA
:104710004404DE6DA54026EA0505A0402843D8657F
:104720000868102801D011281AD12F4803681B02ED
:1047300016D4036843F400030360086810280FD1FF
:104740002E4800682E49B0FBF1F000EB80014800D4
:10475000009002E00098401E009000980028F9D1D7
:10476000002082F8480072BC704738B5044600202B
:10477000009020680168490630D4816841F0010149
:1047800081601E4800681E49B0FBF1F000EB40005C
:10479000009002E00098401E009000980028F9D197
:1047A000FEF7E6F8054620680068400616D4FEF7D6
:1047B000DFF8401B0328F6D3206800684006F2D4D7
:1047C00004F14800416841F010014160816841F006
:1047D0000101816000210170012032BD002032BD45
:1047E000000000002038024004270140FF16FCFCB6
:1047F00089F1FFC0FEFF80BFFEF9FFFF1800002017
:1048000040420F00416A01F12402936A13F0500FF5
:1048100024D1906A40F4007090620B68986810F0A0
:10482000405F18D11078002815D1186B10F0F87F70
:1048300002D0986840050ED4586820F020005860D7
:10484000906A20F480709062906AC00403D4906AE9
:1048500040F0010090620846FEF715BB116A096B33
:1048600008470000406A01F018BD0000406AC16CB2
:1048700041F04001C164016D41F00401016501F0A6
:104880000DBD000038B50446FEF772F8054614F178
:10489000010F02D0044880680419FEF769F8401B34
:1048A000A042FAD331BD00BF0C000020F8B5044689
:1048B0004FF6FF7500263C38B0F5717F11D23746B0
:1048C0000DE00A4830F817002146401A01F0E7FCD5
:1048D000294689B2884201DA05463E467F1C512F9F
:1048E000EFDBA6F11E0040B2F2BD0000C07A000866
:1048F000F8B504460D461646002706E034F81700C2
:10490000FFF7D4FF25F817007F1C30468742F5DB00
:10491000F1BD00002DE9F0478A4691469846DFF840
:10492000F044DFF8F054FDF7A5F822462B46FCF7DB
:104930009BFC06460F464846FDF79CF822462B4650
:10494000FCF792FC02460B46FCF78EFC01F0ACFC37
:1049500004463046394632463B46FCF785FC01F0BA
:10496000A3FC0146204601F0D3FCDFF8AC1401F0B3
:104970000FFD0446A8EB0A0A504601F075FDDFF86A
:104980009C1401F005FD2146BDE8F04701F07EBD15
:104990002DE9F0478A4691469846DFF87444DFF8DF
:1049A0007454FDF767F822462B46FCF75DFC06467B
:1049B0000F464846FDF75EF822462B46FCF754FCAE
:1049C00002460B46FCF750FC01F06EFC04463046F4
:1049D000394632463B46FCF747FC01F065FC014690
:1049E000204601F095FCDFF8381401F0D1FC0446B4
:1049F000A8EB0A0A504601F037FDDFF8201401F059
:104A0000C7FC2146BDE8F04701F040BD2DE9FE4F4F
:104A10008B4691469846DDF830A0DFF8F443DFF886
:104A2000F453FDF727F822462B46FCF71DFC0646FB
:104A30000F464846FDF71EF822462B46FCF714FCAD
:104A400004460D465046FCF759FEDFF8D823DFF840
:104A5000D833FCF709FC4FF04042DFF8D033FCF7C5
:104A600003FCCDE900012046294622462B46FCF7EF
:104A7000FBFB01F019FC04463046394632463B4602
:104A8000FCF7F2FB01F010FC0146204601F040FC6F
:104A900001F06EFDDDE90023FCF7E6FB04460D4660
:104AA000A8EB0B0B584601F0DFFCDC4901F070FC71
:104AB00001F05EFD22462B46FCF7F4FF03B0BDE893
:104AC000F04F01F0F1BB2DE9FE4F8B469146984621
:104AD000DDF830A0CE4CCF4DFCF7CCFF22462B4664
:104AE000FCF7C2FB06460F464846FCF7C3FF2246CA
:104AF0002B46FCF7B9FB04460D465046FCF7FEFD7D
:104B0000C84AC94BFCF7B0FB4FF00042C84BFCF75A
:104B1000ABFBCDE900012046294622462B46FCF797
:104B2000A3FB01F0C1FB04463046394632463B4602
:104B3000FCF79AFB01F0B8FB0146204601F0E8FBC8
:104B400001F016FDDDE90023FCF78EFB04460D465F
:104B5000A8EB0B0B584601F087FCB04901F018FC9C
:104B600001F006FD22462B46FCF79CFF03B0BDE892
:104B7000F04F01F099BB2DE9F24F82B09146984673
:104B8000DDF830B0A24EA34FFCF774FF32463B462F
:104B9000FCF76AFBA74CA84D02460B46FCF764FBEA
:104BA00022462B46FCF760FB01F07EFB824648461E
:104BB000FCF760FF32463B46FCF756FB02460B46CD
:104BC000FCF752FB22462B46FCF74EFB01F06CFB38
:104BD000514601F09DFB0646924C934D5846FCF71A
:104BE0008DFD22462B46FCF73FFB82468B46304626
:104BF00001F0BEFC52465B46FCF736FB82468B4614
:104C0000304601F0B5FC52465B46FCF72DFBCDE982
:104C100000010D98FCF772FD22462B46FCF724FBA1
:104C200082468B46304601F0A3FC52465B46FCF7B9
:104C30001BFBDDE90023FCF735FF06460F460E9807
:104C4000FCF75CFD22462B46FCF70EFB32463B464A
:104C5000FCF728FF06460F460F98FCF74FFD22464B
:104C60002B46FCF701FB04460D469DF80800A8EB17
:104C700000084046FCF742FD22462B46FCF7F4FABA
:104C800032463B46FCF70EFF03B0BDE8F04F01F0A3
:104C90000BBB2DE9FF4F85B0DDF84890494606294A
:104CA00002D166490291664E4946042903D16349FF
:104CB00002914FF03F464946032902D161490291D2
:104CC000614E0027B846009020E0009830F81800A8
:104CD000FCF7D0FE4E4A4F4BFCF7C6FA04460D4691
:104CE000384601F045FC82468B462046294622463E
:104CF0002B46FCF7B9FA52465B46FCF7D3FE01F0AF
:104D0000D3FA074608F101085FFA88F8484680455B
:104D1000DBDB01F051FC03903846039901F05AFCAB
:104D200004904FF000084746DDF81CA08DF848902D
:104D30001DE03AF81700FCF79DFE354A354BFCF7AD
:104D400093FA04460D46404601F012FC804689461F
:104D50002046294622462B46FCF786FA42464B4619
:104D6000FCF7A0FE01F0A0FA80467F1CFFB29DF880
:104D700048008742DDDBDDF85090DDF84CA09DF85F
:104D80002070284C284D029801F0F2FBCDE900017B
:104D90005046FCF7B3FC22462B46FCF765FADDE9EA
:104DA0000023FCF761FA82468B464046039901F0E6
:104DB00011FC049901F0ACFA01F0DAFB52465B46B3
:104DC000FCF752FA82468B464846FCF797FC22468F
:104DD0002B46FCF749FA02460B4650465946FCF76B
:104DE0009FFC04460D469DF818003F1A384601F016
:104DF0003BFB314601F0CCFA01F0BAFB22462B46D0
:104E0000FCF750FE09B0BDE8F04F01F04DBA0000CC
:104E10009A9999999999B93F15046A3BCDCC0C4060
:104E200037D34E3B2D431CEBE2361A3F8353473FAB
:104E300096A3413FFCA9F1D24D62503F417B5C3AC1
:104E4000333333BFB41C0D3A9A9999BE38B5044632
:104E50000D46002C07D1502080F31188BFF34F8FEF
:104E6000BFF36F8FFEE701F094FC2168E26B206CCA
:104E70004243881860600020A0632068A060216819
:104E8000E26B521E206C42438818E06004F144003B
:104E90004FF0FF3101704170002D12D120690028C0
:104EA00017D004F1100001F0A2FF002811D04FF03C
:104EB0008050DFF8DC140860BFF34F8FBFF36F8FB3
:104EC00007E004F1100002F015F904F1240002F0EB
:104ED00011F901F077FC012032BD38B51C460028DD
:104EE00007D1502080F31188BFF34F8FBFF36F8F2E
:104EF000FEE7002C07D1502080F31188BFF34F8FBD
:104F0000BFF36F8FFEE7002A05D00B465B1E9B4167
:104F1000DB43DB0F00E00123002B07D1502080F39F
:104F20001188BFF34F8FBFF36F8FFEE7002A04D1C4
:104F30000B465B1E9B41DB0F00E00123002B07D1DA
:104F4000502080F31188BFF34F8FBFF36F8FFEE7C0
:104F500050230093009B502B07D0502080F31188E2
:104F6000BFF34F8FBFF36F8FFEE7049B012584F8DB
:104F70004650009400F028F8204632BDF8B50646A9
:104F80000D461746002E07D1502080F31188BFF33D
:104F90004F8FBFF36F8FFEE7002D01D1002001E09E
:104FA00005FB06F0503002F0EFF804000AD00020B4
:104FB00084F8460000943B4604F1500229463046EE
:104FC00000F002F82046F2BD38B51C46049D0029C9
:104FD00001D12D6000E02A60E863296401212846A0
:104FE000FFF734FF85F84C4031BDF7B505460E4656
:104FF0001F460024002D07D1502080F31188BFF3F5
:105000004F8FBFF36F8FFEE7002E04D1286C401E38
:105010008041C00F00E00120002807D1502080F31C
:105020001188BFF34F8FBFF36F8FFEE7022F02D1BE
:10503000E86B012801D1012000E02046002807D1BB
:10504000502080F31188BFF34F8FBFF36F8FFEE7BF
:1050500001F0D4FF002804D10298401E8041C00F07
:1050600000E0012000281CD1502080F31188BFF3FC
:105070004F8FBFF36F8FFEE7029905F1100001F02B
:1050800082FE284600F0D2F901F084FD002808D104
:105090004FF08050DFF8F8120860BFF34F8FBFF376
:1050A0006F8F01F076FBA86BE96B884246D3022F25
:1050B00044D0029800283DD0002C03D1684601F06E
:1050C000CDFE012401F07EFB01F05EFD01F061FBED
:1050D00005F1440090F9001011F1010F01D10021F8
:1050E000017090F9011011F1010F01D100214170FF
:1050F00001F068FB02A9684601F0B7FE00282846C7
:105100002BD100F0D8F90028B6D1284600F08EF94E
:1051100001F040FDC5E7002808D04FF08050DFF8CF
:1051200070120860BFF34F8FBFF36F8F01F04AFB1F
:105130000120FEBD01F046FB0020FEBD3A4631468F
:10514000284600F027F9696A0029E4D005F1240017
:1051500001F04DFE0028E0D1E8E700F067F901F02A
:1051600019FD0020FEBD2DE9F84304460E46154604
:105170009846002C07D1502080F31188BFF34F8F41
:10518000BFF36F8FFEE7002E04D1206C401E8041DC
:10519000C00F00E00120002807D1502080F31188C3
:1051A000BFF34F8FBFF36F8FFEE7B8F1020F02D14D
:1051B000E06B012801D1012000E000204FF05009F0
:1051C000002806D189F31188BFF34F8FBFF36F8F8B
:1051D000FEE701F01FFBEFF3118789F31188BFF39E
:1051E0004F8FBFF36F8FA06BE16B884202D3B8F192
:1051F000020F1DD194F9459042463146204600F0F9
:10520000C9F819F1010F0DD1606A00280ED004F120
:10521000240001F0ECFD002808D0002D06D001206C
:10522000286003E009F1010984F84590012000E0BD
:10523000002087F31188BDE8F283F7B506460F46D4
:105240000024002E07D1502080F31188BFF34F8F28
:10525000BFF36F8FFEE7002F04D1306C401E8041FA
:10526000C00F00E00120002807D1502080F31188F2
:10527000BFF34F8FBFF36F8FFEE701F0BFFE002833
:1052800004D10298401E8041C00F00E00120002898
:105290000CD1502080F31188BFF34F8FBFF36F8F75
:1052A000FEE7304600F0C2F801F074FC01F071FA3C
:1052B000B56B002D06D1029800281FD101F082FAAB
:1052C0000020FEBD3946304600F09EF86D1EB563E5
:1052D000306900280ED006F1100001F088FD00288A
:1052E00008D04FF08050DFF8A8100860BFF34F8F50
:1052F000BFF36F8F01F066FA0120FEBD002C03D1D1
:10530000684601F0ABFD012401F05CFA01F03CFCC1
:1053100001F03FFA06F1440090F9001011F1010F7D
:1053200001D10021017090F9011011F1010F01D19B
:105330000021417001F046FA02A9684601F095FD8E
:105340000028304618D100F0AAF80028A9D0029908
:1053500006F1240001F017FD304600F067F801F077
:1053600019FC0028A2D14FF0805009490860BFF312
:105370004F8FBFF36F8F99E700F058F801F00AFCE8
:10538000304600F08CF8002890D00020FEBD0000D0
:1053900004ED00E0F8B5064615460027B46B326C04
:1053A000002A09D1306800282AD1706801F034FE43
:1053B00007460020706023E0002D0CD1B068FCF798
:1053C00025F8B068316C0844B0607168884217D322
:1053D0003068B06014E0F068FCF718F8F068316CE1
:1053E00049420844F0603168884204D27068316CE8
:1053F00049420844F060022D02D1002C00D0641E06
:10540000641CB4633846F2BD0B46016C00290CD015
:10541000C2681144C1604268914201D30168C16011
:10542000026CC1681846FBF7F1BF7047F8B5054636
:1054300001F0AFF905F1440494F90160304640B23F
:10544000012819DB686A002816D005F1240001F054
:10545000CEFC002801D001F044FD761EEEE728695D
:10546000002817D005F1100001F0C1FC002801D080
:1054700001F037FD7F1E09E04FF0FF3006466670F1
:1054800001F0A0F901F085F994F90070384640B2B6
:105490000128E4DA2670BDE8F14001F093B910B5B7
:1054A000044601F076F9A06B441EA441E40F01F01C
:1054B00089F9204610BD10B5044601F06AF9A06BC9
:1054C000E16B884201D1012400E0002401F07AF967
:1054D000204610BD10B40023074C00E05B1C082BD5
:1054E00008D254F83320002AF8D144F8331004EBE2
:1054F000C301486010BC7047642B0020F8B5044617
:105500000D46164601F045F904F1380797F90C00ED
:1055100010F1010F01D10020387397F90D0010F13F
:10552000010F01D10020787301F04CF93868002890
:1055300005D13246294604F1240001F03CFC204606
:10554000BDE8F24072E7000078B587B00446204815
:10555000016841F020010160006800F02000009027
:10556000009801A902A8FEF70AF80598002802D1C0
:10557000FDF7EFFF02E0FDF7ECFF4000154D164987
:10558000296040F2E731E9601449B0FBF1F0401EB8
:10559000686000202861A8602846FEF773FA0600BC
:1055A00012D12846FEF78CFA06000DD12C20FEF70A
:1055B0005EFA102C07D2002221462C20FEF748FA72
:1055C0000748046000E00126304608B070BD0000C6
:1055D00024380240A42B00200014004040420F0059
:1055E0001000002010B500240320FEF730FA0F2031
:1055F000FFF7AAFF002801D0012401E001F0B2FE6C
:10560000204610BD38B586B001A81421FEF7E8F891
:105610002848016841F020010160016801F0200183
:1056200000910099016841F004010160016801F0F6
:10563000040100910099016841F0010101600168D5
:1056400001F0010100910099016841F0020101603F
:10565000016801F0020100910099016841F0080120
:105660000160006800F0080000900098124D0122CF
:1056700020212846FEF78AF9104C012202212046FB
:10568000FEF784F920200190012002900390002071
:10569000049001A92846FEF7A7F8022001900120F6
:1056A000029003900020049001A92046FEF79CF888
:1056B00007B030BD1C380240000802400004024020
:1056C00080B52648016841F080710160016801F0F1
:1056D000807100910099016841F0007101600068DB
:1056E00000F0007000900098002205210B20FEF7CA
:1056F000AFF90B20FEF7BBF9002205210C20FEF7C5
:10570000A7F90C20FEF7B3F9002205210D20FEF7C2
:105710009FF90D20FEF7ABF9002205211020FEF7BE
:1057200097F91020FEF7A3F9002205211120FEF7BA
:105730008FF91120FEF79BF9002205213220FEF798
:1057400087F93220FEF793F9002205213320FEF776
:105750007FF93320BDE80240FEF789B91C380240CA
:105760001FB5684600210A460B4680E80E00A94C8A
:10577000A9482060084660604FF08070A06008462D
:10578000E0604FF48070206108466061A061E061D4
:10579000206204F1240001210170102141601146B2
:1057A0000172102101611146416101762046FEF728
:1057B00015FE002801D0FEF705F80A200090012010
:1057C00001900420029069462046FEF726FF00283B
:1057D00001D0FDF7F7FF0C200090022001906946F0
:1057E0002046FEF71AFF002801D0FDF7EBFF00204E
:1057F00000900320019069462046FEF70EFF002826
:1058000001D0FDF7DFFF042000900190694620469B
:10581000FEF703FF002801D0FDF7D4FF0B20009016
:105820000520019069462046FEF7F7FE002801D0CA
:10583000FDF7C8FF0D200090062001906946204624
:10584000FEF7EBFE002801D0FDF7BCFF0120009021
:105850000720019069462046FEF7DFFE002801D0B0
:10586000FDF7B0FF05200090082001906946204612
:10587000FEF7D3FE002801D0FDF7A4FF062000901C
:105880000920019069462046FEF7C7FE002801D096
:10589000FDF798FF082000900A20019069462046F5
:1058A000FEF7BBFE002801D0FDF78CFF1220009010
:1058B0000B20019069462046FEF7AFFE002801D07C
:1058C000FDF780FF142000900C20019069462046CF
:1058D000FEF7A3FE002801D0FDF774FF072000901B
:1058E0000D20019069462046FEF797FE002801D062
:1058F000FDF768FF0E200090019069462046FEF7F4
:105900008CFE002801D0FDF75DFF132000900F20D2
:10591000019069462046FEF780FE002801D0FDF781
:1059200051FF152000901020019069462046FEF797
:1059300074FE002801D0FDF745FF1FBD38B586B0C5
:10594000044668461421FDF74BFF2068324988421F
:105950005ED13248416841F400714160416801F410
:10596000007105910599016841F004010160016829
:1059700001F0040105910599016841F00101016000
:10598000016801F0010105910599016841F00201EA
:105990000160006800F00200059005981F2000904B
:1059A000032001900020029069461D48FDF71CFF6E
:1059B000F3200090032001900020029069461948CE
:1059C000FDF712FF4FF2010000900320019000202C
:1059D000029069461448FDF707FF144D14482860EB
:1059E00000206860A8608020E8604FF48070286123
:1059F0004FF4806068612020A8610020E86128469B
:105A0000FCF7BCFF002801D0FDF7DCFE65646C628A
:105A100007B030BDA4290020002401401C380240FA
:105A2000000802400000024000040240202B002039
:105A30000860024010B586B002A81021FDF7D0FE24
:105A400025A0D0E90023CDE90023214C4FF0804070
:105A5000206048F6FF7060600020A06045F6BF50EF
:105A6000E0600020206160612046FEF70BF800280E
:105A700001D0FDF7A7FE4FF48050029002A9204606
:105A8000FEF7F5F8002801D0FDF79CFE00200090FD
:105A900001906946204601F08BFC002801D0FDF7FB
:105AA00091FE6FF001002168086106B010BD81B061
:105AB0000068B0F1804F09D10648016841F001014A
:105AC0000160006800F001000090009801B070478C
:105AD000E42B0020243802400000000000000000F9
