:020000040800F2
:1000000000C00020411C00086118000863180008A7
:10001000651800086718000869180008000000004B
:100020000000000000000000000000006B18000845
:100030006D180008000000006F1800087118000813
:10004000891C0008891C0008891C0008891C0008FC
:10005000891C0008891C0008891C0008891C0008EC
:10006000891C0008891C0008891C000879180008F0
:10007000891C0008891C0008891C0008891C0008CC
:10008000891C0008891C0008891C0008891C0008BC
:10009000891C0008891C0008891C0008891C0008AC
:1000A00000000000891C0008891C0008891C000849
:1000B00089180008891C0008891C0008891C000890
:1000C000891C0008891C0008891C0008891C00087C
:1000D000891C0008891C000899180008A918000844
:1000E000891C0008891C0008891C0008891C00085C
:1000F000891C0008891C0008891C0008891C00084C
:10010000891C0008B9180008891C0008891C00080F
:10011000891C0008891C0008891C000800000000D8
:10012000891C000800000000000000000000000022
:0C01300000000000000000005FF808F173
:1001400010B5054C237833B9044B13B10448AFF311
:1001500000800123237010BD600800200000000013
:100160002C63000808B5034B1BB103490348AFF3E8
:10017000008008BD00000000640800202C63000817
:1001800081F0004102E000BF83F0004330B54FEA48
:1001900041044FEA430594EA050F08BF90EA020FB5
:1001A0001FBF54EA000C55EA020C7FEA645C7FEA48
:1001B000655C00F0E2804FEA5454D4EB5555B8BF6B
:1001C0006D420CDD2C4480EA020281EA030382EADC
:1001D000000083EA010180EA020281EA0303362D6E
:1001E00088BF30BD11F0004F4FEA01314FF4801C41
:1001F0004CEA113102D0404261EB410113F0004F53
:100200004FEA03334CEA133302D0524263EB430309
:1002100094EA050F00F0A780A4F10104D5F1200EA7
:100220000DDB02FA0EFC22FA05F2801841F1000102
:1002300003FA0EF2801843FA05F359410EE0A5F1D6
:1002400020050EF1200E012A03FA0EFC28BF4CF007
:10025000020C43FA05F3C01851EBE37101F00045BD
:1002600007D54FF0000EDCF1000C7EEB00006EEBCA
:100270000101B1F5801F1BD3B1F5001F0CD3490854
:100280005FEA30004FEA3C0C04F101044FEA4452AB
:1002900012F5800F80F09A80BCF1004F08BF5FEA32
:1002A000500C50F1000041EB045141EA050130BD12
:1002B0005FEA4C0C404141EB0101013C28BFB1F524
:1002C000801FE9D291F0000F04BF01460020B1FA6F
:1002D00081F308BF2033A3F10B03B3F120020CDA42
:1002E0000C3208DD02F1140CC2F10C0201FA0CF020
:1002F00021FA02F10CE002F11402D8BFC2F1200C85
:1003000001FA02F120FA0CFCDCBF41EA0C0190403A
:10031000E41AA2BF01EB0451294330BD6FEA040483
:100320001F3C1CDA0C340EDC04F11404C4F120026E
:1003300020FA04F001FA02F340EA030021FA04F380
:1003400045EA030130BDC4F10C04C4F1200220FAD7
:1003500002F001FA04F340EA0300294630BD21FA15
:1003600004F0294630BD94F0000F83F4801306BFDB
:1003700081F480110134013D4EE77FEA645C18BFCF
:100380007FEA655C29D094EA050F08BF90EA020F66
:1003900005D054EA000C04BF1946104630BD91EA5E
:1003A000030F1EBF0021002030BD5FEA545C05D161
:1003B0004000494128BF41F0004130BD14F58004A0
:1003C0003CBF01F5801130BD01F0004545F0FE4114
:1003D00041F470014FF0000030BD7FEA645C1ABF49
:1003E000194610467FEA655C1CBF0B46024650EA80
:1003F000013406BF52EA033591EA030F41F40021AC
:1004000030BD00BF90F0000F04BF0021704730B531
:100410004FF4806404F132044FF000054FF0000106
:1004200050E700BF90F0000F04BF0021704730B5C7
:100430004FF4806404F1320410F0004548BF40429C
:100440004FF000013EE700BF42004FEAE2014FEAF1
:1004500031014FEA02701FBF12F07F4393F07F4FCC
:1004600081F06051704732F07F4208BF704793F0CF
:100470007F4F04BF41F40021704730B54FF46074E2
:1004800001F0004521F000411CE700BF50EA0102E5
:1004900008BF704730B54FF000050AE050EA01028E
:1004A00008BF704730B511F0004502D5404261EBFE
:1004B00041014FF4806404F132045FEA915C3FF43F
:1004C000D8AE4FF003025FEADC0C18BF03325FEADC
:1004D000DC0C18BF033202EBDC02C2F1200300FA8D
:1004E00003FC20FA02F001FA03FE40EA0E0021FAB2
:1004F00002F11444BDE600BF70B54FF0FF0C4CF4A0
:10050000E06C1CEA11541DBF1CEA135594EA0C0F51
:1005100095EA0C0F00F0DEF82C4481EA030621EA8C
:100520004C5123EA4C5350EA013518BF52EA0335C7
:1005300041F4801143F4801338D0A0FB02CE4FF079
:100540000005E1FB02E506F00042E0FB03E54FF0A9
:100550000006E1FB03569CF0000F18BF4EF0010EA1
:10056000A4F1FF04B6F5007F64F5407404D25FEA9D
:100570004E0E6D4146EB060642EAC62141EA555150
:100580004FEAC52040EA5E504FEACE2EB4F1FD0C92
:1005900088BFBCF5E06F1ED8BEF1004F08BF5FEA10
:1005A000500E50F1000041EB045170BD06F00046C2
:1005B00046EA010140EA020081EA0301B4EB5C046F
:1005C000C2BFD4EB0C0541EA045170BD41F4801167
:1005D0004FF0000E013C00F3AB8014F1360FDEBF8C
:1005E000002001F0004170BDC4F10004203C35DA68
:1005F0000C341BDC04F11404C4F1200500FA05F3EB
:1006000020FA04F001FA05F240EA020001F000428B
:1006100021F0004110EBD37021FA04F642EB060101
:100620005EEA430E08BF20EAD37070BDC4F10C042B
:10063000C4F1200500FA04F320FA05F001FA04F2EF
:1006400040EA020001F0004110EBD37041F10001DB
:100650005EEA430E08BF20EAD37070BDC4F12005E6
:1006600000FA05F24EEA020E20FA04F301FA05F24E
:1006700043EA020321FA04F001F0004121FA04F2F6
:1006800020EA020000EBD3705EEA430E08BF20EAC6
:10069000D37070BD94F0000F0FD101F00046400000
:1006A00041EB010111F4801F08BF013CF7D041EA82
:1006B000060195F0000F18BF704703F00046520086
:1006C00043EB030313F4801F08BF013DF7D043EA57
:1006D0000603704794EA0C0F0CEA135518BF95EA0D
:1006E0000C0F0CD050EA410618BF52EA4306D1D194
:1006F00081EA030101F000414FF0000070BD50EAB3
:10070000410606BF1046194652EA430619D094EA3C
:100710000C0F02D150EA013613D195EA0C0F05D126
:1007200052EA03361CBF104619460AD181EA03017A
:1007300001F0004141F0FE4141F470014FF0000032
:1007400070BD41F0FE4141F4780170BD70B54FF0CD
:10075000FF0C4CF4E06C1CEA11541DBF1CEA13554D
:1007600094EA0C0F95EA0C0F00F0A7F8A4EB05042F
:1007700081EA030E52EA03354FEA013100F0888026
:100780004FEA03334FF0805545EA131343EA1263EF
:100790004FEA022245EA111545EA10654FEA0026A4
:1007A0000EF000419D4208BF964244F1FD0404F55D
:1007B000407402D25B084FEA3202B61A65EB0305B9
:1007C0005B084FEA32024FF480104FF4002CB6EB76
:1007D000020E75EB030E22BFB61A754640EA0C00F6
:1007E0005B084FEA3202B6EB020E75EB030E22BF36
:1007F000B61A754640EA5C005B084FEA3202B6EB77
:10080000020E75EB030E22BFB61A754640EA9C0035
:100810005B084FEA3202B6EB020E75EB030E22BF05
:10082000B61A754640EADC0055EA060E18D04FEAC3
:10083000051545EA16754FEA06164FEAC30343EA63
:1008400052734FEAC2025FEA1C1CC0D111F4801F30
:100850000BD141EA00014FF000004FF0004CB6E729
:1008600011F4801F04BF01430020B4F1FD0C88BFC8
:10087000BCF5E06F3FF6AFAEB5EB030C04BFB6EBD3
:10088000020C5FEA500C50F1000041EB045170BDC6
:100890000EF0004E4EEA113114EB5C04C2BFD4EBF3
:1008A0000C0541EA045170BD41F480114FF0000E77
:1008B000013C90E645EA060E8DE60CEA135594EAF3
:1008C0000C0F08BF95EA0C0F3FF43BAF94EA0C0FF6
:1008D0000AD150EA01347FF434AF95EA0C0F7FF46B
:1008E00025AF104619462CE795EA0C0F06D152EABF
:1008F00003353FF4FDAE1046194622E750EA4106A3
:1009000018BF52EA43067FF4C5AE50EA41047FF4B3
:100910000DAF52EA43057FF4EBAE12E74A0011D265
:1009200012F5001211D20DD56FF47873B3EB625249
:100930000ED44FEAC12343F0004343EA505323FA55
:1009400002F070474FF00000704750EA013002D1CA
:100950004FF0FF3070474FF0000070474FEA410200
:10096000B2F1E04324BFB3F5001CDCF1FE5C0DD90D
:1009700001F0004C4FEAC0024CEA5070B2F1004F57
:1009800040EB830008BF20F00100704711F0804F5A
:1009900021D113F13872BCBF01F00040704741F41F
:1009A00080114FEA5252C2F11802C2F1200C10FA23
:1009B0000CF320FA02F018BF40F001004FEAC12307
:1009C0004FEAD32303FA0CFC40EA0C0023FA02F3AB
:1009D0004FEA4303CCE77FEA625307D150EA013381
:1009E0001EBF4FF0FE4040F44000704701F0004051
:1009F00040F0FE4040F40000704700BF4FF0FF0C95
:100A00001CEAD0521EBF1CEAD15392EA0C0F93EAA3
:100A10000C0F6FD01A4480EA010C400218BF5FEA45
:100A200041211ED04FF0006343EA501043EA5111B8
:100A3000A0FB01310CF00040B1F5000F3EBF4900B2
:100A400041EAD3715B0040EA010062F17F02FD2AB6
:100A50001DD8B3F1004F40EBC25008BF20F0010099
:100A6000704790F0000F0CF0004C08BF49024CEAB0
:100A7000502040EA51207F3AC2BFD2F1FF0340EA42
:100A8000C250704740F400004FF00003013A5DDCB3
:100A900012F1190FDCBF00F000407047C2F10002F4
:100AA000410021FA02F1C2F1200200FA02FC5FEAE1
:100AB000310040F1000053EA4C0308BF20EADC702B
:100AC000704792F0000F00F0004C02BF400010F49D
:100AD000000F013AF9D040EA0C0093F0000F01F04A
:100AE000004C02BF490011F4000F013BF9D041EA6C
:100AF0000C018FE70CEAD15392EA0C0F18BF93EA6E
:100B00000C0F0AD030F0004C18BF31F0004CD8D197
:100B100080EA010000F00040704790F0000F17BF1E
:100B200090F0004F084691F0000F91F0004F14D064
:100B300092EA0C0F01D142020FD193EA0C0F03D1BC
:100B40004B0218BF084608D180EA010000F00040BF
:100B500040F0FE4040F40000704740F0FE4040F49A
:100B6000400070474FF0FF0C1CEAD0521EBF1CEA39
:100B7000D15392EA0C0F93EA0C0F69D0A2EB030257
:100B800080EA010C49024FEA402037D04FF08053F1
:100B900043EA111143EA10130CF000408B4238BFB6
:100BA0005B0042F17D024FF4000C8B4224BF5B1AC4
:100BB00040EA0C00B3EB510F24BFA3EB510340EA12
:100BC0005C00B3EB910F24BFA3EB910340EA9C00C0
:100BD000B3EBD10F24BFA3EBD10340EADC001B0130
:100BE00018BF5FEA1C1CE0D1FD2A3FF650AF8B42D4
:100BF00040EBC25008BF20F0010070470CF0004CE1
:100C00004CEA50207F32C2BFD2F1FF0340EAC2500B
:100C1000704740F400004FF00003013A37E792F0CC
:100C2000000F00F0004C02BF400010F4000F013A2A
:100C3000F9D040EA0C0093F0000F01F0004C02BF25
:100C4000490011F4000F013BF9D041EA0C0195E78E
:100C50000CEAD15392EA0C0F08D142027FF47DAF27
:100C600093EA0C0F7FF470AF084676E793EA0C0F17
:100C700004D14B023FF44CAF08466EE730F0004C15
:100C800018BF31F0004CCAD130F000427FF45CAFA5
:100C900031F000437FF43CAF5FE700BF53B94AB97E
:100CA000002908BF00281CBF4FF0FF314FF0FF3074
:100CB00000F076B9ADF1080C6DE904CE00F006F84D
:100CC000DDF804E0DDE9022304B070472DE9F047C8
:100CD000089E0D4604468846002B4DD18A42944614
:100CE00068D9B2FA82F252B101FA02F3C2F12001DC
:100CF00020FA01F10CFA02FC41EA030894404FEAA1
:100D00001C41B8FBF1F71FFA8CFE01FB178807FBAB
:100D10000EF0230C43EA084398420AD91CEB030364
:100D200007F1FF3580F01E81984240F21B81023F9F
:100D300063441B1AB3FBF1F001FB103300FB0EFE02
:100D4000A4B244EA0344A6450AD91CEB040400F10A
:100D5000FF3380F00981A64540F2068164440238E1
:100D60000021A4EB0E0440EA07401EB10023D4404A
:100D7000C6E90043BDE8F0878B4208D9002E00F099
:100D8000EE800021C6E900050846BDE8F087B3FA09
:100D900083F100294AD1AB4202D3824200F2FC80A7
:100DA000841A65EB030301209846002EE2D0C6E9C1
:100DB0000048DFE702B9FFDEB2FA82F2002A40F013
:100DC0009180A1EB0C0001214FEA1C471FFA8CFE19
:100DD000B0FBF7F307FB1300250C45EA00450EFBBB
:100DE00003F0A84208D91CEB050503F1FF3802D235
:100DF000A84200F2CE8043462D1AB5FBF7F007FB60
:100E000010550EFB00FEA4B244EA0544A64508D9DD
:100E10001CEB040400F1FF3502D2A64500F2B680B7
:100E20002846A4EB0E0440EA03409EE7C1F12007E8
:100E30008B4022FA07FC4CEA030C25FA07FA4FEA2A
:100E40001C49BAFBF9F820FA07F309FB18AA8D40F0
:100E50001FFA8CFE1D4300FA01F308FB0EF02C0C68
:100E600044EA0A44A04202FA01F20BD91CEB040442
:100E700008F1FF3A80F08880A04240F28580A8F116
:100E800002086444241AB4FBF9F009FB104400FB87
:100E90000EFEADB245EA0444A64508D91CEB040495
:100EA00000F1FF356CD2A6456AD90238644440EAA5
:100EB0000840A0FB0295A4EB0E04AC42C846AE4627
:100EC00056D353D0002E69D0B3EB080264EB0E0466
:100ED00022FA01F304FA07F71F43CC40C6E9007475
:100EE000002147E70CFA02FCC2F1200125FA01F3C8
:100EF0004FEA1C4720FA01F195400D43B3FBF7F18F
:100F000007FB11331FFA8CFE280C40EA034001FB5B
:100F10000EF3834204FA02F408D91CEB000001F13D
:100F2000FF382FD283422DD902396044C01AB0FB5A
:100F3000F7F307FB1300ADB245EA004503FB0EF0E3
:100F4000A84208D91CEB050503F1FF3816D2A842C8
:100F500014D9023B6544281A43EA014138E7314677
:100F6000304607E72F46E4E61846F9E64B45A9D296
:100F7000B9EB020865EB0C0E0138A3E74346EAE73C
:100F8000284694E74146D1E7D0467BE764440238DF
:100F900047E7023B65442FE7084606E73146E9E6A6
:100FA000704700BF844641EA000313F0030349D1B0
:100FB000403A23D30B6803604B6843608B688360BF
:100FC000CB68C3600B6903614B6943618B698361C3
:100FD000CB69C3610B6A03624B6A43628B6A8362AB
:100FE000CB6AC3620B6B03634B6B43638B6B836393
:100FF000CB6BC36340304031403ADBD230320BD34D
:101000000B6803604B6843608B688360CB68C36088
:1010100010301031103AF3D20C3205D351F8043BA2
:1010200040F8043B043AF9D2043208D0D2071CBF7E
:1010300011F8013B00F8013B01D30B8803806046A7
:10104000704700BF082A13D38B07B1D010F00303F9
:10105000AED0C3F10403D21ADB071CBF11F8013B69
:1010600000F8013BA4D331F8023B20F8023B9FE794
:10107000043AD9D3013A11F8013B00F8013BF9D207
:101080000B7803704B7843708B78837060467047A1
:1010900080F0004002E000BF81F0004142001FBF2D
:1010A0005FEA410392EA030F7FEA226C7FEA236C36
:1010B0006AD04FEA1262D2EB1363C1BFD21841402B
:1010C00048404140B8BF5B42192B88BF704710F0C1
:1010D000004F40F4000020F07F4018BF404211F064
:1010E000004F41F4000121F07F4118BF494292EACC
:1010F000030F3FD0A2F1010241FA03FC10EB0C00F8
:10110000C3F1200301FA03F100F0004302D5494284
:1011100060EB4000B0F5000F13D3B0F1807F06D331
:1011200040084FEA310102F10102FE2A51D2B1F129
:10113000004F40EBC25008BF20F0010040EA03001E
:101140007047490040EB0000013A28BFB0F5000F9E
:10115000EDD2B0FA80FCACF1080CB2EB0C0200FA54
:101160000CF0AABF00EBC25052421843BCBFD040A3
:101170001843704792F0000F81F4000106BF80F41D
:1011800000000132013BB5E74FEA41037FEA226CE0
:1011900018BF7FEA236C21D092EA030F04D092F0AB
:1011A000000F08BF0846704790EA010F1CBF0020DF
:1011B000704712F07F4F04D1400028BF40F000403C
:1011C000704712F100723CBF00F50000704700F05C
:1011D000004343F0FE4040F4000070477FEA226283
:1011E00016BF08467FEA23630146420206BF5FEA54
:1011F000412390EA010F40F4800070474FF0000354
:1012000004E000BF10F0004348BF40425FEA000C1A
:1012100008BF704743F0964301464FF000001CE0C2
:1012200050EA010208BF70474FF000030AE000BF18
:1012300050EA010208BF704711F0004302D5404256
:1012400061EB41015FEA010C02BF844601460020C8
:1012500043F0B64308BFA3F18053A3F50003BCFAE3
:101260008CF2083AA3EBC25310DB01FA02FC634490
:1012700000FA02FCC2F12002BCF1004F20FA02F297
:1012800043EB020008BF20F00100704702F120028A
:1012900001FA02FCC2F1200250EA4C0021FA02F2EB
:1012A00043EB020008BF20EADC70704700B585B050
:1012B00000230193029303937D487E4A02604360BA
:1012C0004FF080728260C3604FF4807202614361AC
:1012D0008361C3610362012280F8242010228262AC
:1012E00080F82C304263836380F83C3000F02CFDA2
:1012F000002840F0A9800B230193012302930423CB
:1013000003930DEB03016A4800F032FE002840F021
:101310009E800A2301930223029301A9644800F0EE
:1013200027FE002840F096800D23019303230293AB
:1013300001A95F4800F01CFE002840F08E800C23BD
:101340000193042302930DEB0301594800F010FEB2
:10135000002840F08580012301930523029301A911
:10136000534800F005FE00287DD100230193062399
:10137000029301A94E4800F0FBFD002876D1052319
:1013800001930723029301A9494800F0F1FD0028C9
:101390006FD1042301930823029301A9444800F06C
:1013A000E7FD002868D1062301930923029301A9D0
:1013B0003F4800F0DDFD002861D1072301930A2397
:1013C000029301A93A4800F0D3FD00285AD108231E
:1013D00001930B23029301A9354800F0C9FD0028B1
:1013E00053D10E2301930C23029301A9304800F03E
:1013F000BFFD00284CD1122301930D23029301A9B4
:101400002B4800F0B5FD002845D1132301930E238E
:10141000029301A9264800F0ABFD00283ED1142319
:1014200001930F23029301A9214800F0A1FDC0BB45
:10143000152301931023029301A91D4800F098FD84
:1014400090BB05B05DF804FB00F024F953E700F011
:1014500021F95EE700F01EF966E700F01BF96EE780
:1014600000F018F977E700F015F97EE700F012F9BF
:1014700085E700F00FF98CE700F00CF993E700F036
:1014800009F99AE700F006F9A1E700F003F9A8E7E7
:1014900000F000F9AFE700F0FDF8B6E700F0FAF869
:1014A000BDE700F0F7F8C3E700F0F4F8C9E700BFC4
:1014B0007C0800200024014070B58AB00023059309
:1014C00006930793089309930268304B9A4201D020
:1014D0000AB070BD044603F58A331A6A42F40072FA
:1014E0001A621A6A02F400720192019ADA6942F0F1
:1014F0000402DA61DA6902F004020292029ADA69FD
:1015000042F00102DA61DA6902F001020392039A01
:10151000DA6942F00202DA61DB6903F00203049344
:10152000049B1F2305930326069605A9184801F07E
:101530005FF8F323059306960025079505A915483E
:1015400001F056F84FF2010305930696079505A999
:10155000114801F04DF81148114B0360456085605A
:101560008023C3604FF4807303614FF48063436151
:1015700020238361C56100F005FF18B9074B636440
:101580005C62A5E700F086F8F8E700BF00240140A0
:10159000000802400000024000040240D008002081
:1015A0000860024000B583B00A4BDA6942F08072ED
:1015B000DA61DB6903F080730193019B002211461D
:1015C0000B2000F069FE0B2000F09EFE03B05DF8DA
:1015D00004FB00BF00380240F0B58BB00024059436
:1015E0000694079408940994274BDA6942F0200284
:1015F000DA61DA6902F020020092009ADA6942F0B8
:101600000402DA61DA6902F004020192019ADA69ED
:1016100042F00102DA61DA6902F001020292029AF2
:10162000DA6942F00202DA61DA6902F00202039238
:10163000039ADA6942F00802DA61DB6903F0080311
:101640000493049B114F01222021384601F0C4F875
:101650000F4E01220221304601F0BEF820230593EF
:10166000012506950795089405A9384600F0C0FFA6
:101670000223059306950795089405A9304600F0C6
:10168000B7FF0BB0F0BD00BF0038024000080240B9
:101690000004024072B6FEE700B593B03422002188
:1016A00005A803F0C1FB0023009301930293039369
:1016B000049313490A6822F4C05242F400620A609B
:1016C0000322059205220692012208921022099215
:1016D0000E9305A801F0CEF870B90F2300930223F2
:1016E00001930021029103910491684601F0A0FB4F
:1016F00020B913B05DF804FBFFF7CCFFFFF7CAFF7A
:101700000070004000B591B000F0E8FAFFF7C4FFA8
:10171000FFF762FFFFF746FFFFF7C8FD00F0B2F9E1
:1017200000F096F900F020F900F078F92F4C012232
:1017300021462F4802F059FA012221462D4802F095
:1017400054FA2D4D01222146284602F04EFA01247A
:101750002A4B1C702A4B93E803000E908DF83C1026
:10176000284803F00DFC284803F00AFC4FF6FF73ED
:1017700022460EA9284601F0EFFF21E0234B01226B
:101780001A70234801F00AFD194CEC4604F1100EC2
:10179000BEE80F00ACE80F00BEE80F00ACE80F0099
:1017A000BEE80F00ACE80F009EE803008CE80300E1
:1017B00094E80F0002F02AFD0CE0322000F0B0FAAD
:1017C000144B00221A70144B1B781BB90F4B1B785B
:1017D000002BD3D0104B1B78002BEED0074B1B787F
:1017E000002BEAD002F014FAE7E700BFE90E002070
:1017F000780F0020300F0020C00F00203809002093
:1018000058630008446300084C630008E00D0020A2
:10181000F00E0020E40D0020E20D002084B00F4BFC
:101820005A6A42F000425A625A6A02F00042019239
:10183000019A1A6A42F001021A621A6A02F001025F
:101840000292029A5A6A42F080525A625B6A03F02C
:1018500080530393039B04B0704700BF00380240DD
:10186000FEE7FEE7FEE7FEE7FEE7704770477047DA
:1018700008B500F043FA08BD08B5024800F056FE6E
:1018800008BD00BFD008002008B5024801F051FD96
:1018900008BD00BFF00E002008B5024802F046F86F
:1018A00008BD00BF300F002008B5024802F03EF826
:1018B00008BD00BF780F002008B5024802F036F8D6
:1018C00008BD00BFC00F002070B50C4616460025AD
:1018D00006E0AFF30080214601F8010B01350C460C
:1018E000B542F6DB304670BD70B50C461646002595
:1018F00004E014F8010B00F093F90135B542F8DB70
:10190000304670BD4FF0FF3070474FF400534B60CE
:1019100000207047012070470020704710B5034633
:101920000C4A0D490D48006840B10C48006803445A
:10193000521A934206D8094A136010BD0748084C52
:101940000460F2E702F092FF0C2303604FF0FF30D7
:10195000F3E700BF00C0002000040000EC0E0020F0
:10196000581000207047000000B587B00023029394
:101970000393049305930093019318484FF080421A
:10198000026048F6FF724260836041F63F72C260B7
:101990000361436101F0DDFBB8B94FF4805302935A
:1019A00002A90E4801F042FC90B900230093019374
:1019B00069460A4801F05AFD68B9084B1B686FF088
:1019C00001021A6107B05DF804FBFFF763FEE4E76C
:1019D000FFF760FEE9E7FFF75DFEEEE7F00E00209F
:1019E0000368B3F1804F00D0704700B583B003F5B2
:1019F0000E335A6A42F001025A625B6A03F0010335
:101A00000193019B002211461C2000F045FC1C2084
:101A100000F07AFC03B05DF804FB000008B50A484A
:101A20000A4B03604FF4E133436000238360C360DB
:101A300003610C2242618361C36101F05DFE00B964
:101A400008BDFFF727FEFBE7C00F00200050004055
:101A500008B50A480A4B03604FF41653436000234D
:101A60008360C36003610C2242618361C36101F042
:101A700043FE00B908BDFFF70DFEFBE7300F002065
:101A80000044004008B50A480A4B03604FF416535F
:101A9000436000238360C36003610C224261836161
:101AA000C36101F029FE00B908BDFFF7F3FDFBE7B4
:101AB000780F002000480040F0B58DB00023079358
:101AC000089309930A930B9303684D4A934207D0F6
:101AD0004C4A934242D04C4A934267D00DB0F0BD7D
:101AE0004A4B5A6A42F480125A625A6A02F48012CD
:101AF0000092009ADA6942F00402DA61DA6902F0CF
:101B000004020192019ADA6942F00802DA61DB69A3
:101B100003F008030293029B4FF4805307930227BC
:101B200008970126099603250A9508240B9407A90E
:101B3000374800F05DFD04230793089709960A953E
:101B40000B9407A9334800F053FD002211463120C1
:101B500000F0A2FB312000F0D7FBBFE72B4B5A6A05
:101B600042F400325A625A6A02F400320392039A33
:101B7000DA6942F00102DA61DB6903F001030493E0
:101B8000049B0C2307930223089303230A93072340
:101B90000B9307A9204800F02BFD002211462620B8
:101BA00000F07AFB262000F0AFFB97E7174B5A6A4C
:101BB00042F480225A625A6A02F480220592059AFF
:101BC000DA6942F00202DA61DB6903F0020306938C
:101BD000069B4FF4406307930223089303230A9361
:101BE00007230B9307A90D4800F002FD00221146C0
:101BF000272000F051FB272000F086FB6EE700BF96
:101C000000500040004400400048004000380240BE
:101C100000080240000C02400000024000040240A4
:101C200000B583B001904FF6FF73012201A903486C
:101C300001F092FD019803B05DF804FBC00F002095
:101C4000FFF790FE0B480C490C4A002302E0D458E1
:101C5000C4500433C4188C42F9D3094A094C0023F8
:101C600001E013600432A242FBD302F005FEFFF74D
:101C700049FD7047000000205C0800204464000813
:101C80006008002058100020FEE70000104B1B6881
:101C90000BB90120704710B504464FF47A70B0FBC1
:101CA000F3F30C4A1068B0FBF3F000F03BFB68B9AB
:101CB0000F2C01D901200AE0002221464FF0FF300D
:101CC00000F0EAFA044B1C60002000E0012010BD87
:101CD00004000020000000200800002010B50320B0
:101CE00000F0C8FA0F20FFF7D1FF10B10124204601
:101CF00010BD0446FFF792FDF9E70000034A1368A0
:101D0000034909680B441360704700BF08100020A6
:101D100004000020014B1868704700BF0810002025
:101D200038B50446FFF7F6FF0546B4F1FF3F02D091
:101D3000044B1B681C44FFF7EDFF401BA042FAD385
:101D400038BD00BF04000020002800F0BC8070B542
:101D500082B00446C36C002B5FD0E36C13F0100F0D
:101D600040F0B380E36C23F4885323F0020343F084
:101D70000203E364564A536823F4403361680B431B
:101D80005360E3686269134394F83C104FF40072A7
:101D900092FAA2F2B2FA82F201FA02F21343226A32
:101DA0001A4394F82400022393FAA3F3B3FA83F3BB
:101DB00000FA03F31343626B102A02D0A16B0A43AB
:101DC000134325682A6812F0400214D1A1690B431D
:101DD000A168E66931432669B6F5807F30D0012ECF
:101DE0002BD00A4394F82C1001292BD0686839496C
:101DF00001400A436A6021688868374A02401A43F2
:101E00008A602269B2F5807F33D0012A31D02168FF
:101E10000A6B22F0F8720A633AE0036580F84830F2
:101E20002E4B1A6A42F001021A621B6A03F0010388
:101E30000193019BFFF740FB8FE74FF48072D0E7DF
:101E40003246CEE760B9216B01394FF4604090FA19
:101E5000A0F0B0FA80F0814041F400610A43C5E788
:101E6000E16C41F02001E164216D41F00101216547
:101E7000BCE725682A6B22F0F872A16A01394FF09D
:101E8000F87090FAA0F0B0FA80F081400A432A631B
:101E900022689168124A0A409A420BD0E36C23F000
:101EA000120343F01003E364236D43F00103236541
:101EB00001200BE000202065E36C23F0030343F0D6
:101EC0000103E36402E001207047012002B070BD0D
:101ED00000270140FF16FCFC89F1FFC000380240DA
:101EE000FEFF80BF08B5436ADA6C12F0500F27D1AD
:101EF000DA6C42F40072DA641A68916811F0405F9B
:101F00001AD193F82410B9B9116B11F0F87F03D0EE
:101F1000916811F4806F0FD1516821F02001516058
:101F2000DA6C22F48072DA64DA6C12F4805F03D126
:101F3000DA6C42F00102DA64184602F03BF908BD9F
:101F40005B6C1B6B9847FAE7704708B5406AFFF770
:101F5000FBFF08BD704708B5406AC36C43F04003FF
:101F6000C364036D43F004030365FFF7F3FF08BD8B
:101F700030B482B00023019390F84830012B00F078
:101F8000CB80012380F848304B68062B2CD804689E
:101F9000226C03EB8303053B4FF01F0C0CFA03FC90
:101FA00022EA0C020D6805FA03F3134323640B685D
:101FB000092B5BD80468626903EB43034FF0070CFD
:101FC0000CFA03FC22EA0C028D6805FA03F31343B2
:101FD00063610B68103B012B79D9002380F84830EE
:101FE000184602B030BC70470C2B0ED80568EA6B5F
:101FF00003EB8303233B1F249C4022EA04020C686A
:1020000004FA03F31343EB63D1E7122B0ED80568F0
:10201000AA6B03EB8303413B1F249C4022EA04028A
:102020000C6804FA03F31343AB63C0E7182B0ED814
:1020300005686A6B03EB83035F3B1F249C4022EA25
:1020400004020C6804FA03F313436B63AFE70568FB
:102050002A6B03EB83037D3B1F249C4022EA04028E
:102060000C6804FA03F313432B63A0E7132B0ED879
:1020700005682A6903EB43031E3B07249C4022EAC0
:1020800004028C6804FA03F313432B61A1E71D2BB0
:102090000ED80568EA6803EB43033C3B07249C40E9
:1020A00022EA04028C6804FA03F31343EB6090E71E
:1020B0000568EA6D03EB43035A3B07249C4022EA80
:1020C00004028C6804FA03F31343EB6581E7134BB6
:1020D0005B6813F4000F80D1104A536843F4000387
:1020E00053600B68102B7FF478AF0D4B1B6802F127
:1020F000467202F52D3202F28332A2FB03239B0CBF
:1021000003EB83035B00019302E0019B013B01931E
:10211000019B002BF9D160E7022062E70027014014
:102120000000002030B583B00023019303681A68D3
:1021300012F0400F35D104469A6842F001029A60CD
:10214000194B1B68194AA2FB03239B0C03EB4303A7
:10215000019302E0019B013B0193019B002BF9D10C
:10216000FFF7D8FD054623681B6813F0400F16D112
:10217000FFF7D0FD431B022BF5D923681B6813F032
:10218000400FF0D1E36C43F01003E364236D43F0A0
:1021900001032365002384F84830012002E0002079
:1021A00000E0002003B030BD0000002083DE1B43B0
:1021B000F8B50D4690F84810012952D0044616464D
:1021C000012380F84830FFF7ADFF0746002849D1CA
:1021D000E16C21F4E06121F0010141F48071E164DE
:1021E00023685B6813F4806F05D0E36C23F44053DD
:1021F00043F48053E364E36C13F4805F2ED0236DCB
:1022000023F006032365002384F84830636C164AE4
:102210009A62636C154ADA62636C154A1A63236822
:102220006FF022021A602268536843F080635360A3
:102230002268936843F480739360216833462A468A
:102240005831606C00F0EAF823689A6812F0405F39
:1022500008D19A6842F080429A6003E00023236527
:10226000D1E702273846F8BDE51E00084B1F0008DD
:10227000571F0008074AD36823F4E0631B041B0CB4
:10228000000200F4E060034343F0BF6343F4003313
:10229000D360704700ED00E000B5194BDB68C3F375
:1022A0000223C3F1070CBCF1040F28BF4FF0040C4C
:1022B00003F1040EBEF1060F18D9033B4FF0FF3EA9
:1022C0000EFA0CFC21EA0C0199400EFA03F322EA03
:1022D0000303194300280BDB0901C9B200F1604078
:1022E00000F5614080F800135DF804FB0023E5E78A
:1022F00000F00F000901C9B2024B1954F4E700BF06
:1023000000ED00E014ED00E0002807DB00F01F0204
:10231000400901239340024A42F82030704700BF31
:1023200000E100E00138B0F1807F0BD24FF0E023F4
:102330005861054AF02182F8231000209861072295
:102340001A6170470120704700ED00E010B4046C82
:1023500004F01C0C012404FA0CF4D0F83CC0CCF8B6
:102360000440046863604368102B05D003689960DB
:102370000368DA6010BC704703689A600368D9602C
:10238000F8E7000000283AD010B4024600681D4B60
:10239000984229D81C4B03441C49A1FB03131B0979
:1023A0009B0013641A4BD363022382F82130016827
:1023B00021F4FF4121F07001536894682343D468ED
:1023C0002343146923435469234394692343D46901
:1023D00023430B43036000209063012382F82130E4
:1023E00082F8200010BC70470A4B03440749A1FB48
:1023F00003131B099B001364074BD363D4E701202D
:10240000704700BF07640240F89FFDBFCDCCCCCC25
:1024100000600240F89BFDBF0064024038B50446EE
:1024200090F82000012832D0012084F8200094F890
:102430002100C0B2012804D0002384F820300220FB
:1024400038BD022084F821000020A0632568286898
:1024500020F0010028602046FFF778FFE36A5BB1B7
:102460002268136843F00E0313602268136843F078
:10247000010313600020E3E72268136823F00403DC
:1024800013602268136843F00A031360EDE702202B
:10249000D6E790F82130DBB2022B06D00423836309
:1024A000002380F82030012070470268136823F071
:1024B0000E0313600268136823F001031360036CBA
:1024C00003F01C03C16B012202FA03F34B6080F896
:1024D0002120002380F820301846704708B590F876
:1024E0002130DBB2022B03D004238363012008BD1B
:1024F0000268136823F00E0313600268136823F068
:1025000001031360036C03F01C03C16B012202FA88
:1025100003F34B6080F82120002380F82030436BC8
:1025200013B198470020E2E70020E0E738B5C36B1D
:10253000196804682568036C03F01C0304229A40A0
:102540000A4215D015F0040F12D0236813F0200FA3
:1025500003D1236823F004032360036C03F01C02FF
:10256000C16B042393404B60C36A03B1984738BDE5
:1025700002229A400A421CD015F0020F19D023689B
:1025800013F0200F06D1236823F00A0323600123F0
:1025900080F82130036C03F01C02C16B02239340CE
:1025A0004B60002380F82030836A002BDFD09847EF
:1025B000DDE7082202FA03F30B42D8D015F0080F2A
:1025C000D5D0236823F00E032360036C03F01C03B3
:1025D000C16B012202FA03F34B60826380F8212071
:1025E000002380F82030036B002BC0D09847BEE753
:1025F00070B582B0002365E085685E000324B440B6
:1026000025EA0405CC68B4402C438460446824EA7D
:102610000C0C4C68C4F300149C4044EA0C04446065
:1026200061E0DD08083550F8256003F007044FEA43
:10263000840C0F2404FA0CF426EA040E0C6904FA44
:102640000CF444EA0E0440F8254063E0062400E060
:10265000002404FA0EF42C430CF1020C5A4D45F8F8
:102660002C405A4CA568D44325EA0206D1F804C090
:102670001CF4801F01D042EA0506544DAE60ED689F
:1026800004EA0506D1F804C01CF4001F01D042EA98
:1026900005064E4DEE606D6804EA0506D1F804C0EB
:1026A0001CF4003F01D042EA0506484D6E602D68DB
:1026B0002C404E6816F4803F01D042EA0504434A9C
:1026C000146001330A6832FA03F47BD04FF0010C36
:1026D0000CFA03FC1CEA0202F3D04C6804F0030479
:1026E000013C012C88D94C6804F00304032C0CD065
:1026F000C4685D004FF0030C0CFA05FC24EA0C0CD6
:102700008C68AC4044EA0C04C4604C6804F00304D8
:10271000022C86D004684FEA430E4FF0030C0CFAEB
:102720000EFC24EA0C0C4C6804F0030404FA0EF4CA
:1027300044EA0C0404604C6814F4403FC1D0244CBB
:10274000256A45F001052562246A04F0010401941C
:10275000019C4FEA930C0CF102051B4C54F82550D8
:1027600003F003044FEA840E0F2404FA0EF425EA62
:102770000405184CA0423FF46BAF04F58064A042FE
:1027800016D004F58064A04214D004F58064A04201
:1027900012D004F58064A04210D004F58064A042F9
:1027A0000ED004F58064A0423FF450AF072450E7F8
:1027B00001244EE702244CE703244AE7042448E7B7
:1027C000052446E702B070BD00000140000401404E
:1027D00000380240000002400AB1816170470904DC
:1027E0008161704710B483B01F4B9B6813F0F003F6
:1027F00028D11D4A526A12F0805F10D01B4A12681D
:1028000002F4C052B2F5C05F1DD1B0F5404F1AD1ED
:10281000174A136843F004031360012313E01249BD
:102820004A6A42F080524A624A6A02F08052019239
:10283000019A0E4A126802F4C0524C6A24F0805485
:102840004C62DFE700230A490A6822F001021A43BA
:102850000A600A6802F001029A4203D1002003B024
:1028600010BC70470120FAE70038024000700040B9
:10287000003C0240002800F05E82F0B583B00446C0
:10288000A24B9D6805F00C059E6806F4803603682F
:1028900013F0010F1DD0082D12D00C2D0ED063683F
:1028A000012B35D0002B49D1984B1A6822F4803285
:1028B0001A601A6822F480221A602EE0002EEED0F0
:1028C000924B1B6813F4003F03D06368002B00F0A9
:1028D0003482236813F0020F68D0042D55D00C2DDC
:1028E00051D0E368002B00F0C780894B01221A60A9
:1028F000FFF710FA0646854B1B6813F0020F40F0F5
:10290000B280FFF707FA801B0228F4D903201DE2EA
:102910007E4A136843F480331360636823B3FFF780
:10292000F9F90746794B1B6813F4003FD1D1FFF743
:10293000F1F9C01B6428F5D9032007E2052B09D063
:10294000724B1A6822F480321A601A6822F48022CC
:102950001A60E2E76D4B1A6842F480221A601A6826
:1029600042F480321A60D8E7FFF7D4F90746674B84
:102970001B6813F4003FACD0FFF7CCF9C01B6428F0
:10298000F5D90320E2E1002EABD1604B1B6813F0B8
:10299000020F03D0E368012B40F0D1815B4A5368FA
:1029A00023F4F853216943EA01235360236813F0A9
:1029B000100F3BD0002D40F08580544B1B6813F462
:1029C000007F03D0A369002B00F0BB81206A4F4B2E
:1029D0005B6803F46043984260D9FFF703FF002867
:1029E00040F0B181494A536823F46043216A0B43A4
:1029F0005360536823F07F43E16943EA0163536006
:102A0000236A5B0B5A1C4FF4004393403F4A926881
:102A1000C2F303123F498A5CD3403F4A13603F4BE5
:102A20001868FFF733F9002840F09081236813F00D
:102A3000080F00F09B806369002B00F08480344B0A
:102A40000122C3F88026FFF765F906462F4B5B6B22
:102A500013F0020F40F08A80FFF75CF9801B022818
:102A6000F4D9032072E1294A536823F4F853216909
:102A700043EA0123536099E7254B00221A60FFF7D0
:102A800049F90646214B1B6813F0020F8ED0FFF761
:102A900041F9801B0228F5D9032057E11B4A5368EE
:102AA00023F4604318435060536823F07F43E16987
:102AB00043EA01635360206AFFF794FE00289FD029
:102AC000012043E1A3695BB3114B01221A62FFF7B6
:102AD00021F906460D4B1B6813F4007F06D1FFF762
:102AE00019F9801B0228F5D903202FE1074A536802
:102AF00023F46043216A0B435360536823F07F4300
:102B0000E16943EA0163536090E700BF0038024087
:102B10000000474260630008000000200800002019
:102B20008F4B00221A62FFF7F5F806468D4B1B68A3
:102B300013F4007F3FF47AAFFFF7ECF8801B022814
:102B4000F4D9032002E1864B0022C3F88026FFF768
:102B5000E1F80646834B5B6B13F0020F06D0FFF7DC
:102B6000D9F8801B0228F5D90320EFE0236813F081
:102B7000040F79D07B4B5B6A13F0805F0BD1794BEC
:102B80005A6A42F080525A625B6A03F080530193A2
:102B9000019B012600E00026734B1B6813F4807F25
:102BA0000ED0A368012B1FD0002B35D16D4B5A6B73
:102BB00022F480725A635A6B22F480625A6318E0DE
:102BC000694A136843F480731360FFF7A3F807465C
:102BD000654B1B6813F4807FE3D1FFF79BF8C01BA4
:102BE0006428F5D90320B1E05E4A536B43F4807347
:102BF0005363A36833B3FFF78DF80746594B5B6BFC
:102C000013F4007F2FD1FFF785F8C01B41F2883302
:102C10009842F3D9032099E0052B09D0514B5A6B08
:102C200022F480725A635A6B22F480625A63E0E79E
:102C30004C4B5A6B42F480625A635A6B42F4807276
:102C40005A63D6E7FFF766F80746464B5B6B13F40B
:102C5000007F08D0FFF75EF8C01B41F2883398422E
:102C6000F3D9032072E0C6B9636A002B6DD00C2D36
:102C70004CD0022B17D03A4B00221A66FFF74AF8C5
:102C80000446384B1B6813F0007F3DD0FFF742F835
:102C9000001B0228F5D9032058E0324A536A23F07A
:102CA00080535362E0E72E4B00221A66FFF732F89A
:102CB00005462C4B1B6813F0007F06D0FFF72AF85F
:102CC000401B0228F5D9032040E026498B6823F4F5
:102CD0007D03A26AE06A0243206B024313438B60C8
:102CE0001F4B01221A66FFF715F804461D4B1B689F
:102CF00013F0007F06D1FFF70DF8001B0228F5D96D
:102D0000032023E0002021E000201FE0012B1FD042
:102D1000144B9B6803F48031A26A91421AD103F4E8
:102D20007012E16A8A4217D103F44003226B934286
:102D300014D100200AE001207047012006E00120A4
:102D400004E0012002E0012000E0002003B0F0BD1B
:102D50000120FBE70120F9E70120F7E70120F5E773
:102D600000004742003802400070004008B52D4B7B
:102D70009A6802F00C03082B4FD00C2B0AD0042BBE
:102D80004ED0284B5868C0F34230431C4FF40040EB
:102D9000984046E0C2F38343234911F803C0C2F3CD
:102DA000815201321F4B9B6813F4803F16D04FEACB
:102DB000CC01B1EB0C0163EB03035B0143EAD1638C
:102DC000490111EB0C0143F100034FEA034C0023CE
:102DD00008044CEA1141FDF761FF22E04FEA4C1173
:102DE000B1EB0C006EEB0E0E4FEA8E1343EA9063CC
:102DF0008101091A63EB0E03DB0043EA5173C9003A
:102E000011EB0C0C43F10003990200234FEA8C20D4
:102E100041EA9C51FDF742FF03E04FF4610000E0FE
:102E2000024808BD00380240786300080024F4001E
:102E3000002800F0D98070B50C4605466E4B1B6823
:102E400003F001038B420DD2012928D06A4A13688E
:102E500023F0010323431360136803F00103A3422B
:102E600040F0C4802B6813F0020F06D0634A9368C9
:102E700023F0F003A9680B4393602B6813F0010F54
:102E800072D06B68022B10D0032B32D0012B37D0BD
:102E90005A4A126812F4007F0DD101209DE0564A73
:102EA000136843F004031360D0E7544A126812F425
:102EB000003F00F09D8051498A6822F003021343CD
:102EC0008B60FEF727FF06466B68022B1FD0032B93
:102ED0002CD0012B39D0494B9B6813F00C0F43D0F9
:102EE000FEF718FF801B41F288339842F3D9032084
:102EF00073E0424A126812F0007FDCD101206CE0DE
:102F00003E4A126812F0020FD5D1012065E03B4B1A
:102F10009B6803F00C03082B26D0FEF7FBFE831BF7
:102F200041F288329342F2D9032056E0334B9B683A
:102F300003F00C030C2B17D0FEF7ECFE801B41F2C4
:102F400088339842F2D9032047E02C4B9B6803F06A
:102F50000C03042B08D0FEF7DDFE801B41F2883302
:102F60009842F2D9032038E0234B1B6803F0010399
:102F7000A3420CD9012C31D01F4A136823F001035E
:102F800023431360136803F00103A34232D12B687B
:102F900013F0040F06D0194A936823F4E063E9683C
:102FA0000B4393602B6813F0080F07D0134A936804
:102FB00023F46053296943EAC1039360FFF7D6FE07
:102FC0000E4B9B68C3F303130D4AD35CD8400D4BE3
:102FD00018600D4B1868FEF759FE70BD064A13685D
:102FE00043F004031360C7E7012070470120F4E7B2
:102FF0000120F2E70120F0E7003C024000380240E7
:10300000606300080000002008000020014B1868E1
:10301000704700BF0000002008B5FFF7F7FF044B22
:103020009B68C3F30223034AD35CD84008BD00BFAA
:10303000003802407063000808B5FFF7E7FF044B53
:103040009B68C3F3C223034AD35CD84008BD00BFCA
:1030500000380240706300080368B0F1804F0ED062
:103060001E4A90420BD002F58062904207D002F5D2
:103070008062904203D002F57C42904203D123F05B
:1030800070034A681343B0F1804F16D0134A904240
:1030900013D002F5806290420FD002F58062904218
:1030A0000BD002F57C42904207D002F5806290423C
:1030B00003D002F58062904203D123F44073CA68C2
:1030C000134323F080030A69134303608B68C362D0
:1030D0000B68836201234361704700BF0004004016
:1030E00010B4036A046A24F001040462846924F0C1
:1030F000F00C4CEA021223F00A030B4382610362D4
:1031000010BC704710B4036A046A24F0100404620F
:10311000846924F4704C4CEA023223F0A00343EAA1
:1031200001138261036210BC7047836823F070034F
:103130000B4343F007038360704710B4846824F4A2
:103140007F4C42EA03220A4342EA0C02826010BC2E
:10315000704700B310B5044690F83930B3B102237C
:1031600084F83930214651F8040BFFF775FF01232D
:1031700084F83E3084F83A3084F83B3084F83C30B0
:1031800084F83D3084F83930002010BD80F83830A4
:10319000FEF726FCE3E701207047000090F8393085
:1031A000DBB2012B27D1022380F839300268D368C3
:1031B00043F00103D3600368B3F1804F10D0104A8D
:1031C00093420DD002F58062934209D002F580321D
:1031D000934205D01A6842F001021A60002070473D
:1031E0009A6802F00702062A07D01A6842F0010224
:1031F0001A6000207047012070470020704700BF10
:10320000000400400268D36823F00103D360036820
:10321000196A41F21112114203D11A6822F0010217
:103220001A60012380F839300020704790F8383058
:10323000012B78D010B50446012380F838300223E2
:1032400080F839300268936823F47F4323F07703D2
:1032500093600B68602B4CD029D8402B54D00CD9EC
:10326000502B22D1CA6849680068FFF739FF502106
:103270002068FFF75AFF002005E0202B0DD009D968
:10328000302B0AD00120012384F83930002384F840
:10329000383010BD0BB1102B05D119462068FFF74F
:1032A00044FF0020EFE70120EDE70120EBE7B3F555
:1032B000805F34D0B3F5005F0CD1CB684A68896871
:1032C0000068FFF73AFF2268936843F480439360F5
:1032D0000020D8E7702B24D1CB684A688968006841
:1032E000FFF72BFF2268936843F077039360002079
:1032F000C9E7CA6849680068FFF704FF60212068D1
:10330000FFF713FF0020BEE7CA6849680068FFF7AF
:10331000E7FE40212068FFF708FF0020B3E7002008
:10332000B1E70120AFE70220704770477047704750
:10333000704710B5044603681A6912F0020F11D0E5
:10334000DA6812F0020F0DD06FF002021A61012349
:10335000037603689B6913F0030F5ED0FFF7E6FF67
:103360000023237623681A6912F0040F12D0DA685A
:1033700012F0040F0ED06FF004021A6102232376BC
:1033800023689B6913F4407F4DD02046FFF7CEFFA2
:103390000023237623681A6912F0080F12D0DA6826
:1033A00012F0080F0ED06FF008021A610423237682
:1033B0002368DB6913F0030F3CD02046FFF7B6FF0C
:1033C0000023237623681A6912F0100F12D0DA68EE
:1033D00012F0100F0ED06FF010021A61082323763E
:1033E0002368DB6913F4407F2BD02046FFF79EFF54
:1033F0000023237623681A6912F0010F03D0DA68DC
:1034000012F0010F24D123681A6912F0400F03D083
:10341000DA6812F0400F22D110BDFFF786FF204678
:10342000FFF785FF9CE72046FFF77FFF2046FFF769
:103430007EFFADE72046FFF778FF2046FFF777FFD6
:10344000BEE72046FFF771FF2046FFF770FFCFE78A
:103450006FF001021A61204600F0C0FED3E76FF062
:1034600040021A612046FFF763FFD5E790F8383035
:10347000012B2CD010B4012380F83830022380F8BF
:10348000393003685A689C6822F0700C0A6842EA76
:103490000C025A600368B3F1804F0AD00D4A934280
:1034A00007D002F58062934203D002F58032934246
:1034B00004D124F080044A6814439C60012380F8FE
:1034C0003930002380F83830184610BC704702208D
:1034D000704700BF00040040026802F10C0353E88B
:1034E000003F23F490730C3242E800310029F3D1FD
:1034F000026802F1140353E8003F23F00103143281
:1035000042E800310029F3D1036B012B05D02023C1
:1035100080F84230002303637047026802F10C0315
:1035200053E8003F23F010030C3242E80031002939
:10353000F3D1ECE790F84130DBB2212B01D002202F
:1035400070478368B3F5805F17D0036A5A1C026224
:103550001A7803685A60C38C9BB2013B9BB2C38448
:103560004BB90268D36823F08003D3600268D36844
:1035700043F04003D360002070470369002BE4D17F
:10358000036A1B880268C3F308035360036A0233AB
:103590000362E0E738B504460268136923F4405338
:1035A000C1680B4313618368026913434269134383
:1035B000C2691A430168CB6823F4164323F00C0355
:1035C0001343CB600268536923F4407381690B4352
:1035D00053610268244B9A4223D0FFF71DFDE36933
:1035E000B3F5004F20D000EB800202EB820260684E
:1035F0008000B2FBF0F21D48A0FB023149096423B0
:1036000003FB11231B013233A0FB03235B0903F0EF
:10361000F00202EB011203F00F03216813448B60E8
:1036200038BDFFF709FDDAE700EB800000EB800012
:1036300063685B00B0FBF3F00C4DA5FB0032510951
:10364000642303FB1103DB003233A5FB03235B0977
:103650005A0002F4F87202EB011203F0070321682A
:1036600013448B60DCE700BF003801401F85EB513D
:103670002DE9F84305460F4616469946DDF82080A9
:103680002C68246837EA04030CBF4FF0010C4FF09C
:10369000000CB4452DD1B8F1FF3FF1D0B8F1000FC7
:1036A00005D0FEF737FBA0EB09004045E8D92A68B2
:1036B00002F10C0353E8003F23F4D0730C3242E8CC
:1036C00000310029F3D12A6802F1140353E8003FC6
:1036D00023F00103143242E800310029F3D1202302
:1036E00085F8413085F84230002385F840300320CA
:1036F00000E00020BDE8F88360B310B5044690F800
:10370000413013B3242384F841302268D36823F472
:103710000053D3602046FFF73DFF2268136923F46E
:10372000904313612268536923F02A03536122688E
:10373000D36843F40053D36000206064202384F8EE
:10374000413084F84230606310BD80F84030FEF7AD
:10375000B3F9D7E7012070472DE9F04182B01E464A
:1037600090F84130DBB2202B4BD104460D469046F9
:1037700000294AD00AB9012044E0002343642123F0
:1037800080F84130FEF7C6FA0746A4F82480A4F872
:103790002680A368B3F5805F02D04FF000080FE0E9
:1037A0002369FBB14FF000080AE038F8023B2268B9
:1037B000C3F308035360E28C92B2013A92B2E284FE
:1037C000E38C9BB28BB100963B46002280212046C1
:1037D000FFF74EFFD8B9002DE7D015F8012B23686D
:1037E0005A60E8E7A8460025EAE700963B46002233
:1037F00040212046FFF73CFF58B9202384F8413090
:1038000000E0022002B0BDE8F0810120FAE70320C9
:10381000F8E70320F6E7704708B50168CA6822F0A8
:103820004002CA60202280F84120FFF7F4FF002008
:1038300008BD704708B5406A0023C385C384FFF7FD
:10384000F8FF08BD704790F84230DBB2222B69D1F7
:103850008368B3F5805F4FD0826AB3F5805F04D090
:10386000002B56D10369002B53D103685B6813709A
:10387000836A01338362C38D9BB2013B9BB2C385D4
:10388000002B51D100B583B00268D36823F0200328
:10389000D3600268D36823F48073D36002685369ED
:1038A00023F001035361202380F842300023436357
:1038B000036B012B33D100230363026802F10C0375
:1038C00053E8003F23F010030C3242E80031002996
:1038D000F3D103681A6812F0100F06D0002201928B
:1038E0001A6801925B680193019B818DFFF7AAFF23
:1038F000002003B05DF804FB0269002AACD1826AA3
:1039000003685B68C3F308031380836A023383622E
:10391000B1E703685B6803F07F031370A8E700F06A
:1039200077FBE5E7022070470020704730B583B091
:10393000044602681368D068516913F00F0505D179
:1039400013F0200F02D010F0200F19D12DB111F07B
:10395000010119D110F4907F16D1216B01297DD07E
:1039600013F0800F03D010F0800F40F0188113F097
:10397000400F03D010F0400F40F0158103B030BD70
:103980002046FFF760FFF9E713F0010F06D010F4AF
:10399000807F03D0626C42F00102626413F0040F76
:1039A00004D019B1626C42F00202626413F0020F9B
:1039B00004D019B1626C42F00402626413F0080F83
:1039C00007D010F0200F00D119B1626C42F008024C
:1039D0006264626C002AD1D013F0200F02D010F084
:1039E000200F29D123685B6903F04003626C12F059
:1039F000080F00D163B32046FFF76EFD23685B69B3
:103A000013F0400F20D0226802F1140353E8003F66
:103A100023F04003143242E800310029F3D1E36B74
:103A200073B1634A5A63E06BFEF758FD0028A5D0D6
:103A3000E06B436B9847A1E72046FFF704FFD1E70F
:103A40002046FFF7F6FE99E72046FFF7F2FE95E7DE
:103A50002046FFF7EEFE002363648FE713F0100F9C
:103A60003FF47EAF10F0100F3FF47AAF00230193C4
:103A70001368019353680193019B536913F0400F3E
:103A800051D0E26B13685B689BB2002B3FF476AFBA
:103A9000A18D99427FF672AFE3859369202B37D0D1
:103AA000226802F10C0353E8003F23F480730C32C8
:103AB00042E800310029F3D1226802F1140353E8EF
:103AC000003F23F00103143242E800310029F3D112
:103AD000226802F1140353E8003F23F0400314323C
:103AE00042E800310029F3D1202384F8423000233A
:103AF0002363226802F10C0353E8003F23F0100314
:103B00000C3242E800310029F3D1E06BFEF7C1FC32
:103B100002236363A18DE38D9BB2C91A89B220464B
:103B2000FFF790FE2AE7A18DE38D9BB2C91A89B2F7
:103B3000E38D9BB2002B3FF421AF00293FF41EAF71
:103B4000226802F10C0353E8003F23F490730C3217
:103B500042E800300028F3D1226802F1140353E850
:103B6000003F23F00103143242E800300028F3D173
:103B7000202384F8423000232363226802F10C03DF
:103B800053E8003F23F010030C3242E800300028D5
:103B9000F3D1022363632046FFF754FEEEE620468E
:103BA000FFF7C8FCEAE62046FFF736FEE6E600BF70
:103BB0003538000881628285C28500234364222350
:103BC00080F84230036923B10268D36843F48073FC
:103BD000D3600268536943F0010353610268D368FC
:103BE00043F02003D3600020704708B590F84230BE
:103BF000DBB2202B08D149B10AB9012008BD00234E
:103C00000363FFF7D7FFF9E70220F7E70120F5E7A5
:103C10002DE9F04F97B09B48FFF7C0FA9A4E6C46DB
:103C200006F110050FCD0FC40FCD0FC40FCD0FC47B
:103C300095E8030084E8030096E80F0000F0FAFA24
:103C4000924B01221A70914B1B784BB1904B1B7811
:103C500033B9904B1B78002BF5D08D4B01221A7095
:103C60008B4B1B780BB9042316E08B4B00221A7088
:103C700017B0BDE8F08F8949CC5C5A1C895C5A08A2
:103C8000063202EBC202864800EBC202106941EA2A
:103C9000042202800233DBB2132BECD9FF22002175
:103CA0007E4801F0C1F87748FFF778FA7D4E6C4600
:103CB00006F110050FCD0FC40FCD0FC40FCD0FC4EB
:103CC00095E8030084E8030096E80F0000F0B2FADC
:103CD0006E4B01221A706D4B1B784BB16C4B1B78ED
:103CE00033B96C4B1B78002BF5D0694B01221A704D
:103CF000674B1B780BB9042314E0674B00221A7042
:103D0000B6E76649CC5C5A1C895C5A08023A02EB59
:103D1000C202634800EBC202106941EA0422028039
:103D20000233DBB2132BECD9FF2200215B4801F0F8
:103D30007BF85448FFF732FA10225B495B48FEF7E4
:103D400037FA5B4B01221A70594B1B7803F0FF02C4
:103D5000002BF9D11446159210225649524800F012
:103D600075FD24E04E4F4FEAC40804EBC40207EB94
:103D7000C202916892F904901069DEB2B0F800B006
:103D80005FFA89F9B1F800A0D2E90801FCF7C6FD95
:103D900080B2009033465A464946504600F078FBC0
:103DA000454407EBC507C7E906010134E4B20F2C0F
:103DB0003FF65EAF254604EBC403394A02EBC3036A
:103DC00093F84030002BF0D03A4B1B5704EBC40162
:103DD00002EBC100037312F83120A13A052AE4D89E
:103DE00001A151F822F000BF653D0008013E000826
:103DF000B93E0008013F00082D3F0008593F000868
:103E0000274F4FEAC40804EBC40207EBC2029168D3
:103E100092F904901069D2E908ABCDE90EABD2E972
:103E20000ABCCDE910BCD2E90CABCDE912ABDEB2D5
:103E3000B0F800B05FFA89F9B1F800A0D2E90E013C
:103E4000FCF76CFD80B20390DDE91201FCF766FD22
:103E500080B20290DDE91001FCF760FD80B20190B4
:103E6000DDE90E01FCF75AFD80B2009033465A4658
:103E70004946504600F074FB454407EBC507C7E9C7
:103E8000060192E7F00E0020780F0020E00D0020E0
:103E9000E40D0020E10D0020E20D0020E80D0020DF
:103EA00040090020300F0020180900207C08002065
:103EB00014090020C00D0020544F4FEAC40804EB41
:103EC000C40207EBC202916892F904901069DEB255
:103ED000B0F800B05FFA89F9B1F800A0D2E90801A2
:103EE000FCF71CFD80B2009033465A4649465046C6
:103EF00000F066FA454407EBC507C7E9060154E739
:103F0000424EE70004EBC40206EBC202906892F94D
:103F100004101269DBB21288C9B2008800F0F8F907
:103F20003D4406EBC506C6E906013EE7374EE7000D
:103F300004EBC40206EBC202906892F90410126905
:103F4000DBB21288C9B2008800F08AF93D4406EB62
:103F5000C506C6E9060128E704EBC4062B4B03EBB4
:103F6000C606307D400000F0ABFC3061159803467A
:103F700001E00133DBB20F2B1BD805EBC50223494F
:103F800001EBC2025288002AF3D001229A40F0D0FD
:103F90000A4603EBC30102EBC1010E6905EBC50143
:103FA00002EBC1021169421C368821F81060D0B2C0
:103FB000DFE7164F05EBC50607EBC60696F904903A
:103FC00096F90CA0D6E90823CDE90E235FFA8AFA08
:103FD000336910935FFA89F9D6F808B0D6E90A0177
:103FE000FCF79CFC80B20290DDE90E01FCF796FC28
:103FF00080B20190337D00935346109A494658464B
:1040000000F02EFBC6E90601CFE600BF4009002004
:1040100038B504460268574B9A4209D02268564B7D
:104020009A4250D02268554B9A4200F0978038BD92
:10403000534B1B78AA2B16D0524A12786AB1524AB7
:10404000127852498B54524909788B420FD00B4455
:104050004F490B7001324C4B1A70012248494D48B0
:10406000FFF7C3FDDAE7474A01211170E4E7AA2B05
:10407000EDD0464BDB78052B18D0444BDB78732B07
:104080001DD00024404B1C703E4B1C70404B1C70DC
:10409000414B1C7001223A493E48FFF7A6FD3F4DB7
:1040A0002846FFF7AFF82B685C62C0E73C4B012263
:1040B0001A70FF220021354800F0B6FEDDE7394BCB
:1040C00000221A70DDE72E4B1B78AA2B16D02D4A42
:1040D00012786AB12C4A12782C498B542C490978F1
:1040E0008B420FD00B442A490B700132264B1A70B9
:1040F000012223492C48FFF778FD93E7214A01214B
:104100001170E4E7AA2BEDD0204BDB78052B18D0FB
:104110001E4BDB78732B1DD000241B4B1C70194BDE
:104120001C701B4B1C701C4B1C700122144919483D
:10413000FFF75BFD194D2846FFF764F82B685C62BA
:1041400075E7174B01221A70FF2200210F4800F07B
:104150006BFEDDE7134B00221A70DDE70122094BED
:104160001A7012490B6813440B6005491048FFF799
:104170003CFD5CE700480040004400400050004027
:10418000E90E0020E30D0020E80E0020E80D0020DD
:10419000E70E0020780F0020E00D0020F00E002038
:1041A000E20D002038090020300F00200C10002004
:1041B000C00F002008B50268054B9A4200D008BD28
:1041C000044B00221A700448FFF71CF8F7E700BF01
:1041D0000024014014090020F00E00200368B3F110
:1041E000804F00D07047054B01221A700023044A0B
:1041F0001370044A1370044A1370F3E7E10D0020B2
:10420000E00D0020E20D00203809002084B008B540
:104210000DF1080C8CE80F004FF6FF7307220449DC
:104220006046FFF799FABDE8084004B0704700BF48
:104230000C00002084B008B50DF1080C8CE80F00CC
:104240004FF6FF73052204496046FFF785FABDE883
:10425000084004B0704700BF1400002000000000B8
:104260002DE9F0410E4690461F46FCF7CBF820A3FF
:10427000D3E90023FCF740F902460B46FCF73CF972
:1042800004460D464046FCF7BDF819A3D3E90023C8
:10429000FCF732F902460B46FCF72EF922462B4674
:1042A000FBF772FF14A3D3E90023FCF725F90446BA
:1042B0000D46B81BFCF7B6F811A3D3E90023FCF7B1
:1042C0001BF902460B4620462946FBF75FFF0022FA
:1042D0000D4BFCF711F9FCF741FB02F003F80B4919
:1042E000FCF740FCFCF7B0F8BDE8F081AFF30080CC
:1042F0009A9999999999B93F22CD0EA782406D3F1D
:104300009A99999999990140000059400000C84232
:104310002DE9F0410E4690461F46FCF773F820A3A6
:10432000D3E90023FCF7E8F802460B46FCF7E4F873
:1043300004460D464046FCF765F819A3D3E900236F
:10434000FCF7DAF802460B46FCF7D6F822462B4675
:10435000FBF71AFF14A3D3E90023FCF7CDF80446BA
:104360000D46B81BFCF75EF811A3D3E90023FCF758
:10437000C3F802460B4620462946FBF707FF0022FA
:104380000D4BFCF7B9F8FCF7E9FA01F0ABFF0B496C
:10439000FCF7E8FBFCF758F8BDE8F081AFF30080CC
:1043A0009A9999999999B93F192543E966DA693F2C
:1043B0009A99999999990140000059400000C84282
:1043C0002DE9F84F8A4614469B46FCF71BF828A3B4
:1043D000D3E90023FCF790F802460B46FCF78CF873
:1043E000804689462046FCF70DF821A3D3E9002337
:1043F000FCF782F802460B46FCF77EF806460F46AD
:10440000BDF82800FCF70EF81BA3D3E90023FCF746
:1044100073F804460D4642464B4630463946FBF794
:10442000B3FE02460B4620462946FCF765F80446D3
:104430000D46ABEB0A00FBF7F5FF11A3D3E9002310
:10444000FCF75AF802460B4620462946FBF79EFE2B
:1044500000220D4BFCF750F8FCF780FA01F042FF08
:104460000A49FCF77FFBFBF7EFFFBDE8F88F00BFC1
:104470009A9999999999B93FB19FACB58353473FA0
:104480009A99999999990140000059400000C842B1
:104490002DE9F84F8A4614469B46FBF7B3FF28A345
:1044A000D3E90023FCF728F802460B46FCF724F872
:1044B000804689462046FBF7A5FF21A3D3E90023C8
:1044C000FCF71AF802460B46FCF716F806460F46AC
:1044D000BDF82800FBF7A6FF1BA3D3E90023FCF7D8
:1044E0000BF804460D4642464B4630463946FBF72C
:1044F0004BFE02460B4620462946FBF7FDFF0446CD
:104500000D46ABEB0A00FBF78DFF11A3D3E90023A7
:10451000FBF7F2FF02460B4620462946FBF736FE24
:1045200000220D4BFBF7E8FFFCF718FA01F0DAFE6A
:104530000A49FCF717FBFBF787FFBDE8F88F00BFC0
:104540009A9999999999B93F4EAC9D7296A3413F1A
:104550009A99999999990140000059400000C842E0
:104560002DE9F8430D4690461C46FBF74BFF36A35A
:10457000D3E90023FBF7C0FF02460B46FBF7BCFF65
:1045800033A3D3E90023FBF7B7FF06460F464046A7
:10459000FBF738FF2CA3D3E90023FBF7ADFF02465E
:1045A0000B46FBF7A9FF2AA3D3E90023FBF7A4FFDF
:1045B00032463B46FBF7E8FD06460F46BDF82000B5
:1045C000FBF730FF32463B46FBF796FF02460B46B1
:1045D00030463946FBF790FF80468946BDF82400F7
:1045E000FBF720FF32463B46FBF786FF02460B46B1
:1045F00040464946FBF7CAFD06460F46BDF828006F
:10460000FBF710FF32463B46FBF7C0FD06460F4660
:10461000641BBDF82C0004FB00F0FBF703FF02460F
:104620000B4630463946FBF7B1FD00220A4BFBF73B
:1046300063FFFCF793F901F055FE0849FCF792FA85
:10464000FBF702FFBDE8F8839A9999999999B93FC8
:10465000000000E04D62503F000059400000C84299
:104660002DE9F04F89B083460491924605939DF859
:104670004850042D0DD056A4D4E90034CDE90034BF
:10468000032D0BD054A4D4E90034CDE90634002422
:1046900026E00023584CCDE90034F1E750A4D4E9DA
:1046A0000034CDE9003450A4D4E90034CDE9063417
:1046B000EDE73BF81400FBF7A5FE4DA3D3E900237B
:1046C000FBF71AFF02460B46FBF716FF02460B46A6
:1046D00040464946FBF75AFD804689460134E4B21C
:1046E000AC42E6D32846FBF79DFE02460B46CDE9D9
:1046F000022340464946FCF729F8804689460024B3
:1047000016E03AF81400FBF77DFE39A3D3E9002345
:10471000FBF7F2FE02460B46FBF7EEFE02460B46A7
:1047200030463946FBF732FD06460F460134E4B207
:10473000AC42E6D3DDE9022330463946FCF706F801
:1047400006460F46BDF84C00FBF76CFEDDE906237C
:10475000FBF7D2FE04460D4642464B4630463946EC
:10476000FBF712FD02460B4620462946FBF7C4FE26
:1047700004460D46BDF85000FBF754FE02460B46BA
:1047800020462946FBF700FD04460D46059B049A8A
:10479000981AFBF747FEDDE90023FBF7ADFE024662
:1047A0000B4620462946FBF7F1FC0022134BFBF792
:1047B000A3FEFCF7D3F801F095FD1149FCF7D2F9FF
:1047C000FBF742FE09B0BDE8F08F00BFAFF30080F9
:1047D000666666666666E6BF06046312688F4B3FD0
:1047E000333333333333D3BF4EAC9D7296A3413F43
:1047F0009A9999999999B93F0000E0BF00005940F2
:104800000000C842A0F13C039BB2B3F5717F16D300
:104810004FF0000CACF11E0040B270470133DBB228
:10482000502BF7D8084A32F81320121A002AB8BFC2
:1048300052429142F2DD91B20FFA83FCEEE700237F
:104840009C464FF6FF71EBE784630008F8B5074616
:104850000E461546002405E037F81400FFF7D2FF96
:1048600030550134A542F7DCF8BD0000014B186853
:10487000704700BF1C00002070B50D4E0D4D761B1B
:10488000B61006D0002455F8043B01349847A642E0
:10489000F9D1094E094D01F049FD761BB61006D03D
:1048A000002455F8043B01349847A642F9D170BD65
:1048B0003864000838640008406400083864000860
:1048C000024B0146186800F003B800BF1C0000202E
:1048D0002DE9F04F01F10B05162D064683B025D8C2
:1048E000102900F2B88000F0F1FA102518224FF0DC
:1048F000020CB54F3A445368A2F108018B4200F014
:10490000B7805A68D96822F003021A449C6830467E
:10491000E1608C60516803F1080441F001015160CD
:1049200000F0DAFA204603B0BDE8F08F35F0070555
:1049300000F19180A94200F28E8000F0C7FAB5F52F
:10494000FC7FC0F094816B0A00F08C80042B00F295
:104950006A81AB0903F1390C03F138044FEACC004A
:10496000994F384443680838984206D10CE0002932
:1049700080F22681DB68984206D05A6822F0030252
:10498000511B0F29F3DDA4463C69DFF840E2744572
:104990007AD0626822F00302531B0F2B00F376815A
:1049A000002BC7E904EE80F26781B2F5007F80F04A
:1049B00019810121D30852090B4491407A6857F8B4
:1049C00033000A4307EBC3010839A060E1607A6055
:1049D00047F83340C46001214FEAAC03994091424B
:1049E00059D8114206D12CF0030C490011420CF1A8
:1049F000040CFAD007EBCC0948466446D0F80C808A
:104A0000404508D11CE1002B80F22181D8F80C80B0
:104A1000404500F01581D8F8042022F00302531B12
:104A20000F2BF0DD08EB050145F00105C8F8045037
:104A30003046D8E90264F460A66043F00104C7E997
:104A400004114C60C1E902EE48F8023000F044FA6B
:104A500008F1080402E00C2300243360204603B070
:104A6000BDE8F08F4FF400704FF0400C3F2477E723
:104A7000D3689A4208BF0CF1020C7FF442AF3C6944
:104A8000DFF848E1744584D101217A684FEAAC032C
:104A900099409142A5D9BC68636823F003094D454C
:104AA00003D8A9EB05030F2B7ADCDFF824B1494BBF
:104AB000DBF800201B6801322B4404EB090A00F0EC
:104AC0002F8103F580530F3323F47F6828F00F08FC
:104AD0004146304600F04AFC411C024600F0EF809F
:104AE000824500F2EA803C4B19684144084619604F
:104AF00000F04981DBF80010019301311BBFA2EBEC
:104B00000A0A5044CBF80020186012F0070B00F09E
:104B10001181CBF108010A44CBF580519044083152
:104B2000A1EB0801C1F30B0A51463046009200F098
:104B30001DFC421CDDE9002300F04B81801A00EBD4
:104B40000A08196848F001005144BC42BA60196073
:104B5000506000F02481B9F10F0F40F222814FF034
:104B6000050E6068A9F10C0C2CF0070C00F0010098
:104B700040EA0C006060BCF10F0F04EB0C00C0E9D0
:104B800001EE00F22E8114465068144B1A688A42D6
:104B900038BF1960124B1A688A4238BF196090E01A
:104BA000621943F0010345F0010565603046BA60C3
:104BB0000834536000F090F9204603B0BDE8F08F50
:104BC000D9681A44A2E600BF48040020500400201F
:104BD0005008002040100020101000203810002045
:104BE0003C100020B2F5206F4FEA52235FD3142B04
:104BF00000F2B18003F15C01C9005B337818795889
:104C00000838884200F08F804B6823F003039342FA
:104C100002D989688842F7D1C8687A68C4E9021065
:104C20008460CC60D7E6142B59D9542B00F29B80BA
:104C30002B0B03F16F0C03F16E044FEACC008FE6EF
:104C40000134A30700F108007FF4D8AE53E04446D6
:104C500042445368D8F80C1043F00103536054F8F1
:104C6000083F3046D9608B6000F036F9F6E64FEA2F
:104C7000D50C05F108023CE622445368304643F067
:104C80000103536000F028F90834E7E6611945F0A4
:104C90000105656043F00105C7E904113046C1E92B
:104CA00002EE4D60A35000F017F90834D6E69309E0
:104CB00003F13901C9003833A0E7BC425ED0BC68BB
:104CC000606820F003084545A8EB050302D80F2BC8
:104CD0003FF766AF304600F0FFF80024BEE603F170
:104CE0005C0C03F15B044FEACC0039E659F8083953
:104CF0004B4540F095801CF0030F0CF1FF3CF5D1C3
:104D00007B6823EA01037B60490099423FF6C3AE0A
:104D100011B9C0E6490004341942FBD0A44669E643
:104D200003F11008D4E601229B109A407B681A43D5
:104D30007A6073E702EB08014942C1F30B0A51465E
:104D40003046009200F012FB431CDDE900237FF4A3
:104D5000F5AEDA46F5E6542B26D8130B03F16F01B6
:104D6000C9006E334AE7B3F5AA7F26D8EB0B03F1EF
:104D7000780C03F177044FEACC00F1E5294B186871
:104D800040441860B6E6CAF30B0CBCF1000F7FF488
:104D9000B1AEBC68C84448F001006060F5E6144656
:104DA000F3E60123536095E7B3F5AA7F24D8D30B2C
:104DB00003F17801C900773320E740F2545293425F
:104DC00024D8AB0C03F17D0C03F17C044FEACC003A
:104DD000C6E5ABF1080BD8444FF0000AA8EB020877
:104DE000AFE604F108013046009300F07BFCBC689C
:104DF000009B60681968C8E640F254518B420BD89A
:104E0000930C03F17D01C9007C33F7E64FF47E700B
:104E10004FF07F0C7E24A3E54FF47E717E23EDE6F8
:104E20007B6871E710100020830730B548D0541E0E
:104E3000002A3FD00346CAB201E0013C3AD303F84E
:104E4000012B9D07F9D1032C2DD9CDB245EA0525BB
:104E50000F2C45EA054536D9A4F1100222F00F0CBB
:104E600003F1200EE6444FEA121C03F1100242E95E
:104E7000045542E9025510327245F8D10CF1010295
:104E800014F00C0F03EB021204F00F0C13D0ACF172
:104E9000040323F003030433134442F8045B9342F6
:104EA000FBD10CF003042CB1CAB21C4403F8012B53
:104EB0009C42FBD130BD64461346002CF4D1F9E787
:104EC00003461446BFE71A46A446E0E7014800F04F
:104ED000A9BE00BF48100020014800F0A5BE00BFD9
:104EE0004810002030B5054689B008460C4600F051
:104EF00095FA01210223214A04940692AA6B04AC7C
:104F00000590084401940791AC680293039022B382
:104F1000636E13F0010FB4F90C309AB201D1980509
:104F200025D5910406D4626E43F4005322F4005256
:104F3000A3816266284601AA214600F0D3FC636E75
:104F4000002814BF4FF0FF350A25DA0702D4A389E1
:104F50009B0506D5284609B030BD284600F0CAFAA0
:104F6000D6E7A06D00F060FE284609B030BDA06D08
:104F700000F058FEB4F90C309AB2D2E72C64000865
:104F8000024B01461868FFF7ADBF00BF1C000020B0
:104F90002DE9F84F1646002900F0988006F10B0520
:104FA00080460C46FFF792FF162D5DD810252A4645
:104FB000AE425ED854F8041CA4F1080921F003079E
:104FC000974262DABC4B09EB0700D3F808C084456E
:104FD00000F09780D0F804C02CF0010303445B6814
:104FE000DB0768D42CF0030C07EB0C03934247DA81
:104FF000CB0710D454F8083CA9EB030ADAF80430C4
:1050000023F003018C44BC44944580F211817B1849
:10501000934280F2E88031464046FFF759FC06464D
:10502000E0B154F8043CA0F1080223F001034B4422
:10503000934200F0D2803A1F242A00F2F580132A0E
:1050400000F2AC800346224611681960516859602D
:1050500092689A602146404600F044FB4046FFF7C4
:105060003BFF3046BDE8F88F25F00705002D2A46A6
:105070009EDA0C230026C8F800303046BDE8F88FD1
:105080001F46D0E90223D3609A607B1B0F2B22D8E6
:10509000D9F8043003F001033B43C9F804304F440E
:1050A0007B6843F001037B6026464046FFF714FF10
:1050B0003046BDE8F88FC907ADD454F8083CA9EBD9
:1050C000030ADAF8041021F00301A0E71146BDE855
:1050D000F84FFFF7FDBBD9F8041043F0010301F0CE
:1050E00001012943C9F8041009EB05014B604F4445
:1050F0007B68404643F0010308317B6000F0F2FA20
:10510000D2E7DCF8040020F0030B07EB0B0C05F1F1
:10511000100084454DDAC9073FF57DAF54F8081CEF
:10512000A9EB010ADAF8041021F003018B44BB4417
:1051300058453FF76CAF5646DAF80C1056F8080F92
:105140003A1F242AC160886000F2DB80132A40F2F3
:10515000D68021681B2ACAF808106168CAF80C10AA
:1051600000F2E08008340AF11002216811606168E1
:105170005160A1689160ABEB05020AEB050142F0BA
:10518000010299604A60DAF80430404603F00103F6
:105190001D43CAF80450FFF79FFE6EE723681B2AE1
:1051A00003606368436068D804F1080200F10803F3
:1051B0004AE709EB0502ACEB050C9A604CF00103E1
:1051C000536054F8043C404603F001031D4344F887
:1051D000045CFFF781FE26464FE750F8043C23F0BD
:1051E00003031F4451E75646DAF80C1056F8080F2F
:1051F0003A1F242AC16088604CD8132A48D92168F4
:105200001B2ACAF808106168CAF80C1056D808346E
:105210000AF110021F462368D14613606368536089
:10522000A3683446936030E7214600F05DFD11E746
:105230005646D0E90213CB60996056F8081FDAF899
:105240000C303A1F242ACB6099602DD8132A29D913
:1052500023681B2ACAF808306368CAF80C3042D8A1
:1052600008340AF11003226867461A606268D14662
:105270005A60A26834469A6007E7A368242A8360CC
:10528000E368C36026D004F1100200F11003DBE6EE
:105290003246BFE7214630461F46D14600F024FD86
:1052A0003446F2E63346DEE7214630466746D146CD
:1052B00000F01AFD3446E8E648040020A168242ADC
:1052C000CAF81010E168CAF8141020D010340AF19E
:1052D00018029FE7236904F11802036163694361BF
:1052E00000F11803B0E6A368242ACAF81030E36876
:1052F000CAF8143022D010340AF11803B3E732464A
:1053000033E72146304600F0EFFC174B33E72269C4
:105310001834CAF8182054F8042CCAF81C200AF1D2
:10532000200277E7A168242ACAF81010E168CAF8B9
:1053300014100ED010340AF1180216E7236918343D
:10534000CAF8183054F8043CCAF81C300AF120039B
:1053500089E722691834CAF8182054F8042CCAF8CE
:105360001C200AF1200200E748040020002238B582
:10537000064D044608462A60FCF7D0FA431C00D0CC
:1053800038BD2B68002BFBD0236038BD54100020A3
:1053900010B50C46B1F90E1000F022FD002803DB19
:1053A000236D0344236510BDA38923F48053A38197
:1053B00010BD00BF2DE9F0410C46B1F90C101F469D
:1053C000CB05054616460BD421F48051A1813B46FE
:1053D00032462846B4F90E10BDE8F04100F04CB852
:1053E000B4F90E100223002200F020FCB4F90C10D6
:1053F000EAE700BF10B50C46B1F90E1000F016FC3C
:10540000A389421C0EBF23F4805343F480532065CC
:10541000A38110BDB1F90E1000F054B820F00301C3
:1054200010F00300C0F1000051F8043B00F1040C3F
:105430004FEACC0C6FF000021CBF22FA0CF21343AF
:105440004FF0010C4CEA0C2C4CEA0C4CA3EB0C0278
:1054500022EA030212EACC1204BF51F8043B0430E2
:10546000F4D0C2F1000102EA0102B2FA82F2C2F102
:105470001F0200EBD200704738B50C4611460022DF
:105480008446074D20462A601A466446FCF72CFAEB
:10549000431C00D038BD2B68002BFBD0236038BDE7
:1054A00054100020024B13B1024800F005B87047B9
:1054B0000000000019560008002301461A4618464D
:1054C00000F00EBD002238B5064D044608462A609D
:1054D000FCF718FA431C00D038BD2B68002BFBD01A
:1054E000236038BD54100020014900F073BB00BF99
:1054F0006D5F00082DE9F0478246394800F092FBC5
:10550000DAF83840002C66D1042303223549DAF852
:105510000450CAF83C10DFF8D090DFF8D080344F48
:10552000344E0AF53B71CAE9B921CAF8E042214676
:10553000EB600822C5E90044C5E904446C66AC6030
:10554000AC6105F15C00FFF76FFCC5E90759C5E9DF
:105550000987EE6205F1580000F060FBDAF80850A8
:10556000254B2146EB600822C5E90044C5E9044407
:105570006C66AC60AC6105F15C00FFF755FCC5E9F9
:105580000759C5E90987EE6205F1580000F046FBAE
:10559000DAF80C50194B2146EB600822C5E90044AB
:1055A000C5E904446C66AC60AC6105F15C00FFF7D2
:1055B0003BFC05F15800C5E90759C5E90A76C5F86D
:1055C000248000F02BFB01230548CAF83830BDE8E1
:1055D000F04700F029BB0248BDE8F04700F024BBCB
:1055E00050100020E954000891530008B5530008FA
:1055F000F5530008155400080900010012000200CC
:10560000014800F00FBB00BF4C100020014800F023
:105610000BBB00BF4C10002038B5084B084D5B1B7E
:105620009C1007D0043B1D44013C55F804399847B1
:10563000002CF9D1BDE8384000F07EBE446400087B
:1056400040640008F8B50C46234F0646FFF73EFCC1
:10565000BB685D68C4F57E6325F003050F332B44FA
:1056600023F47F6323F00F03A3F58054B4F5805F28
:1056700007DB00213046FFF779FEBB682B449842D8
:1056800004D03046FFF728FC0020F8BD30466142C8
:10569000FFF76CFE01300DD0104ABB682D1B45F0A2
:1056A00001055D60136830461B1B1360FFF714FC97
:1056B0000120F8BD00213046FFF758FEBA68831A72
:1056C0000F2BDEDD43F001035360054B03491B68DC
:1056D000C01A0860D5E700BF480400201010002061
:1056E0005008002000295ED0F8B50C460646FFF7AA
:1056F000EDFB54F8042C784FA4F1080522F00101C9
:105700006818D7F808C04368844523F0030300F005
:105710008780D207436034D454F8082C07F108047A
:10572000AD1A1144AA68A24268D000EB030CDCF861
:1057300004E0D5F80CC01EF0010FC2F80CC0CCF884
:10574000082000F0918041F001036B600160B1F529
:10575000007F31D24A09CB08012191407A68013398
:105760001143796007EBC30257F83310083AC5E9D3
:10577000021247F83350CD603046BDE8F840FFF7DD
:10578000ABBBC2185268D2070ED4194407F1080403
:105790008368A34270D0C268DA60936041F001036D
:1057A0006B606950D3E7704741F00103B1F5007FAA
:1057B00044F8043C0160CDD3B1F5206F4FEA51238A
:1057C00047D28B0903F1390003F13802C300F818FE
:1057D000FB580838984258D05A6822F003028A428F
:1057E00002D99B689842F7D1D868C5E90230856034
:1057F0003046DD60BDE8F840FFF76EBBC218526866
:10580000D20763D40B44D0E90212CA60916043F01E
:1058100001026A603046EB50BDE8F840FFF75CBB20
:105820000B44D10707D454F8082CAD1A1344D5E91A
:105830000212CA60916043F001026A60274ABD60AB
:1058400012689A4298D8264B30461968FFF7FAFE3C
:1058500092E7142B0AD9542B1FD80B0B03F16F00BE
:1058600003F16E02C300B2E7194491E703F15C0053
:1058700003F15B02C300AAE741F00103C7E9045545
:10588000C5E902446B60695076E70121921001FA84
:1058900002F279680A437A60A7E7B3F5AA7F06D8CF
:1058A000CB0B03F1780003F17702C3008FE740F2DE
:1058B0005452934206D88B0C03F17D0003F17C0215
:1058C000C30084E74FF47E737E2280E741F001033A
:1058D0006B60016050E700BF4804002054080020BE
:1058E000401000209368002B00F0B7802DE9F04FA6
:1058F000B1F90C300C4619078046174683B098B2B0
:1059000025D523691BB310F002033D682DD04FF05D
:10591000000B5E46DFF8B8A2002E00F08B805645E3
:1059200033465A4628BF53464046E169D4F824C05E
:10593000E047002840F38780BB6883441B1A361A6F
:10594000BB60002BE8D1002003B0BDE8F08F2146FA
:10595000404600F05BFA002840F03681B4F90C3084
:105960003D6898B210F00203D1D110F0010976D150
:105970004E46002E5AD08205D4F808B040F1B580CA
:10598000B3455A4600F2CD8010F4906F00F0CB8002
:1059900023682169A3EB010B636903EB430A0AEB5C
:1059A000DA7A0BF101034FEA6A0A3344534552464F
:1059B00084BF9A465246430540F1EA80114640466C
:1059C000FEF786FF002800F0F9805A462169019011
:1059D000FBF7E8FAA289019B22F4906242F0800270
:1059E000A28103EB0B0023613246AAEB0B03B34603
:1059F000C4F814A0A3602060B24600264946019274
:105A000000F072F9A3682168019AA3EB0B030A4422
:105A1000A3602260B868D144A0EB0A00B8600028F7
:105A200091D0B4F90C0080B2002EA4D1D5E9009633
:105A300008359EE7D5E900B608356DE721464046B2
:105A400000F08CFB80B3B4F90C304FF0FF3043F022
:105A50004003A38103B0BDE8F08F002070471E46CD
:105A6000AA46994618461D4656B3002832D04A46E3
:105A700020682169B24228BF32468842636904D94E
:105A8000A16803EB010B5A4574DC934265DC2A469E
:105A90004046E169D4F824C0E047B0F1000BD2DD04
:105AA000B9EB0B09CAD00120BB685D44A3EB0B0323
:105AB000A6EB0B06BB60002B3FF445AF002ED4D104
:105AC0000AF1080353F8046C9A4653F8085C08334B
:105AD000002EF7D032460A21284600F0BDF80028F3
