:020000040800F2
:1000000000C00020CD160008F5120008F712000805
:10001000F9120008FB120008FD12000800000000A1
:10002000000000000000000000000000FF120008B7
:100030000113000800000000031300080513000866
:1000400015170008151700081517000815170008E0
:1000500015170008151700081517000815170008D0
:100060001517000815170008151700080D130008CC
:1000700015170008151700081517000815170008B0
:1000800015170008151700081517000815170008A0
:100090001517000815170008151700081517000890
:1000A00000000000151700081517000815170008B4
:1000B0001D1300082D130008151700081517000858
:1000C0001517000815170008151700081517000860
:1000D00015170008151700083D1300084D130008F8
:1000E0001517000815170008151700081517000840
:1000F0001517000815170008151700081517000830
:10010000151700085D1300081517000815170008DB
:100110001517000815170008151700080000000043
:10012000151700080000000000000000000000009B
:0C01300000000000000000005FF808F173
:1001400010B5054C237833B9044B13B10448AFF311
:1001500000800123237010BD4C040020000000002B
:10016000D84D000808B5034B1BB103490348AFF352
:10017000008008BD0000000050040020D84D000899
:1001800081F0004102E000BF83F0004330B54FEA48
:1001900041044FEA430594EA050F08BF90EA020FB5
:1001A0001FBF54EA000C55EA020C7FEA645C7FEA48
:1001B000655C00F0E2804FEA5454D4EB5555B8BF6B
:1001C0006D420CDD2C4480EA020281EA030382EADC
:1001D000000083EA010180EA020281EA0303362D6E
:1001E00088BF30BD11F0004F4FEA01314FF4801C41
:1001F0004CEA113102D0404261EB410113F0004F53
:100200004FEA03334CEA133302D0524263EB430309
:1002100094EA050F00F0A780A4F10104D5F1200EA7
:100220000DDB02FA0EFC22FA05F2801841F1000102
:1002300003FA0EF2801843FA05F359410EE0A5F1D6
:1002400020050EF1200E012A03FA0EFC28BF4CF007
:10025000020C43FA05F3C01851EBE37101F00045BD
:1002600007D54FF0000EDCF1000C7EEB00006EEBCA
:100270000101B1F5801F1BD3B1F5001F0CD3490854
:100280005FEA30004FEA3C0C04F101044FEA4452AB
:1002900012F5800F80F09A80BCF1004F08BF5FEA32
:1002A000500C50F1000041EB045141EA050130BD12
:1002B0005FEA4C0C404141EB0101013C28BFB1F524
:1002C000801FE9D291F0000F04BF01460020B1FA6F
:1002D00081F308BF2033A3F10B03B3F120020CDA42
:1002E0000C3208DD02F1140CC2F10C0201FA0CF020
:1002F00021FA02F10CE002F11402D8BFC2F1200C85
:1003000001FA02F120FA0CFCDCBF41EA0C0190403A
:10031000E41AA2BF01EB0451294330BD6FEA040483
:100320001F3C1CDA0C340EDC04F11404C4F120026E
:1003300020FA04F001FA02F340EA030021FA04F380
:1003400045EA030130BDC4F10C04C4F1200220FAD7
:1003500002F001FA04F340EA0300294630BD21FA15
:1003600004F0294630BD94F0000F83F4801306BFDB
:1003700081F480110134013D4EE77FEA645C18BFCF
:100380007FEA655C29D094EA050F08BF90EA020F66
:1003900005D054EA000C04BF1946104630BD91EA5E
:1003A000030F1EBF0021002030BD5FEA545C05D161
:1003B0004000494128BF41F0004130BD14F58004A0
:1003C0003CBF01F5801130BD01F0004545F0FE4114
:1003D00041F470014FF0000030BD7FEA645C1ABF49
:1003E000194610467FEA655C1CBF0B46024650EA80
:1003F000013406BF52EA033591EA030F41F40021AC
:1004000030BD00BF90F0000F04BF0021704730B531
:100410004FF4806404F132044FF000054FF0000106
:1004200050E700BF90F0000F04BF0021704730B5C7
:100430004FF4806404F1320410F0004548BF40429C
:100440004FF000013EE700BF42004FEAE2014FEAF1
:1004500031014FEA02701FBF12F07F4393F07F4FCC
:1004600081F06051704732F07F4208BF704793F0CF
:100470007F4F04BF41F40021704730B54FF46074E2
:1004800001F0004521F000411CE700BF50EA0102E5
:1004900008BF704730B54FF000050AE050EA01028E
:1004A00008BF704730B511F0004502D5404261EBFE
:1004B00041014FF4806404F132045FEA915C3FF43F
:1004C000D8AE4FF003025FEADC0C18BF03325FEADC
:1004D000DC0C18BF033202EBDC02C2F1200300FA8D
:1004E00003FC20FA02F001FA03FE40EA0E0021FAB2
:1004F00002F11444BDE600BF70B54FF0FF0C4CF4A0
:10050000E06C1CEA11541DBF1CEA135594EA0C0F51
:1005100095EA0C0F00F0DEF82C4481EA030621EA8C
:100520004C5123EA4C5350EA013518BF52EA0335C7
:1005300041F4801143F4801338D0A0FB02CE4FF079
:100540000005E1FB02E506F00042E0FB03E54FF0A9
:100550000006E1FB03569CF0000F18BF4EF0010EA1
:10056000A4F1FF04B6F5007F64F5407404D25FEA9D
:100570004E0E6D4146EB060642EAC62141EA555150
:100580004FEAC52040EA5E504FEACE2EB4F1FD0C92
:1005900088BFBCF5E06F1ED8BEF1004F08BF5FEA10
:1005A000500E50F1000041EB045170BD06F00046C2
:1005B00046EA010140EA020081EA0301B4EB5C046F
:1005C000C2BFD4EB0C0541EA045170BD41F4801167
:1005D0004FF0000E013C00F3AB8014F1360FDEBF8C
:1005E000002001F0004170BDC4F10004203C35DA68
:1005F0000C341BDC04F11404C4F1200500FA05F3EB
:1006000020FA04F001FA05F240EA020001F000428B
:1006100021F0004110EBD37021FA04F642EB060101
:100620005EEA430E08BF20EAD37070BDC4F10C042B
:10063000C4F1200500FA04F320FA05F001FA04F2EF
:1006400040EA020001F0004110EBD37041F10001DB
:100650005EEA430E08BF20EAD37070BDC4F12005E6
:1006600000FA05F24EEA020E20FA04F301FA05F24E
:1006700043EA020321FA04F001F0004121FA04F2F6
:1006800020EA020000EBD3705EEA430E08BF20EAC6
:10069000D37070BD94F0000F0FD101F00046400000
:1006A00041EB010111F4801F08BF013CF7D041EA82
:1006B000060195F0000F18BF704703F00046520086
:1006C00043EB030313F4801F08BF013DF7D043EA57
:1006D0000603704794EA0C0F0CEA135518BF95EA0D
:1006E0000C0F0CD050EA410618BF52EA4306D1D194
:1006F00081EA030101F000414FF0000070BD50EAB3
:10070000410606BF1046194652EA430619D094EA3C
:100710000C0F02D150EA013613D195EA0C0F05D126
:1007200052EA03361CBF104619460AD181EA03017A
:1007300001F0004141F0FE4141F470014FF0000032
:1007400070BD41F0FE4141F4780170BD70B54FF0CD
:10075000FF0C4CF4E06C1CEA11541DBF1CEA13554D
:1007600094EA0C0F95EA0C0F00F0A7F8A4EB05042F
:1007700081EA030E52EA03354FEA013100F0888026
:100780004FEA03334FF0805545EA131343EA1263EF
:100790004FEA022245EA111545EA10654FEA0026A4
:1007A0000EF000419D4208BF964244F1FD0404F55D
:1007B000407402D25B084FEA3202B61A65EB0305B9
:1007C0005B084FEA32024FF480104FF4002CB6EB76
:1007D000020E75EB030E22BFB61A754640EA0C00F6
:1007E0005B084FEA3202B6EB020E75EB030E22BF36
:1007F000B61A754640EA5C005B084FEA3202B6EB77
:10080000020E75EB030E22BFB61A754640EA9C0035
:100810005B084FEA3202B6EB020E75EB030E22BF05
:10082000B61A754640EADC0055EA060E18D04FEAC3
:10083000051545EA16754FEA06164FEAC30343EA63
:1008400052734FEAC2025FEA1C1CC0D111F4801F30
:100850000BD141EA00014FF000004FF0004CB6E729
:1008600011F4801F04BF01430020B4F1FD0C88BFC8
:10087000BCF5E06F3FF6AFAEB5EB030C04BFB6EBD3
:10088000020C5FEA500C50F1000041EB045170BDC6
:100890000EF0004E4EEA113114EB5C04C2BFD4EBF3
:1008A0000C0541EA045170BD41F480114FF0000E77
:1008B000013C90E645EA060E8DE60CEA135594EAF3
:1008C0000C0F08BF95EA0C0F3FF43BAF94EA0C0FF6
:1008D0000AD150EA01347FF434AF95EA0C0F7FF46B
:1008E00025AF104619462CE795EA0C0F06D152EABF
:1008F00003353FF4FDAE1046194622E750EA4106A3
:1009000018BF52EA43067FF4C5AE50EA41047FF4B3
:100910000DAF52EA43057FF4EBAE12E74A0011D265
:1009200012F5001211D20DD56FF47873B3EB625249
:100930000ED44FEAC12343F0004343EA505323FA55
:1009400002F070474FF00000704750EA013002D1CA
:100950004FF0FF3070474FF00000704753B94AB96D
:10096000002908BF00281CBF4FF0FF314FF0FF30B7
:1009700000F076B9ADF1080C6DE904CE00F006F890
:10098000DDF804E0DDE9022304B070472DE9F0470B
:10099000089E0D4604468846002B4DD18A42944657
:1009A00068D9B2FA82F252B101FA02F3C2F120011F
:1009B00020FA01F10CFA02FC41EA030894404FEAE4
:1009C0001C41B8FBF1F71FFA8CFE01FB178807FBEF
:1009D0000EF0230C43EA084398420AD91CEB0303A8
:1009E00007F1FF3580F01E81984240F21B81023FE3
:1009F00063441B1AB3FBF1F001FB103300FB0EFE46
:100A0000A4B244EA0344A6450AD91CEB040400F14D
:100A1000FF3380F00981A64540F206816444023824
:100A20000021A4EB0E0440EA07401EB10023D4408D
:100A3000C6E90043BDE8F0878B4208D9002E00F0DC
:100A4000EE800021C6E900050846BDE8F087B3FA4C
:100A500083F100294AD1AB4202D3824200F2FC80EA
:100A6000841A65EB030301209846002EE2D0C6E904
:100A70000048DFE702B9FFDEB2FA82F2002A40F056
:100A80009180A1EB0C0001214FEA1C471FFA8CFE5C
:100A9000B0FBF7F307FB1300250C45EA00450EFBFE
:100AA00003F0A84208D91CEB050503F1FF3802D278
:100AB000A84200F2CE8043462D1AB5FBF7F007FBA3
:100AC00010550EFB00FEA4B244EA0544A64508D921
:100AD0001CEB040400F1FF3502D2A64500F2B680FB
:100AE0002846A4EB0E0440EA03409EE7C1F120072C
:100AF0008B4022FA07FC4CEA030C25FA07FA4FEA6E
:100B00001C49BAFBF9F820FA07F309FB18AA8D4033
:100B10001FFA8CFE1D4300FA01F308FB0EF02C0CAB
:100B200044EA0A44A04202FA01F20BD91CEB040485
:100B300008F1FF3A80F08880A04240F28580A8F159
:100B400002086444241AB4FBF9F009FB104400FBCA
:100B50000EFEADB245EA0444A64508D91CEB0404D8
:100B600000F1FF356CD2A6456AD90238644440EAE8
:100B70000840A0FB0295A4EB0E04AC42C846AE466A
:100B800056D353D0002E69D0B3EB080264EB0E04A9
:100B900022FA01F304FA07F71F43CC40C6E90074B8
:100BA000002147E70CFA02FCC2F1200125FA01F30B
:100BB0004FEA1C4720FA01F195400D43B3FBF7F1D2
:100BC00007FB11331FFA8CFE280C40EA034001FB9F
:100BD0000EF3834204FA02F408D91CEB000001F181
:100BE000FF382FD283422DD902396044C01AB0FB9E
:100BF000F7F307FB1300ADB245EA004503FB0EF027
:100C0000A84208D91CEB050503F1FF3816D2A8420B
:100C100014D9023B6544281A43EA014138E73146BA
:100C2000304607E72F46E4E61846F9E64B45A9D2D9
:100C3000B9EB020865EB0C0E0138A3E74346EAE77F
:100C4000284694E74146D1E7D0467BE76444023822
:100C500047E7023B65442FE7084606E73146E9E6E9
:100C6000704700BF844641EA000313F0030349D1F3
:100C7000403A23D30B6803604B6843608B68836002
:100C8000CB68C3600B6903614B6943618B69836106
:100C9000CB69C3610B6A03624B6A43628B6A8362EE
:100CA000CB6AC3620B6B03634B6B43638B6B8363D6
:100CB000CB6BC36340304031403ADBD230320BD390
:100CC0000B6803604B6843608B688360CB68C360CC
:100CD00010301031103AF3D20C3205D351F8043BE6
:100CE00040F8043B043AF9D2043208D0D2071CBFC2
:100CF00011F8013B00F8013B01D30B8803806046EB
:100D0000704700BF082A13D38B07B1D010F003033C
:100D1000AED0C3F10403D21ADB071CBF11F8013BAC
:100D200000F8013BA4D331F8023B20F8023B9FE7D7
:100D3000043AD9D3013A11F8013B00F8013BF9D24A
:100D40000B7803704B7843708B78837060467047E4
:100D500000B585B000230193029303937D487E4A3A
:100D6000026043604FF080728260C3604FF4807213
:100D7000026143618361C3610362012280F8242020
:100D80001022826280F82C304263836380F83C300A
:100D900000F020FD002840F0A9800B2301930123DF
:100DA0000293042303930DEB03016A4800F026FE2F
:100DB000002840F09E800A2301930223029301A998
:100DC000644800F01BFE002840F096800D2301933C
:100DD0000323029301A95F4800F010FE002840F0B1
:100DE0008E800C230193042302930DEB03015948D9
:100DF00000F004FE002840F08580012301930523C4
:100E0000029301A9534800F0F9FD00287DD1002389
:100E100001930623029301A94E4800F0EFFD00283C
:100E200076D1052301930723029301A9494800F0D5
:100E3000E5FD00286FD1042301930823029301A943
:100E4000444800F0DBFD002868D106230193092304
:100E5000029301A93F4800F0D1FD002861D107238A
:100E600001930A23029301A93A4800F0C7FD002824
:100E70005AD1082301930B23029301A9354800F0AE
:100E8000BDFD002853D10E2301930C23029301A929
:100E9000304800F0B3FD00284CD1122301930D23FC
:100EA000029301A92B4800F0A9FD002845D1132386
:100EB00001930E23029301A9264800F09FFD00280C
:100EC0003ED1142301930F23029301A9214800F07E
:100ED00095FDC0BB152301931023029301A91D4862
:100EE00000F08CFD90BB05B05DF804FB00F024F928
:100EF00053E700F021F95EE700F01EF966E700F025
:100F00001BF96EE700F018F977E700F015F97EE7B6
:100F100000F012F985E700F00FF98CE700F00CF90A
:100F200093E700F009F99AE700F006F9A1E700F06D
:100F300003F9A8E700F000F9AFE700F0FDF8B6E725
:100F400000F0FAF8BDE700F0F7F8C3E700F0F4F8B6
:100F5000C9E700BF680400200024014070B58AB0D2
:100F60000023059306930793089309930268304B77
:100F70009A4201D00AB070BD044603F58A331A6A5A
:100F800042F400721A621A6A02F400720192019A23
:100F9000DA6942F00402DA61DA6902F004020292CC
:100FA000029ADA6942F00102DA61DA6902F00102BA
:100FB0000392039ADA6942F00202DA61DB6903F014
:100FC00002030493049B1F2305930326069605A999
:100FD000184801F089F9F323059306960025079533
:100FE00005A9154801F080F94FF201030593069613
:100FF000079505A9114801F077F91148114B0360D5
:10100000456085608023C3604FF4807303614FF4B3
:101010008063436120238361C56100F0F9FE18B944
:10102000074B63645C62A5E700F086F8F8E700BF51
:101030000024014000080240000002400004024079
:10104000BC0400200860024000B583B00A4BDA6996
:1010500042F08072DA61DB6903F080730193019BD7
:10106000002211460B2000F05DFE0B2000F092FEE6
:1010700003B05DF804FB00BF00380240F0B58BB050
:10108000002405940694079408940994274BDA6980
:1010900042F02002DA61DA6902F020020092009A3E
:1010A000DA6942F00402DA61DA6902F004020192BC
:1010B000019ADA6942F00102DA61DA6902F00102AA
:1010C0000292029ADA6942F00202DA61DA6902F007
:1010D00002020392039ADA6942F00802DA61DB69DC
:1010E00003F008030493049B114F0122202138468A
:1010F00001F0EEF90F4E01220221304601F0E8F92D
:1011000020230593012506950795089405A93846DF
:1011100001F0EAF80223059306950795089405A9BE
:10112000304601F0E1F80BB0F0BD00BF00380240DE
:10113000000802400004024072B6FEE700B593B01A
:101140003422002105A803F085FD002300930193BC
:1011500002930393049314490A6822F4C05242F4A0
:1011600000620A600B220592052206920122089273
:10117000102109910A920E9305A801F0F7F970B9B0
:101180000F23009302230193002102910391049104
:10119000684601F0C9FC20B913B05DF804FBFFF705
:1011A000CBFFFFF7C9FF00BF0070004000B58FB054
:1011B00000F0DAFAFFF7C2FFFFF760FFFFF744FF26
:1011C000FFF7C6FD00F0B4F900F098F900F0D0F890
:1011D00000F07AF900F008F92A4C012221462A4849
:1011E00002F07FFB01222146284802F07AFB01220F
:1011F0002146274802F075FB4FF49C61254803F017
:1012000009FA26E0244B1A7003F0D2F828E0234BA9
:1012100001221A70224801F03DFE1B4CEC4604F1FD
:10122000100EBEE80F00ACE80F00BEE80F00ACE8FF
:101230000F00BEE80F00ACE80F009EE803008CE84A
:10124000030094E80F0002F0F1FD10E0322000F0FE
:10125000ADFA144B00221A700F4B1B78002BD1D122
:10126000114B1B781BB90D4B1B78002BCFD00E4BAD
:101270001B78002BEAD00D4B1B78002BE6D002F038
:1012800043FBE3E72E0C0020F80C0020B00C0020FC
:10129000400D002024060020270B0020240B0020F6
:1012A000300C0020290B0020260B002023060020F4
:1012B00084B00F4B5A6A42F000425A625A6A02F0F6
:1012C00000420192019A1A6A42F001021A621A6AF5
:1012D00002F001020292029A5A6A42F080525A6265
:1012E0005B6A03F080530393039B04B0704700BF15
:1012F00000380240FEE7FEE7FEE7FEE7FEE7704744
:101300007047704708B500F03FFA08BD08B50248BD
:1013100000F052FE08BD00BFBC04002008B5024822
:1013200001F083FE08BD00BF300C002008B5024864
:1013300001F07BFE08BD00BF700C002008B502481C
:1013400002F070F908BD00BFB00C002008B50248DB
:1013500002F068F908BD00BFF80C002008B502488B
:1013600002F060F908BD00BF400D0020704700008A
:1013700000B587B000230293039304930593009371
:10138000019318484FF08042026048F6FF724260B5
:10139000836041F63F72C2600361436101F055FD15
:1013A000B8B94FF48053029302A90E4801F0BAFD78
:1013B00090B900230093019369460A4801F0D2FED8
:1013C00068B9084B1B686FF001021A6107B05DF83D
:1013D00004FBFFF7B1FEE4E7FFF7AEFEE9E7FFF736
:1013E000ABFEEEE7300C002000B587B0002302937F
:1013F000039304930593009301931548154A0260E3
:1014000048F6FF72426083600822C2600361436154
:1014100001F01BFD90B94FF48053029302A90C48D0
:1014200001F080FD68B900230093019369460848E4
:1014300001F098FE40B907B05DF804FBFFF77CFEB1
:10144000E9E7FFF779FEEEE7FFF776FEF3E700BF87
:10145000700C00200004004000B583B00368B3F1B5
:10146000804F05D0164A934216D003B05DF804FBB6
:1014700003F50E335A6A42F001025A625B6A03F0C6
:1014800001030093009B002211461C2000F04AFC3F
:101490001C2000F07FFCE8E70A4B5A6A42F0020287
:1014A0005A625B6A03F002030193019B002211461A
:1014B0001D2000F037FC1D2000F06CFCD5E700BFBC
:1014C000000400400038024008B50A480A4B036097
:1014D0004FF4E133436000238360C36003610C2257
:1014E00042618361C36101F083FF00B908BDFFF76A
:1014F00023FEFBE7400D00200050004008B50A48DD
:101500000A4B03604FF41653436000238360C360AB
:1015100003610C2242618361C36101F069FF00B97C
:1015200008BDFFF709FEFBE7B00C002000440040B7
:1015300008B50A480A4B03604FF416534360002372
:101540008360C36003610C2242618361C36101F067
:101550004FFF00B908BDFFF7EFFDFBE7F80C0020D7
:1015600000480040F0B58DB000230793089309931D
:101570000A930B9303684D4A934207D04C4A934217
:1015800042D04C4A934267D00DB0F0BD4A4B5A6AE4
:1015900042F480125A625A6A02F480120092009A4F
:1015A000DA6942F00402DA61DA6902F004020192B7
:1015B000019ADA6942F00802DA61DB6903F0080394
:1015C0000293029B4FF4805307930227089701264A
:1015D000099603250A9508240B9407A9374800F0BB
:1015E00083FE04230793089709960A950B9407A98D
:1015F000334800F079FE00221146312000F092FBC2
:10160000312000F0C7FBBFE72B4B5A6A42F400328F
:101610005A625A6A02F400320392039ADA6942F07B
:101620000102DA61DB6903F001030493049B0C23DC
:1016300007930223089303230A9307230B9307A915
:10164000204800F051FE00221146262000F06AFBDF
:10165000262000F09FFB97E7174B5A6A42F480223E
:101660005A625A6A02F480220592059ADA6942F0B7
:101670000202DA61DB6903F002030693069B4FF472
:10168000406307930223089303230A9307230B93D2
:1016900007A90D4800F028FE00221146272000F07F
:1016A00041FB272000F076FB6EE700BF00500040B2
:1016B000004400400048004000380240000802405A
:1016C000000C02400000024000040240FFF74EFE02
:1016D0000B480C490C4A002302E0D458C450043390
:1016E000C4188C42F9D3094A094C002301E0136065
:1016F0000432A242FBD303F089FAFFF757FD70478B
:10170000000000204C040020D04E00084C040020B3
:10171000AC0E0020FEE70000104B1B680BB9012047
:10172000704710B504464FF47A70B0FBF3F30C4ADF
:101730001068B0FBF3F000F03BFB68B90F2C01D947
:1017400001200AE0002221464FF0FF3000F0EAFAC3
:10175000044B1C60002000E0012010BD04000020AC
:10176000000000200800002010B5032000F0C8FA97
:101770000F20FFF7D1FF10B10124204610BD044611
:10178000FFF796FDF9E70000034A1368034909686B
:101790000B441360704700BF880D00200400002038
:1017A000014B1868704700BF880D002038B504460B
:1017B000FFF7F6FF0546B4F1FF3F02D0044B1B686C
:1017C0001C44FFF7EDFF401BA042FAD338BD00BF19
:1017D00004000020002800F0BC8070B582B00446F0
:1017E000C36C002B5FD0E36C13F0100F40F0B3809C
:1017F000E36C23F4885323F0020343F00203E36411
:10180000564A536823F4403361680B435360E368DE
:101810006269134394F83C104FF4007292FAA2F2FA
:10182000B2FA82F201FA02F21343226A1A4394F8DE
:101830002400022393FAA3F3B3FA83F300FA03F329
:101840001343626B102A02D0A16B0A43134325682D
:101850002A6812F0400214D1A1690B43A168E6691D
:1018600031432669B6F5807F30D0012E2BD00A4354
:1018700094F82C1001292BD06868394901400A439B
:101880006A6021688868374A02401A438A60226980
:10189000B2F5807F33D0012A31D021680A6B22F063
:1018A000F8720A633AE0036580F848302E4B1A6AF2
:1018B00042F001021A621B6A03F001030193019BCB
:1018C000FFF74CFB8FE74FF48072D0E73246CEE74C
:1018D00060B9216B01394FF4604090FAA0F0B0FA82
:1018E00080F0814041F400610A43C5E7E16C41F0BA
:1018F0002001E164216D41F001012165BCE725680B
:101900002A6B22F0F872A16A01394FF0F87090FA50
:10191000A0F0B0FA80F081400A432A6322689168FF
:10192000124A0A409A420BD0E36C23F0120343F0B0
:101930001003E364236D43F00103236501200BE0F2
:1019400000202065E36C23F0030343F00103E3640C
:1019500002E001207047012002B070BD0027014065
:10196000FF16FCFC89F1FFC000380240FEFF80BF7B
:1019700008B5436ADA6C12F0500F27D1DA6C42F4E2
:101980000072DA641A68916811F0405F1AD193F816
:101990002410B9B9116B11F0F87F03D0916811F4DC
:1019A000806F0FD1516821F020015160DA6C22F470
:1019B0008072DA64DA6C12F4805F03D1DA6C42F080
:1019C0000102DA64184602F0DBF908BD5B6C1B6BA0
:1019D0009847FAE7704708B5406AFFF7FBFF08BD74
:1019E000704708B5406AC36C43F04003C364036D9D
:1019F00043F004030365FFF7F3FF08BD30B482B082
:101A00000023019390F84830012B00F0CB80012394
:101A100080F848304B68062B2CD80468226C03EB06
:101A20008303053B4FF01F0C0CFA03FC22EA0C0267
:101A30000D6805FA03F3134323640B68092B5BD885
:101A40000468626903EB43034FF0070C0CFA03FCD4
:101A500022EA0C028D6805FA03F3134363610B68F5
:101A6000103B012B79D9002380F84830184602B08A
:101A700030BC70470C2B0ED80568EA6B03EB830370
:101A8000233B1F249C4022EA04020C6804FA03F35F
:101A90001343EB63D1E7122B0ED80568AA6B03EB57
:101AA0008303413B1F249C4022EA04020C6804FA91
:101AB00003F31343AB63C0E7182B0ED805686A6BBA
:101AC00003EB83035F3B1F249C4022EA04020C6863
:101AD00004FA03F313436B63AFE705682A6B03EB68
:101AE00083037D3B1F249C4022EA04020C6804FA15
:101AF00003F313432B63A0E7132B0ED805682A6961
:101B000003EB43031E3B07249C4022EA04028C683B
:101B100004FA03F313432B61A1E71D2B0ED80568CC
:101B2000EA6803EB43033C3B07249C4022EA04029F
:101B30008C6804FA03F31343EB6090E70568EA6DE1
:101B400003EB43035A3B07249C4022EA04028C68BF
:101B500004FA03F31343EB6581E7134B5B6813F45B
:101B6000000F80D1104A536843F4000353600B68A0
:101B7000102B7FF478AF0D4B1B6802F1467202F513
:101B80002D3202F28332A2FB03239B0C03EB83036F
:101B90005B00019302E0019B013B0193019B002B41
:101BA000F9D160E7022062E7002701400000002031
:101BB00030B583B00023019303681A6812F0400F18
:101BC00035D104469A6842F001029A60194B1B68AD
:101BD000194AA2FB03239B0C03EB4303019302E08E
:101BE000019B013B0193019B002BF9D1FFF7D8FD2D
:101BF000054623681B6813F0400F16D1FFF7D0FD90
:101C0000431B022BF5D923681B6813F0400FF0D15A
:101C1000E36C43F01003E364236D43F00103236599
:101C2000002384F84830012002E0002000E000207A
:101C300003B030BD0000002083DE1B43F8B50D4625
:101C400090F84810012952D004461646012380F826
:101C50004830FFF7ADFF0746002849D1E16C21F479
:101C6000E06121F0010141F48071E16423685B6867
:101C700013F4806F05D0E36C23F4405343F4805396
:101C8000E364E36C13F4805F2ED0236D23F006032E
:101C90002365002384F84830636C164A9A62636CAB
:101CA000154ADA62636C154A1A6323686FF02202E0
:101CB0001A602268536843F0806353602268936817
:101CC00043F480739360216833462A465831606C30
:101CD00000F0EAF823689A6812F0405F08D19A6829
:101CE00042F080429A6003E000232365D1E7022797
:101CF0003846F8BD71190008D7190008E319000823
:101D0000074AD36823F4E0631B041B0C000200F4B1
:101D1000E060034343F0BF6343F40033D360704794
:101D200000ED00E000B5194BDB68C3F30223C3F1FB
:101D3000070CBCF1040F28BF4FF0040C03F1040E94
:101D4000BEF1060F18D9033B4FF0FF3E0EFA0CFC14
:101D500021EA0C0199400EFA03F322EA0303194326
:101D600000280BDB0901C9B200F1604000F56140B9
:101D700080F800135DF804FB0023E5E700F00F0096
:101D80000901C9B2024B1954F4E700BF00ED00E0AD
:101D900014ED00E0002807DB00F01F0240090123DA
:101DA0009340024A42F82030704700BF00E100E053
:101DB0000138B0F1807F0BD24FF0E0235861054A23
:101DC000F02182F823100020986107221A617047E1
:101DD0000120704700ED00E010B4046C04F01C0C0E
:101DE000012404FA0CF4D0F83CC0CCF80440046898
:101DF00063604368102B05D0036899600368DA605C
:101E000010BC704703689A600368D960F8E7000067
:101E100000283AD010B4024600681D4B984229D8D9
:101E20001C4B03441C49A1FB03131B099B001364B7
:101E30001A4BD363022382F82130016821F4FF4159
:101E400021F07001536894682343D46823431469D4
:101E500023435469234394692343D46923430B43A5
:101E6000036000209063012382F8213082F8200073
:101E700010BC70470A4B03440749A1FB03131B091D
:101E80009B001364074BD363D4E70120704700BF66
:101E900007640240F89FFDBFCDCCCCCC006002406F
:101EA000F89BFDBF0064024038B5044690F820005E
:101EB000012832D0012084F8200094F82100C0B21B
:101EC000012804D0002384F82030022038BD0220ED
:101ED00084F821000020A0632568286820F0010014
:101EE00028602046FFF778FFE36A5BB12268136839
:101EF00043F00E0313602268136843F0010313607C
:101F00000020E3E72268136823F0040313602268CB
:101F1000136843F00A031360EDE70220D6E790F858
:101F20002130DBB2022B06D004238363002380F828
:101F30002030012070470268136823F00E031360FD
:101F40000268136823F001031360036C03F01C03A1
:101F5000C16B012202FA03F34B6080F821200023B9
:101F600080F820301846704708B590F82130DBB271
:101F7000022B03D004238363012008BD0268136889
:101F800023F00E0313600268136823F0010313604B
:101F9000036C03F01C03C16B012202FA03F34B60D4
:101FA00080F82120002380F82030436B13B198473C
:101FB0000020E2E70020E0E738B5C36B1968046849
:101FC0002568036C03F01C0304229A400A4215D0D2
:101FD00015F0040F12D0236813F0200F03D12368EB
:101FE00023F004032360036C03F01C02C16B042381
:101FF00093404B60C36A03B1984738BD02229A40B0
:102000000A421CD015F0020F19D0236813F0200FDC
:1020100006D1236823F00A032360012380F82130CE
:10202000036C03F01C02C16B022393404B6000233E
:1020300080F82030836A002BDFD09847DDE7082244
:1020400002FA03F30B42D8D015F0080FD5D023685D
:1020500023F00E032360036C03F01C03C16B012209
:1020600002FA03F34B60826380F82120002380F89A
:102070002030036B002BC0D09847BEE71F4B9B69F5
:1020800013F4807306D01E4A536943F00203536170
:102090004FF48073194A926912F4007F06D01849F0
:1020A0004A6942F001024A6143F40073134A92699B
:1020B00012F4006F06D012494A6942F004024A61E4
:1020C00043F400630D4A926912F4805F06D00C4914
:1020D0004A6942F020024A6143F48053074A9269F8
:1020E00012F4806F06D006494A6942F008024A613C
:1020F00043F48063014A9361704700BF003C024093
:102100008C0D0020144B5B6813F0020F1DD0124B96
:102110005B6813F0010F08D00F4B104ADA60104AC9
:10212000DA605B6813F0010F11D10B4B0D4A1A6195
:10213000A2F1F342A2F51922A2F6A9121A615B6874
:1021400013F0020F05D100207047002070470120D6
:1021500070470120704700BF003C0240EFCDAB89C3
:1021600005040302BFAE9D8C034A536843F002038B
:1021700053600020704700BF003C0240014B58698B
:10218000704700BF8C0D002038B50446FFF708FBF0
:1021900005461B4B9B6913F0010F0AD0B4F1FF3FBA
:1021A000F7D024B1FFF7FCFA401BA042F1D903207D
:1021B00025E0134B9B6913F0020F02D0104B022253
:1021C0009A610F4B9B6913F4807F15D10C4B9B696F
:1021D00013F4006F10D10A4B9B6913F4805F0BD18D
:1021E000074B9B6913F4806F06D1054B9B6913F471
:1021F000007F01D1002002E0FFF740FF012038BD41
:10220000003C024038B50E4B1B7C012B16D00D460E
:1022100014460B4B01221A744CF25030FFF7B4FFF6
:1022200018B1074B00221A7438BD054B00225A61C1
:102230002C604CF25030FFF7A7FFF2E70220F3E7E3
:102240008C0D00200021074B5961074B5A6842F45E
:1022500000725A605A6842F008025A6020F0FF008B
:10226000016070478C0D0020003C02401C4B1B7C21
:10227000012B31D070B505460E46194B01221A7458
:102280004CF25030FFF780FF014600BB4FF0FF33A8
:1022900033606C6801E004F58074AA686B6803EB36
:1022A0000223A34213D92046FFF7CCFF4CF2503053
:1022B000FFF76AFF0B4B5A6822F008025A605A680F
:1022C00022F400725A6001460028E4D03460044BC6
:1022D00000221A74084670BD02210846704700BFEC
:1022E0008C0D0020003C024070B582B0002365E0F8
:1022F00085685E000324B44025EA0405CC68B44038
:102300002C438460446824EA0C0C4C68C4F3001429
:102310009C4044EA0C04446061E0DD08083550F854
:10232000256003F007044FEA840C0F2404FA0CF430
:1023300026EA040E0C6904FA0CF444EA0E0440F890
:10234000254063E0062400E0002404FA0EF42C4348
:102350000CF1020C5A4D45F82C405A4CA568D44358
:1023600025EA0206D1F804C01CF4801F01D042EA1D
:102370000506544DAE60ED6804EA0506D1F804C0C8
:102380001CF4001F01D042EA05064E4DEE606D6858
:1023900004EA0506D1F804C01CF4003F01D042EA6B
:1023A0000506484D6E602D682C404E6816F4803F3F
:1023B00001D042EA0504434A146001330A6832FA44
:1023C00003F47BD04FF0010C0CFA03FC1CEA020270
:1023D000F3D04C6804F00304013C012C88D94C680C
:1023E00004F00304032C0CD0C4685D004FF0030C10
:1023F0000CFA05FC24EA0C0C8C68AC4044EA0C0492
:10240000C4604C6804F00304022C86D004684FEAD0
:10241000430E4FF0030C0CFA0EFC24EA0C0C4C6833
:1024200004F0030404FA0EF444EA0C0404604C685B
:1024300014F4403FC1D0244C256A45F001052562C3
:10244000246A04F001040194019C4FEA930C0CF1FE
:1024500002051B4C54F8255003F003044FEA840E88
:102460000F2404FA0EF425EA0405184CA0423FF4A8
:102470006BAF04F58064A04216D004F58064A042DE
:1024800014D004F58064A04212D004F58064A04208
:1024900010D004F58064A0420ED004F58064A04200
:1024A0003FF450AF072450E701244EE702244CE7E5
:1024B00003244AE7042448E7052446E702B070BD38
:1024C00000000140000401400038024000000240CA
:1024D0000AB18161704709048161704710B483B00B
:1024E0001F4B9B6813F0F00328D11D4A526A12F06B
:1024F000805F10D01B4A126802F4C052B2F5C05F70
:102500001DD1B0F5404F1AD1174A136843F00403A8
:102510001360012313E012494A6A42F080524A6272
:102520004A6A02F080520192019A0E4A126802F43D
:10253000C0524C6A24F080544C62DFE700230A4901
:102540000A6822F001021A430A600A6802F00102D6
:102550009A4203D1002003B010BC70470120FAE773
:102560000038024000700040003C0240002800F0AB
:102570005E82F0B583B00446A24B9D6805F00C0561
:102580009E6806F48036036813F0010F1DD0082DF5
:1025900012D00C2D0ED06368012B35D0002B49D101
:1025A000984B1A6822F480321A601A6822F480224A
:1025B0001A602EE0002EEED0924B1B6813F4003F01
:1025C00003D06368002B00F03482236813F0020FFD
:1025D00068D0042D55D00C2D51D0E368002B00F0AD
:1025E000C780894B01221A60FFF7DAF80646854B4F
:1025F0001B6813F0020F40F0B280FFF7D1F8801B88
:102600000228F4D903201DE27E4A136843F4803384
:102610001360636823B3FFF7C3F80746794B1B6861
:1026200013F4003FD1D1FFF7BBF8C01B6428F5D9E4
:10263000032007E2052B09D0724B1A6822F480327E
:102640001A601A6822F480221A60E2E76D4B1A6859
:1026500042F480221A601A6842F480321A60D8E785
:10266000FFF79EF80746674B1B6813F4003FACD09A
:10267000FFF796F8C01B6428F5D90320E2E1002E8D
:10268000ABD1604B1B6813F0020F03D0E368012B42
:1026900040F0D1815B4A536823F4F853216943EA3F
:1026A00001235360236813F0100F3BD0002D40F03E
:1026B0008580544B1B6813F4007F03D0A369002B63
:1026C00000F0BB81206A4F4B5B6803F46043984283
:1026D00060D9FFF703FF002840F0B181494A5368F1
:1026E00023F46043216A0B435360536823F07F4314
:1026F000E16943EA01635360236A5B0B5A1C4FF4A0
:10270000004393403F4A9268C2F303123F498A5CF8
:10271000D3403F4A13603F4B1868FEF7FDFF002887
:1027200040F09081236813F0080F00F09B806369EC
:10273000002B00F08480344B0122C3F88026FFF781
:102740002FF806462F4B5B6B13F0020F40F08A8088
:10275000FFF726F8801B0228F4D9032072E1294AEA
:10276000536823F4F853216943EA0123536099E73E
:10277000254B00221A60FFF713F80646214B1B6811
:1027800013F0020F8ED0FFF70BF8801B0228F5D94B
:10279000032057E11B4A536823F4604318435060F9
:1027A000536823F07F43E16943EA01635360206A81
:1027B000FFF794FE00289FD0012043E1A3695BB39B
:1027C000114B01221A62FEF7EBFF06460D4B1B6808
:1027D00013F4007F06D1FEF7E3FF801B0228F5D932
:1027E00003202FE1074A536823F46043216A0B4317
:1027F0005360536823F07F43E16943EA0163536008
:1028000090E700BF0038024000004742F04D00084A
:1028100000000020080000208F4B00221A62FEF703
:10282000BFFF06468D4B1B6813F4007F3FF47AAF61
:10283000FEF7B6FF801B0228F4D9032002E1864B85
:102840000022C3F88026FEF7ABFF0646834B5B6B86
:1028500013F0020F06D0FEF7A3FF801B0228F5D964
:102860000320EFE0236813F0040F79D07B4B5B6A01
:1028700013F0805F0BD1794B5A6A42F080525A6252
:102880005B6A03F080530193019B012600E0002660
:10289000734B1B6813F4807F0ED0A368012B1FD0ED
:1028A000002B35D16D4B5A6B22F480725A635A6BF0
:1028B00022F480625A6318E0694A136843F4807313
:1028C0001360FEF76DFF0746654B1B6813F4807FAE
:1028D000E3D1FEF765FFC01B6428F5D90320B1E002
:1028E0005E4A536B43F480735363A36833B3FEF7BC
:1028F00057FF0746594B5B6B13F4007F2FD1FEF750
:102900004FFFC01B41F288339842F3D9032099E06E
:10291000052B09D0514B5A6B22F480725A635A6BC3
:1029200022F480625A63E0E74C4B5A6B42F48062B7
:102930005A635A6B42F480725A63D6E7FEF730FF4F
:102940000746464B5B6B13F4007F08D0FEF728FF69
:10295000C01B41F288339842F3D9032072E0C6B914
:10296000636A002B6DD00C2D4CD0022B17D03A4B44
:1029700000221A66FEF714FF0446384B1B6813F05A
:10298000007F3DD0FEF70CFF001B0228F5D9032085
:1029900058E0324A536A23F080535362E0E72E4BEB
:1029A00000221A66FEF7FCFE05462C4B1B6813F04E
:1029B000007F06D0FEF7F4FE401B0228F5D9032065
:1029C00040E026498B6823F47D03A26AE06A024353
:1029D000206B024313438B601F4B01221A66FEF7E4
:1029E000DFFE04461D4B1B6813F0007F06D1FEF787
:1029F000D7FE001B0228F5D9032023E0002021E0A8
:102A000000201FE0012B1FD0144B9B6803F4803182
:102A1000A26A91421AD103F47012E16A8A4217D174
:102A200003F44003226B934214D100200AE00120FA
:102A30007047012006E0012004E0012002E00120AF
:102A400000E0002003B0F0BD0120FBE70120F9E722
:102A50000120F7E70120F5E7000047420038024077
:102A60000070004008B52D4B9A6802F00C03082B4B
:102A70004FD00C2B0AD0042B4ED0284B5868C0F3F3
:102A80004230431C4FF40040984046E0C2F3834379
:102A9000234911F803C0C2F3815201321F4B9B68D6
:102AA00013F4803F16D04FEACC01B1EB0C0163EB7D
:102AB00003035B0143EAD163490111EB0C0143F1CC
:102AC00000034FEA034C002308044CEA1141FDF7D0
:102AD00045FF22E04FEA4C11B1EB0C006EEB0E0EFD
:102AE0004FEA8E1343EA90638101091A63EB0E03E8
:102AF000DB0043EA5173C90011EB0C0C43F10003F6
:102B0000990200234FEA8C2041EA9C51FDF726FFF1
:102B100003E04FF4610000E0024808BD00380240C5
:102B2000084E00080024F400002800F0D98070B599
:102B30000C4605466E4B1B6803F001038B420DD219
:102B4000012928D06A4A136823F001032343136044
:102B5000136803F00103A34240F0C4802B6813F014
:102B6000020F06D0634A936823F0F003A9680B4371
:102B700093602B6813F0010F72D06B68022B10D09A
:102B8000032B32D0012B37D05A4A126812F4007F3F
:102B90000DD101209DE0564A136843F004031360F1
:102BA000D0E7544A126812F4003F00F09D8051496A
:102BB0008A6822F0030213438B60FEF7F1FD06469C
:102BC0006B68022B1FD0032B2CD0012B39D0494B23
:102BD0009B6813F00C0F43D0FEF7E2FD801B41F21F
:102BE00088339842F3D9032073E0424A126812F006
:102BF000007FDCD101206CE03E4A126812F0020F27
:102C0000D5D1012065E03B4B9B6803F00C03082BFA
:102C100026D0FEF7C5FD831B41F288329342F2D9DC
:102C2000032056E0334B9B6803F00C030C2B17D0AA
:102C3000FEF7B6FD801B41F288339842F2D903209B
:102C400047E02C4B9B6803F00C03042B08D0FEF7E5
:102C5000A7FD801B41F288339842F2D9032038E067
:102C6000234B1B6803F00103A3420CD9012C31D084
:102C70001F4A136823F0010323431360136803F012
:102C80000103A34232D12B6813F0040F06D0194A76
:102C9000936823F4E063E9680B4393602B6813F0B7
:102CA000080F07D0134A936823F46053296943EA55
:102CB000C1039360FFF7D6FE0E4B9B68C3F303136B
:102CC0000D4AD35CD8400D4B18600D4B1868FEF7C9
:102CD00023FD70BD064A136843F004031360C7E781
:102CE000012070470120F4E70120F2E70120F0E71E
:102CF000003C024000380240F04D00080000002077
:102D000008000020014B1868704700BF0000002039
:102D100008B5FFF7F7FF044B9B68C3F30223034A90
:102D2000D35CD84008BD00BF00380240004E000808
:102D300008B5FFF7E7FF044B9B68C3F3C223034AC0
:102D4000D35CD84008BD00BF00380240004E0008E8
:102D50000368B0F1804F0ED01E4A90420BD002F5AE
:102D60008062904207D002F58062904203D002F563
:102D70007C42904203D123F070034A681343B0F1C0
:102D8000804F16D0134A904213D002F580629042D1
:102D90000FD002F5806290420BD002F57C42904247
:102DA00007D002F58062904203D002F58062904223
:102DB00003D123F44073CA68134323F080030A69E4
:102DC000134303608B68C3620B6883620123436112
:102DD000704700BF0004004010B4036A046A24F086
:102DE00001040462846924F0F00C4CEA021223F01E
:102DF0000A030B438261036210BC704710B4036A7C
:102E0000046A24F010040462846924F4704C4CEACF
:102E1000023223F0A00343EA01138261036210BC73
:102E20007047836823F070030B4343F0070383600C
:102E3000704710B4846824F47F4C42EA03220A43AA
:102E400042EA0C02826010BC704700B310B5044621
:102E500090F83930B3B1022384F83930214651F863
:102E6000040BFFF775FF012384F83E3084F83A30F5
:102E700084F83B3084F83C3084F83D3084F83930B5
:102E8000002010BD80F83830FEF7E6FAE3E70120B5
:102E90007047000090F83930DBB2012B27D10223B4
:102EA00080F839300268D36843F00103D3600368C7
:102EB000B3F1804F10D0104A93420DD002F58062DA
:102EC000934209D002F58032934205D01A6842F04D
:102ED00001021A60002070479A6802F00702062A71
:102EE00007D01A6842F001021A60002070470120E2
:102EF00070470020704700BF000400400268D3689C
:102F000023F00103D3600368196A41F211121142E0
:102F100003D11A6822F001021A60012380F83930C7
:102F20000020704790F83830012B78D010B5044657
:102F3000012380F83830022380F839300268936822
:102F400023F47F4323F0770393600B68602B4CD00E
:102F500029D8402B54D00CD9502B22D1CA684968AB
:102F60000068FFF739FF50212068FFF75AFF002063
:102F700005E0202B0DD009D9302B0AD001200123E8
:102F800084F83930002384F8383010BD0BB1102B91
:102F900005D119462068FFF744FF0020EFE7012024
:102FA000EDE70120EBE7B3F5805F34D0B3F5005FC8
:102FB0000CD1CB684A6889680068FFF73AFF22683D
:102FC000936843F4804393600020D8E7702B24D1AA
:102FD000CB684A6889680068FFF72BFF226893680E
:102FE00043F0770393600020C9E7CA684968006826
:102FF000FFF704FF60212068FFF713FF0020BEE702
:10300000CA6849680068FFF7E7FE40212068FFF7BB
:1030100008FF0020B3E70020B1E70120AFE702205E
:103020007047704770477047704710B50446036893
:103030001A6912F0020F11D0DA6812F0020F0DD0E7
:103040006FF002021A610123037603689B6913F093
:10305000030F5ED0FFF7E6FF0023237623681A698B
:1030600012F0040F12D0DA6812F0040F0ED06FF0D5
:1030700004021A610223237623689B6913F4407FBC
:103080004DD02046FFF7CEFF0023237623681A6930
:1030900012F0080F12D0DA6812F0080F0ED06FF09D
:1030A00008021A61042323762368DB6913F0030FF7
:1030B0003CD02046FFF7B6FF0023237623681A6929
:1030C00012F0100F12D0DA6812F0100F0ED06FF05D
:1030D00010021A61082323762368DB6913F4407F0A
:1030E0002BD02046FFF79EFF0023237623681A6922
:1030F00012F0010F03D0DA6812F0010F24D1236817
:103100001A6912F0400F03D0DA6812F0400F22D192
:1031100010BDFFF786FF2046FFF785FF9CE720469E
:10312000FFF77FFF2046FFF77EFFADE72046FFF762
:1031300078FF2046FFF777FFBEE72046FFF771FFD5
:103140002046FFF770FFCFE76FF001021A612046BB
:1031500000F02AFED3E76FF040021A612046FFF725
:1031600063FFD5E790F83830012B2CD010B4012341
:1031700080F83830022380F8393003685A689C6838
:1031800022F0700C0A6842EA0C025A600368B3F13C
:10319000804F0AD00D4A934207D002F580629342D5
:1031A00003D002F58032934204D124F080044A68AF
:1031B00014439C60012380F83930002380F83830B4
:1031C000184610BC70470220704700BF0004004042
:1031D000026802F10C0353E8003F23F490730C32B1
:1031E00042E800310029F3D1026802F1140353E8E8
:1031F000003F23F00103143242E800310029F3D1EB
:10320000036B012B05D0202380F842300023036399
:103210007047026802F10C0353E8003F23F01003EB
:103220000C3242E800310029F3D1ECE790F841304C
:10323000DBB2212B01D0022070478368B3F5805F99
:1032400017D0036A5A1C02621A7803685A60C38C4A
:103250009BB2013B9BB2C3844BB90268D36823F095
:103260008003D3600268D36843F04003D36000203A
:1032700070470369002BE4D1036A1B880268C3F31B
:1032800008035360036A02330362E0E738B504467B
:103290000268136923F44053C1680B4313618368C8
:1032A0000269134342691343C2691A430168CB6838
:1032B00023F4164323F00C031343CB6002685369D5
:1032C00023F4407381690B4353610268244B9A4293
:1032D00023D0FFF71DFDE369B3F5004F20D000EBCD
:1032E000800202EB820260688000B2FBF0F21D48AF
:1032F000A0FB02314909642303FB11231B01323374
:10330000A0FB03235B0903F0F00202EB011203F0C0
:103310000F03216813448B6038BDFFF709FDDAE71E
:1033200000EB800000EB800063685B00B0FBF3F013
:103330000C4DA5FB00325109642303FB1103DB0094
:103340003233A5FB03235B095A0002F4F87202EB47
:10335000011203F00703216813448B60DCE700BF10
:10336000003801401F85EB512DE9F84305460F4613
:1033700016469946DDF820802C68246837EA040355
:103380000CBF4FF0010C4FF0000CB4452DD1B8F13B
:10339000FF3FF1D0B8F1000F05D0FEF701FAA0EB26
:1033A00009004045E8D92A6802F10C0353E8003FC0
:1033B00023F4D0730C3242E800310029F3D12A689B
:1033C00002F1140353E8003F23F00103143242E8F2
:1033D00000310029F3D1202385F8413085F84230AF
:1033E000002385F84030032000E00020BDE8F8838A
:1033F00060B310B5044690F8413013B3242384F829
:1034000041302268D36823F40053D3602046FFF78D
:103410003DFF2268136923F49043136122685369C6
:1034200023F02A0353612268D36843F40053D36026
:1034300000206064202384F8413084F842306063C7
:1034400010BD80F84030FEF78DF8D7E701207047B7
:103450002DE9F04182B01E4690F84130DBB2202BBE
:103460004BD104460D46904600294AD00AB90120A6
:1034700044E000234364212380F84130FEF790F9B3
:103480000746A4F82480A4F82680A368B3F5805FDB
:1034900002D04FF000080FE02369FBB14FF00008A5
:1034A0000AE038F8023B2268C3F308035360E28C59
:1034B00092B2013A92B2E284E38C9BB28BB1009655
:1034C0003B46002280212046FFF74EFFD8B9002D51
:1034D000E7D015F8012B23685A60E8E7A8460025D5
:1034E000EAE700963B46002240212046FFF73CFFDA
:1034F00058B9202384F8413000E0022002B0BDE832
:10350000F0810120FAE70320F8E70320F6E770478F
:1035100008B50168CA6822F04002CA60202280F81B
:103520004120FFF7F4FF002008BD704708B5406A4E
:103530000023C385C384FFF7F8FF08BD704790F8E8
:103540004230DBB2222B69D18368B3F5805F4FD064
:10355000826AB3F5805F04D0002B56D10369002B3B
:1035600053D103685B681370836A01338362C38D30
:103570009BB2013B9BB2C385002B51D100B583B0F8
:103580000268D36823F02003D3600268D36823F471
:103590008073D3600268536923F0010353612023D1
:1035A00080F8423000234363036B012B33D10023A7
:1035B0000363026802F10C0353E8003F23F0100399
:1035C0000C3242E800310029F3D103681A6812F086
:1035D000100F06D0002201921A6801925B680193D5
:1035E000019B818DFFF7AAFF002003B05DF804FB6B
:1035F0000269002AACD1826A03685B68C3F30803DE
:103600001380836A02338362B1E703685B6803F067
:103610007F031370A8E700F009FBE5E7022070477D
:103620000020704730B583B0044602681368D06844
:10363000516913F00F0505D113F0200F02D010F0DF
:10364000200F19D12DB111F0010119D110F4907F83
:1036500016D1216B01297DD013F0800F03D010F01B
:10366000800F40F0188113F0400F03D010F0400F8E
:1036700040F0158103B030BD2046FFF760FFF9E749
:1036800013F0010F06D010F4807F03D0626C42F07B
:103690000102626413F0040F04D019B1626C42F0AD
:1036A0000202626413F0020F04D019B1626C42F09E
:1036B0000402626413F0080F07D010F0200F00D14D
:1036C00019B1626C42F008026264626C002AD1D0C7
:1036D00013F0200F02D010F0200F29D123685B696E
:1036E00003F04003626C12F0080F00D163B3204670
:1036F000FFF76EFD23685B6913F0400F20D022684E
:1037000002F1140353E8003F23F04003143242E86F
:1037100000310029F3D1E36B73B1634A5A63E06B64
:10372000FEF722FC0028A5D0E06B436B9847A1E789
:103730002046FFF704FFD1E72046FFF7F6FE99E7A2
:103740002046FFF7F2FE95E72046FFF7EEFE002346
:1037500063648FE713F0100F3FF47EAF10F0100F8B
:103760003FF47AAF002301931368019353680193E8
:10377000019B536913F0400F51D0E26B13685B68F3
:103780009BB2002B3FF476AFA18D99427FF672AFCA
:10379000E3859369202B37D0226802F10C0353E8AC
:1037A000003F23F480730C3242E800310029F3D14A
:1037B000226802F1140353E8003F23F0010314329E
:1037C00042E800310029F3D1226802F1140353E8E2
:1037D000003F23F04003143242E800310029F3D1C6
:1037E000202384F8423000232363226802F10C0373
:1037F00053E8003F23F010030C3242E80031002967
:10380000F3D1E06BFEF78BFB02236363A18DE38DA5
:103810009BB2C91A89B22046FFF790FE2AE7A18D14
:10382000E38D9BB2C91A89B2E38D9BB2002B3FF4A2
:1038300021AF00293FF41EAF226802F10C0353E8C8
:10384000003F23F490730C3242E800300028F3D19B
:10385000226802F1140353E8003F23F001031432FD
:1038600042E800300028F3D1202384F842300023BE
:103870002363226802F10C0353E8003F23F0100396
:103880000C3242E800300028F3D102236363204663
:10389000FFF754FEEEE62046FFF7C8FCEAE62046B6
:1038A000FFF736FEE6E600BF2D350008816282850F
:1038B000C28500234364222380F84230036923B188
:1038C0000268D36843F48073D3600268536943F09D
:1038D000010353610268D36843F02003D3600020E2
:1038E000704708B590F84230DBB2202B08D149B1BF
:1038F0000AB9012008BD00230363FFF7D7FFF9E7EA
:103900000220F7E70120F5E7F0B58FB0AA48FFF7EE
:10391000C1FAAA4E6C4606F110050FCD0FC40FCDAB
:103920000FC40FCD0FC495E8030084E8030096E8A8
:103930000F0000F08FFAA24B01221A70A04B1B78E7
:103940004BB1A04B1B7833B99F4B1B78002BF5D0A4
:103950009C4B01221A709B4B1B780BB9042317E078
:103960009A4B00221A701321702000F003FD0FB053
:10397000F0BD974AD45C591C515C5A08901D41EA2D
:103980000421944A4E2404FB002251840233DBB20A
:10399000132BEED9FF2200218D4801F05BF98648F8
:1039A000FFF778FA8C4E6C4606F110050FCD0FC468
:1039B0000FCD0FC40FCD0FC495E8030084E80300BA
:1039C00096E80F0000F046FA7D4B01221A707C4BFE
:1039D0001B784BB17B4B1B7833B97B4B1B78002B8F
:1039E000F5D0784B01221A70764B1B7893B90423DB
:1039F000132B17D8764AD45C591C515C5A08901E78
:103A000041EA0421734A4E2404FB0022518402330C
:103A1000DBB2EDE76D4B00221A701321702000F02D
:103A2000A9FCA4E7FF220021694801F013F96248CC
:103A3000FFF730FA102269496948FEF7FFF8694B31
:103A400001221A70674B1B7803F0FF05002BF9D198
:103A500010226549614801F0C9F82C4613E05D4E1B
:103A60004E2202FB046696F90E10D6F83D20009215
:103A7000DBB2728CC9B2B6F80F0000F0C5FE7063FD
:103A8000B1630134E4B20F2C3FF671AF2146514BC4
:103A90004E2202FB043393F84D30002BF1D0524BF1
:103AA0001B574C4A4E2000FB042282F82130927AA8
:103AB000A13A052AE5D801A050F822F05F3A0008A3
:103AC000D53A00080D3B0008333B0008533B000883
:103AD000B33B00083F4E4E2202FB046696F90E10DF
:103AE000D6F849200392D6F845200292D6F8412014
:103AF0000192D6F83D200092DBB2728CC9B2B6F8C2
:103B00000F0000F0E1FE7063B163BAE7314E4E2260
:103B100002FB046696F90E10D6F83D200092DBB247
:103B2000728CC9B2B6F80F0000F00EFE7063B1637C
:103B3000A7E7284E4E2202FB046696F90E10DBB270
:103B4000728CC9B2B6F80F0000F0B6FD7063B163B5
:103B500097E7204E4E2202FB046696F90E10DBB268
:103B6000728CC9B2B6F80F0000F05EFD7063B163ED
:103B700087E70132D2B20F2A38D816484E2606FB04
:103B800001008089104110F0010FF2D00CF1010EFC
:103B9000104E4E2000FB0260478C01EB8100C1EB10
:103BA000C0006044103006EB400047805FFA8EFC96
:103BB000DFE72A46AC46DEE7300C0020F80C002098
:103BC000240B0020290B0020250B0020260B0020B1
:103BD0002C0B002024060020B00C0020040500203F
:103BE0006804002000050020040B00204E2201FB89
:103BF00002F202F108000C4F3844BE1896F90E107C
:103C000020323A44D6F841700297D6F83D700197B9
:103C1000F77A0097DBB20232C9B2073000F0ECFE4F
:103C20007063B1632DE700BF2406002038B5044659
:103C3000424B1B78424A1370026842498A4208D0BC
:103C4000A1F580618A4204D022683F4B9A425CD041
:103C500038BDBB2B1BD03D4A127862B13C490A7873
:103C6000501C08703B498B543B4A127893421BD03E
:103C70001344394A1370314D012229463748FFF762
:103C800030FE012229463648FFF72BFEDCE7AA2B3F
:103C9000E1D12E4A012111702D490A78501C08707B
:103CA0002C49AA208854D6E7AA2BE1D0CB78052B43
:103CB0001ED0284BDB78732B23D00024244B1C70A0
:103CC000224B1C70244B1C70264B1C701B4D012278
:103CD00029462248FFF705FE012229462048FFF722
:103CE00000FE214D2846FFF709F92B685C62AFE71B
:103CF0001E4B01221A70FF220021164800F0AAFF75
:103D0000D7E71B4B00221A70D7E7114A1378591CCA
:103D100011700A4D2978174AD154174C2046FFF7E5
:103D2000EDF8236800225A622046FFF7B3F801221B
:103D300029461248FFF7D5FD8AE700BF2E0C002068
:103D4000A40D00200048004000500040280B002037
:103D50002C0C00202C0B00202B0C0020F80C002039
:103D6000B00C0020240B0020300C0020260B00207B
:103D70002306002024050020700C0020400D0020A8
:103D800008B50268054B9A4200D008BD044B0022DA
:103D90001A700448FFF7B2F8F7E700BF00240140AB
:103DA00000050020300C002038B504460368B3F14C
:103DB000804F04D02268134B9A4212D038BD12486B
:103DC000036800255D62FFF765F8104B01221A7049
:103DD0000F4B1D700F4B1D700F4B1D700F4B1D7047
:103DE000E8E70F4C2046FFF789F8236800225A6263
:103DF0000A4B18780B4908701A700B4B01221A7085
:103E0000DCE700BF00040040300C0020250B002040
:103E1000240B0020260B0020230600202C0C002061
:103E2000700C00202D0C0020270B002084B008B55A
:103E30000DF1080C8CE80F004FF6FF7307220449C0
:103E40006046FFF705FBBDE8084004B0704700BFBF
:103E50000C00002084B008B50DF1080C8CE80F00B0
:103E60004FF6FF73052204496046FFF7F1FABDE8FB
:103E7000084004B0704700BF1400002000B586461B
:103E80004FF0000C4FF6FF7010E040080133DBB23A
:103E9000072B07D810F0010FF7D04AF2010282EA8F
:103EA0005000F3E70CF1010C5FFA8CFC8C4504D256
:103EB0001EF80C3058400023EAE75DF804FB0000D0
:103EC00070B5444BA0221A7001229A706022DA70F9
:103ED00000230CE000EB8002C0EBC2021A443E4912
:103EE00031F812401A1D3B498C540133DBB2042BCC
:103EF000F0D9394B4E2202FB0033997A354A517280
:103F00009B89190A9172D37200210C2317E000EBF0
:103F10008002C0EBC2020A4404322F4C04EB42027E
:103F2000B2F807C05A1CD2B22A4C4FEA1C2E04F831
:103F300003E00233DBB204F802C00131C9B2264A01
:103F40004E2404FB0022D27A8A42E0D8591CC9B21E
:103F5000214A04FB0022947B1E4DEC540233DCB258
:103F600092F83CE005F801E0002296451CD902F1E8
:103F70000E014E2300FB03F303EB810316490B44B0
:103F8000D3F805C04FEA2C41631CDBB2114D295513
:103F90004FEA2C26A11CC9B2EE540334E4B205F852
:103FA00001C00132D2B2E0E7A61CF6B2094D6E7034
:103FB00021462846FFF762FF631CDBB2020A2A553E
:103FC000E8544FF0FF33324629460448FFF740FAE1
:103FD00070BD00BFA80D002024060020400D002069
:103FE0002DE9F041524BA0221A7001229A706122F1
:103FF000DA7000200524844670E002EB8201C2EBF7
:10400000C10119444B4D35F81160611C484D2E55C6
:104010000133DBB2CCB2042BEFD9651CEDB2454BBA
:104020004E2101FB02339E7A41490E559E89A31C05
:10403000DBB2370A4F550334E4B2CE54002116E008
:1040400002EB8203C2EBC3030B440433394D05EB8F
:104050004303B3F807E0631CDBB2354D4FEA1E267D
:104060002E550234E4B205F803E00131C9B2314BF8
:104070004E2505FB0233DB7A8B42E1D8611CC9B2C5
:104080002C4B05FB02339E7B294D2E550234E4B2A6
:1040900093F83C706F5400239F421DD903F10E0525
:1040A0004E2102FB01F101EB8501224D2944D1F89B
:1040B0000560311404F1010E5FFA8EFE1C4D295586
:1040C0004FEA2628A11CC9B205F80E800334E4B2D9
:1040D0006E540133DBB2DFE70130C0B20F280ED8D7
:1040E0000246144B4E2101FB003393F84D30012B57
:1040F000F2D10CF1010C5FFA8CFC00238BE70C4D24
:1041000085F804C0A61CF6B26E7021462846FFF75B
:10411000B5FE631CDBB2020A2A55E8544FF0FF33A8
:10412000324629460448FFF793F9BDE8F08100BF05
:10413000A80D002024060020400D0020F8B53C4BBF
:10414000A0221A7001229A707022DA7000230CE00B
:1041500000EB8002C0EBC2021A44364931F812402B
:104160001A1D33498C540133DBB2042BF0D9314B87
:104170004E2202FB0033997A2D4A517293F80BE0DC
:1041800082F80AE000220B2416E000EB8003C0EB6B
:10419000C30313441033274901EB4303B3F802C0B0
:1041A000631CDBB222494FEA1C250D550234E4B2F0
:1041B00001F803C00132D2B29645E6D81D4E4E2317
:1041C00003FB0066706BB16BFCF7A8FB83B2621C4B
:1041D000D2B2174D00212955A11CC9B2C0F3072046
:1041E00000EB800000EB80008000A854E21CD2B2FB
:1041F00003EB830303EB83039B006B54271DFFB288
:1042000096F82130AB54A61DF6B26E70394628469A
:10421000FFF734FE0534E4B2030AEB5528554FF09E
:10422000FF33324629460448FFF712F9F8BD00BFB4
:10423000A80D002024060020400D0020F8B54A4BB0
:10424000A0221A7001229A707122DA7000250524CA
:104250002E4663E001EB8102C1EBC2021A444348DF
:1042600030F81270621C404807550133DBB2D4B2FB
:10427000042BEFD9621CD2B23C4B4E2000FB013321
:104280009F7A394807550234E4B293F80BC000F81E
:1042900002C0002216E001EB8103C1EBC30313440B
:1042A0001033324800EB4303B3F802E0631CDBB287
:1042B0002D484FEA1E2707550234E4B200F803E008
:1042C0000132D2B29445E6D8284F4E2303FB017742
:1042D000786BB96BFCF722FB83B204F1010C5FFA37
:1042E0008CFC214A00211155A11CC9B2C0F3072042
:1042F00000EB800000EB8000800002F80C00E01C66
:10430000C0B203EB830303EB83039B0053540434D9
:10431000E4B297F8213013540135EDB20F2D0CD8CB
:104320002946124B4E2202FB053393F84D30012BE8
:10433000F2D10136F6B200239AE70B4D2E71A61C7E
:10434000F6B26E7021462846FFF798FD631CDBB27B
:10435000020A2A55E8544FF0FF33324629460448F2
:10436000FFF776F8F8BD00BFA80D00202406002056
:10437000400D002038B50C4CA02323700725657034
:104380000123A370E070217105212046FFF776FD1F
:10439000030A6371A0714FF0FF332A462146034898
:1043A000FFF756F838BD00BFA80D0020400D0020D3
:1043B0007D4B1B78A02B40F0F580F0B5ADF2E44DBD
:1043C00000242546784B9E78012E39D15A78774BB8
:1043D0001B789A422ED1991E7348425C013BC75C00
:1043E00047EA0227C9B2FFF749FD87422BD16F4B3D
:1043F00000221A706C4BDB78402B00F0AC801FD38E
:10440000712B1DD8502B1BD3503B212B18D8DFE824
:1044100003F030171717171717171717171717174E
:104420001717282D171717171717171717171717F5
:104430001717202515213046FFF79CFF5B4B1C709A
:104440000DF2E44DF0BD1421574BD878FFF792FFE1
:10445000F6E7554B1879FFF771FEF1E7FFF7EEFE2F
:10446000EEE7514B1879FFF72BFDE9E7FFF7B8FDB1
:10447000E6E74D4B9A7ADF7A47EA02270022134695
:1044800040E0101D484C14F800C001EB8100C1EB66
:10449000C0001044464C24F810C00132D2B2042AA5
:1044A000EFD9434A4E2000FB012297813E48447ACF
:1044B000947290F80CE082F83CE0002215E0500085
:1044C0000D30394C205C02F1070C14F81CC04CEA8A
:1044D000002C02F10E044E2001FB00F000EB8400E2
:1044E000334C2044C0F805C001329645E7DC304A21
:1044F0004E2000FB0121012281F84D2032461C464E
:104500000133DBB20F2B12D8194647FA03F010F033
:10451000010FF5D00135EDB2002AC0D024484FF08C
:104520004E0C0CFB0301022081F84D00E8E7204906
:104530004E2303FB0414E5724FF49C642246684644
:10454000FCF790FB2146684600F034F8A02150208B
:10455000FFF710FF74E7FFF7D7F9134B1C794E23D1
:1045600003FB04F404F10800114D284404F1200178
:1045700029442C44E27A02310730FCF773FB94F9AA
:104580002130A3734FF49C64224629466846FCF709
:1045900069FB2146684600F00DF8A0215020FFF786
:1045A000E9FE4DE7704700BF240500202D0C0020D8
:1045B000240600202DE9F04184B007460E46FDF7A1
:1045C000A1FD00230193124B02930123039369463B
:1045D00001A8FDF74BFE8046B0B900240C4DB44253
:1045E00010D23A5929460220FDF70CFE18B90435BD
:1045F0000434A4B2F3E7FDF7C1FD5FFA80F8FDF7DC
:10460000B3FD01E0FDF7B0FD404604B0BDE8F08128
:1046100000F8050808B50A460149FCF723FB08BD68
:1046200000F80508000000002DE9F0410E46904614
:104630001F46FBF7F7FE1AA3D3E90023FBF75CFF45
:1046400002460B46FBF758FF04460D464046FBF773
:10465000E9FE13A3D3E90023FBF74EFF02460B4606
:10466000FBF74AFF22462B46FBF78EFD0EA3D3E94C
:104670000023FBF741FF04460D46B81BFBF7D2FEB3
:104680000BA3D3E90023FBF737FF02460B46204676
:104690002946FBF77BFDBDE8F08100BFAFF300804A
:1046A0009A9999999999B93F22CD0EA782406D3F69
:1046B0009A999999999901402DE9F0410E469046B1
:1046C0001F46FBF7AFFE1AA3D3E90023FBF714FF45
:1046D00002460B46FBF710FF04460D464046FBF72B
:1046E000A1FE13A3D3E90023FBF706FF02460B4606
:1046F000FBF702FF22462B46FBF746FD0EA3D3E94C
:104700000023FBF7F9FE04460D46B81BFBF78AFEB3
:104710000BA3D3E90023FBF7EFFE02460B4620462E
:104720002946FBF733FDBDE8F08100BFAFF3008001
:104730009A9999999999B93F192543E966DA693F98
:104740009A999999999901402DE9F84F8A4614460A
:104750009B46FBF767FE24A3D3E90023FBF7CCFEBF
:1047600002460B46FBF7C8FE804689462046FBF70B
:1047700059FE1DA3D3E90023FBF7BEFE02460B46FC
:10478000FBF7BAFE06460F460A98FBF74BFE18A346
:10479000D3E90023FBF7B0FE17A3D3E90023FBF70F
:1047A000ABFE04460D4642464B4630463946FBF7C3
:1047B000EBFC02460B4620462946FBF79DFE0446CD
:1047C0000D46ABEB0A00FBF72DFE0DA3D3E900234A
:1047D000FBF792FE02460B4620462946FBF7D6FC25
:1047E000BDE8F88FAFF300809A9999999999B93FEC
:1047F0002D431CEBE2361A3FB19FACB58353473FC4
:104800009A999999999901402DE9F84F8A46144649
:104810009B46FBF707FE24A3D3E90023FBF76CFEBE
:1048200002460B46FBF768FE804689462046FBF7AA
:10483000F9FD1DA3D3E90023FBF75EFE02460B46FC
:10484000FBF75AFE06460F460A98FBF7EBFD18A346
:10485000D3E90023FBF750FE17A3D3E90023FBF7AE
:104860004BFE04460D4642464B4630463946FBF762
:104870008BFC02460B4620462946FBF73DFE0446CC
:104880000D46ABEB0A00FBF7CDFD0DA3D3E90023EA
:10489000FBF732FE02460B4620462946FBF776FC24
:1048A000BDE8F88FAFF300809A9999999999B93F2B
:1048B0002D431CEBE2361A3F4EAC9D7296A3413F4E
:1048C0009A999999999901402DE9F84F8B46144688
:1048D0009A46FBF7A7FD42A3D3E90023FBF70CFEA2
:1048E00002460B46FBF708FE3FA3D3E90023FBF784
:1048F00003FE804689462046FBF794FD38A3D3E9A2
:104900000023FBF7F9FD02460B46FBF7F5FD36A346
:10491000D3E90023FBF7F0FD06460F460A98FBF7A4
:1049200081FD33A3D3E90023FBF7E6FD04460D46E2
:1049300042464B4630463946FBF726FC06460F46B4
:1049400002460B4620462946FBF7D6FD02460B469B
:1049500030463946FBF7D0FD04460D460B98FBF771
:1049600061FD23A3D3E90023FBF7C6FD02460B46F6
:1049700030463946FBF7C0FD02460B462046294625
:10498000FBF704FC04460D460C98FBF74BFD18A3FF
:10499000D3E90023FBF7B0FD02460B46204629462B
:1049A000FBF7F4FB04460D460D98FBF73BFD10A307
:1049B000D3E90023FBF7A0FD06460F46AAEB0B0048
:1049C000FBF730FD32463B46FBF796FD02460B46B1
:1049D00020462946FBF7DAFBBDE8F88FAFF30080ED
:1049E0009A9999999999B93FFCA9F1D24D62503F92
:1049F0002D431CEBE2361A3F2DE9F04F89B0834678
:104A00000E4691461F469DF84880B8F1040F11D01C
:104A100057A4D4E90034CDE90034B8F1030F0ED027
:104A200055A4D4E90034CDE906344FF0000A00243F
:104A3000002528E000235A4CCDE90034EDE750A4CE
:104A4000D4E90034CDE900344FA4D4E90034CDE9F1
:104A50000634EAE73BF81A00FBF7E4FC4CA3D3E981
:104A60000023FBF749FD02460B46FBF745FD0246D6
:104A70000B4620462946FBF789FB04460D460AF102
:104A8000010A5FFA8AFAC245E4D34046FBF7CAFC42
:104A900002460B46CDE9022320462946FBF756FE87
:104AA000CDE904014FF0000A0024002518E039F890
:104AB0001A00FBF7B7FC36A3D3E90023FBF71CFD74
:104AC00002460B46FBF718FD02460B4620462946D8
:104AD000FBF75CFB04460D460AF1010A5FFA8AFA0D
:104AE000C245E4D3DDE9022320462946FBF72EFE2A
:104AF000804689461398FBF795FC27A3D3E900234A
:104B0000FBF7FAFCDDE90623FBF7F6FC04460D464D
:104B1000DDE9042340464946FBF736FB02460B46D7
:104B200020462946FBF7E8FC04460D461498FBF79F
:104B300079FC19A3D3E90023FBF7DEFC02460B4600
:104B400020462946FBF720FB04460D46B81BFBF721
:104B500069FCDDE90023FBF7CFFC02460B4620464B
:104B60002946FBF713FB09B0BDE8F08FAFF30080D7
:104B7000666666666666E6BF06046312688F4B3F2C
:104B8000333333333333D3BF4EAC9D7296A3413F9F
:104B90009A9999999999B93F2D431CEBE2361A3F9E
:104BA0000000E0BFA0F13C039BB2B3F5717F16D3C8
:104BB0004FF0000CACF11E0040B270470133DBB285
:104BC000502BF7D8084A32F81320121A002AB8BF1F
:104BD00052429142F2DD91B20FFA83FCEEE70023DC
:104BE0009C464FF6FF71EBE7144E0008F8B50746F8
:104BF0000E461546002405E037F81400FFF7D2FFF3
:104C000030550134A542F7DCF8BD000070B50D4EFB
:104C10000D4D761BB61006D0002455F8043B013428
:104C20009847A642F9D1094E094D00F0D5F8761BF8
:104C3000B61006D0002455F8043B01349847A6422C
:104C4000F9D170BDC44E0008C44E0008CC4E000817
:104C5000C44E0008830730B548D0541E002A3FD008
:104C60000346CAB201E0013C3AD303F8012B9D0789
:104C7000F9D1032C2DD9CDB245EA05250F2C45EAF3
:104C8000054536D9A4F1100222F00F0C03F1200ED5
:104C9000E6444FEA121C03F1100242E9045542E9CE
:104CA000025510327245F8D10CF1010214F00C0FCC
:104CB00003EB021204F00F0C13D0ACF1040323F049
:104CC00003030433134442F8045B9342FBD10CF01A
:104CD00003042CB1CAB21C4403F8012B9C42FBD143
:104CE00030BD64461346002CF4D1F9E70346144660
:104CF000BFE71A46A446E0E7024B13B1024800F0B2
:104D000005B8704700000000194D00080023014657
:104D10001A46184600F01AB838B5084B084D5B1B08
:104D20009C1007D0043B1D44013C55F804399847BA
:104D3000002CF9D1BDE8384000F054B8D04E00083E
:104D4000CC4E0008704700BF704700BF2DE9F04708
:104D5000DFF87CA00646DAF8000098460F46914638
:104D6000FFF7F0FF1B4B1B68D3F8484124B365687D
:104D70001F2D26DC5EB96B1C0235DAF8000063607B
:104D800044F82570FFF7E0FF0020BDE8F08701231D
:104D900004EB8501C1F88890D4F88821AB401A4310
:104DA000022EC4F88821C1F80881E4D1D4F88C21FE
:104DB0001343C4F88C31DEE703F5A674C3F8484109
:104DC000D5E7DAF80000FFF7BFFF4FF0FF30DCE770
:104DD00048040020B84E0008F8B500BFF8BC08BC75
:104DE0009E467047F8B500BFF8BC08BC9E467047A9
:104DF000000000000000000001020304060708098B
:104E00000000000001020304030406080C1018202F
:104E100030000000FF03EE03D803C203AC03950388
:104E20007F03680351033B0324030E03F802E202ED
:104E3000CC02B602A1028C02770262024E023B0251
:104E4000270214020202F001DE01CD01BD01AC0116
:104E50009D018D017F0170016201550148013C01F6
:104E60003001240119010E010601F900F000E600ED
:104E7000DD00D500CD00C500BD00B600AF00A80024
:104E8000A1009B0095008F008A00850080007B00B8
:104E9000760071006D006900650061005D005A00D8
:104EA0005700530050004D004A00480045004300A1
:0C4EB00040003E003C00000020000020FC
:084EBC00D0BAFF7F01000000E5
:084EC400F94C0008650100082B
:044ECC004101000898
:104ED00068FF1F000100000010000000AABB018550
:104EE0000000EB00AAAA0173C80000000000000047
:104EF000000000000C03002074030020DC030020ED
:104F000000000000000000000000000000000000A1
:104F10000000000000000000000000000000000091
:104F20000000000000000000000000000000000081
:104F30000000000000000000000000000000000071
:104F40000000000000000000000000000000000061
:104F50000000000000000000000000000000000051
:104F60000000000000000000000000000000000041
:104F70000000000000000000000000000000000031
:104F80000000000000000000000000000000000021
:104F90000000000000000000010000000000000010
:104FA0000E33CDAB34126DE6ECDE05000B000000D5
:104FB00000000000000000000000000000000000F1
:104FC00000000000000000000000000000000000E1
:104FD00000000000000000000000000000000000D1
:104FE00000000000000000000000000000000000C1
:0C5310000000000000000000A80E0020BB
:04000005080016CD0C
:00000001FF
