:020000040800F2
:1000000000C00020B5240008F51E0008F71E0008F7
:10001000F91E0008FB1E0008FD1E0008000000007D
:10002000000000000000000000000000D14C0008AB
:10003000FF1E000800000000714D0008B54D0008CB
:10004000FD240008FD240008FD240008FD2400080C
:10005000FD240008FD240008FD240008FD240008FC
:10006000FD240008FD240008FD240008011F0008ED
:10007000111F0008211F0008FD240008FD240008AE
:10008000311F0008411F0008FD240008FD2400085E
:10009000FD240008FD240008FD240008FD240008BC
:1000A00000000000FD240008FD240008FD240008D5
:1000B000511F0008FD240008FD240008FD2400084D
:1000C000FD240008FD240008FD240008FD2400088C
:1000D000FD240008FD240008611F0008711F0008AE
:1000E000FD240008FD240008FD240008FD2400086C
:1000F000811F0008FD240008FD240008FD240008DD
:10010000FD240008911F0008A11F0008B11F00086E
:10011000FD240008FD240008FD2400080000000064
:10012000FD240008000000000000000000000000A6
:0C01300000000000000000005FF808F173
:1001400010B5054C237833B9044B13B10448AFF311
:1001500000800123237010BD8008002000000000F3
:100160007892000808B5034B1BB103490348AFF36D
:10017000008008BD0000000084080020789200087C
:1001800070B54FF0FF0C4CF4E06C1CEA11541DBF2D
:100190001CEA135594EA0C0F95EA0C0F00F0DEF8F8
:1001A0002C4481EA030621EA4C5123EA4C5350EADD
:1001B000013518BF52EA033541F4801143F480132E
:1001C00038D0A0FB02CE4FF00005E1FB02E506F0BF
:1001D0000042E0FB03E54FF00006E1FB03569CF014
:1001E000000F18BF4EF0010EA4F1FF04B6F5007F1A
:1001F00064F5407404D25FEA4E0E6D4146EB06068C
:1002000042EAC62141EA55514FEAC52040EA5E5014
:100210004FEACE2EB4F1FD0C88BFBCF5E06F1ED8BE
:10022000BEF1004F08BF5FEA500E50F1000041EBF5
:10023000045170BD06F0004646EA010140EA0200A2
:1002400081EA0301B4EB5C04C2BFD4EB0C0541EAC4
:10025000045170BD41F480114FF0000E013C00F3D9
:10026000AB8014F1360FDEBF002001F0004170BDFD
:10027000C4F10004203C35DA0C341BDC04F1140416
:10028000C4F1200500FA05F320FA04F001FA05F2A2
:1002900040EA020001F0004221F0004110EBD3706F
:1002A00021FA04F642EB06015EEA430E08BF20EA9B
:1002B000D37070BDC4F10C04C4F1200500FA04F33E
:1002C00020FA05F001FA04F240EA020001F00041D0
:1002D00010EBD37041F100015EEA430E08BF20EA43
:1002E000D37070BDC4F1200500FA05F24EEA020E8B
:1002F00020FA04F301FA05F243EA020321FA04F0BA
:1003000001F0004121FA04F220EA020000EBD37070
:100310005EEA430E08BF20EAD37070BD94F0000F70
:100320000FD101F00046400041EB010111F4801FA4
:1003300008BF013CF7D041EA060195F0000F18BF55
:10034000704703F00046520043EB030313F4801F91
:1003500008BF013DF7D043EA0603704794EA0C0F4B
:100360000CEA135518BF95EA0C0F0CD050EA410661
:1003700018BF52EA4306D1D181EA030101F00041DE
:100380004FF0000070BD50EA410606BF1046194606
:1003900052EA430619D094EA0C0F02D150EA013612
:1003A00013D195EA0C0F05D152EA03361CBF104653
:1003B00019460AD181EA030101F0004141F0FE41F2
:1003C00041F470014FF0000070BD41F0FE4141F476
:1003D000780170BD81F0004102E000BF83F000436E
:1003E00030B54FEA41044FEA430594EA050F08BFD0
:1003F00090EA020F1FBF54EA000C55EA020C7FEA94
:10040000645C7FEA655C00F0E2804FEA5454D4EB10
:100410005555B8BF6D420CDD2C4480EA020281EADA
:10042000030382EA000083EA010180EA020281EA12
:100430000303362D88BF30BD11F0004F4FEA013164
:100440004FF4801C4CEA113102D0404261EB410173
:1004500013F0004F4FEA03334CEA133302D05242F9
:1004600063EB430394EA050F00F0A780A4F10104B5
:10047000D5F1200E0DDB02FA0EFC22FA05F28018EF
:1004800041F1000103FA0EF2801843FA05F35941D5
:100490000EE0A5F120050EF1200E012A03FA0EFC54
:1004A00028BF4CF0020C43FA05F3C01851EBE3717E
:1004B00001F0004507D54FF0000EDCF1000C7EEB9B
:1004C00000006EEB0101B1F5801F1BD3B1F5001FD9
:1004D0000CD349085FEA30004FEA3C0C04F10104F8
:1004E0004FEA445212F5800F80F09A80BCF1004F21
:1004F00008BF5FEA500C50F1000041EB045141EAA3
:10050000050130BD5FEA4C0C404141EB0101013C6B
:1005100028BFB1F5801FE9D291F0000F04BF01465A
:100520000020B1FA81F308BF2033A3F10B03B3F12C
:1005300020020CDA0C3208DD02F1140CC2F10C02BC
:1005400001FA0CF021FA02F10CE002F11402D8BF1A
:10055000C2F1200C01FA02F120FA0CFCDCBF41EAE6
:100560000C019040E41AA2BF01EB0451294330BDB5
:100570006FEA04041F3C1CDA0C340EDC04F1140492
:10058000C4F1200220FA04F001FA02F340EA030069
:1005900021FA04F345EA030130BDC4F10C04C4F1AF
:1005A000200220FA02F001FA04F340EA030029468F
:1005B00030BD21FA04F0294630BD94F0000F83F4D9
:1005C000801306BF81F480110134013D4EE77FEABC
:1005D000645C18BF7FEA655C29D094EA050F08BF08
:1005E00090EA020F05D054EA000C04BF19461046E9
:1005F00030BD91EA030F1EBF0021002030BD5FEA2D
:10060000545C05D14000494128BF41F0004130BD54
:1006100014F580043CBF01F5801130BD01F00045A8
:1006200045F0FE4141F470014FF0000030BD7FEA1B
:10063000645C1ABF194610467FEA655C1CBF0B4616
:10064000024650EA013406BF52EA033591EA030F2D
:1006500041F4002130BD00BF90F0000F04BF002125
:10066000704730B54FF4806404F132044FF0000558
:100670004FF0000150E700BF90F0000F04BF0021D1
:10068000704730B54FF4806404F1320410F0004537
:1006900048BF40424FF000013EE700BF42004FEA32
:1006A000E2014FEA31014FEA02701FBF12F07F43AF
:1006B00093F07F4F81F06051704732F07F4208BF66
:1006C000704793F07F4F04BF41F40021704730B56D
:1006D0004FF4607401F0004521F000411CE700BFB9
:1006E00050EA010208BF704730B54FF000050AE03C
:1006F00050EA010208BF704730B511F0004502D53D
:10070000404261EB41014FF4806404F132045FEA3E
:10071000915C3FF4D8AE4FF003025FEADC0C18BFE7
:1007200003325FEADC0C18BF033202EBDC02C2F1D9
:10073000200300FA03FC20FA02F001FA03FE40EA6B
:100740000E0021FA02F11444BDE600BF4FEA410257
:10075000B2F1E04324BFB3F5001CDCF1FE5C0DD91F
:1007600001F0004C4FEAC0024CEA5070B2F1004F69
:1007700040EB830008BF20F00100704711F0804F6C
:1007800021D113F13872BCBF01F00040704741F431
:1007900080114FEA5252C2F11802C2F1200C10FA35
:1007A0000CF320FA02F018BF40F001004FEAC12319
:1007B0004FEAD32303FA0CFC40EA0C0023FA02F3BD
:1007C0004FEA4303CCE77FEA625307D150EA013393
:1007D0001EBF4FF0FE4040F44000704701F0004063
:1007E00040F0FE4040F40000704700BF80F0004041
:1007F00002E000BF81F0004142001FBF5FEA4103F9
:1008000092EA030F7FEA226C7FEA236C6AD04FEAF8
:100810001262D2EB1363C1BFD2184140484041403D
:10082000B8BF5B42192B88BF704710F0004F40F4EF
:10083000000020F07F4018BF404211F0004F41F40B
:10084000000121F07F4118BF494292EA030F3FD0D7
:10085000A2F1010241FA03FC10EB0C00C3F12003EA
:1008600001FA03F100F0004302D5494260EB400079
:10087000B0F5000F13D3B0F1807F06D340084FEAE4
:10088000310102F10102FE2A51D2B1F1004F40EBD9
:10089000C25008BF20F0010040EA03007047490041
:1008A00040EB0000013A28BFB0F5000FEDD2B0FADE
:1008B00080FCACF1080CB2EB0C0200FA0CF0AABF01
:1008C00000EBC25052421843BCBFD040184370479F
:1008D00092F0000F81F4000106BF80F400000132A5
:1008E000013BB5E74FEA41037FEA226C18BF7FEA7C
:1008F000236C21D092EA030F04D092F0000F08BFBE
:100900000846704790EA010F1CBF0020704712F0A4
:100910007F4F04D1400028BF40F00040704712F1E3
:1009200000723CBF00F50000704700F0004343F048
:10093000FE4040F4000070477FEA226216BF08467E
:100940007FEA23630146420206BF5FEA412390EA41
:10095000010F40F4800070474FF0000304E000BF37
:1009600010F0004348BF40425FEA000C08BF7047E8
:1009700043F0964301464FF000001CE050EA0102AC
:1009800008BF70474FF000030AE000BF50EA0102C1
:1009900008BF704711F0004302D5404261EB4101AE
:1009A0005FEA010C02BF84460146002043F0B643D3
:1009B00008BFA3F18053A3F50003BCFA8CF2083AF8
:1009C000A3EBC25310DB01FA02FC634400FA02FC01
:1009D000C2F12002BCF1004F20FA02F243EB020008
:1009E00008BF20F00100704702F1200201FA02FC6A
:1009F000C2F1200250EA4C0021FA02F243EB02005D
:100A000008BF20EADC7070474FF0FF0C1CEAD052A0
:100A10001EBF1CEAD15392EA0C0F93EA0C0F6FD061
:100A20001A4480EA010C400218BF5FEA41211ED03F
:100A30004FF0006343EA501043EA5111A0FB01312B
:100A40000CF00040B1F5000F3EBF490041EAD37100
:100A50005B0040EA010062F17F02FD2A1DD8B3F17C
:100A6000004F40EBC25008BF20F00100704790F0EB
:100A7000000F0CF0004C08BF49024CEA502040EA3D
:100A800051207F3AC2BFD2F1FF0340EAC250704703
:100A900040F400004FF00003013A5DDC12F1190F41
:100AA000DCBF00F000407047C2F10002410021FAB3
:100AB00002F1C2F1200200FA02FC5FEA310040F1CB
:100AC000000053EA4C0308BF20EADC70704792F044
:100AD000000F00F0004C02BF400010F4000F013A7C
:100AE000F9D040EA0C0093F0000F01F0004C02BF77
:100AF000490011F4000F013BF9D041EA0C018FE7E6
:100B00000CEAD15392EA0C0F18BF93EA0C0F0AD0EB
:100B100030F0004C18BF31F0004CD8D180EA010011
:100B200000F00040704790F0000F17BF90F0004FAA
:100B3000084691F0000F91F0004F14D092EA0C0F8C
:100B400001D142020FD193EA0C0F03D14B0218BF1F
:100B5000084608D180EA010000F0004040F0FE4065
:100B600040F40000704740F0FE4040F44000704701
:100B70004FF0FF0C1CEAD0521EBF1CEAD15392EA80
:100B80000C0F93EA0C0F69D0A2EB030280EA010C70
:100B900049024FEA402037D04FF0805343EA111109
:100BA00043EA10130CF000408B4238BF5B0042F167
:100BB0007D024FF4000C8B4224BF5B1A40EA0C000C
:100BC000B3EB510F24BFA3EB510340EA5C00B3EB3E
:100BD000910F24BFA3EB910340EA9C00B3EBD10F2C
:100BE00024BFA3EBD10340EADC001B0118BF5FEA7E
:100BF0001C1CE0D1FD2A3FF650AF8B4240EBC250A7
:100C000008BF20F0010070470CF0004C4CEA502067
:100C10007F32C2BFD2F1FF0340EAC250704740F4B6
:100C200000004FF00003013A37E792F0000F00F0A8
:100C3000004C02BF400010F4000F013AF9D040EA26
:100C40000C0093F0000F01F0004C02BF490011F4BA
:100C5000000F013BF9D041EA0C0195E70CEAD153B2
:100C600092EA0C0F08D142027FF47DAF93EA0C0F99
:100C70007FF470AF084676E793EA0C0F04D14B027D
:100C80003FF44CAF08466EE730F0004C18BF31F02F
:100C9000004CCAD130F000427FF45CAF31F0004329
:100CA0007FF43CAF5FE700BF53B94AB9002908BFE2
:100CB00000281CBF4FF0FF314FF0FF3000F076B935
:100CC000ADF1080C6DE904CE00F006F8DDF804E0A3
:100CD000DDE9022304B070472DE9F047089E0D4678
:100CE00004468846002B4DD18A42944668D9B2FA10
:100CF00082F252B101FA02F3C2F1200120FA01F1AD
:100D00000CFA02FC41EA030894404FEA1C41B8FB8C
:100D1000F1F71FFA8CFE01FB178807FB0EF0230C7E
:100D200043EA084398420AD91CEB030307F1FF3555
:100D300080F01E81984240F21B81023F63441B1ADF
:100D4000B3FBF1F001FB103300FB0EFEA4B244EA4A
:100D50000344A6450AD91CEB040400F1FF3380F0DC
:100D60000981A64540F20681644402380021A4EBC3
:100D70000E0440EA07401EB10023D440C6E90043F8
:100D8000BDE8F0878B4208D9002E00F0EE800021EC
:100D9000C6E900050846BDE8F087B3FA83F10029EB
:100DA0004AD1AB4202D3824200F2FC80841A65EB46
:100DB000030301209846002EE2D0C6E90048DFE791
:100DC00002B9FFDEB2FA82F2002A40F09180A1EB74
:100DD0000C0001214FEA1C471FFA8CFEB0FBF7F311
:100DE00007FB1300250C45EA00450EFB03F0A84263
:100DF00008D91CEB050503F1FF3802D2A84200F226
:100E0000CE8043462D1AB5FBF7F007FB10550EFBBD
:100E100000FEA4B244EA0544A64508D91CEB04042C
:100E200000F1FF3502D2A64500F2B6802846A4EBB9
:100E30000E0440EA03409EE7C1F120078B4022FAEE
:100E400007FC4CEA030C25FA07FA4FEA1C49BAFBE7
:100E5000F9F820FA07F309FB18AA8D401FFA8CFE57
:100E60001D4300FA01F308FB0EF02C0C44EA0A447F
:100E7000A04202FA01F20BD91CEB040408F1FF3A7C
:100E800080F08880A04240F28580A8F10208644486
:100E9000241AB4FBF9F009FB104400FB0EFEADB2BE
:100EA00045EA0444A64508D91CEB040400F1FF35CB
:100EB0006CD2A6456AD90238644440EA0840A0FBD7
:100EC0000295A4EB0E04AC42C846AE4656D353D0AE
:100ED000002E69D0B3EB080264EB0E0422FA01F392
:100EE00004FA07F71F43CC40C6E90074002147E726
:100EF0000CFA02FCC2F1200125FA01F34FEA1C476B
:100F000020FA01F195400D43B3FBF7F107FB1133D4
:100F10001FFA8CFE280C40EA034001FB0EF38342CB
:100F200004FA02F408D91CEB000001F1FF382FD2BB
:100F300083422DD902396044C01AB0FBF7F307FB96
:100F40001300ADB245EA004503FB0EF0A84208D9F4
:100F50001CEB050503F1FF3816D2A84214D9023B59
:100F60006544281A43EA014138E73146304607E72D
:100F70002F46E4E61846F9E64B45A9D2B9EB02083C
:100F800065EB0C0E0138A3E74346EAE7284694E7F1
:100F90004146D1E7D0467BE76444023847E7023B4D
:100FA00065442FE7084606E73146E9E6704700BF8B
:100FB000844641EA000313F0030349D1403A23D3A6
:100FC0000B6803604B6843608B688360CB68C360C9
:100FD0000B6903614B6943618B698361CB69C361B1
:100FE0000B6A03624B6A43628B6A8362CB6AC36299
:100FF0000B6B03634B6B43638B6B8363CB6BC36381
:1010000040304031403ADBD230320BD30B680360C2
:101010004B6843608B688360CB68C36010301031CD
:10102000103AF3D20C3205D351F8043B40F8043B9C
:10103000043AF9D2043208D0D2071CBF11F8013BA0
:1010400000F8013B01D30B8803806046704700BF66
:10105000082A13D38B07B1D010F00303AED0C3F12D
:101060000403D21ADB071CBF11F8013B00F8013B57
:10107000A4D331F8023B20F8023B9FE7043AD9D3CE
:10108000013A11F8013B00F8013BF9D20B780370EB
:101090004B7843708B7883706046704700B585B09D
:1010A00000230193029303937C487D4A02604360CE
:1010B0004FF080728260C3604FF4807202614361BE
:1010C0008361C3610362012280F8242010228262BE
:1010D00080F82C304263836380F83C3001F044FA9E
:1010E000002840F0A7800A230193012302930423E0
:1010F00003930DEB0301694801F04CFB002840F01D
:101100009C800C2301930223029301A9634801F000
:1011100041FB002840F094800023019303230293B5
:1011200001A95E4801F036FB002840F08C800423C2
:10113000019302930DEB0301584801F02BFB0028AB
:1011400040F084800B2301930523029301A95348A7
:1011500001F020FB00287CD10D230193062302938C
:1011600001A94E4801F016FB002875D10123019317
:101170000723029301A9494801F00CFB00286ED116
:10118000052301930823029301A9444801F002FBBF
:10119000002867D1062301930923029301A93F4840
:1011A00001F0F8FA002860D1082301930A23029382
:1011B00001A93A4801F0EEFA002859D1122301930F
:1011C0000B23029301A9354801F0E4FA002852D11B
:1011D000142301930C23029301A9304801F0DAFA99
:1011E00000284BD1072301930D23029301A92B481B
:1011F00001F0D0FA002844D10E230193029301A9F3
:10120000264801F0C7FA00283ED1132301930F238B
:10121000029301A9214801F0BDFAC0BB1523019337
:101220001023029301A91D4801F0B4FA90BB05B048
:101230005DF804FB00F058FD55E700F055FD60E750
:1012400000F052FD68E700F04FFD70E700F04CFD44
:1012500078E700F049FD7FE700F046FD86E700F003
:1012600043FD8DE700F040FD94E700F03DFD9BE776
:1012700000F03AFDA2E700F037FDA9E700F034FDE9
:10128000B0E700F031FDB7E700F02EFDBDE700F05C
:101290002BFDC3E700F028FDC9E700BF9C08002034
:1012A0000024014070B58AB000230593069307938C
:1012B000089309930268304B9A4201D00AB070BD7E
:1012C000044603F58A331A6A42F400721A621A6AF3
:1012D00002F400720192019ADA6942F00402DA61C2
:1012E000DA6902F004020292029ADA6942F001021B
:1012F000DA61DA6902F001020392039ADA6942F0D4
:101300000202DA61DB6903F002030493049B1F23EA
:1013100005930326069605A9184801F09DFEF323C0
:10132000059306960025079505A9154801F094FE3A
:101330004FF2010305930696079505A9114801F0A0
:101340008BFE1148114B0360456085608023C360AC
:101350004FF4807303614FF4806343612023836102
:10136000C56101F00DFC18B9074B63645C62A5E729
:1013700000F0BAFCF8E700BF00240140000802407A
:101380000000024000040240F00800200860024013
:1013900000B583B0264BDA6942F08072DA61DA690F
:1013A00002F080720092009ADA6942F00072DA610B
:1013B000DB6903F000730193019B002205210B20E0
:1013C00001F07CFB0B2001F0B1FB002205210C2079
:1013D00001F074FB0C2001F0A9FB002205210D2077
:1013E00001F06CFB0D2001F0A1FB00220521102073
:1013F00001F064FB102001F099FB0022052111206F
:1014000001F05CFB112001F091FB0022052132204C
:1014100001F054FB322001F089FB0022052133202A
:1014200001F04CFB332001F081FB03B05DF804FBBD
:101430000038024000B58FB067E0504B00221A70B0
:101440004F4B01221A704F4802F026FC4E4CEC46DE
:1014500004F1100EBEE80F00ACE80F00BEE80F006C
:10146000ACE80F00BEE80F00ACE80F009EE80300F8
:101470008CE8030094E80F0005F0C6FA434B1B7894
:1014800023BB434B1B78002B4BD1424B00221A70DD
:101490003F4B01221A703B4802F0FEFB3E4CEC46EB
:1014A00004F1100EBEE80F00ACE80F00BEE80F001C
:1014B000ACE80F00BEE80F00ACE80F009EE80300A8
:1014C0008CE8030094E80F0005F09EFA334B1B787C
:1014D0002BB1334B1B7813B12C4B1B782BBB314BEF
:1014E0001B78002B2AD12E4B1B785BB1274B1B7826
:1014F00043B1234B1B782BB9254B1B7813B92A4BCF
:101500001B780BBB322003F01FFB254B1B78002BF5
:10151000B4D11B4B1B78002B8FD01A4802F0BCFBB8
:10152000F3E7184802F0B8FBEFE71C4B00221A70F3
:101530001E4B1878132105F0BFFCD0E7194B002291
:101540001A7005F0E3FDCEE705F07CF8134B1B782D
:10155000002BDAD1154B1B78DBB2712B08D0134B63
:101560001B78DBB2402B06D00F4B00221A70C9E764
:1015700005F002FCF3E705F033FDF5E7421D00201E
:10158000401D0020981D0020701F0020441D0020D9
:10159000431D0020451D0020B81F0020461D0020CF
:1015A000411D0020471D0020D9160020A016002054
:1015B00008B500220121082003F004FF0F4B18603A
:1015C00000220121082003F0FDFE0D4B18600D4A9A
:1015D00000210D4803F042FA0C4B18600C4A002120
:1015E0000C4803F03BFA0C4B18600C4A00210C48E5
:1015F00003F034FA0B4B186008BD00BF4C1D0020EF
:10160000501D0020D49200083514000890110020CD
:10161000F892000861160008F01300201C930008DF
:10162000F11800085016002084464FF6FF700FE0B6
:101630004AF2010282EA50000133DBB2072B04D8E0
:1016400010F0010FF4D14008F6E701390CF1010C5C
:1016500021B19CF8003058400023EFE770470000AC
:1016600070B59AB07AE09DF84930062B40F0A5801D
:101670000125964B1D702022002112A806F0F2F8D9
:101680009348036800245C6202F03AFB914B1D70A2
:10169000914B1C7091E09DF84930062B01D000223F
:1016A00091E08E4E6C4606F110050FCD0FC40FCDA4
:1016B0000FC40FCD0FC495E8030084E8030096E83B
:1016C0000F0005F0DDF901227DE0844E6C4606F145
:1016D00010050FCD0FC40FCD0FC40FCD0FC495E86B
:1016E000030084E8030096E80F0005F0B5F9002236
:1016F000012377E07A4A03EB430102EB411100201A
:10170000C88303EB430102EB4112012182F8591017
:101710000B44DBB2072BEDD9704E6C4606F1100579
:101720000FCD0FC40FCD0FC40FCD0FC495E803002C
:1017300084E8030096E80F0005F0B6F9654B012236
:101740001A70654B00221A7001E0002B52D09DF8F0
:101750004930032B65D0012003F0F6F94FF0FF323A
:101760000DF147015F4B186803F07DFF0028F2D0B0
:101770009DF8474022465C4912A8FFF719FC022C4D
:10178000E9D9A51E294612A8FFF74EFF80B204F141
:1017900067030DEB030414F8202C05F168030DEB2F
:1017A000030515F8203C03EB02239BB29842D2D1EB
:1017B0009DF84B30052B3FF456AF9DF84B30032B73
:1017C0003FF469AF00229DF84930032BBFD19DF84B
:1017D0004A30022BBBD101329DF84C3013F010037C
:1017E0007FF473AF9DF94B100029AEDA112AACD902
:1017F00000238FE740F6B83003F0A6F9374E6C4669
:1018000006F110050FCD0FC40FCD0FC40FCD0FC4BF
:1018100095E8030084E8030096E80F0005F030F92E
:1018200095E79DF84A20102A95D130490FAA03C99F
:1018300082E8030000210BE002EB4202284800EBA3
:101840004212002082F859000131C9B20233DBB2E2
:10185000122B21D803F168026A4412F8200C03F11C
:1018600069026A4412F8204C01F168026A4412F8D5
:101870002C2C44EA002402EB4205194800EB4510E9
:10188000C483C08B80B20028D6D1154800EB451226
:10189000012082F85900D7E7104E6C4606F110057A
:1018A0000FCD0FC40FCD0FC40FCD0FC495E80300AB
:1018B00084E8030096E80F0005F0F6F8054B0122D6
:1018C0001A70054B00221A7045E700BF411D002029
:1018D000981D0020421D0020401D0020701F002088
:1018E000E01600204C1D0020001D002090920008F2
:1018F00070B59AB07CE09DF84930062B40F0A78087
:101900000125974B1D702022002112A805F0AAFF87
:101910009448036800245C6202F0F2F9924B1D7057
:10192000924B1C7093E09DF84930062B01D00022A9
:1019300093E08F4E6C4606F110050FCD0FC40FCD0E
:101940000FC40FCD0FC495E8030084E8030096E8A8
:101950000F0005F095F801227FE0854E6C4606F1F8
:1019600010050FCD0FC40FCD0FC40FCD0FC495E8D8
:10197000030084E8030096E80F0005F06DF80022EC
:10198000012379E003F108027A4902EB420201EBFC
:1019900042120020D08303EB430201EB42110122EB
:1019A00081F859201344DBB2072BEBD9704E6C46FB
:1019B00006F110050FCD0FC40FCD0FC40FCD0FC40E
:1019C00095E8030084E8030096E80F0005F06CF842
:1019D000654B01221A70654B00221A7001E0002B42
:1019E00052D09DF84930032B65D0012003F0ACF8AC
:1019F0004FF0FF320DF147015F4B186803F033FEE3
:101A00000028F2D09DF8474022465C4912A8FFF713
:101A1000CFFA022CE9D9A51E294612A8FFF704FE29
:101A200080B204F167030DEB030414F8202C05F1D8
:101A300068030DEB030515F8203C03EB02239BB272
:101A40009842D2D19DF84B30052B3FF454AF9DF80E
:101A50004B30032B3FF467AF00229DF84930032B36
:101A6000BFD19DF84A30022BBBD101329DF84C30DA
:101A700013F010037FF471AF9DF94B100029AEDA1B
:101A8000112AACD900238FE740F6B83003F05CF898
:101A9000374E6C4606F110050FCD0FC40FCD0FC4A5
:101AA0000FCD0FC495E8030084E8030096E80F000B
:101AB00004F0E6FF95E79DF84A20102A95D13049B9
:101AC0000FAA03C982E8030000210BE002EB4202E7
:101AD000284800EB4212002082F859000131C9B2B7
:101AE0000133DBB2122B21D803F168026A4412F8E9
:101AF000200C03F169026A4412F8204C01F16802DB
:101B00006A4412F82C2C44EA002402EB42051948DE
:101B100000EB4510C483C08B80B20028D6D1154895
:101B200000EB4512012082F85900D7E7104E6C46B1
:101B300006F110050FCD0FC40FCD0FC40FCD0FC48C
:101B400095E8030084E8030096E80F0004F0ACFF7A
:101B5000054B01221A70054B00221A7045E700BFA1
:101B6000441D0020981D0020451D0020431D00201D
:101B7000B81F0020E0160020501D0020201D00206E
:101B800098920008F0B58BB0002405940694079451
:101B900008940994274BDA6942F02002DA61DA6985
:101BA00002F020020092009ADA6942F00402DA613F
:101BB000DA6902F004020192019ADA6942F0010244
:101BC000DA61DA6902F001020292029ADA6942F0FD
:101BD0000202DA61DA6902F002020392039ADA6918
:101BE00042F00802DA61DB6903F008030493049B06
:101BF000114F01222021384601F022FB0F4E012215
:101C00000221304601F01CFB202305930125069597
:101C10000795089405A9384601F01EFA022305939A
:101C200006950795089405A9304601F015FA0BB002
:101C3000F0BD00BF0038024000080240000402402E
:101C400008B50748074B03600023436040F6FF7365
:101C5000836001F0FBFA00B908BD00F045F8FBE72E
:101C6000541600200030004038B504460368B3F134
:101C7000804F04D02268124B9A421ED038BD114DBD
:101C8000284602F03DF82A68002353620E4A0121DB
:101C900011700E4A13700E4A13700E4A13700E4BD9
:101CA0001B7813B90D4B00221A700D4B1B78002BBB
:101CB000E0D10C4B00221A70DCE700F02FFCDDE7CE
:101CC00000140040981D0020461D0020401D0020EB
:101CD000431D0020D9160020421D0020411D002078
:101CE000451D0020441D002072B6FEE700B593B0EC
:101CF0003422002105A805F0B5FD002300930193CF
:101D000002930393049314490A6822F4C05242F4E4
:101D100000620A600B2205920522069201220892B7
:101D2000102109910A920E9305A801F003FB70B9E6
:101D30000F23009302230193002102910391049148
:101D4000684601F0D5FD20B913B05DF804FBFFF73C
:101D5000CBFFFFF7C9FF00BF0070004008B500F0DF
:101D6000CEFBFFF7C3FFFFF70DFFFFF711FBFFF7F8
:101D700095F900F003FA00F0E7F900F071F900F0CE
:101D8000C9F9FFF75DFF17480268D36843F01003F5
:101D9000D360154D2A68D36843F01003D360134C09
:101DA0002268D36843F01003D3602022104902F068
:101DB000D9FD20220F49284602F0D4FD20220E49E9
:101DC000204602F0CFFD05F057FA05F0A1FA0B48C6
:101DD00005F0E8FD02F0FAFDFFF7EAFB02F018FE5D
:101DE000FEE700BF701F0020B81F00200020002069
:101DF000001D0020201D00208016002040930008B8
:101E000000B585B0124B5A6A42F000425A625A6AD3
:101E100002F000420192019A1A6A42F001021A622B
:101E20001A6A02F001020292029A5A6A42F0805241
:101E30005A625B6A03F080530393039B00220F21D5
:101E40006FF0010000F03AFE05B05DF804FB00BF42
:101E50000038024030B589B00446214B5A6A42F03E
:101E600020025A625B6A03F020030193019B02A9DE
:101E700003A801F051FE069BC3B901F02DFE0346F5
:101E80001848A0FB03239B0C013B1748174A02602C
:101E900040F2E732C260436000230361836001F0D7
:101EA000D6FE054630B1284609B030BD01F014FE1B
:101EB0004300E5E70C4801F0EFFE05460028F2D1AB
:101EC0002C2000F033FE0F2C01D90125EBE7002276
:101ED00021462C2000F0F2FD054B1C60E3E700BF1B
:101EE0000038024083DE1B43541D002000140040D4
:101EF00008000020FEE7FEE7FEE7FEE7FEE770478A
:101F000008B5024800F010FF08BD00BFF00800202F
:101F100008B5024800F008FF08BD00BF2C1F0020D4
:101F200008B5024800F000FF08BD00BFE81E002011
:101F300008B5024800F0F8FE08BD00BF601E002092
:101F400008B5024800F0F0FE08BD00BFA41E002046
:101F500008B5024801F06BFF08BD00BF981D0020C6
:101F600008B5024802F00CFB08BD00BF701F00203E
:101F700008B5024802F004FB08BD00BFB81F0020EE
:101F800008B5024801F053FF08BD00BF541D0020F2
:101F900008B5024802F0F4FA08BD00BF0020002096
:101FA00008B5024800F0C0FE08BD00BF1C1E00209E
:101FB00008B5024800F0B8FE08BD00BFD81D0020DB
:101FC00070B50C461646002506E0AFF300802146AA
:101FD00001F8010B01350C46B542F6DB304670BD09
:101FE00070B50C461646002504E014F8010B00F00D
:101FF00051FA0135B542F8DB304670BD4FF0FF3085
:1020000070474FF400534B60002070470120704729
:102010000020704710B503460C4A0D490D48006872
:1020200040B10C4800680344521A934206D8094A4A
:10203000136010BD0748084C0460F2E705F0E8FBA8
:102040000C2303604FF0FF30F3E700BF00C0002017
:1020500000040000941D0020D835002070470000C7
:1020600000B587B000230293039304930593009374
:10207000019318484FF08042026048F6FF724260B8
:10208000836045F6BF52C2600361436101F0DFFD2A
:10209000B8B94FF48053029302A90E4801F044FEF0
:1020A00090B900230093019369460A4801F05CFF50
:1020B00068B9084B1B686FF001021A6107B05DF840
:1020C00004FBFFF711FEE4E7FFF70EFEE9E7FFF779
:1020D0000BFEEEE7981D00200368B3F1804F00D09F
:1020E000704700B583B003F50E335A6A42F001021F
:1020F0005A625B6A03F001030193019B00220521F0
:102100001C2000F0DBFC1C2000F010FD03B05DF88B
:1021100004FB000008B50A480A4B03604FF4E133A2
:10212000436000238360C36003610C2242618361CA
:10213000C36102F06FF800B908BDFFF7D5FDFBE7FA
:10214000002000200050004008B50A480A4B0360F8
:102150004FF41653436000238360C36003610C2275
:1021600042618361C36102F055F800B908BDFFF711
:10217000BBFDFBE7701F00200044004008B50A4883
:102180000A4B03604FF41653436000238360C3601F
:1021900003610C2242618361C36102F03BF800B924
:1021A00008BDFFF7A1FDFBE7B81F00200048004075
:1021B0002DE9F0418CB0044600230793089309935E
:1021C0000A930B9303689F4A934209D09E4A934215
:1021D00072D09E4A934200F0D1800CB0BDE8F081ED
:1021E0009B4B5A6A42F480125A625A6A02F4801275
:1021F0000092009ADA6942F00402DA61DA6902F0C8
:1022000004020192019ADA6942F00802DA61DB699C
:1022100003F008030293029B4FF4805307934FF09F
:102220000208CDF820800127099703260A96082581
:102230000B9507A9874800F00FFF04230793CDF8FB
:10224000208009970A960B9507A9834800F004FFA0
:102250008248834B03600023436083608022C26016
:10226000036143618361C36100F08AFCF0B97B4B79
:10227000E3635C627B487C4B036010234360002374
:1022800083608022C260036143618361C36100F0A7
:1022900077FC70B9734BA3635C6200220521312087
:1022A00000F00CFC312000F041FC96E7FFF71CFD2C
:1022B000DDE7FFF719FDEDE7654B5A6A42F400329E
:1022C0005A625A6A02F400320392039ADA6942F0BF
:1022D0000102DA61DB6903F001030493049B042328
:1022E00007934FF00208CDF8208003270A970726AE
:1022F0000B965E4D07A9284600F0AEFE0823079313
:10230000CDF82080012309930A970B9607A9284648
:1023100000F0A2FE5648574B0360002343608360E1
:102320008022C260036143618361C36100F028FCC5
:10233000F0B94F4BE3635C624F48504B036010238E
:102340004360002383608022C26003614361836134
:10235000C36100F015FC70B9474BA3635C620022B7
:102360000521262000F0AAFB262000F0DFFB34E741
:10237000FFF7BAFCDDE7FFF7B7FCEDE7344B5A6A2D
:1023800042F480225A625A6A02F480220592059A27
:10239000DA6942F00202DA61DB6903F002030693B4
:1023A000069B4FF4806307934FF00208CDF820801E
:1023B00003270A9707260B96314D07A9284600F0F8
:1023C0004BFE4FF400630793CDF82080012309935F
:1023D0000A970B9607A9284600F03EFE29482A4B8B
:1023E00003600023436083608022C2600361436115
:1023F0008361C36100F0C4FBF0B9224BE3635C620C
:102400002248234B03601023436000238360802213
:10241000C260036143618361C36100F0B1FB70B9C5
:102420001A4BA3635C6200220521272000F046FBC3
:10243000272000F07BFBD0E6FFF756FCDDE7FFF737
:1024400053FCEDE7005000400044004000480040CD
:102450000038024000080240000C0240D81D002055
:102460001C6402401C1E0020086402400000024060
:10247000601E00206C600240A41E002080600240AC
:1024800000040240E81E0020306002402C1F0020A3
:102490001C60024000B583B001904FF6FF7301222B
:1024A00001A9034801F0E6FE019803B05DF804FBC2
:1024B00000200020FFF7D2FD0B480C490C4A0023F6
:1024C00002E0D458C4500433C4188C42F9D3094AEA
:1024D000094C002301E013600432A242FBD305F053
:1024E0009DF9FFF73BFC7047000000207C080020AE
:1024F0005094000880080020D4350020FEE710B575
:10250000032000F0C9FA0F20FFF7A4FC10B101244A
:10251000204610BD0446FFF773FCF9E7034A136831
:10252000034909680B441360704700BF482000202E
:1025300004000020014B1868704700BF48200020AD
:1025400038B50446FFF7F6FF0546B4F1FF3F02D069
:10255000044B1B681C44FFF7EDFF401BA042FAD35D
:1025600038BD00BF04000020002800F0BC8070B51A
:1025700082B00446C36C002B5FD0E36C13F0100FE5
:1025800040F0B380E36C23F4885323F0020343F05C
:102590000203E364564A536823F4403361680B43F3
:1025A0005360E3686269134394F83C104FF400727F
:1025B00092FAA2F2B2FA82F201FA02F21343226A0A
:1025C0001A4394F82400022393FAA3F3B3FA83F393
:1025D00000FA03F31343626B102A02D0A16B0A4383
:1025E000134325682A6812F0400214D1A1690B43F5
:1025F000A168E66931432669B6F5807F30D0012EA7
:102600002BD00A4394F82C1001292BD06868394943
:1026100001400A436A6021688868374A02401A43C9
:102620008A602269B2F5807F33D0012A31D02168D7
:102630000A6B22F0F8720A633AE0036580F84830CA
:102640002E4B1A6A42F001021A621B6A03F0010360
:102650000193019BFEF726FE8FE74FF48072D0E7CF
:102660003246CEE760B9216B01394FF4604090FAF1
:10267000A0F0B0FA80F0814041F400610A43C5E760
:10268000E16C41F02001E164216D41F0010121651F
:10269000BCE725682A6B22F0F872A16A01394FF075
:1026A000F87090FAA0F0B0FA80F081400A432A63F3
:1026B00022689168124A0A409A420BD0E36C23F0D8
:1026C000120343F01003E364236D43F00103236519
:1026D00001200BE000202065E36C23F0030343F0AE
:1026E0000103E36402E001207047012002B070BDE5
:1026F00000270140FF16FCFC89F1FFC000380240B2
:10270000FEFF80BF704708B5436ADA6C12F0500FC5
:1027100027D1DA6C42F40072DA641A68916811F019
:10272000405F1AD193F82410B9B9116B11F0F87FFA
:1027300003D0916811F4806F0FD1516821F020010E
:102740005160DA6C22F48072DA64DA6C12F4805F21
:1027500003D1DA6C42F00102DA641846FFF7D2FFC7
:1027600008BD5B6C1B6B9847FAE7704708B5406A79
:10277000FFF7FBFF08BD704708B5406AC36C43F024
:102780004003C364036D43F004030365FFF7F3FFE5
:1027900008BD000030B482B00023019390F84830A7
:1027A000012B00F0CB80012380F848304B68062BCA
:1027B0002CD80468226C03EB8303053B4FF01F0CFD
:1027C0000CFA03FC22EA0C020D6805FA03F313432A
:1027D00023640B68092B5BD80468626903EB43032D
:1027E0004FF0070C0CFA03FC22EA0C028D6805FA84
:1027F00003F3134363610B68103B012B79D900236A
:1028000080F84830184602B030BC70470C2B0ED808
:102810000568EA6B03EB8303233B1F249C4022EAF9
:1028200004020C6804FA03F31343EB63D1E7122BA1
:102830000ED80568AA6B03EB8303413B1F249C4021
:1028400022EA04020C6804FA03F31343AB63C0E703
:10285000182B0ED805686A6B03EB83035F3B1F24BC
:102860009C4022EA04020C6804FA03F313436B63EE
:10287000AFE705682A6B03EB83037D3B1F249C4075
:1028800022EA04020C6804FA03F313432B63A0E763
:10289000132B0ED805682A6903EB43031E3B07245C
:1028A0009C4022EA04028C6804FA03F313432B6170
:1028B000A1E71D2B0ED80568EA6803EB43033C3BF8
:1028C00007249C4022EA04028C6804FA03F31343B1
:1028D000EB6090E70568EA6D03EB43035A3B07247E
:1028E0009C4022EA04028C6804FA03F31343EB656C
:1028F00081E7134B5B6813F4000F80D1104A5368D3
:1029000043F4000353600B68102B7FF478AF0D4B3A
:102910001B6802F1467202F52D3202F28332A2FBED
:1029200003239B0C03EB83035B00019302E0019BF9
:10293000013B0193019B002BF9D160E7022062E784
:10294000002701400000002030B583B00023019330
:1029500003681A6812F0400F35D104469A6842F0B5
:1029600001029A60194B1B68194AA2FB03239B0CB6
:1029700003EB4303019302E0019B013B0193019BA5
:10298000002BF9D1FFF7D6FD054623681B6813F02D
:10299000400F16D1FFF7CEFD431B022BF5D923685C
:1029A0001B6813F0400FF0D1E36C43F01003E364B5
:1029B000236D43F001032365002384F84830012090
:1029C00002E0002000E0002003B030BD0000002045
:1029D00083DE1B43F8B50D4690F84810012952D00C
:1029E00004461646012380F84830FFF7ADFF07463E
:1029F000002849D1E16C21F4E06121F0010141F4AA
:102A00008071E16423685B6813F4806F05D0E36C28
:102A100023F4405343F48053E364E36C13F4805F86
:102A20002ED0236D23F006032365002384F848305D
:102A3000636C164A9A62636C154ADA62636C154AD3
:102A40001A6323686FF022021A602268536843F009
:102A5000806353602268936843F4807393602168B5
:102A600033462A465831606C00F0D6F823689A68DD
:102A700012F0405F08D19A6842F080429A6003E009
:102A800000232365D1E702273846F8BD0727000851
:102A90006D27000879270008074AD36823F4E0630C
:102AA0001B041B0C000200F4E060034343F0BF630F
:102AB00043F40033D360704700ED00E000B5194BDC
:102AC000DB68C3F30223C3F1070CBCF1040F28BF7A
:102AD0004FF0040C03F1040EBEF1060F18D9033BAE
:102AE0004FF0FF3E0EFA0CFC21EA0C0199400EFA61
:102AF00003F322EA0303194300280BDB0901C9B2DF
:102B000000F1604000F5614080F800135DF804FBBF
:102B10000023E5E700F00F000901C9B2024B195488
:102B2000F4E700BF00ED00E014ED00E0002807DB53
:102B300000F01F02400901239340024A42F820306E
:102B4000704700BF00E100E010B4046C04F01C0CFE
:102B5000012404FA0CF4D0F83CC0CCF8044004681A
:102B600063604368102B05D0036899600368DA60DE
:102B700010BC704703689A600368D960F8E70000EA
:102B800000283AD010B4024600681D4B984229D85C
:102B90001C4B03441C49A1FB03131B099B0013643A
:102BA0001A4BD363022382F82130016821F4FF41DC
:102BB00021F07001536894682343D4682343146957
:102BC00023435469234394692343D46923430B4328
:102BD000036000209063012382F8213082F82000F6
:102BE00010BC70470A4B03440749A1FB03131B09A0
:102BF0009B001364074BD363D4E70120704700BFE9
:102C000007640240F89FFDBFCDCCCCCC00600240F1
:102C1000F89BFDBF0064024038B5044690F82000E0
:102C2000012832D0012084F8200094F82100C0B29D
:102C3000012804D0002384F82030022038BD02206F
:102C400084F821000020A0632568286820F0010096
:102C500028602046FFF778FFE36A5BB122681368BB
:102C600043F00E0313602268136843F001031360FE
:102C70000020E3E72268136823F00403136022684E
:102C8000136843F00A031360EDE70220D6E790F8DB
:102C90002130DBB2022B06D004238363002380F8AB
:102CA0002030012070470268136823F00E03136080
:102CB0000268136823F001031360036C03F01C0324
:102CC000C16B012202FA03F34B6080F8212000233C
:102CD00080F820301846704708B590F82130DBB2F4
:102CE000022B03D004238363012008BD026813680C
:102CF00023F00E0313600268136823F001031360CE
:102D0000036C03F01C03C16B012202FA03F34B6056
:102D100080F82120002380F82030436B13B19847BE
:102D20000020E2E70020E0E738B5C36B19680468CB
:102D30002568036C03F01C0304229A400A4215D054
:102D400015F0040F12D0236813F0200F03D123686D
:102D500023F004032360036C03F01C02C16B042303
:102D600093404B60C36A03B1984738BD02229A4032
:102D70000A421CD015F0020F19D0236813F0200F5F
:102D800006D1236823F00A032360012380F8213051
:102D9000036C03F01C02C16B022393404B600023C1
:102DA00080F82030836A002BDFD09847DDE70822C7
:102DB00002FA03F30B42D8D015F0080FD5D02368E0
:102DC00023F00E032360036C03F01C03C16B01228C
:102DD00002FA03F34B60826380F82120002380F81D
:102DE0002030036B002BC0D09847BEE71F4B9B6978
:102DF00013F4807306D01E4A536943F002035361F3
:102E00004FF48073194A926912F4007F06D0184972
:102E10004A6942F001024A6143F40073134A92691D
:102E200012F4006F06D012494A6942F004024A6166
:102E300043F400630D4A926912F4805F06D00C4996
:102E40004A6942F020024A6143F48053074A92697A
:102E500012F4806F06D006494A6942F008024A61BE
:102E600043F48063014A9361704700BF003C024015
:102E70004C200020144B5B6813F0020F1DD0124B46
:102E80005B6813F0010F08D00F4B104ADA60104A4C
:102E9000DA605B6813F0010F11D10B4B0D4A1A6118
:102EA000A2F1F342A2F51922A2F6A9121A615B68F7
:102EB00013F0020F05D10020704700207047012059
:102EC00070470120704700BF003C0240EFCDAB8946
:102ED00005040302BFAE9D8C034A536843F002030E
:102EE00053600020704700BF003C0240014B58690E
:102EF000704700BF4C20002038B50446FFF71AFB8E
:102F000005461B4B9B6913F0010F0AD0B4F1FF3F3C
:102F1000F7D024B1FFF70EFB401BA042F1D90320EC
:102F200025E0134B9B6913F0020F02D0104B0222D5
:102F30009A610F4B9B6913F4807F15D10C4B9B69F1
:102F400013F4006F10D10A4B9B6913F4805F0BD10F
:102F5000074B9B6913F4806F06D1054B9B6913F4F3
:102F6000007F01D1002002E0FFF740FF012038BDC3
:102F7000003C024038B50E4B1B7C012B16D00D4691
:102F800014460B4B01221A744CF25030FFF7B4FF79
:102F900018B1074B00221A7438BD054B00225A6144
:102FA0002C604CF25030FFF7A7FFF2E70220F3E766
:102FB0004C2000200021074B5961074B5A6842F40E
:102FC00000725A605A6842F008025A6020F0FF000E
:102FD000016070474C200020003C02401C4B1B7CD1
:102FE000012B31D070B505460E46194B01221A74DB
:102FF0004CF25030FFF780FF014600BB4FF0FF332B
:1030000033606C6801E004F58074AA686B6803EBB8
:103010000223A34213D92046FFF7CCFF4CF25030D5
:10302000FFF76AFF0B4B5A6822F008025A605A6891
:1030300022F400725A6001460028E4D03460044B48
:1030400000221A74084670BD02210846704700BF6E
:103050004C200020003C024070B582B0002365E0A7
:1030600085685E000324B44025EA0405CC68B440BA
:103070002C438460446824EA0C0C4C68C4F30014AC
:103080009C4044EA0C04446061E0DD08083550F8D7
:10309000256003F007044FEA840C0F2404FA0CF4B3
:1030A00026EA040E0C6904FA0CF444EA0E0440F813
:1030B000254063E0062400E0002404FA0EF42C43CB
:1030C0000CF1020C5A4D45F82C405A4CA568D443DB
:1030D00025EA0206D1F804C01CF4801F01D042EAA0
:1030E0000506544DAE60ED6804EA0506D1F804C04B
:1030F0001CF4001F01D042EA05064E4DEE606D68DB
:1031000004EA0506D1F804C01CF4003F01D042EAED
:103110000506484D6E602D682C404E6816F4803FC1
:1031200001D042EA0504434A146001330A6832FAC6
:1031300003F47BD04FF0010C0CFA03FC1CEA0202F2
:10314000F3D04C6804F00304013C012C88D94C688E
:1031500004F00304032C0CD0C4685D004FF0030C92
:103160000CFA05FC24EA0C0C8C68AC4044EA0C0414
:10317000C4604C6804F00304022C86D004684FEA53
:10318000430E4FF0030C0CFA0EFC24EA0C0C4C68B6
:1031900004F0030404FA0EF444EA0C0404604C68DE
:1031A00014F4403FC1D0244C256A45F00105256246
:1031B000246A04F001040194019C4FEA930C0CF181
:1031C00002051B4C54F8255003F003044FEA840E0B
:1031D0000F2404FA0EF425EA0405184CA0423FF42B
:1031E0006BAF04F58064A04216D004F58064A04261
:1031F00014D004F58064A04212D004F58064A0428B
:1032000010D004F58064A0420ED004F58064A04282
:103210003FF450AF072450E701244EE702244CE767
:1032200003244AE7042448E7052446E702B070BDBA
:10323000000001400004014000380240000002404C
:103240000AB18161704709048161704740B338B5A4
:10325000044603684CF6CC421A60036845F25552A6
:103260001A60036842685A60036882689A60FFF7D0
:1032700061F905462368DA6812F0030F0BD0FFF7F7
:1032800059F9401B2A28F5D92368DB6813F0030F8E
:10329000F0D0032003E04AF6AA221A60002038BDCD
:1032A0000120704710B483B01F4B9B6813F0F003EC
:1032B00028D11D4A526A12F0805F10D01B4A126852
:1032C00002F4C052B2F5C05F1DD1B0F5404F1AD123
:1032D000174A136843F004031360012313E01249F3
:1032E0004A6A42F080524A624A6A02F0805201926F
:1032F000019A0E4A126802F4C0524C6A24F08054BB
:103300004C62DFE700230A490A6822F001021A43EF
:103310000A600A6802F001029A4203D1002003B059
:1033200010BC70470120FAE70038024000700040EE
:10333000003C0240002800F05E82F0B583B00446F5
:10334000A24B9D6805F00C059E6806F48036036864
:1033500013F0010F1DD0082D12D00C2D0ED0636874
:10336000012B35D0002B49D1984B1A6822F48032BA
:103370001A601A6822F480221A602EE0002EEED025
:10338000924B1B6813F4003F03D06368002B00F0DE
:103390003482236813F0020F68D0042D55D00C2D11
:1033A00051D0E368002B00F0C780894B01221A60DE
:1033B000FFF7C0F80646854B1B6813F0020F40F07C
:1033C000B280FFF7B7F8801B0228F4D903201DE272
:1033D0007E4A136843F480331360636823B3FFF7B6
:1033E000A9F80746794B1B6813F4003FD1D1FFF7CA
:1033F000A1F8C01B6428F5D9032007E2052B09D0EA
:10340000724B1A6822F480321A601A6822F4802201
:103410001A60E2E76D4B1A6842F480221A601A685B
:1034200042F480321A60D8E7FFF784F80746674B0A
:103430001B6813F4003FACD0FFF77CF8C01B642876
:10344000F5D90320E2E1002EABD1604B1B6813F0ED
:10345000020F03D0E368012B40F0D1815B4A53682F
:1034600023F4F853216943EA01235360236813F0DE
:10347000100F3BD0002D40F08580544B1B6813F497
:10348000007F03D0A369002B00F0BB81206A4F4B63
:103490005B6803F46043984260D9FFF703FF00289C
:1034A00040F0B181494A536823F46043216A0B43D9
:1034B0005360536823F07F43E16943EA016353603B
:1034C000236A5B0B5A1C4FF4004393403F4A9268B7
:1034D000C2F303123F498A5CD3403F4A13603F4B1B
:1034E0001868FEF7B7FC002840F09081236813F0BD
:1034F000080F00F09B806369002B00F08480344B40
:103500000122C3F88026FFF715F806462F4B5B6BA8
:1035100013F0020F40F08A80FFF70CF8801B02289E
:10352000F4D9032072E1294A536823F4F85321693E
:1035300043EA0123536099E7254B00221A60FEF706
:10354000F9FF0646214B1B6813F0020F8ED0FEF7E1
:10355000F1FF801B0228F5D9032057E11B4A53686D
:1035600023F4604318435060536823F07F43E169BC
:1035700043EA01635360206AFFF794FE00289FD05E
:10358000012043E1A3695BB3114B01221A62FEF7EC
:10359000D1FF06460D4B1B6813F4007F06D1FEF7E2
:1035A000C9FF801B0228F5D903202FE1074A536881
:1035B00023F46043216A0B435360536823F07F4335
:1035C000E16943EA0163536090E700BF00380240BD
:1035D000000047425493000800000020080000202B
:1035E0008F4B00221A62FEF7A5FF06468D4B1B6823
:1035F00013F4007F3FF47AAFFEF79CFF801B022894
:10360000F4D9032002E1864B0022C3F88026FEF79E
:1036100091FF0646834B5B6B13F0020F06D0FEF75B
:1036200089FF801B0228F5D90320EFE0236813F0FF
:10363000040F79D07B4B5B6A13F0805F0BD1794B21
:103640005A6A42F080525A625B6A03F080530193D7
:10365000019B012600E00026734B1B6813F4807F5A
:103660000ED0A368012B1FD0002B35D16D4B5A6BA8
:1036700022F480725A635A6B22F480625A6318E013
:10368000694A136843F480731360FEF753FF0746DB
:10369000654B1B6813F4807FE3D1FEF74BFFC01B23
:1036A0006428F5D90320B1E05E4A536B43F480737C
:1036B0005363A36833B3FEF73DFF0746594B5B6B7B
:1036C00013F4007F2FD1FEF735FFC01B41F2883382
:1036D0009842F3D9032099E0052B09D0514B5A6B3E
:1036E00022F480725A635A6B22F480625A63E0E7D4
:1036F0004C4B5A6B42F480625A635A6B42F48072AC
:103700005A63D6E7FEF716FF0746464B5B6B13F48A
:10371000007F08D0FEF70EFFC01B41F288339842AD
:10372000F3D9032072E0C6B9636A002B6DD00C2D6B
:103730004CD0022B17D03A4B00221A66FEF7FAFE45
:103740000446384B1B6813F0007F3DD0FEF7F2FEB5
:10375000001B0228F5D9032058E0324A536A23F0AF
:1037600080535362E0E72E4B00221A66FEF7E2FE1A
:1037700005462C4B1B6813F0007F06D0FEF7DAFEDF
:10378000401B0228F5D9032040E026498B6823F42A
:103790007D03A26AE06A0243206B024313438B60FD
:1037A0001F4B01221A66FEF7C5FE04461D4B1B681F
:1037B00013F0007F06D1FEF7BDFE001B0228F5D9ED
:1037C000032023E0002021E000201FE0012B1FD078
:1037D000144B9B6803F48031A26A91421AD103F41E
:1037E0007012E16A8A4217D103F44003226B9342BC
:1037F00014D100200AE001207047012006E00120DA
:1038000004E0012002E0012000E0002003B0F0BD50
:103810000120FBE70120F9E70120F7E70120F5E7A8
:1038200000004742003802400070004008B52D4BB0
:103830009A6802F00C03082B4FD00C2B0AD0042BF3
:103840004ED0284B5868C0F34230431C4FF4004020
:10385000984046E0C2F38343234911F803C0C2F302
:10386000815201321F4B9B6813F4803F16D04FEA00
:10387000CC01B1EB0C0163EB03035B0143EAD163C1
:10388000490111EB0C0143F100034FEA034C002303
:1038900008044CEA1141FDF707FA22E04FEA4C1107
:1038A000B1EB0C006EEB0E0E4FEA8E1343EA906301
:1038B0008101091A63EB0E03DB0043EA5173C9006F
:1038C00011EB0C0C43F10003990200234FEA8C200A
:1038D00041EA9C51FDF7E8F903E04FF4610000E094
:1038E000024808BD003802406C9300080024F40030
:1038F000002800F0D98070B50C4605466E4B1B6859
:1039000003F001038B420DD2012928D06A4A1368C3
:1039100023F0010323431360136803F00103A34260
:1039200040F0C4802B6813F0020F06D0634A9368FE
:1039300023F0F003A9680B4393602B6813F0010F89
:1039400072D06B68022B10D0032B32D0012B37D0F2
:103950005A4A126812F4007F0DD101209DE0564AA8
:10396000136843F004031360D0E7544A126812F45A
:10397000003F00F09D8051498A6822F00302134302
:103980008B60FEF7D7FD06466B68022B1FD0032B1A
:103990002CD0012B39D0494B9B6813F00C0F43D02E
:1039A000FEF7C8FD801B41F288339842F3D903200B
:1039B00073E0424A126812F0007FDCD101206CE013
:1039C0003E4A126812F0020FD5D1012065E03B4B50
:1039D0009B6803F00C03082B26D0FEF7ABFD831B7E
:1039E00041F288329342F2D9032056E0334B9B6870
:1039F00003F00C030C2B17D0FEF79CFD801B41F24B
:103A000088339842F2D9032047E02C4B9B6803F09F
:103A10000C03042B08D0FEF78DFD801B41F2883388
:103A20009842F2D9032038E0234B1B6803F00103CE
:103A3000A3420CD9012C31D01F4A136823F0010393
:103A400023431360136803F00103A34232D12B68B0
:103A500013F0040F06D0194A936823F4E063E96871
:103A60000B4393602B6813F0080F07D0134A936839
:103A700023F46053296943EAC1039360FFF7D6FE3C
:103A80000E4B9B68C3F303130D4AD35CD8400D4B18
:103A900018600D4B1868FEF7DDF970BD064A136813
:103AA00043F004031360C7E7012070470120F4E7E7
:103AB0000120F2E70120F0E7003C0240003802401C
:103AC000549300080000002008000020014B1868F3
:103AD000704700BF0000002008B5FFF7F7FF044B58
:103AE0009B68C3F30223034AD35CD84008BD00BFE0
:103AF000003802406493000808B5FFF7E7FF044B65
:103B00009B68C3F3C223034AD35CD84008BD00BFFF
:103B100000380240649300080F2303600B4B9A683F
:103B200002F0030242609A6802F0F00282609A6832
:103B300002F4E062C2609B68DB0803F4E0630361A7
:103B4000034B1B6803F001030B6070470038024011
:103B5000003C02400368B0F1804F0ED01E4A9042F4
:103B60000BD002F58062904207D002F5806290424D
:103B700003D002F57C42904203D123F070034A68DF
:103B80001343B0F1804F16D0134A904213D002F580
:103B9000806290420FD002F5806290420BD002F515
:103BA0007C42904207D002F58062904203D002F539
:103BB0008062904203D123F44073CA68134323F018
:103BC00080030A69134303608B68C3620B688362D6
:103BD00001234361704700BF0004004010B4036A32
:103BE000046A24F001040462846924F0F00C4CEAB5
:103BF000021223F00A030B438261036210BC704778
:103C000010B4036A046A24F010040462846924F482
:103C1000704C4CEA023223F0A00343EA01138261A4
:103C2000036210BC7047836823F070030B4343F0BA
:103C300007038360704710B4846824F47F4C42EA21
:103C400003220A4342EA0C02826010BC704700B3B0
:103C500010B5044690F83930B3B1022384F83930F6
:103C6000214651F8040BFFF775FF012384F83E301D
:103C700084F83A3084F83B3084F83C3084F83D30A6
:103C800084F83930002010BD80F83830FEF724FA6F
:103C9000E3E701207047000090F83930DBB2012BD8
:103CA00027D1022380F839300268D36843F001033A
:103CB000D3600368B3F1804F10D0104A93420DD007
:103CC00002F58062934209D002F58032934205D01A
:103CD0001A6842F001021A60002070479A6802F0E8
:103CE0000702062A07D01A6842F001021A60002073
:103CF0007047012070470020704700BF000400405B
:103D00000268D36823F00103D3600368196A41F2A3
:103D10001112114203D11A6822F001021A60012324
:103D200080F839300020704790F83830012B78D077
:103D300010B50446012380F83830022380F839306A
:103D40000268936823F47F4323F0770393600B6842
:103D5000602B4CD029D8402B54D00CD9502B22D1D9
:103D6000CA6849680068FFF739FF50212068FFF7EB
:103D70005AFF002005E0202B0DD009D9302B0AD0A6
:103D80000120012384F83930002384F8383010BD35
:103D90000BB1102B05D119462068FFF744FF002016
:103DA000EFE70120EDE70120EBE7B3F5805F34D0CA
:103DB000B3F5005F0CD1CB684A6889680068FFF7EB
:103DC0003AFF2268936843F4804393600020D8E769
:103DD000702B24D1CB684A6889680068FFF72BFFF5
:103DE0002268936843F0770393600020C9E7CA68AC
:103DF00049680068FFF704FF60212068FFF713FFA0
:103E00000020BEE7CA6849680068FFF7E7FE402166
:103E10002068FFF708FF0020B3E70020B1E701208A
:103E2000AFE702207047704770477047704710B582
:103E3000044603681A6912F0020F11D0DA6812F012
:103E4000020F0DD06FF002021A610123037603689E
:103E50009B6913F0030F5ED0FFF7E6FF0023237684
:103E600023681A6912F0040F12D0DA6812F0040FF6
:103E70000ED06FF004021A610223237623689B6937
:103E800013F4407F4DD02046FFF7CEFF002323766A
:103E900023681A6912F0080F12D0DA6812F0080FBE
:103EA0000ED06FF008021A61042323762368DB69C1
:103EB00013F0030F3CD02046FFF7B6FF0023237614
:103EC00023681A6912F0100F12D0DA6812F0100F7E
:103ED0000ED06FF010021A61082323762368DB6985
:103EE00013F4407F2BD02046FFF79EFF002323765C
:103EF00023681A6912F0010F03D0DA6812F0010F7B
:103F000024D123681A6912F0400F03D0DA6812F046
:103F1000400F22D110BDFFF786FF2046FFF785FF37
:103F20009CE72046FFF77FFF2046FFF77EFFADE7C7
:103F30002046FFF778FF2046FFF777FFBEE72046D1
:103F4000FFF771FF2046FFF770FFCFE76FF0010228
:103F50001A612046FDF788FED3E76FF040021A6130
:103F60002046FFF763FFD5E790F83830012B2CD0BF
:103F700010B4012380F83830022380F83930036808
:103F80005A689C6822F0700C0A6842EA0C025A6077
:103F90000368B3F1804F0AD00D4A934207D002F56F
:103FA0008062934203D002F58032934204D124F020
:103FB00080044A6814439C60012380F83930002350
:103FC00080F83830184610BC70470220704700BF98
:103FD00000040040026802F10C0353E8003F23F0A4
:103FE000C0030C3242E800310029F3D1202380F8CD
:103FF00041307047026802F10C0353E8003F23F49C
:1040000090730C3242E800310029F3D1026802F1CA
:10401000140353E8003F23F00103143242E8003157
:104020000029F3D1036B012B05D0202380F8423007
:10403000002303637047026802F10C0353E8003F5A
:1040400023F010030C3242E800310029F3D1ECE7F1
:1040500090F84130DBB2212B01D0022070478368F9
:10406000B3F5805F17D0036A5A1C02621A7803689E
:104070005A60C38C9BB2013B9BB2C3844BB90268AC
:10408000D36823F08003D3600268D36843F0400311
:10409000D360002070470369002BE4D1036A1B88BA
:1040A0000268C3F308035360036A02330362E0E764
:1040B00038B504460268136923F44053C1680B43C2
:1040C000136183680269134342691343C2691A4347
:1040D0000168CB6823F4164323F00C031343CB6031
:1040E0000268536923F4407381690B43536102688A
:1040F000244B9A4223D0FFF7EFFCE369B3F5004F5E
:1041000020D000EB800202EB820260688000B2FBEC
:10411000F0F21D48A0FB02314909642303FB11237F
:104120001B013233A0FB03235B0903F0F00202EB17
:10413000011203F00F03216813448B6038BDFFF7B1
:10414000DBFCDAE700EB800000EB800063685B00DB
:10415000B0FBF3F00C4DA5FB00325109642303FBC7
:104160001103DB003233A5FB03235B095A0002F481
:10417000F87202EB011203F00703216813448B600D
:10418000DCE700BF003801401F85EB512DE9F84303
:1041900005460F4616469946DDF820802C682468AF
:1041A00037EA04030CBF4FF0010C4FF0000CB4458C
:1041B0002DD1B8F1FF3FF1D0B8F1000F05D0FEF7D7
:1041C000B9F9A0EB09004045E8D92A6802F10C03CF
:1041D00053E8003F23F4D0730C3242E80031002949
:1041E000F3D12A6802F1140353E8003F23F00103DE
:1041F000143242E800310029F3D1202385F8413000
:1042000085F84230002385F84030032000E000208C
:10421000BDE8F88360B310B5044690F8413013B39D
:10422000242384F841302268D36823F40053D360F8
:104230002046FFF73DFF2268136923F49043136182
:104240002268536923F02A0353612268D36843F438
:104250000053D36000206064202384F8413084F848
:104260004230606310BD80F84030FDF7A1FFD7E712
:10427000012070472DE9F04182B01E4690F8413090
:10428000DBB2202B4BD104460D46904600294AD084
:104290000AB9012044E000234364212380F841301F
:1042A000FEF748F90746A4F82480A4F82680A368FE
:1042B000B3F5805F02D04FF000080FE02369FBB137
:1042C0004FF000080AE038F8023B2268C3F3080305
:1042D0005360E28C92B2013A92B2E284E38C9BB2D8
:1042E0008BB100963B46002280212046FFF74EFF0F
:1042F000D8B9002DE7D015F8012B23685A60E8E7FC
:10430000A8460025EAE700963B46002240212046C9
:10431000FFF73CFF58B9202384F8413000E0022029
:1043200002B0BDE8F0810120FAE70320F8E703209E
:10433000F6E7000038B590F84130DBB2202B30D1E1
:10434000044600292FD00AB9012038BD01628284B9
:10435000C28400234364212084F84100A06B134DE4
:104360008562A06B124DC562A06B124D0563A06BF8
:10437000436320681346021DA06BFEF74DFC2368C3
:104380006FF040021A60226802F1140353E8003F04
:1043900043F08003143242E800310029F3D10020B9
:1043A000D3E70220D1E70120CFE700BFBB430008DD
:1043B0002344000833440008704708B50346406AA8
:1043C0001B681B6813F0200F1AD10023C3840268F6
:1043D00002F1140353E8003F23F08003143242E853
:1043E00000310029F3D1026802F10C0353E8003FC9
:1043F00043F040030C3242E800310029F3D108BDFC
:10440000FFF7DAFFFBE708B50168CA6822F040024F
:10441000CA60202280F84120FFF7CEFF002008BDAF
:10442000704708B5406AFFF7FBFF08BD704770474B
:10443000704710B5446A23685A6994F84130DBB27A
:10444000212B10D023685A6902F0400294F84230C0
:10445000DBB2222B11D0636C43F01003636420465F
:10446000FFF7E6FF10BD02F08002002AEAD0002329
:10447000E3842046FFF7AEFDE4E7002AEBD00023FB
:10448000E3852046FFF7B6FDE5E708B5406A00235F
:10449000C385C384FFF7CCFF08BD90F84230DBB280
:1044A000222B69D18368B3F5805F4FD0826AB3F560
:1044B000805F04D0002B56D10369002B53D10368D1
:1044C0005B681370836A01338362C38D9BB2013BC7
:1044D0009BB2C385002B51D100B583B00268D3686D
:1044E00023F02003D3600268D36823F48073D36081
:1044F0000268536923F001035361202380F842309E
:1045000000234363036B012B33D100230363026851
:1045100002F10C0353E8003F23F010030C3242E891
:1045200000310029F3D103681A6812F0100F06D089
:10453000002201921A6801925B680193019B818DB0
:1045400002F0F2F9002003B05DF804FB0269002AD2
:10455000ACD1826A03685B68C3F308031380836A83
:1045600002338362B1E703685B6803F07F03137073
:10457000A8E7FFF75BFFE5E70220704700207047E0
:1045800030B583B0044602681368D068516913F0EF
:104590000F0505D113F0200F02D010F0200F19D114
:1045A0002DB111F0010119D110F4907F16D1216BBA
:1045B00001297DD013F0800F03D010F0800F40F060
:1045C000188113F0400F03D010F0400F40F0158118
:1045D00003B030BD2046FFF760FFF9E713F0010F8D
:1045E00006D010F4807F03D0626C42F00102626456
:1045F00013F0040F04D019B1626C42F0020262643D
:1046000013F0020F04D019B1626C42F0040262642C
:1046100013F0080F07D010F0200F00D119B1626C11
:1046200042F008026264626C002AD1D013F0200FBD
:1046300002D010F0200F29D123685B6903F04003FA
:10464000626C12F0080F00D163B32046FFF7D2FC72
:1046500023685B6913F0400F20D0226802F1140335
:1046600053E8003F23F04003143242E800310029B0
:10467000F3D1E36B73B1634A5A63E06BFEF72CFB33
:104680000028A5D0E06B436B9847A1E72046FFF7D1
:1046900004FFD1E72046FFF7CBFE99E72046FFF75E
:1046A000C7FE95E72046FFF7C3FE002363648FE74C
:1046B00013F0100F3FF47EAF10F0100F3FF47AAFFD
:1046C000002301931368019353680193019B53697D
:1046D00013F0400F51D0E26B13685B689BB2002B64
:1046E0003FF476AFA18D99427FF672AFE38593696F
:1046F000202B37D0226802F10C0353E8003F23F44B
:1047000080730C3242E800310029F3D1226802F1B3
:10471000140353E8003F23F00103143242E8003150
:104720000029F3D1226802F1140353E8003F23F07B
:104730004003143242E800310029F3D1202384F8E9
:10474000423000232363226802F10C0353E8003F48
:1047500023F010030C3242E800310029F3D1E06B62
:10476000FEF795FA02236363A18DE38D9BB2C91A0C
:1047700089B2204602F0D8F82AE7A18DE38D9BB2DA
:10478000C91A89B2E38D9BB2002B3FF421AF0029F7
:104790003FF41EAF226802F10C0353E8003F23F4FC
:1047A00090730C3242E800300028F3D1226802F105
:1047B000140353E8003F23F00103143242E80030B1
:1047C0000028F3D1202384F8423000232363226899
:1047D00002F10C0353E8003F23F010030C3242E8CF
:1047E00000300028F3D102236363204602F09CF8D6
:1047F000EEE62046FFF72CFCEAE62046FFF703FE34
:10480000E6E600BF8B44000808B5406A0123436315
:10481000036B012B02D0FFF70AFE08BD818D49080A
:1048200002F082F8F9E708B50346406A1B681B6886
:1048300013F0200F2BD10023C385026802F10C0373
:1048400053E8003F23F480730C3242E80031002922
:10485000F3D1026802F1140353E8003F23F001038F
:10486000143242E800310029F3D1026802F1140346
:1048700053E8003F23F04003143242E8003100299E
:10488000F3D1202380F84230036B012B07D00023A3
:104890004363036B012B0FD0FFF7C8FD08BD02680F
:1048A00002F10C0353E8003F23F010030C3242E8FE
:1048B00000310029F3D1EAE7818D02F035F8EDE708
:1048C00030B583B004461346816282850025456475
:1048D000222280F84220C26B1F489062E26B1F4880
:1048E000D062E26B1E481063E26B556320680A4693
:1048F000011DE06BFEF790F9019523681A6801929B
:104900005B680193019B23695BB1226802F10C0390
:1049100053E8003F43F480730C3242E80031002931
:10492000F3D1226802F1140353E8003F43F001037E
:10493000143242E800310029F3D1226802F1140355
:1049400053E8003F43F04003143242E800310029AD
:10495000F3D1002003B030BD274800080948000803
:104960003344000890F84230DBB2202B29D110B537
:1049700082B0044639B312B9012002B010BD012340
:10498000036300234363FFF79BFF0028F5D1236BEC
:10499000012B01D00120F0E70023019323681A685E
:1049A00001925B680193019B226802F10C0353E8BA
:1049B000003F43F010030C3242E800310029F3D1EC
:1049C000DBE7022070470120D7E70000EFF3058303
:1049D00093B9EFF3108393B90C4B1868022804D0F5
:1049E00080B90A4B01221A607047EFF31183002B44
:1049F000F6D06FF0050070476FF0050070476FF05C
:104A0000050070474FF0FF30704700BFC022002004
:104A100008B5EFF30583B3B9EFF31083B3B90E4BC9
:104A20001B68022B08D0012B13D10B4B02221A60FA
:104A300001F0F6F8002008BDEFF31182002AF2D051
:104A40006FF00500F7E76FF00500F4E76FF0050081
:104A5000F1E74FF0FF30EEE7C0220020F0B587B05D
:104A600000240494EFF30584002C43D1EFF310836A
:104A7000002B3FD1334B1B68022B16D0002839D0B6
:104A800000238DF8173062B3156895B1936903B9A7
:104A900018235C1E372C51D8546814F0010F4FD1E5
:104AA00056694EB14FEA960C08E0EFF311830BBB49
:104AB000E4E70DF11705E9E74FF0800C94682CB19D
:104AC000D7685B2F02D9176907B1B6B914B14FF097
:104AD000FF340CE0D46894B914699CB14FF0FF34F2
:104AE00005E0002418234FF0800C0DF11705012C70
:104AF0000AD0ACB1049807B0F0BD0124F7E74FF03D
:104B0000FF34F4E70024F2E71469926802920194FA
:104B100000930B466246294601F014F80490E9E739
:104B200004AA019200930B461FFA8CF2294601F069
:104B300043F80128DED000230493DBE70020DAE706
:104B40000020D8E7C022002008B5EFF30583A3B901
:104B5000EFF31083A3B90C4B1B68022B02D040B9B2
:104B6000002008BDEFF31183002BF8D06FF0050093
:104B7000F7E701F0B9F90020F3E76FF00500F0E77F
:104B80006FF00500EDE700BFC0220020034B03607B
:104B9000034B0B6080231360704700BF642200202A
:104BA00064200020034B0360034B0B604FF48073C1
:104BB00013607047C4260020C422002000F10803BF
:104BC00043604FF0FF328260C360036100230360E3
:104BD000704700230361704743684B609A688A609E
:104BE000516099600861036801330360704730B415
:104BF0000D68B5F1FF3F11D000F108031C465B685A
:104C00001A68AA42FAD963684B6099608C60616047
:104C1000086103680133036030BC70470469F2E740
:104C20000369416882688A60416851605A688242BB
:104C300006D0002202611A68013A1A6018687047AB
:104C400082685A60F5E7000082B0002301930D4BA3
:104C50001B68B3F1FF3F08D04FF0500383F3118876
:104C6000BFF36F8FBFF34F8FFEE74FF0500383F317
:104C70001188BFF36F8FBFF34F8F019B002BFCD0C8
:104C800002B070470C00002006480068006880F3FE
:104C9000088862B661B6BFF34F8FBFF36F8F00DF36
:104CA00000BF000008ED00E04FF0807340F8043CC6
:104CB00021F0010140F8081C034B40F80C3C40F87F
:104CC000202C4038704700BF494C0008000000000D
:104CD000074B19680868B0E8F00F80F30988BFF344
:104CE0006F8F4FF0000080F311884EF00D0E70476B
:104CF0005C2D00204FF0500383F31188BFF36F8FBA
:104D0000BFF34F8F0B4A136801331360012B00D0A0
:104D100070474FF0E023D3F8043D13F0FF0FF7D0B6
:104D20004FF0500383F31188BFF36F8FBFF34F8FA2
:104D3000FEE700BF0C000020094B1B6843B94FF091
:104D4000500383F31188BFF36F8FBFF34F8FFEE7DC
:104D5000013B034A13600BB983F31188704700BF0E
:104D60000C00002000000000000000000000000017
:104D7000EFF30980BFF36F8F0D4B1A6820E9F00F36
:104D800010602DE908404FF0500080F3118801F0C9
:104D9000D1F84FF0000080F31188BDE80840196891
:104DA0000868B0E8F00F80F30988BFF36F8F704791
:104DB0005C2D002008B54FF0500383F31188BFF33A
:104DC0006F8FBFF34F8F00F087FF28B14FF0E023C4
:104DD0004FF08052C3F8042D002383F3118808BDDF
:104DE0004FF0E022002313619361054B1B680549D6
:104DF000A1FB03139B09013B536107231361704718
:104E000000000020D34D621010B582B02A4B1A78F2
:104E1000D2B20192FF221A701B78DBB28DF80330F8
:104E20009DF8033003F05003244A1370244B0722EB
:104E30001A6009E0224A1368013B13609DF80330B1
:104E40005B00DBB28DF803309DF8033013F0800F68
:104E5000F0D11B4B1B68032B08D04FF0500383F39A
:104E60001188BFF36F8FBFF34F8FFEE71B02144A09
:104E7000136003F4E0631360019BDBB20E4A13700E
:104E80004FF0E023D3F8202D42F47002C3F8202D18
:104E9000D3F8202D42F07042C3F8202DFFF7A0FF79
:104EA0000024084B1C60FFF7EFFE01F043F8FFF70A
:104EB000CBFE204602B010BD00E400E02027002019
:104EC000242700200C000020EFF305830F2B0FD9BF
:104ED000114A9B5CDBB2114A12789A4208D94FF012
:104EE000500383F31188BFF36F8FBFF34F8FFEE73B
:104EF0004FF0E023D3F80C3D03F4E063084A126856
:104F0000934208D94FF0500383F31188BFF36F8F9A
:104F1000BFF34F8FFEE77047F0E300E0202700204B
:104F200024270020134A12F0070F1FD0D11D21F0B3
:104F30000701C1F5BB63043313440A460E480260FF
:104F4000002141601344083B23F007030B48036032
:104F500059601960991A51601360094B1960094B27
:104F60001960094B4FF000421A60704740F2DC5361
:104F7000E4E700BF2C270020142D00202827002064
:104F8000102D00200C2D0020082D0020154B1A4656
:104F90001B688342FBD3516802EB010C844509D0A6
:104FA000416800EB010C634509D00360904218D0C2
:104FB000106070474068014451601046F0E710B43B
:104FC000094C2468A3420AD05B6819444160136805
:104FD0001B680360904200D0106010BC70470460F2
:104FE000F8E77047142D00202827002070B50546EB
:104FF00000F064FE344B1B68A3B1344B1B681D42A8
:105000004AD135B1083515F0070F02D025F0070554
:105010000835002D42D02E4B1B68AB424DD32D4A94
:10502000146804E0FFF77EFFE7E722461C4663684A
:10503000AB4202D22368002BF7D1234B1B68A3425B
:105040003DD0166808362368136063685B1B102B1D
:1050500010D9601910F0070F08D04FF0500383F3F8
:105060001188BFF36F8FBFF34F8FFEE7436065601A
:10507000FFF78CFF626816490B689B1A0B60164994
:1050800009688B4201D214490B60104B1B68134313
:1050900063600023236002E0002600E0002600F0A9
:1050A000A7FE16F0070F0CD04FF0500383F31188C2
:1050B000BFF36F8FBFF34F8FFEE70026EFE70026A9
:1050C000EDE7304670BD00BF28270020082D0020E6
:1050D0000C2D0020142D0020102D002080B338B599
:1050E0000446A0F1080550F8043C164A1268134221
:1050F00008D14FF0500383F31188BFF36F8FBFF3D4
:105100004F8FFEE750F8081C41B14FF0500383F376
:105110001188BFF36F8FBFF34F8FFEE723EA0203BF
:1051200040F8043C00F0CAFD54F8041C064A136819
:105130000B4413602846FFF729FF00F059FE38BDE5
:10514000704700BF082D00200C2D002010B504462C
:10515000FFF7D0FDA26BE36B9A4204D00024FFF767
:10516000EBFD204610BD0124F9E710B50446FFF71A
:10517000C1FDA36B23B90124FFF7DEFD204610BD5E
:105180000024F9E770B504461546866B026C5AB9DF
:1051900003681BB100200136A66370BD406800F0B3
:1051A000F1FF00236360F6E76DB98068FBF700FF4D
:1051B000226CA3681344A3606268934219D32368E6
:1051C000A3602846E7E7C068FBF7F2FE226C514275
:1051D000E3689B1AE3602268934202D263680B443F
:1051E000E360022D01D00020D5E726B1013E00206A
:1051F000D1E72846CFE70020CDE708B50346026C8B
:1052000062B10846D9681144D960D3F804C0614539
:1052100001D31968D960D968FBF7CAFE08BD38B553
:105220000546FFF767FD95F8454064B201E0013C93
:1052300064B2002C0ADD6B6A43B105F1240000F072
:10524000F7FE0028F3D000F087FFF0E7FF2385F892
:105250004530FFF771FDFFF74DFD95F8444064B20E
:1052600001E0013C64B2002C0ADD2B6943B105F179
:10527000100000F0DDFE0028F3D000F06DFFF0E735
:10528000FF2385F84430FFF757FD38BD38B5E0B14E
:105290000D460446FFF72EFD2368E26B216C01FBEF
:1052A000023060600020A063A360013A02FB01337A
:1052B000E360FF2384F8443084F84530FDB9236966
:1052C00063B9FFF739FD012038BD4FF0500383F378
:1052D0001188BFF36F8FBFF34F8FFEE704F110000B
:1052E00000F0A6FE0028ECD04FF0E0234FF08052F3
:1052F000C3F8042DBFF34F8FBFF36F8FE1E704F1C5
:105300001000FFF75BFC04F12400FFF757FCD8E71F
:1053100038B51D46049C0B4649B92460E0632364FC
:1053200001212046FFF7B2FF84F84C5038BD2260BF
:10533000F4E740B94FF0500383F31188BFF36F8F48
:10534000BFF34F8FFEE710B584B01C46844653B1BF
:1053500092B189B94FF0500383F31188BFF36F8F77
:10536000BFF34F8FFEE74FF0500383F31188BFF375
:105370006F8FBFF34F8FFEE76AB150230393039BF8
:10538000502B13D04FF0500383F31188BFF36F8F6E
:10539000BFF34F8FFEE70029EFD04FF0500383F3A8
:1053A0001188BFF36F8FBFF34F8FFEE7012384F89F
:1053B000463000949DF818306046FFF7A9FF20465C
:1053C00004B010BD40B94FF0500383F31188BFF310
:1053D0006F8FBFF34F8FFEE7F0B583B00C461546D5
:1053E0000746A1B101FB00F05030FFF7FFFD064674
:1053F00050B1002380F8463000902B4600F1500257
:1054000021463846FFF784FF304603B0F0BD08461A
:10541000EAE7F0B585B0019288B10F461D46044613
:10542000B1B1022D20D1E36B012B1DD04FF0500301
:1054300083F31188BFF36F8FBFF34F8FFEE74FF0F9
:10544000500383F31188BFF36F8FBFF34F8FFEE7D5
:10545000036C002BE5D04FF0500383F31188BFF3AA
:105460006F8FBFF34F8FFEE700F07CFE064658B902
:10547000019B002B48D04FF0500383F31188BFF3FA
:105480006F8FBFF34F8FFEE700263DE02A46394677
:105490002046FFF777FE636A7BB948B14FF0E023FF
:1054A0004FF08052C3F8042DBFF34F8FBFF36F8FBF
:1054B000FFF742FC012005B0F0BD04F1240000F02C
:1054C000B7FD0028F4D04FF0E0234FF08052C3F82E
:1054D000042DBFF34F8FBFF36F8FE9E7FFF72CFC6D
:1054E0000020E8E702A800F0E9FD012619E000230A
:1054F00084F8443021E0002384F8453023E020463E
:10550000FFF78DFE00F074FCFFF7F4FBA26BE36B7A
:105510009A42BBD3022DB9D0019B002BDED0002EC6
:10552000E0D0FFF709FC00F0C9FBFFF7E3FB94F8BC
:10553000442052B2B2F1FF3FD9D094F8452052B284
:10554000B2F1FF3FD7D0FFF7F7FB01A902A800F0A7
:10555000C1FDD8B92046FFF7F9FD0028CFD0019949
:1055600004F1100000F030FD2046FFF758FE00F077
:105570003FFC0028C8D14FF0E0234FF08052C3F821
:10558000042DBFF34F8FBFF36F8FBDE72046FFF7AA
:1055900046FE00F02DFC00208DE72DE9F84390B188
:1055A0000F4616461C460546B1B1022C20D1EB6BC6
:1055B000012B1DD04FF0500383F31188BFF36F8F81
:1055C000BFF34F8FFEE74FF0500383F31188BFF313
:1055D0006F8FBFF34F8FFEE7036C002BE5D04FF0CA
:1055E000500383F31188BFF36F8FBFF34F8FFEE734
:1055F000FFF76AFCEFF311894FF0500383F3118832
:10560000BFF36F8FBFF34F8FAA6BEB6B9A4206D33A
:10561000022C04D0002089F31188BDE8F88395F8A6
:1056200045804FFA88F8224639462846FFF7AAFDFA
:10563000B8F1FF3F06D008F101035BB285F84530B1
:105640000120E8E76B6A0BB90120E4E705F12400CB
:1056500000F0EEFC18B126B101203060DBE701203C
:10566000D9E70120D7E7F0B585B0019290B10F4698
:105670000446C1B100F076FD064600BB019B002B3D
:105680005ED04FF0500383F31188BFF36F8FBFF3E9
:105690004F8FFEE74FF0500383F31188BFF36F8FF6
:1056A000BFF34F8FFEE7036C002BE3D04FF05003A6
:1056B00083F31188BFF36F8FBFF34F8FFEE7002690
:1056C0003EE039462046FFF798FD013DA56323697A
:1056D00023B9FFF731FB012005B0F0BD04F1100044
:1056E00000F0A6FC0028F4D04FF0E0234FF08052E9
:1056F000C3F8042DBFF34F8FBFF36F8FE9E7FFF7B8
:105700001BFB0020E8E702A800F0D8FC012621E0FE
:10571000002384F8443029E0002384F845302BE04E
:105720002046FFF77CFD00F063FB09E02046FFF711
:1057300076FD00F05DFB2046FFF717FD00283FD106
:10574000FFF7D8FAA56B002DBBD1019B002BD6D05B
:10575000002ED8D0FFF7F0FA00F0B0FAFFF7CAFA3F
:1057600094F844305BB2B3F1FF3FD1D094F84530A8
:105770005BB2B3F1FF3FCFD0FFF7DEFA01A902A879
:1057800000F0A8FC0028D1D12046FFF7EEFC00284D
:10579000C6D0019904F1240000F016FC2046FFF762
:1057A0003EFD00F025FB0028CAD14FF0E0234FF06A
:1057B0008052C3F8042DBFF34F8FBFF36F8FBFE745
:1057C000002089E70023072B0CD8074A52F8332022
:1057D0000AB10133F7E7044A42F8331002EBC3037E
:1057E00058607047704700BF1C2D002070B50446FC
:1057F0000D461646FFF77EFA94F844305BB2B3F1DB
:10580000FF3F0DD094F845305BB2B3F1FF3F0BD0B2
:10581000FFF792FAA36B5BB12046FFF700FD70BD66
:10582000002384F84430EDE7002384F84530EFE7A7
:105830003246294604F1240000F0DEFBECE70000CC
:10584000084B1B681B6823B9074B4FF0FF321A60E7
:105850007047044B1B68DB68DB685A68024B1A60B0
:10586000704700BF602D00200C3200202DE9F0476A
:1058700080460D4617469946089EDDF824A00A9CEE
:105880009200A521206B01F0EDFF236B07F1804210
:10589000013A03EB820727F007074FF0000CBCF139
:1058A0000F0F0BD815F80C2004EB0C0383F83420F1
:1058B00015F80C3013B10CF1010CF0E7002384F85B
:1058C0004330372E00D93726E662E6640025256589
:1058D000201DFFF77EF904F11800FFF77AF9246123
:1058E000C6F13806A6616462656584F858504A4678
:1058F00041463846FFF7D8F92060BAF1000F01D0D1
:10590000CAF80040BDE8F08738B5002407E004EB92
:10591000840293000E481844FFF750F90134372CE5
:10592000F5D90C4D2846FFF749F90B4C2046FFF7F7
:1059300045F90A48FFF742F90948FFF73FF90948D6
:10594000FFF73CF9084B1D60084B1C6038BD00BFD9
:10595000682D0020E0310020F431002014320020B6
:10596000403200202C320020602D0020642D0020C9
:1059700010B50446FFF7BEF9224A136801331360DD
:10598000214B1B685BB1214B1B686BB91E4B1B681D
:10599000DA6AE36A9A4207D81B4B1C6004E01A4B90
:1059A0001C601368012B29D0194A13680133136056
:1059B0006364E06A174B1B68984201D9154B186065
:1059C00000EB8000211D144B03EB8000FFF704F96E
:1059D000FFF7B2F90D4B1B687BB10B4B1B68DA6A02
:1059E000E36A9A4209D24FF0E0234FF08052C3F8A5
:1059F000042DBFF34F8FBFF36F8F10BDFFF784FFF0
:105A0000D2E700BFC83100205C2D002028320020E2
:105A1000D8310020DC310020682D002010B504466C
:105A200090F8593063B1012B11D0022B0ED04FF0FA
:105A3000500383F31188BFF36F8FBFF34F8FFEE7DF
:105A4000006BFFF74BFB2046FFF748FB10BDFFF74D
:105A500045FBFBE70F4B1B68D3B110B5FFF74AF9C5
:105A60000D4BDB68DC68201DFFF7DAF80B4A136882
:105A7000013B1360074A1368013B1360FFF75CF9B1
:105A80002046FFF7CBFF034B1B68002BE6D110BD70
:105A9000704700BFCC31002040320020C8310020C8
:105AA00008B5FFF7D7FF074B1B68012BF9D94FF05B
:105AB000E0234FF08052C3F8042DBFF34F8FBFF3A4
:105AC0006F8FEEE7682D002070B504460D46174B2A
:105AD0001E68174B18680430FFF7A2F8B4F1FF3FB7
