:020000040800F2
:1000000000C00020811B0008ED160008EF16000854
:10001000F1160008F3160008F516000800000000AD
:10002000000000000000000000000000F7160008BB
:10003000F916000800000000FB160008FD16000875
:10004000C91B0008C91B0008C91B0008C91B000800
:10005000C91B0008C91B0008C91B0008C91B0008F0
:10006000C91B0008C91B0008C91B000805170008A8
:10007000C91B0008C91B0008C91B0008C91B0008D0
:10008000C91B0008C91B0008C91B0008C91B0008C0
:10009000C91B0008C91B0008C91B0008C91B0008B0
:1000A00000000000C91B0008C91B0008C91B00088C
:1000B0001517000825170008C91B0008C91B0008F0
:1000C000C91B0008C91B0008C91B0008C91B000880
:1000D000C91B0008C91B0008351700084517000890
:1000E000C91B0008C91B0008C91B0008C91B000860
:1000F000C91B0008C91B0008C91B0008C91B000850
:10010000C91B000855170008C91B0008C91B0008B7
:10011000C91B0008C91B0008C91B0008000000001B
:10012000C91B0008000000000000000000000000E3
:0C01300000000000000000005FF808F173
:1001400010B5054C237833B9044B13B10448AFF311
:1001500000800123237010BD5C0800200000000017
:10016000C86A000808B5034B1BB103490348AFF345
:10017000008008BD0000000060080020C86A000878
:1001800070B54FF0FF0C4CF4E06C1CEA11541DBF2D
:100190001CEA135594EA0C0F95EA0C0F00F0DEF8F8
:1001A0002C4481EA030621EA4C5123EA4C5350EADD
:1001B000013518BF52EA033541F4801143F480132E
:1001C00038D0A0FB02CE4FF00005E1FB02E506F0BF
:1001D0000042E0FB03E54FF00006E1FB03569CF014
:1001E000000F18BF4EF0010EA4F1FF04B6F5007F1A
:1001F00064F5407404D25FEA4E0E6D4146EB06068C
:1002000042EAC62141EA55514FEAC52040EA5E5014
:100210004FEACE2EB4F1FD0C88BFBCF5E06F1ED8BE
:10022000BEF1004F08BF5FEA500E50F1000041EBF5
:10023000045170BD06F0004646EA010140EA0200A2
:1002400081EA0301B4EB5C04C2BFD4EB0C0541EAC4
:10025000045170BD41F480114FF0000E013C00F3D9
:10026000AB8014F1360FDEBF002001F0004170BDFD
:10027000C4F10004203C35DA0C341BDC04F1140416
:10028000C4F1200500FA05F320FA04F001FA05F2A2
:1002900040EA020001F0004221F0004110EBD3706F
:1002A00021FA04F642EB06015EEA430E08BF20EA9B
:1002B000D37070BDC4F10C04C4F1200500FA04F33E
:1002C00020FA05F001FA04F240EA020001F00041D0
:1002D00010EBD37041F100015EEA430E08BF20EA43
:1002E000D37070BDC4F1200500FA05F24EEA020E8B
:1002F00020FA04F301FA05F243EA020321FA04F0BA
:1003000001F0004121FA04F220EA020000EBD37070
:100310005EEA430E08BF20EAD37070BD94F0000F70
:100320000FD101F00046400041EB010111F4801FA4
:1003300008BF013CF7D041EA060195F0000F18BF55
:10034000704703F00046520043EB030313F4801F91
:1003500008BF013DF7D043EA0603704794EA0C0F4B
:100360000CEA135518BF95EA0C0F0CD050EA410661
:1003700018BF52EA4306D1D181EA030101F00041DE
:100380004FF0000070BD50EA410606BF1046194606
:1003900052EA430619D094EA0C0F02D150EA013612
:1003A00013D195EA0C0F05D152EA03361CBF104653
:1003B00019460AD181EA030101F0004141F0FE41F2
:1003C00041F470014FF0000070BD41F0FE4141F476
:1003D000780170BD81F0004102E000BF83F000436E
:1003E00030B54FEA41044FEA430594EA050F08BFD0
:1003F00090EA020F1FBF54EA000C55EA020C7FEA94
:10040000645C7FEA655C00F0E2804FEA5454D4EB10
:100410005555B8BF6D420CDD2C4480EA020281EADA
:10042000030382EA000083EA010180EA020281EA12
:100430000303362D88BF30BD11F0004F4FEA013164
:100440004FF4801C4CEA113102D0404261EB410173
:1004500013F0004F4FEA03334CEA133302D05242F9
:1004600063EB430394EA050F00F0A780A4F10104B5
:10047000D5F1200E0DDB02FA0EFC22FA05F28018EF
:1004800041F1000103FA0EF2801843FA05F35941D5
:100490000EE0A5F120050EF1200E012A03FA0EFC54
:1004A00028BF4CF0020C43FA05F3C01851EBE3717E
:1004B00001F0004507D54FF0000EDCF1000C7EEB9B
:1004C00000006EEB0101B1F5801F1BD3B1F5001FD9
:1004D0000CD349085FEA30004FEA3C0C04F10104F8
:1004E0004FEA445212F5800F80F09A80BCF1004F21
:1004F00008BF5FEA500C50F1000041EB045141EAA3
:10050000050130BD5FEA4C0C404141EB0101013C6B
:1005100028BFB1F5801FE9D291F0000F04BF01465A
:100520000020B1FA81F308BF2033A3F10B03B3F12C
:1005300020020CDA0C3208DD02F1140CC2F10C02BC
:1005400001FA0CF021FA02F10CE002F11402D8BF1A
:10055000C2F1200C01FA02F120FA0CFCDCBF41EAE6
:100560000C019040E41AA2BF01EB0451294330BDB5
:100570006FEA04041F3C1CDA0C340EDC04F1140492
:10058000C4F1200220FA04F001FA02F340EA030069
:1005900021FA04F345EA030130BDC4F10C04C4F1AF
:1005A000200220FA02F001FA04F340EA030029468F
:1005B00030BD21FA04F0294630BD94F0000F83F4D9
:1005C000801306BF81F480110134013D4EE77FEABC
:1005D000645C18BF7FEA655C29D094EA050F08BF08
:1005E00090EA020F05D054EA000C04BF19461046E9
:1005F00030BD91EA030F1EBF0021002030BD5FEA2D
:10060000545C05D14000494128BF41F0004130BD54
:1006100014F580043CBF01F5801130BD01F00045A8
:1006200045F0FE4141F470014FF0000030BD7FEA1B
:10063000645C1ABF194610467FEA655C1CBF0B4616
:10064000024650EA013406BF52EA033591EA030F2D
:1006500041F4002130BD00BF90F0000F04BF002125
:10066000704730B54FF4806404F132044FF0000558
:100670004FF0000150E700BF90F0000F04BF0021D1
:10068000704730B54FF4806404F1320410F0004537
:1006900048BF40424FF000013EE700BF42004FEA32
:1006A000E2014FEA31014FEA02701FBF12F07F43AF
:1006B00093F07F4F81F06051704732F07F4208BF66
:1006C000704793F07F4F04BF41F40021704730B56D
:1006D0004FF4607401F0004521F000411CE700BFB9
:1006E00050EA010208BF704730B54FF000050AE03C
:1006F00050EA010208BF704730B511F0004502D53D
:10070000404261EB41014FF4806404F132045FEA3E
:10071000915C3FF4D8AE4FF003025FEADC0C18BFE7
:1007200003325FEADC0C18BF033202EBDC02C2F1D9
:10073000200300FA03FC20FA02F001FA03FE40EA6B
:100740000E0021FA02F11444BDE600BF4FEA410257
:10075000B2F1E04324BFB3F5001CDCF1FE5C0DD91F
:1007600001F0004C4FEAC0024CEA5070B2F1004F69
:1007700040EB830008BF20F00100704711F0804F6C
:1007800021D113F13872BCBF01F00040704741F431
:1007900080114FEA5252C2F11802C2F1200C10FA35
:1007A0000CF320FA02F018BF40F001004FEAC12319
:1007B0004FEAD32303FA0CFC40EA0C0023FA02F3BD
:1007C0004FEA4303CCE77FEA625307D150EA013393
:1007D0001EBF4FF0FE4040F44000704701F0004063
:1007E00040F0FE4040F40000704700BF80F0004041
:1007F00002E000BF81F0004142001FBF5FEA4103F9
:1008000092EA030F7FEA226C7FEA236C6AD04FEAF8
:100810001262D2EB1363C1BFD2184140484041403D
:10082000B8BF5B42192B88BF704710F0004F40F4EF
:10083000000020F07F4018BF404211F0004F41F40B
:10084000000121F07F4118BF494292EA030F3FD0D7
:10085000A2F1010241FA03FC10EB0C00C3F12003EA
:1008600001FA03F100F0004302D5494260EB400079
:10087000B0F5000F13D3B0F1807F06D340084FEAE4
:10088000310102F10102FE2A51D2B1F1004F40EBD9
:10089000C25008BF20F0010040EA03007047490041
:1008A00040EB0000013A28BFB0F5000FEDD2B0FADE
:1008B00080FCACF1080CB2EB0C0200FA0CF0AABF01
:1008C00000EBC25052421843BCBFD040184370479F
:1008D00092F0000F81F4000106BF80F400000132A5
:1008E000013BB5E74FEA41037FEA226C18BF7FEA7C
:1008F000236C21D092EA030F04D092F0000F08BFBE
:100900000846704790EA010F1CBF0020704712F0A4
:100910007F4F04D1400028BF40F00040704712F1E3
:1009200000723CBF00F50000704700F0004343F048
:10093000FE4040F4000070477FEA226216BF08467E
:100940007FEA23630146420206BF5FEA412390EA41
:10095000010F40F4800070474FF0000304E000BF37
:1009600010F0004348BF40425FEA000C08BF7047E8
:1009700043F0964301464FF000001CE050EA0102AC
:1009800008BF70474FF000030AE000BF50EA0102C1
:1009900008BF704711F0004302D5404261EB4101AE
:1009A0005FEA010C02BF84460146002043F0B643D3
:1009B00008BFA3F18053A3F50003BCFA8CF2083AF8
:1009C000A3EBC25310DB01FA02FC634400FA02FC01
:1009D000C2F12002BCF1004F20FA02F243EB020008
:1009E00008BF20F00100704702F1200201FA02FC6A
:1009F000C2F1200250EA4C0021FA02F243EB02005D
:100A000008BF20EADC7070474FF0FF0C1CEAD052A0
:100A10001EBF1CEAD15392EA0C0F93EA0C0F6FD061
:100A20001A4480EA010C400218BF5FEA41211ED03F
:100A30004FF0006343EA501043EA5111A0FB01312B
:100A40000CF00040B1F5000F3EBF490041EAD37100
:100A50005B0040EA010062F17F02FD2A1DD8B3F17C
:100A6000004F40EBC25008BF20F00100704790F0EB
:100A7000000F0CF0004C08BF49024CEA502040EA3D
:100A800051207F3AC2BFD2F1FF0340EAC250704703
:100A900040F400004FF00003013A5DDC12F1190F41
:100AA000DCBF00F000407047C2F10002410021FAB3
:100AB00002F1C2F1200200FA02FC5FEA310040F1CB
:100AC000000053EA4C0308BF20EADC70704792F044
:100AD000000F00F0004C02BF400010F4000F013A7C
:100AE000F9D040EA0C0093F0000F01F0004C02BF77
:100AF000490011F4000F013BF9D041EA0C018FE7E6
:100B00000CEAD15392EA0C0F18BF93EA0C0F0AD0EB
:100B100030F0004C18BF31F0004CD8D180EA010011
:100B200000F00040704790F0000F17BF90F0004FAA
:100B3000084691F0000F91F0004F14D092EA0C0F8C
:100B400001D142020FD193EA0C0F03D14B0218BF1F
:100B5000084608D180EA010000F0004040F0FE4065
:100B600040F40000704740F0FE4040F44000704701
:100B70004FF0FF0C1CEAD0521EBF1CEAD15392EA80
:100B80000C0F93EA0C0F69D0A2EB030280EA010C70
:100B900049024FEA402037D04FF0805343EA111109
:100BA00043EA10130CF000408B4238BF5B0042F167
:100BB0007D024FF4000C8B4224BF5B1A40EA0C000C
:100BC000B3EB510F24BFA3EB510340EA5C00B3EB3E
:100BD000910F24BFA3EB910340EA9C00B3EBD10F2C
:100BE00024BFA3EBD10340EADC001B0118BF5FEA7E
:100BF0001C1CE0D1FD2A3FF650AF8B4240EBC250A7
:100C000008BF20F0010070470CF0004C4CEA502067
:100C10007F32C2BFD2F1FF0340EAC250704740F4B6
:100C200000004FF00003013A37E792F0000F00F0A8
:100C3000004C02BF400010F4000F013AF9D040EA26
:100C40000C0093F0000F01F0004C02BF490011F4BA
:100C5000000F013BF9D041EA0C0195E70CEAD153B2
:100C600092EA0C0F08D142027FF47DAF93EA0C0F99
:100C70007FF470AF084676E793EA0C0F04D14B027D
:100C80003FF44CAF08466EE730F0004C18BF31F02F
:100C9000004CCAD130F000427FF45CAF31F0004329
:100CA0007FF43CAF5FE700BF42000ED2B2F1FE4FCF
:100CB0000BD34FF09E03B3EB126209D44FEA00232B
:100CC00043F0004323FA02F070474FF000007047F2
:100CD00012F1610F01D1420202D14FF0FF30704793
:100CE0004FF00000704700BF53B94AB9002908BF50
:100CF00000281CBF4FF0FF314FF0FF3000F076B9F5
:100D0000ADF1080C6DE904CE00F006F8DDF804E062
:100D1000DDE9022304B070472DE9F047089E0D4637
:100D200004468846002B4DD18A42944668D9B2FACF
:100D300082F252B101FA02F3C2F1200120FA01F16C
:100D40000CFA02FC41EA030894404FEA1C41B8FB4C
:100D5000F1F71FFA8CFE01FB178807FB0EF0230C3E
:100D600043EA084398420AD91CEB030307F1FF3515
:100D700080F01E81984240F21B81023F63441B1A9F
:100D8000B3FBF1F001FB103300FB0EFEA4B244EA0A
:100D90000344A6450AD91CEB040400F1FF3380F09C
:100DA0000981A64540F20681644402380021A4EB83
:100DB0000E0440EA07401EB10023D440C6E90043B8
:100DC000BDE8F0878B4208D9002E00F0EE800021AC
:100DD000C6E900050846BDE8F087B3FA83F10029AB
:100DE0004AD1AB4202D3824200F2FC80841A65EB06
:100DF000030301209846002EE2D0C6E90048DFE751
:100E000002B9FFDEB2FA82F2002A40F09180A1EB33
:100E10000C0001214FEA1C471FFA8CFEB0FBF7F3D0
:100E200007FB1300250C45EA00450EFB03F0A84222
:100E300008D91CEB050503F1FF3802D2A84200F2E5
:100E4000CE8043462D1AB5FBF7F007FB10550EFB7D
:100E500000FEA4B244EA0544A64508D91CEB0404EC
:100E600000F1FF3502D2A64500F2B6802846A4EB79
:100E70000E0440EA03409EE7C1F120078B4022FAAE
:100E800007FC4CEA030C25FA07FA4FEA1C49BAFBA7
:100E9000F9F820FA07F309FB18AA8D401FFA8CFE17
:100EA0001D4300FA01F308FB0EF02C0C44EA0A443F
:100EB000A04202FA01F20BD91CEB040408F1FF3A3C
:100EC00080F08880A04240F28580A8F10208644446
:100ED000241AB4FBF9F009FB104400FB0EFEADB27E
:100EE00045EA0444A64508D91CEB040400F1FF358B
:100EF0006CD2A6456AD90238644440EA0840A0FB97
:100F00000295A4EB0E04AC42C846AE4656D353D06D
:100F1000002E69D0B3EB080264EB0E0422FA01F351
:100F200004FA07F71F43CC40C6E90074002147E7E5
:100F30000CFA02FCC2F1200125FA01F34FEA1C472A
:100F400020FA01F195400D43B3FBF7F107FB113394
:100F50001FFA8CFE280C40EA034001FB0EF383428B
:100F600004FA02F408D91CEB000001F1FF382FD27B
:100F700083422DD902396044C01AB0FBF7F307FB56
:100F80001300ADB245EA004503FB0EF0A84208D9B4
:100F90001CEB050503F1FF3816D2A84214D9023B19
:100FA0006544281A43EA014138E73146304607E7ED
:100FB0002F46E4E61846F9E64B45A9D2B9EB0208FC
:100FC00065EB0C0E0138A3E74346EAE7284694E7B1
:100FD0004146D1E7D0467BE76444023847E7023B0D
:100FE00065442FE7084606E73146E9E6704700BF4B
:100FF000844641EA000313F0030349D1403A23D366
:101000000B6803604B6843608B688360CB68C36088
:101010000B6903614B6943618B698361CB69C36170
:101020000B6A03624B6A43628B6A8362CB6AC36258
:101030000B6B03634B6B43638B6B8363CB6BC36340
:1010400040304031403ADBD230320BD30B68036082
:101050004B6843608B688360CB68C360103010318D
:10106000103AF3D20C3205D351F8043B40F8043B5C
:10107000043AF9D2043208D0D2071CBF11F8013B60
:1010800000F8013B01D30B8803806046704700BF26
:10109000082A13D38B07B1D010F00303AED0C3F1ED
:1010A0000403D21ADB071CBF11F8013B00F8013B17
:1010B000A4D331F8023B20F8023B9FE7043AD9D38E
:1010C000013A11F8013B00F8013BF9D20B780370AB
:1010D0004B7843708B7883706046704700B585B05D
:1010E00000230193029303937D487E4A026043608C
:1010F0004FF080728260C3604FF48072026143617E
:101100008361C3610362012280F82420102282627D
:1011100080F82C304263836380F83C3000F0B4FDEB
:10112000002840F0A9800B2301930123029304239C
:1011300003930DEB03016A4800F0BAFE002840F06B
:101140009E800A2301930223029301A9644800F0C0
:10115000AFFE002840F096800D23019303230293F5
:1011600001A95F4800F0A4FE002840F08E800C2307
:101170000193042302930DEB0301594800F098FEFC
:10118000002840F08580012301930523029301A9E3
:10119000534800F08DFE00287DD1002301930623E3
:1011A000029301A94E4800F083FE002876D1052362
:1011B00001930723029301A9494800F079FE002812
:1011C0006FD1042301930823029301A9444800F03E
:1011D0006FFE002868D1062301930923029301A919
:1011E0003F4800F065FE002861D1072301930A23E0
:1011F000029301A93A4800F05BFE00285AD1082367
:1012000001930B23029301A9354800F051FE0028F9
:1012100053D10E2301930C23029301A9304800F00F
:1012200047FE00284CD1122301930D23029301A9FC
:101230002B4800F03DFE002845D1132301930E23D7
:10124000029301A9264800F033FE00283ED1142362
:1012500001930F23029301A9214800F029FEC0BB8E
:10126000152301931023029301A91D4800F020FECD
:1012700090BB05B05DF804FB00F024F953E700F0E3
:1012800021F95EE700F01EF966E700F01BF96EE752
:1012900000F018F977E700F015F97EE700F012F991
:1012A00085E700F00FF98CE700F00CF993E700F008
:1012B00009F99AE700F006F9A1E700F003F9A8E7B9
:1012C00000F000F9AFE700F0FDF8B6E700F0FAF83B
:1012D000BDE700F0F7F8C3E700F0F4F8C9E700BF96
:1012E000780800200024014070B58AB000230593DF
:1012F00006930793089309930268304B9A4201D0F2
:101300000AB070BD044603F58A331A6A42F40072CB
:101310001A621A6A02F400720192019ADA6942F0C2
:101320000402DA61DA6902F004020292029ADA69CE
:1013300042F00102DA61DA6902F001020392039AD3
:10134000DA6942F00202DA61DB6903F00203049316
:10135000049B1F2305930326069605A9184801F050
:101360001DFAF323059306960025079505A9154850
:1013700001F014FA4FF2010305930696079505A9AB
:10138000114801F00BFA1148114B0360456085606C
:101390008023C3604FF4807303614FF48063436123
:1013A00020238361C56100F08DFF18B9074B63648A
:1013B0005C62A5E700F086F8F8E700BF0024014072
:1013C000000802400000024000040240CC08002057
:1013D0000860024000B583B00A4BDA6942F08072BF
:1013E000DA61DB6903F080730193019B00221146EF
:1013F0000B2000F0F1FE0B2000F026FF03B05DF89B
:1014000004FB00BF00380240F0B58BB00024059407
:101410000694079408940994274BDA6942F0200255
:10142000DA61DA6902F020020092009ADA6942F089
:101430000402DA61DA6902F004020192019ADA69BF
:1014400042F00102DA61DA6902F001020292029AC4
:10145000DA6942F00202DA61DA6902F0020203920A
:10146000039ADA6942F00802DA61DB6903F00803E3
:101470000493049B114F01222021384601F082FA87
:101480000F4E01220221304601F07CFA2023059301
:10149000012506950795089405A9384601F07EF9BF
:1014A0000223059306950795089405A9304601F097
:1014B00075F90BB0F0BD00BF0038024000080240D3
:1014C0000004024072B6FEE700B593B0342200215A
:1014D00005A803F0EFFD002300930193029303930B
:1014E000049314490A6822F4C05242F400620A606C
:1014F0000B220592052206920122089210210991E1
:101500000A920E9305A801F08BFA70B90F2300938D
:10151000022301930021029103910491684601F096
:101520005DFD20B913B05DF804FBFFF7CBFFFFF7BB
:10153000C9FF00BF0070004000B58FB000F06EFB27
:10154000FFF7C2FFFFF760FFFFF744FFFFF7C6FD9D
:1015500000F038FA00F01CFA00F054F900F0FEF93F
:1015600000F08CF9424C01222146424802F013FC63
:1015700001222146404802F00EFC012221463F484C
:1015800002F009FC03F07EFA3D4803F033FE32E03E
:101590003C4B1A7003F05AF934E03B4B01221A70AD
:1015A0003A4801F0D1FE334CEC4604F1100EBEE88F
:1015B0000F00ACE80F00BEE80F00ACE80F00BEE87B
:1015C0000F00ACE80F009EE803008CE8030094E8ED
:1015D0000F0002F053FE2E4B1B7813B12D4B1B78DE
:1015E000E3B92D4B1B781BB1294B1B78002B35D150
:1015F000322000F035FB294B00221A70214B1B785A
:10160000002BC5D1224B1B78002BE4D11E4B1B783D
:10161000002BC2D01D4801F097FEECE702F0CEFB94
:101620001C4B1B78DBB2012B0DD01A4B1B78DBB2A5
:10163000032B0DD0174B1B78DBB2052B0BD0154BB2
:1016400000221A70CDE7164B187902F099FFECE7EB
:1016500003F01CF8EEE703F0D7F8F0E70E4B00229A
:101660001A7013210F4B187803F0B0F8C0E700BFD1
:101670006210002030110020E810002078110020B6
:10168000E06A00085B0F0020580F0020681000205F
:101690005A0F0020340A0020590F00205D0F00204F
:1016A00034090020330A002084B00F4B5A6A42F0FC
:1016B00000425A625A6A02F000420192019A1A6A82
:1016C00042F001021A621A6A02F001020292029AC0
:1016D0005A6A42F080525A625B6A03F08053039365
:1016E000039B04B0704700BF00380240FEE7FEE7EE
:1016F000FEE7FEE7FEE770477047704708B500F069
:101700009DFA08BD08B5024800F0B0FE08BD00BF54
:10171000CC08002008B5024801F0E1FE08BD00BF7A
:101720006810002008B5024801F0D9FE08BD00BFCE
:10173000A810002008B5024802F0CEF908BD00BF8D
:10174000E810002008B5024802F0C6F908BD00BF45
:101750003011002008B5024802F0BEF908BD00BFF4
:101760007811002070B50C461646002506E0AFF350
:101770000080214601F8010B01350C46B542F6DB2D
:10178000304670BD70B50C461646002504E014F8CE
:10179000010B00F0E5F90135B542F8DB304670BDCC
:1017A0004FF0FF3070474FF400534B6000207047FC
:1017B000012070470020704710B503460C4A0D49C0
:1017C0000D48006840B10C4800680344521A934227
:1017D00006D8094A136010BD0748084C0460F2E7B8
:1017E00003F03EFC0C2303604FF0FF30F3E700BF33
:1017F00000C000200004000064100020301300200E
:101800007047000000B587B0002302930393049350
:1018100005930093019318484FF08042026048F608
:10182000FF724260836041F63F72C26003614361B0
:1018300001F065FDB8B94FF48053029302A90E4838
:1018400001F0CAFD90B900230093019369460A484C
:1018500001F0E2FE68B9084B1B686FF001021A61E3
:1018600007B05DF804FBFFF72DFEE4E7FFF72AFE63
:10187000E9E7FFF727FEEEE76810002000B587B024
:101880000023029303930493059300930193154857
:10189000154A026048F6FF72426083600822C26007
:1018A0000361436101F02BFD90B94FF48053029323
:1018B00002A90C4801F090FD68B900230093019340
:1018C0006946084801F0A8FE40B907B05DF804FB7E
:1018D000FFF7F8FDE9E7FFF7F5FDEEE7FFF7F2FDAB
:1018E000F3E700BFA81000200004004000B583B05B
:1018F0000368B3F1804F05D0164A934216D003B067
:101900005DF804FB03F50E335A6A42F001025A6295
:101910005B6A03F001030093009B002211461C2028
:1019200000F05AFC1C2000F08FFCE8E70A4B5A6AD2
:1019300042F002025A625B6A03F002030193019BC8
:10194000002211461D2000F047FC1D2000F07CFC09
:10195000D5E700BF000400400038024008B50A483F
:101960000A4B03604FF4E133436000238360C3609C
:1019700003610C2242618361C36101F093FF00B9EE
:1019800008BDFFF79FFDFBE77811002000500040E5
:1019900008B50A480A4B03604FF41653436000230E
:1019A0008360C36003610C2242618361C36101F003
:1019B00079FF00B908BDFFF785FDFBE7E8100020BF
:1019C0000044004008B50A480A4B03604FF4165320
:1019D000436000238360C36003610C224261836122
:1019E000C36101F05FFF00B908BDFFF76BFDFBE7C6
:1019F0003011002000480040F0B58DB0002307935F
:101A0000089309930A930B9303684D4A934207D0B6
:101A10004C4A934242D04C4A934267D00DB0F0BD3D
:101A20004A4B5A6A42F480125A625A6A02F480128D
:101A30000092009ADA6942F00402DA61DA6902F08F
:101A400004020192019ADA6942F00802DA61DB6964
:101A500003F008030293029B4FF48053079302277D
:101A600008970126099603250A9508240B9407A9CF
:101A7000374800F093FE04230793089709960A95C8
:101A80000B9407A9334800F089FE0022114631204B
:101A900000F0A2FB312000F0D7FBBFE72B4B5A6AC6
:101AA00042F400325A625A6A02F400320392039AF4
:101AB000DA6942F00102DA61DB6903F001030493A1
:101AC000049B0C2307930223089303230A93072301
:101AD0000B9307A9204800F061FE00221146262042
:101AE00000F07AFB262000F0AFFB97E7174B5A6A0D
:101AF00042F480225A625A6A02F480220592059AC0
:101B0000DA6942F00202DA61DB6903F0020306934C
:101B1000069B4FF4406307930223089303230A9321
:101B200007230B9307A90D4800F038FE0022114649
:101B3000272000F051FB272000F086FB6EE700BF56
:101B4000005000400044004000480040003802407F
:101B500000080240000C0240000002400004024065
:101B600000B583B001904FF6FF73012201A903482D
:101B700001F0C8FE019803B05DF804FB7811002065
:101B8000FFF73EFE0B480C490C4A002302E0D458F4
:101B9000C4500433C4188C42F9D3094A094C0023B9
:101BA00001E013600432A242FBD303F05FFAFFF7B7
:101BB000C3FC7047000000205C080020D86B0008C0
:101BC0005C0800202C130020FEE70000104B1B686F
:101BD0000BB90120704710B504464FF47A70B0FB82
:101BE000F3F30C4A1068B0FBF3F000F03BFB68B96C
:101BF0000F2C01D901200AE0002221464FF0FF30CE
:101C000000F0EAFA044B1C60002000E0012010BD47
:101C100004000020000000200800002010B5032070
:101C200000F0C8FA0F20FFF7D1FF10B101242046C1
:101C300010BD0446FFF738FDF9E70000034A1368BA
:101C4000034909680B441360704700BFC0110020AE
:101C500004000020014B1868704700BFC01100202D
:101C600038B50446FFF7F6FF0546B4F1FF3F02D052
:101C7000044B1B681C44FFF7EDFF401BA042FAD346
:101C800038BD00BF04000020002800F0BC8070B503
:101C900082B00446C36C002B5FD0E36C13F0100FCE
:101CA00040F0B380E36C23F4885323F0020343F045
:101CB0000203E364564A536823F4403361680B43DC
:101CC0005360E3686269134394F83C104FF4007268
:101CD00092FAA2F2B2FA82F201FA02F21343226AF3
:101CE0001A4394F82400022393FAA3F3B3FA83F37C
:101CF00000FA03F31343626B102A02D0A16B0A436C
:101D0000134325682A6812F0400214D1A1690B43DD
:101D1000A168E66931432669B6F5807F30D0012E8F
:101D20002BD00A4394F82C1001292BD0686839492C
:101D300001400A436A6021688868374A02401A43B2
:101D40008A602269B2F5807F33D0012A31D02168C0
:101D50000A6B22F0F8720A633AE0036580F84830B3
:101D60002E4B1A6A42F001021A621B6A03F0010349
:101D70000193019BFFF7B8FA8FE74FF48072D0E729
:101D80003246CEE760B9216B01394FF4604090FADA
:101D9000A0F0B0FA80F0814041F400610A43C5E749
:101DA000E16C41F02001E164216D41F00101216508
:101DB000BCE725682A6B22F0F872A16A01394FF05E
:101DC000F87090FAA0F0B0FA80F081400A432A63DC
:101DD00022689168124A0A409A420BD0E36C23F0C1
:101DE000120343F01003E364236D43F00103236502
:101DF00001200BE000202065E36C23F0030343F097
:101E00000103E36402E001207047012002B070BDCD
:101E100000270140FF16FCFC89F1FFC0003802409A
:101E2000FEFF80BF08B5436ADA6C12F0500F27D16D
:101E3000DA6C42F40072DA641A68916811F0405F5B
:101E40001AD193F82410B9B9116B11F0F87F03D0AF
:101E5000916811F4806F0FD1516821F02001516019
:101E6000DA6C22F48072DA64DA6C12F4805F03D1E7
:101E7000DA6C42F00102DA64184602F0A3F908BDF8
:101E80005B6C1B6B9847FAE7704708B5406AFFF731
:101E9000FBFF08BD704708B5406AC36C43F04003C0
:101EA000C364036D43F004030365FFF7F3FF08BD4C
:101EB00030B482B00023019390F84830012B00F039
:101EC000CB80012380F848304B68062B2CD804685F
:101ED000226C03EB8303053B4FF01F0C0CFA03FC51
:101EE00022EA0C020D6805FA03F3134323640B681E
:101EF000092B5BD80468626903EB43034FF0070CBE
:101F00000CFA03FC22EA0C028D6805FA03F3134372
:101F100063610B68103B012B79D9002380F84830AE
:101F2000184602B030BC70470C2B0ED80568EA6B1F
:101F300003EB8303233B1F249C4022EA04020C682A
:101F400004FA03F31343EB63D1E7122B0ED80568B1
:101F5000AA6B03EB8303413B1F249C4022EA04024B
:101F60000C6804FA03F31343AB63C0E7182B0ED8D5
:101F700005686A6B03EB83035F3B1F249C4022EAE6
:101F800004020C6804FA03F313436B63AFE70568BC
:101F90002A6B03EB83037D3B1F249C4022EA04024F
:101FA0000C6804FA03F313432B63A0E7132B0ED83A
:101FB00005682A6903EB43031E3B07249C4022EA81
:101FC00004028C6804FA03F313432B61A1E71D2B71
:101FD0000ED80568EA6803EB43033C3B07249C40AA
:101FE00022EA04028C6804FA03F31343EB6090E7DF
:101FF0000568EA6D03EB43035A3B07249C4022EA41
:1020000004028C6804FA03F31343EB6581E7134B76
:102010005B6813F4000F80D1104A536843F4000347
:1020200053600B68102B7FF478AF0D4B1B6802F1E7
:10203000467202F52D3202F28332A2FB03239B0C7F
:1020400003EB83035B00019302E0019B013B0193DF
:10205000019B002BF9D160E7022062E700270140D5
:102060000000002030B583B00023019303681A6894
:1020700012F0400F35D104469A6842F001029A608E
:10208000194B1B68194AA2FB03239B0C03EB430368
:10209000019302E0019B013B0193019B002BF9D1CD
:1020A000FFF7D8FD054623681B6813F0400F16D1D3
:1020B000FFF7D0FD431B022BF5D923681B6813F0F3
:1020C000400FF0D1E36C43F01003E364236D43F061
:1020D00001032365002384F84830012002E000203A
:1020E00000E0002003B030BD0000002083DE1B4371
:1020F000F8B50D4690F84810012952D0044616460E
:10210000012380F84830FFF7ADFF0746002849D18A
:10211000E16C21F4E06121F0010141F48071E1649E
:1021200023685B6813F4806F05D0E36C23F440539D
:1021300043F48053E364E36C13F4805F2ED0236D8B
:1021400023F006032365002384F84830636C164AA5
:102150009A62636C154ADA62636C154A1A632368E3
:102160006FF022021A602268536843F08063536064
:102170002268936843F480739360216833462A464B
:102180005831606C00F0EAF823689A6812F0405FFA
:1021900008D19A6842F080429A6003E000232365E8
:1021A000D1E702273846F8BD251E00088B1E00081F
:1021B000971E0008074AD36823F4E0631B041B0C36
:1021C000000200F4E060034343F0BF6343F40033D4
:1021D000D360704700ED00E000B5194BDB68C3F336
:1021E0000223C3F1070CBCF1040F28BF4FF0040C0D
:1021F00003F1040EBEF1060F18D9033B4FF0FF3E6A
:102200000EFA0CFC21EA0C0199400EFA03F322EAC3
:102210000303194300280BDB0901C9B200F1604038
:1022200000F5614080F800135DF804FB0023E5E74A
:1022300000F00F000901C9B2024B1954F4E700BFC6
:1022400000ED00E014ED00E0002807DB00F01F02C5
:10225000400901239340024A42F82030704700BFF2
:1022600000E100E00138B0F1807F0BD24FF0E023B5
:102270005861054AF02182F8231000209861072256
:102280001A6170470120704700ED00E010B4046C43
:1022900004F01C0C012404FA0CF4D0F83CC0CCF877
:1022A0000440046863604368102B05D0036899609C
:1022B0000368DA6010BC704703689A600368D960ED
:1022C000F8E7000000283AD010B4024600681D4B21
:1022D000984229D81C4B03441C49A1FB03131B093A
:1022E0009B0013641A4BD363022382F821300168E8
:1022F00021F4FF4121F07001536894682343D468AE
:102300002343146923435469234394692343D469C1
:1023100023430B43036000209063012382F82130A4
:1023200082F8200010BC70470A4B03440749A1FB08
:1023300003131B099B001364074BD363D4E70120ED
:10234000704700BF07640240F89FFDBFCDCCCCCCE6
:1023500000600240F89BFDBF0064024038B50446AF
:1023600090F82000012832D0012084F8200094F851
:102370002100C0B2012804D0002384F820300220BC
:1023800038BD022084F821000020A0632568286859
:1023900020F0010028602046FFF778FFE36A5BB178
:1023A0002268136843F00E0313602268136843F039
:1023B000010313600020E3E72268136823F004039D
:1023C00013602268136843F00A031360EDE70220EC
:1023D000D6E790F82130DBB2022B06D004238363CA
:1023E000002380F82030012070470268136823F032
:1023F0000E0313600268136823F001031360036C7B
:1024000003F01C03C16B012202FA03F34B6080F856
:102410002120002380F820301846704708B590F836
:102420002130DBB2022B03D004238363012008BDDB
:102430000268136823F00E0313600268136823F028
:1024400001031360036C03F01C03C16B012202FA49
:1024500003F34B6080F82120002380F82030436B89
:1024600013B198470020E2E70020E0E738B5C36BDE
:10247000196804682568036C03F01C0304229A4061
:102480000A4215D015F0040F12D0236813F0200F64
:1024900003D1236823F004032360036C03F01C02C0
:1024A000C16B042393404B60C36A03B1984738BDA6
:1024B00002229A400A421CD015F0020F19D023685C
:1024C00013F0200F06D1236823F00A0323600123B1
:1024D00080F82130036C03F01C02C16B022393408F
:1024E0004B60002380F82030836A002BDFD09847B0
:1024F000DDE7082202FA03F30B42D8D015F0080FEB
:10250000D5D0236823F00E032360036C03F01C0373
:10251000C16B012202FA03F34B60826380F8212031
:10252000002380F82030036B002BC0D09847BEE713
:102530001F4B9B6913F4807306D01E4A536943F006
:10254000020353614FF48073194A926912F4007FB9
:1025500006D018494A6942F001024A6143F4007307
:10256000134A926912F4006F06D012494A6942F088
:1025700004024A6143F400630D4A926912F4805FD9
:1025800006D00C494A6942F020024A6143F4805364
:10259000074A926912F4806F06D006494A6942F0F0
:1025A00008024A6143F48063014A9361704700BFA7
:1025B000003C0240C4110020144B5B6813F0020F72
:1025C0001DD0124B5B6813F0010F08D00F4B104A5F
:1025D000DA60104ADA605B6813F0010F11D10B4B1F
:1025E0000D4A1A61A2F1F342A2F51922A2F6A9122C
:1025F0001A615B6813F0020F05D1002070470020BC
:102600007047012070470120704700BF003C024026
:10261000EFCDAB8905040302BFAE9D8C034A53681E
:1026200043F0020353600020704700BF003C0240AB
:10263000014B5869704700BFC411002038B50446EB
:10264000FFF708FB05461B4B9B6913F0010F0AD0EF
:10265000B4F1FF3FF7D024B1FFF7FCFA401BA042D2
:10266000F1D9032025E0134B9B6913F0020F02D030
:10267000104B02229A610F4B9B6913F4807F15D196
:102680000C4B9B6913F4006F10D10A4B9B6913F438
:10269000805F0BD1074B9B6913F4806F06D1054B0C
:1026A0009B6913F4007F01D1002002E0FFF740FF97
:1026B000012038BD003C024038B50E4B1B7C012B7D
:1026C00016D00D4614460B4B01221A744CF25030B2
:1026D000FFF7B4FF18B1074B00221A7438BD054B41
:1026E00000225A612C604CF25030FFF7A7FFF2E74E
:1026F0000220F3E7C41100200021074B5961074B6A
:102700005A6842F400725A605A6842F008025A60ED
:1027100020F0FF0001607047C4110020003C02401F
:102720001C4B1B7C012B31D070B505460E46194B56
:1027300001221A744CF25030FFF780FF014600BBB3
:102740004FF0FF3333606C6801E004F58074AA68D1
:102750006B6803EB0223A34213D92046FFF7CCFF9B
:102760004CF25030FFF76AFF0B4B5A6822F0080218
:102770005A605A6822F400725A6001460028E4D078
:102780003460044B00221A74084670BD02210846CA
:10279000704700BFC4110020003C024070B582B0F9
:1027A000002365E085685E000324B44025EA040543
:1027B000CC68B4402C438460446824EA0C0C4C6818
:1027C000C4F300149C4044EA0C04446061E0DD085A
:1027D000083550F8256003F007044FEA840C0F24F5
:1027E00004FA0CF426EA040E0C6904FA0CF444EA28
:1027F0000E0440F8254063E0062400E0002404FABB
:102800000EF42C430CF1020C5A4D45F82C405A4C56
:10281000A568D44325EA0206D1F804C01CF4801F41
:1028200001D042EA0506544DAE60ED6804EA0506A3
:10283000D1F804C01CF4001F01D042EA05064E4D39
:10284000EE606D6804EA0506D1F804C01CF4003F90
:1028500001D042EA0506484D6E602D682C404E6856
:1028600016F4803F01D042EA0504434A1460013364
:102870000A6832FA03F47BD04FF0010C0CFA03FC27
:102880001CEA0202F3D04C6804F00304013C012C62
:1028900088D94C6804F00304032C0CD0C4685D0094
:1028A0004FF0030C0CFA05FC24EA0C0C8C68AC40CD
:1028B00044EA0C04C4604C6804F00304022C86D083
:1028C00004684FEA430E4FF0030C0CFA0EFC24EAA6
:1028D0000C0C4C6804F0030404FA0EF444EA0C04F3
:1028E00004604C6814F4403FC1D0244C256A45F084
:1028F00001052562246A04F001040194019C4FEA59
:10290000930C0CF102051B4C54F8255003F0030402
:102910004FEA840E0F2404FA0EF425EA0405184C3D
:10292000A0423FF46BAF04F58064A04216D004F5DA
:102930008064A04214D004F58064A04212D004F553
:102940008064A04210D004F58064A0420ED004F54B
:102950008064A0423FF450AF072450E701244EE7C3
:1029600002244CE703244AE7042448E7052446E709
:1029700002B070BD00000140000401400038024078
:10298000000002400AB1816170470904816170470B
:1029900010B483B01F4B9B6813F0F00328D11D4A7D
:1029A000526A12F0805F10D01B4A126802F4C052C3
:1029B000B2F5C05F1DD1B0F5404F1AD1174A136868
:1029C00043F004031360012313E012494A6A42F002
:1029D00080524A624A6A02F080520192019A0E4A7B
:1029E000126802F4C0524C6A24F080544C62DFE753
:1029F00000230A490A6822F001021A430A600A68A1
:102A000002F001029A4203D1002003B010BC7047CB
:102A10000120FAE70038024000700040003C02400C
:102A2000002800F05E82F0B583B00446A24B9D689A
:102A300005F00C059E6806F48036036813F0010F5C
:102A40001DD0082D12D00C2D0ED06368012B35D06F
:102A5000002B49D1984B1A6822F480321A601A6808
:102A600022F480221A602EE0002EEED0924B1B68DA
:102A700013F4003F03D06368002B00F03482236816
:102A800013F0020F68D0042D55D00C2D51D0E368FF
:102A9000002B00F0C780894B01221A60FFF7DAF89B
:102AA0000646854B1B6813F0020F40F0B280FFF71B
:102AB000D1F8801B0228F4D903201DE27E4A136856
:102AC00043F480331360636823B3FFF7C3F807460A
:102AD000794B1B6813F4003FD1D1FFF7BBF8C01B43
:102AE0006428F5D9032007E2052B09D0724B1A6838
:102AF00022F480321A601A6822F480221A60E2E717
:102B00006D4B1A6842F480221A601A6842F48032CF
:102B10001A60D8E7FFF79EF80746674B1B6813F467
:102B2000003FACD0FFF796F8C01B6428F5D903200E
:102B3000E2E1002EABD1604B1B6813F0020F03D013
:102B4000E368012B40F0D1815B4A536823F4F853CA
:102B5000216943EA01235360236813F0100F3BD02F
:102B6000002D40F08580544B1B6813F4007F03D088
:102B7000A369002B00F0BB81206A4F4B5B6803F414
:102B80006043984260D9FFF703FF002840F0B1810D
:102B9000494A536823F46043216A0B4353605368E6
:102BA00023F07F43E16943EA01635360236A5B0BCF
:102BB0005A1C4FF4004393403F4A9268C2F30312F9
:102BC0003F498A5CD3403F4A13603F4B1868FEF789
:102BD000FDFF002840F09081236813F0080F00F0FB
:102BE0009B806369002B00F08480344B0122C3F882
:102BF0008026FFF72FF806462F4B5B6B13F0020F72
:102C000040F08A80FFF726F8801B0228F4D90320C1
:102C100072E1294A536823F4F853216943EA0123F6
:102C2000536099E7254B00221A60FFF713F8064618
:102C3000214B1B6813F0020F8ED0FFF70BF8801B9F
:102C40000228F5D9032057E11B4A536823F4604357
:102C500018435060536823F07F43E16943EA0163FE
:102C60005360206AFFF794FE00289FD0012043E1C3
:102C7000A3695BB3114B01221A62FEF7EBFF064614
:102C80000D4B1B6813F4007F06D1FEF7E3FF801B9A
:102C90000228F5D903202FE1074A536823F4604343
:102CA000216A0B435360536823F07F43E16943EA91
:102CB0000163536090E700BF0038024000004742C4
:102CC000F46A000800000020080000208F4B00225A
:102CD0001A62FEF7BFFF06468D4B1B6813F4007F98
:102CE0003FF47AAFFEF7B6FF801B0228F4D9032029
:102CF00002E1864B0022C3F88026FEF7ABFF0646B2
:102D0000834B5B6B13F0020F06D0FEF7A3FF801B13
:102D10000228F5D90320EFE0236813F0040F79D0DF
:102D20007B4B5B6A13F0805F0BD1794B5A6A42F0A0
:102D300080525A625B6A03F080530193019B012623
:102D400000E00026734B1B6813F4807F0ED0A3684D
:102D5000012B1FD0002B35D16D4B5A6B22F48072A2
:102D60005A635A6B22F480625A6318E0694A136806
:102D700043F480731360FEF76DFF0746654B1B68D5
:102D800013F4807FE3D1FEF765FFC01B6428F5D9FB
:102D90000320B1E05E4A536B43F480735363A3682E
:102DA00033B3FEF757FF0746594B5B6B13F4007FB5
:102DB0002FD1FEF74FFFC01B41F288339842F3D961
:102DC000032099E0052B09D0514B5A6B22F48072F5
:102DD0005A635A6B22F480625A63E0E74C4B5A6B99
:102DE00042F480625A635A6B42F480725A63D6E7A7
:102DF000FEF730FF0746464B5B6B13F4007F08D0AD
:102E0000FEF728FFC01B41F288339842F3D9032014
:102E100072E0C6B9636A002B6DD00C2D4CD0022B2A
:102E200017D03A4B00221A66FEF714FF0446384BBF
:102E30001B6813F0007F3DD0FEF70CFF001B02283B
:102E4000F5D9032058E0324A536A23F08053536285
:102E5000E0E72E4B00221A66FEF7FCFE05462C4BDF
:102E60001B6813F0007F06D0FEF7F4FE401B02281B
:102E7000F5D9032040E026498B6823F47D03A26A3C
:102E8000E06A0243206B024313438B601F4B012215
:102E90001A66FEF7DFFE04461D4B1B6813F0007F29
:102EA00006D1FEF7D7FE001B0228F5D9032023E048
:102EB000002021E000201FE0012B1FD0144B9B6855
:102EC00003F48031A26A91421AD103F47012E16ACC
:102ED0008A4217D103F44003226B934214D100209D
:102EE0000AE001207047012006E0012004E00120F3
:102EF00002E0012000E0002003B0F0BD0120FBE76C
:102F00000120F9E70120F7E70120F5E7000047423B
:102F1000003802400070004008B52D4B9A6802F05E
:102F20000C03082B4FD00C2B0AD0042B4ED0284B6F
:102F30005868C0F34230431C4FF40040984046E0CC
:102F4000C2F38343234911F803C0C2F38152013213
:102F50001F4B9B6813F4803F16D04FEACC01B1EBB6
:102F60000C0163EB03035B0143EAD163490111EBFD
:102F70000C0143F100034FEA034C002308044CEA20
:102F80001141FDF7B1FE22E04FEA4C11B1EB0C000C
:102F90006EEB0E0E4FEA8E1343EA90638101091A1D
:102FA00063EB0E03DB0043EA5173C90011EB0C0C19
:102FB00043F10003990200234FEA8C2041EA9C511F
:102FC000FDF792FE03E04FF4610000E0024808BD07
:102FD000003802400C6B00080024F400002800F0C8
:102FE000D98070B50C4605466E4B1B6803F0010393
:102FF0008B420DD2012928D06A4A136823F00103BD
:1030000023431360136803F00103A34240F0C4801C
:103010002B6813F0020F06D0634A936823F0F00385
:10302000A9680B4393602B6813F0010F72D06B6893
:10303000022B10D0032B32D0012B37D05A4A126802
:1030400012F4007F0DD101209DE0564A136843F031
:1030500004031360D0E7544A126812F4003F00F0F2
:103060009D8051498A6822F0030213438B60FEF76A
:10307000F1FD06466B68022B1FD0032B2CD0012BD1
:1030800039D0494B9B6813F00C0F43D0FEF7E2FD9B
:10309000801B41F288339842F3D9032073E0424AFF
:1030A000126812F0007FDCD101206CE03E4A126809
:1030B00012F0020FD5D1012065E03B4B9B6803F075
:1030C0000C03082B26D0FEF7C5FD831B41F2883286
:1030D0009342F2D9032056E0334B9B6803F00C0374
:1030E0000C2B17D0FEF7B6FD801B41F288339842B7
:1030F000F2D9032047E02C4B9B6803F00C03042B10
:1031000008D0FEF7A7FD801B41F288339842F2D920
:10311000032038E0234B1B6803F00103A3420CD9C2
:10312000012C31D01F4A136823F00103234313609D
:10313000136803F00103A34232D12B6813F0040F8C
:1031400006D0194A936823F4E063E9680B4393605F
:103150002B6813F0080F07D0134A936823F46053C9
:10316000296943EAC1039360FFF7D6FE0E4B9B68C3
:10317000C3F303130D4AD35CD8400D4B18600D4BBD
:103180001868FEF723FD70BD064A136843F0040378
:103190001360C7E7012070470120F4E70120F2E740
:1031A0000120F0E7003C024000380240F46A0008C9
:1031B0000000002008000020014B1868704700BF85
:1031C0000000002008B5FFF7F7FF044B9B68C3F32E
:1031D0000223034AD35CD84008BD00BF0038024038
:1031E000046B000808B5FFF7E7FF044B9B68C3F3C7
:1031F000C223034AD35CD84008BD00BF0038024058
:10320000046B00080368B0F1804F0ED01E4A904254
:103210000BD002F58062904207D002F580629042A6
:1032200003D002F57C42904203D123F070034A6838
:103230001343B0F1804F16D0134A904213D002F5D9
:10324000806290420FD002F5806290420BD002F56E
:103250007C42904207D002F58062904203D002F592
:103260008062904203D123F44073CA68134323F071
:1032700080030A69134303608B68C3620B6883622F
:1032800001234361704700BF0004004010B4036A8B
:10329000046A24F001040462846924F0F00C4CEA0E
:1032A000021223F00A030B438261036210BC7047D1
:1032B00010B4036A046A24F010040462846924F4DC
:1032C000704C4CEA023223F0A00343EA01138261FE
:1032D000036210BC7047836823F070030B4343F014
:1032E00007038360704710B4846824F47F4C42EA7B
:1032F00003220A4342EA0C02826010BC704700B30A
:1033000010B5044690F83930B3B1022384F839304F
:10331000214651F8040BFFF775FF012384F83E3076
:1033200084F83A3084F83B3084F83C3084F83D30FF
:1033300084F83930002010BD80F83830FEF7D6FA16
:10334000E3E701207047000090F83930DBB2012B31
:1033500027D1022380F839300268D36843F0010393
:10336000D3600368B3F1804F10D0104A93420DD060
:1033700002F58062934209D002F58032934205D073
:103380001A6842F001021A60002070479A6802F041
:103390000702062A07D01A6842F001021A600020CC
:1033A0007047012070470020704700BF00040040B4
:1033B0000268D36823F00103D3600368196A41F2FD
:1033C0001112114203D11A6822F001021A6001237E
:1033D00080F839300020704790F83830012B78D0D1
:1033E00010B50446012380F83830022380F83930C4
:1033F0000268936823F47F4323F0770393600B689C
:10340000602B4CD029D8402B54D00CD9502B22D132
:10341000CA6849680068FFF739FF50212068FFF744
:103420005AFF002005E0202B0DD009D9302B0AD0FF
:103430000120012384F83930002384F8383010BD8E
:103440000BB1102B05D119462068FFF744FF00206F
:10345000EFE70120EDE70120EBE7B3F5805F34D023
:10346000B3F5005F0CD1CB684A6889680068FFF744
:103470003AFF2268936843F4804393600020D8E7C2
:10348000702B24D1CB684A6889680068FFF72BFF4E
:103490002268936843F0770393600020C9E7CA6805
:1034A00049680068FFF704FF60212068FFF713FFF9
:1034B0000020BEE7CA6849680068FFF7E7FE4021C0
:1034C0002068FFF708FF0020B3E70020B1E70120E4
:1034D000AFE702207047704770477047704710B5DC
:1034E000044603681A6912F0020F11D0DA6812F06C
:1034F000020F0DD06FF002021A61012303760368F8
:103500009B6913F0030F5ED0FFF7E6FF00232376DD
:1035100023681A6912F0040F12D0DA6812F0040F4F
:103520000ED06FF004021A610223237623689B6990
:1035300013F4407F4DD02046FFF7CEFF00232376C3
:1035400023681A6912F0080F12D0DA6812F0080F17
:103550000ED06FF008021A61042323762368DB691A
:1035600013F0030F3CD02046FFF7B6FF002323766D
:1035700023681A6912F0100F12D0DA6812F0100FD7
:103580000ED06FF010021A61082323762368DB69DE
:1035900013F4407F2BD02046FFF79EFF00232376B5
:1035A00023681A6912F0010F03D0DA6812F0010FD4
:1035B00024D123681A6912F0400F03D0DA6812F0A0
:1035C000400F22D110BDFFF786FF2046FFF785FF91
:1035D0009CE72046FFF77FFF2046FFF77EFFADE721
:1035E0002046FFF778FF2046FFF777FFBEE720462B
:1035F000FFF771FF2046FFF770FFCFE76FF0010282
:103600001A61204600F0F4FDD3E76FF040021A6122
:103610002046FFF763FFD5E790F83830012B2CD018
:1036200010B4012380F83830022380F83930036861
:103630005A689C6822F0700C0A6842EA0C025A60D0
:103640000368B3F1804F0AD00D4A934207D002F5C8
:103650008062934203D002F58032934204D124F079
:1036600080044A6814439C60012380F839300023A9
:1036700080F83830184610BC70470220704700BFF1
:1036800000040040026802F10C0353E8003F23F4F9
:1036900090730C3242E800310029F3D1026802F144
:1036A000140353E8003F23F00103143242E80031D1
:1036B0000029F3D1036B012B05D0202380F8423081
:1036C000002303637047026802F10C0353E8003FD4
:1036D00023F010030C3242E800310029F3D1ECE76B
:1036E00090F84130DBB2212B01D002207047836873
:1036F000B3F5805F17D0036A5A1C02621A78036818
:103700005A60C38C9BB2013B9BB2C3844BB9026825
:10371000D36823F08003D3600268D36843F040038A
:10372000D360002070470369002BE4D1036A1B8833
:103730000268C3F308035360036A02330362E0E7DD
:1037400038B504460268136923F44053C1680B433B
:10375000136183680269134342691343C2691A43C0
:103760000168CB6823F4164323F00C031343CB60AA
:103770000268536923F4407381690B435361026803
:10378000244B9A4223D0FFF71DFDE369B3F5004FA8
:1037900020D000EB800202EB820260688000B2FB66
:1037A000F0F21D48A0FB02314909642303FB1123F9
:1037B0001B013233A0FB03235B0903F0F00202EB91
:1037C000011203F00F03216813448B6038BDFFF72B
:1037D00009FDDAE700EB800000EB800063685B0026
:1037E000B0FBF3F00C4DA5FB00325109642303FB41
:1037F0001103DB003233A5FB03235B095A0002F4FB
:10380000F87202EB011203F00703216813448B6086
:10381000DCE700BF003801401F85EB512DE9F8437C
:1038200005460F4616469946DDF820802C68246828
:1038300037EA04030CBF4FF0010C4FF0000CB44505
:103840002DD1B8F1FF3FF1D0B8F1000F05D0FEF750
:1038500001FAA0EB09004045E8D92A6802F10C03FF
:1038600053E8003F23F4D0730C3242E800310029C2
:10387000F3D12A6802F1140353E8003F23F0010357
:10388000143242E800310029F3D1202385F8413079
:1038900085F84230002385F84030032000E0002006
:1038A000BDE8F88360B310B5044690F8413013B317
:1038B000242384F841302268D36823F40053D36072
:1038C0002046FFF73DFF2268136923F490431361FC
:1038D0002268536923F02A0353612268D36843F4B2
:1038E0000053D36000206064202384F8413084F8C2
:1038F0004230606310BD80F84030FEF77DF8D7E7B6
:10390000012070472DE9F04182B01E4690F8413009
:10391000DBB2202B4BD104460D46904600294AD0FD
:103920000AB9012044E000234364212380F8413098
:10393000FEF790F90746A4F82480A4F82680A3682F
:10394000B3F5805F02D04FF000080FE02369FBB1B0
:103950004FF000080AE038F8023B2268C3F308037E
:103960005360E28C92B2013A92B2E284E38C9BB251
:103970008BB100963B46002280212046FFF74EFF88
:10398000D8B9002DE7D015F8012B23685A60E8E775
:10399000A8460025EAE700963B4600224021204643
:1039A000FFF73CFF58B9202384F8413000E00220A3
:1039B00002B0BDE8F0810120FAE70320F8E7032018
:1039C000F6E7704708B50168CA6822F04002CA608D
:1039D000202280F84120FFF7F4FF002008BD704747
:1039E00008B5406A0023C385C384FFF7F8FF08BD0C
:1039F000704790F84230DBB2222B69D18368B3F56F
:103A0000805F4FD0826AB3F5805F04D0002B56D11F
:103A10000369002B53D103685B681370836A013319
:103A20008362C38D9BB2013B9BB2C385002B51D1F6
:103A300000B583B00268D36823F02003D360026826
:103A4000D36823F48073D3600268536923F00103C1
:103A50005361202380F8423000234363036B012B22
:103A600033D100230363026802F10C0353E8003FE3
:103A700023F010030C3242E800310029F3D103682F
:103A80001A6812F0100F06D0002201921A680192F3
:103A90005B680193019B818DFFF7AAFF002003B0B3
:103AA0005DF804FB0269002AACD1826A03685B6896
:103AB000C3F308031380836A02338362B1E70368A8
:103AC0005B6803F07F031370A8E700F0D1FAE5E725
:103AD000022070470020704730B583B0044602686A
:103AE0001368D068516913F00F0505D113F0200F4A
:103AF00002D010F0200F19D12DB111F0010119D110
:103B000010F4907F16D1216B01297DD013F0800F26
:103B100003D010F0800F40F0188113F0400F03D055
:103B200010F0400F40F0158103B030BD2046FFF784
:103B300060FFF9E713F0010F06D010F4807F03D087
:103B4000626C42F00102626413F0040F04D019B1F8
:103B5000626C42F00202626413F0020F04D019B1E9
:103B6000626C42F00402626413F0080F07D010F098
:103B7000200F00D119B1626C42F008026264626CDD
:103B8000002AD1D013F0200F02D010F0200F29D13D
:103B900023685B6903F04003626C12F0080F00D1E8
:103BA00063B32046FFF76EFD23685B6913F0400F97
:103BB00020D0226802F1140353E8003F23F04003B1
:103BC000143242E800310029F3D1E36B73B1634A48
:103BD0005A63E06BFEF722FC0028A5D0E06B436B34
:103BE0009847A1E72046FFF704FFD1E72046FFF7FB
:103BF000F6FE99E72046FFF7F2FE95E72046FFF72D
:103C0000EEFE002363648FE713F0100F3FF47EAFE6
:103C100010F0100F3FF47AAF002301931368019363
:103C200053680193019B536913F0400F51D0E26B2D
:103C300013685B689BB2002B3FF476AFA18D99426D
:103C40007FF672AFE3859369202B37D0226802F1AB
:103C50000C0353E8003F23F480730C3242E8003138
:103C60000029F3D1226802F1140353E8003F23F046
:103C70000103143242E800310029F3D1226802F135
:103C8000140353E8003F23F04003143242E80031AC
:103C90000029F3D1202384F84230002323632268D3
:103CA00002F10C0353E8003F23F010030C3242E80A
:103CB00000310029F3D1E06BFEF78BFB0223636335
:103CC000A18DE38D9BB2C91A89B22046FFF790FE01
:103CD0002AE7A18DE38D9BB2C91A89B2E38D9BB20D
:103CE000002B3FF421AF00293FF41EAF226802F100
:103CF0000C0353E8003F23F490730C3242E8003089
:103D00000028F3D1226802F1140353E8003F23F0A6
:103D10000103143242E800300028F3D1202384F854
:103D2000423000232363226802F10C0353E8003F72
:103D300023F010030C3242E800300028F3D10223B4
:103D400063632046FFF754FEEEE62046FFF7C8FC0B
:103D5000EAE62046FFF736FEE6E600BFE139000856
:103D600081628285C28500234364222380F8423029
:103D7000036923B10268D36843F48073D360026897
:103D8000536943F0010353610268D36843F0200391
:103D9000D3600020704708B590F84230DBB2202B8A
:103DA00008D149B10AB9012008BD00230363FFF718
:103DB000D7FFF9E70220F7E70120F5E72DE9F04109
:103DC0008EB0A048FFF7C0FA9F4E6C4606F1100572
:103DD0000FCD0FC40FCD0FC40FCD0FC495E8030056
:103DE00084E8030096E80F0000F05CFA974B01228C
:103DF0001A70964B1B784BB1954B1B7833B9954B8A
:103E00001B78002BF5D0924B01221A70904B1B7837
:103E100003F0FF060BB9042319E08F4B00221A7040
:103E20001321702000F0D2FC0EB0BDE8F0818B4A67
:103E3000D15C581C105C5A08063240EA012002EBA3
:103E40008202874901EB021210840233DBB2132B8A
:103E5000EDD9FF220021814801F02CF9814C10227C
:103E600021468148FEF744F9C820FDF7F9FE1022EB
:103E70007E49204601F0E4F8344616E0784F4FEAD8
:103E8000840804EB840007EB001090F90A10C26B61
:103E90000092DBB2028CC9B2808900F0EDFE45448D
:103EA00007EB051778630134E4B20F2CBCD8254624
:103EB00004EB84036A4A02EB031393F84C30002BA3
:103EC000F1D06A4B1B5704EB8402654901EB0212E7
:103ED00093775279A13A052AE5D801A151F822F049
:103EE0007D3E0008F93E0008313F00085D3F0008B4
:103EF000853F0008EB3F0008594F4FEA840804EB68
:103F0000840007EB001090F90A10826C0392426C57
:103F10000292026C0192C26B0092DBB2028CC9B2B7
:103F2000808900F00DFF454407EB05177863BAE779
:103F30004B4F4FEA840804EB840007EB001090F924
:103F40000A10C26B0092DBB2028CC9B2808900F009
:103F50002FFE454407EB05177863A4E7404F4FEA6F
:103F6000840804EB840007EB001090F90A10DBB220
:103F7000028CC9B2808900F0DFFD454407EB0517CC
:103F8000786390E7364F4FEA840804EB840007EB30
:103F9000001090F90A10DBB2028CC9B2808900F0DF
:103FA0008FFD454407EB051778637CE70132D2B2F9
:103FB0000F2A1DD805EB8501294800EB011109895D
:103FC000114111F0010FF1D00CF1010E02EB820151
:103FD00000EB01110F8C05EB85010CEBC1011031D9
:103FE00020F811705FFA8EFCE0E73246B446DFE756
:103FF0004FEA850805EB850000010830184F38446A
:1040000005EB850C07EB0C1C9CF90A1005EB8502EF
:1040100012012032DCF840E0CDF808E0DCF83CE0AA
:10402000CDF804E09CF806C0CDF800C0DBB23A44FD
:10403000C9B2043000F020FF454407EB0517786350
:1040400031E700BF6810002030110020580F002019
:104050005D0F0020590F00205A0F0020600F002034
:10406000380A00201409002078080020380F0020AA
:1040700038B504460368434A93420CD0A2F58062E7
:10408000934208D02268404B9A4262D03F4B1A7844
:104090003F4B1A7038BD3D4B1B78BB2B1DD0AA2B54
:1040A0001BD03C4A127862B13B490A78501C087018
:1040B0003A498B543A4A1278934221D01344384AF1
:1040C0001370324D012229463648FFF764FE012263
:1040D00029463548FFF75FFED4E72D4A1278AA2A11
:1040E000DFD12C4A012111702D490A78563A0A7005
:1040F00029490A78501C08702849AA208854D0E71A
:10410000AA2BDBD0CB78052B1AD00024224B1C70B5
:10411000204B1C70224B1C70244B1C701B4D012229
:1041200029462048FFF737FE012229461E48FFF79F
:1041300032FE1F4D2846FFF73BF92B685C62A9E76A
:104140001C4B01221A70FF220021144800F0B2FF1C
:10415000DBE7114A1378591C11700C4D2978164A67
:10416000D154164C2046FFF723F9236800225A62E7
:104170002046FFF7E9F8012229461148FFF70BFE18
:1041800084E700BF0048004000500040621000205B
:10419000DC1100205C0F002060100020600F002068
:1041A0005F10002030110020E8100020580F002080
:1041B000681000205A0F002034090020A8100020A9
:1041C000781100200268074B9A4200D0704710B562
:1041D000054C2046FFF7ECF8226800235362034A9F
:1041E000137010BD00240140681000201009002049
:1041F00038B504460368B3F1804F04D02268144BED
:104200009A4215D038BD134D2846FFF7D1F82A68D9
:1042100000235362104A01211170104A1370104A92
:104220001370104A1370104A1370104A1370E5E7A8
:104230000F4C2046FFF7BCF8236800225A620B4B54
:1042400018780C4908701A700B4B01221A70D9E7C4
:104250000004004068100020590F0020580F002073
:10426000100900205A0F0020340A0020601000209E
:10427000A8100020611000205B0F002084B008B55A
:104280000DF1080C8CE80F004FF6FF73072204496C
:104290006046FFF737FBBDE8084004B0704700BF39
:1042A0000C00002084B008B50DF1080C8CE80F005C
:1042B0004FF6FF73052204496046FFF723FBBDE874
:1042C000084004B0704700BF1400002000B58646C7
:1042D0004FF0000C4FF6FF7010E040080133DBB2E6
:1042E000072B07D810F0010FF7D04AF2010282EA3B
:1042F0005000F3E70CF1010C5FFA8CFC8C4504D202
:104300001EF80C3058400023EAE75DF804FB00007B
:1043100070B5424BA0221A7001229A706022DA70A6
:1043200000230AE01C1D00EB80023D4901EB021254
:10433000D15C3A4A11550133DBB2042BF2D900EBC0
:104340008003374A02EB03135979344A51721B89AF
:10435000190A9172D37200210C2316E000EB80023F
:1043600001EBC20204322E4C04EB4202B2F804C04C
:104370005A1CD2B2294C4FEA1C2E04F803E0023337
:10438000DBB204F802C00131C9B200EB8002244C58
:1043900004EB021292798A42E0D85D1CEDB200EB88
:1043A000800204EB0212947A1C49CC540233DCB232
:1043B00092F838C001F805C00022944519D900EBE5
:1043C000800302EB83030E33154901EB83035E6820
:1043D0003114631CDBB2114D29554FEA262EA11C66
:1043E000C9B205F803E00334E4B26E540132D2B22C
:1043F000E3E7A61CF6B2094D6E7021462846FFF78A
:1044000065FF631CDBB2020A2A55E8544FF0FF3304
:10441000324629460348FFF775FA70BDE0110020C7
:10442000380A0020781100202DE9F041514BA022DC
:104430001A7001229A706122DA704FF0000C052484
:10444000E6466BE0651C01EB81024B4800EB021273
:10445000D05C484A10550133DBB2ACB2042BF1D921
:10446000651CADB201EB8103434A02EB03135A7999
:10447000404802551E89A31C9BB2320A42550334A0
:10448000A4B2C654002012E001EB810300EBC30389
:104490000433394A02EB43039D88631C9BB2354ABF
:1044A0002E0A16550234A4B2D5540130C0B201EB25
:1044B0008103314A02EB03139B798342E4D8601CE9
:1044C00080B201EB810302EB03139D7A294A155553
:1044D0000234A4B293F83870175400239F4219D9BC
:1044E00001EB810203EB82020E32234800EB8202D1
:1044F00056683014621C92B21E4D28554FEA262889
:10450000A01C80B205F802800334A4B22E540133FB
:10451000DBB2E3E70CF1010C5FFA8CFCBCF10F0F8E
:104520000FD861460CEB8C03134A02EB031393F88C
:104530004C30012BEED10EF1010E5FFA8EFE0023FE
:104540008CE70C4D85F804E0E1B28B1C6B702846BB
:10455000FFF7BCFE631C9BB2020A2A55A21CE8545A
:104560004FF0FF3392B229460448FFF7CBF9BDE87C
:10457000F08100BFE0110020380A002078110020EF
:104580002DE9F84305463E4BA0221A7001229A708D
:104590007022DA7000230AE0181D05EB8502394904
:1045A00001EB0212D15C364A11540133DBB2042B09
:1045B000F2D905EB8503334A02EB03135979304AEC
:1045C000517293F806E082F80AE000230B2413E00E
:1045D00005EB850203EBC20210322A4931F81200C2
:1045E000621CD2B226494FEA102C01F804C00234F2
:1045F000E4B288540133DBB29E45E9D8214F4FEA3B
:10460000850805EB850307EB0313586BFCF74CFBA0
:1046100083B2611CC9B21A4E00223255A21CD2B21A
:10462000C0F3072000EB800000EB80008000705496
:10463000E11CC9B203EB830303EB83039B00B35478
:1046400004F104095FFA89F9454407EB0517BB7FBC
:104650007354A51DEDB2757049463046FFF736FE1E
:104660000534E4B2030A06F8093030554FF0FF3341
:104670002A4631460448FFF745F9BDE8F88300BFF4
:10468000E0110020380A0020781100202DE9F843BD
:104690004B4BA0221A7001229A707122DA70002608
:1046A0000524374665E0601C05EB8502454901EBB2
:1046B0000212D15C424A11550133DBB2C4B2042B61
:1046C000F1D9611CC9B205EB85033E4A02EB031325
:1046D00058793B4A10550234E4B293F806C002F808
:1046E00001C0002313E005EB850203EBC202103288
:1046F000344931F81200621CD2B231494FEA102E0F
:1047000001F804E00234E4B288540133DBB29C4582
:10471000E9D8DFF8B0804FEA850905EB850308EB9F
:104720000313586BFCF7C0FA83B204F1010C5FFA73
:104730008CFC234A00211155A11CC9B2C0F30720EB
:1047400000EB800000EB8000800002F80C00E01C11
:10475000C0B203EB830303EB83039B005354043485
:10476000E4B24D4408EB051898F81E301354013696
:10477000F6B20F2E0DD8354606EB8603114A02EB32
:10478000031393F84C30012BF1D10137FFB2002312
:1047900095E70B4D2F71A61CF6B26E702146284688
:1047A000FFF794FD631CDBB2020A2A55E8544FF070
:1047B000FF33324629460448FFF7A4F8BDE8F883E2
:1047C000E0110020380A00207811002038B50C4C88
:1047D000A0232370072565700123A370E070217169
:1047E00005212046FFF772FD030A6371A0714FF0A7
:1047F000FF332A4621460348FFF784F838BD00BF3F
:10480000E011002078110020F8B50E4B1C79013C16
:1048100004EB8403180108300B4D284419012031A2
:104820001E012E44B279520029440430FCF7E0FB0B
:1048300096F91E20B27200F0E9F8A0214020FFF79F
:10484000C5FFF8BD34090020380A00206A4B1B78E8
:10485000A02B40F0CF802DE9F04100242546664B87
:104860009E78012E3BD15A78644B1B789A4230D106
:10487000991E6148425C013BC75C47EA0227C9B206
:10488000FFF724FD87422CD15B4BDB785C4A137029
:104890005A4A00211170402B00F0A8801FD3712BC1
:1048A0001DD8502B1BD3503B212B18D8DFE803F029
:1048B0002F17171717171717171717171717171770
:1048C000272C171717171717171717171717171753
:1048D0001F2315213046FFF779FF484B1C70BDE8B8
:1048E000F0811421444BD878FFF770FFF7E7454B70
:1048F00001221A70F3E7434B03221A70EFE73E4B95
:104900001879FFF705FDEAE7FFF78EFDE7E73A4B79
:104910009A7A93F80BC04CEA022C00210B4643E034
:10492000081D354C275C02EB8200374C04EB00106D
:1049300047540131C9B20429F2D902EB820132484D
:1049400000EB0111A1F808C02B48447A4C7190F893
:104950000CE081F838E0002018E0440004F10D017B
:10496000254F17F80180C11D17F81110090241EAFF
:1049700008410F343C5D214302EB820400EB8404C8
:104980000E34214F07EB8404616001308645E4DC7E
:1049900002EB82021C4901EB0212012182F84C1049
:1049A00031461C460133DBB20F2B12D81A464CFAA3
:1049B00003F010F0010FF5D00135EDB20029BAD0A7
:1049C00003EB8302104800EB0212022082F84C0035
:1049D000E8E704EB84040C4B03EB0414A57100F02E
:1049E00015F8A0215020FFF7F1FE78E7054B0522CE
:1049F0001A7074E7704700BF34090020611000206E
:104A0000330A0020340A0020380A0020F0B585B0AF
:104A1000FDF7D2FD00230193174B0293022303936A
:104A2000694601A8FDF77CFE0746E0B90026124D55
:104A30000F2E1DDC00244F2C18D806EB86030F4ADE
:104A400002EB031305331A590D4B1A602946022055
:104A5000FDF732FE10B904350434ECE7FDF7E8FD4C
:104A6000C7B2FDF7DBFD384605B0F0BD0136DFE724
:104A7000FDF7D4FDF7E700BF00F00508380A002075
:104A8000E012002010B400200A4C0CE000EB800182
:104A90000B0109490B44053354F8041B99500432A7
:104AA0004F2AF3D901300F2801DC0022F8E710BCAF
:104AB000704700BF00F00508380A00200000000021
:104AC000F8B50D4617461E46FBF7D6FD16A3D3E9EB
:104AD0000023FBF755FB02460B46FBF751FBFBF7A8
:104AE00035FE04463846FBF7C7FD0FA3D3E9002384
:104AF000FBF746FB02460B46FBF742FBFBF726FEA5
:104B00002146FBF777FE0A49FBF77EFF0446701B40
:104B1000FBF726FF0749FBF777FF01462046FBF727
:104B20006BFEF8BDAFF300809A9999999999B93FB6
:104B300015046A3BCDCC0C40F8B50D4617461E4611
:104B4000FBF79AFD16A3D3E90023FBF719FB0246F6
:104B50000B46FBF715FBFBF7F9FD04463846FBF760
:104B60008BFD0FA3D3E90023FBF70AFB02460B469C
:104B7000FBF706FBFBF7EAFD2146FBF73BFE0A4984
:104B8000FBF742FF0446701BFBF7EAFE0749FBF701
:104B90003BFF01462046FBF72FFEF8BDAFF3008038
:104BA0009A9999999999B93F37D34E3BCDCC0C40FE
:104BB0002DE9F8430E4614461F46FBF75DFD26A37C
:104BC000D3E90023FBF7DCFA02460B46FBF7D8FAE1
:104BD000FBF7BCFD81462046FBF74EFD1EA3D3E943
:104BE0000023FBF7CDFA02460B46FBF7C9FAFBF7A9
:104BF000ADFD80460898FBF73FFD19A3D3E90023DC
:104C0000FBF7BEFA18A3D3E90023FBF7B9FA044671
:104C10000D4649464046FBF7EDFDFBF73FFD0246DA
:104C20000B4620462946FBF7ABFA04460D46B81B57
:104C3000FBF796FE0E49FBF7E7FEFBF72FFD02465A
:104C40000B4620462946FBF7CBFBFBF77FFDBDE873
:104C5000F88300BFAFF300809A9999999999B93F69
:104C60002D431CEBE2361A3F000000C08353473F40
:104C7000CDCC0C40000000002DE9F8430E46144650
:104C80001F46FBF7F9FC26A3D3E90023FBF778FACC
:104C900002460B46FBF774FAFBF758FD81462046A7
:104CA000FBF7EAFC1EA3D3E90023FBF769FA0246EF
:104CB0000B46FBF765FAFBF749FD80460898FBF7C2
:104CC000DBFC19A3D3E90023FBF75AFA18A3D3E9B5
:104CD0000023FBF755FA04460D4649464046FBF7CC
:104CE00089FDFBF7DBFC02460B4620462946FBF715
:104CF00047FA04460D46B81BFBF732FE0E49FBF798
:104D000083FEFBF7CBFC02460B4620462946FBF709
:104D100067FBFBF71BFDBDE8F88300BFAFF3008026
:104D20009A9999999999B93F2D431CEBE2361A3F0C
:104D30000000008096A3413FCDCC0C400000000055
:104D40002DE9F8430E4614461F46FBF795FC44A395
:104D5000D3E90023FBF714FA02460B46FBF710FADF
:104D600041A3D3E90023FBF70BFAFBF7EFFC054661
:104D70002046FBF781FC3AA3D3E90023FBF700FAB6
:104D800002460B46FBF7FCF937A3D3E90023FBF7F8
:104D9000F7F9FBF7DBFC04460898FBF76DFC34A33E
:104DA000D3E90023FBF7ECF98046894629462046E3
:104DB000FBF720FDFBF772FC04460D4602460B464E
:104DC00040464946FBF7DCF902460B462046294699
:104DD000FBF7D6F9804689460998FBF74DFC24A3DA
:104DE000D3E90023FBF7CCF902460B4620462946BF
:104DF000FBF7C6F902460B4640464946FBF7F0FA78
:104E000004460D460A98FBF737FC19A3D3E90023A3
:104E1000FBF7B6F902460B4620462946FBF7E0FAB7
:104E200004460D460B98FBF727FC11A3D3E900239A
:104E3000FBF7A6F980468946B81BFBF71DFC4246E6
:104E40004B46FBF79DF902460B4620462946FBF7E9
:104E5000C7FAFBF77BFCBDE8F88300BFAFF3008027
:104E60009A9999999999B93FFCA9F1D24D62503F0D
:104E70002D431CEBE2361A3F2DE9F04F85B08246F8
:104E80000191914602939DF83880B8F1040F09D042
:104E9000DFF854B1B8F1030F07D0544B0393002649
:104EA000002722E04FF03F4BF4E7DFF844B1514BCD
:104EB0000393F4E73AF81600FBF7DEFB46A3D3E9C9
:104EC0000023FBF75DF902460B46FBF759F9044650
:104ED0000D463846FBF7E2FB22462B46FBF780FAED
:104EE000FBF734FC07460136F6B24645E2D34046AE
:104EF000FBF736FD824601463846FBF739FE009047
:104F0000002400251AE039F81400FBF7B5FB32A3A2
:104F1000D3E90023FBF734F902460B46FBF730F9DF
:104F200006460F462846FBF7B9FB32463B46FBF7E1
:104F300057FAFBF70BFC05460134E4B24445E2D3D3
:104F400051462846FBF714FE06460F98FBF794FBE4
:104F500023A3D3E90023FBF713F904460D46039876
:104F6000FBF79CFB22462B46FBF70AF904460D464D
:104F700000993046FBF73EFCFBF790FB02460B46E0
:104F800020462946FBF7FCF804460D461098FBF72F
:104F900073FB13A3D3E90023FBF7F2F802460B4699
:104FA00020462946FBF71AFA04460D46029B019A51
:104FB000981AFBF7D5FC5946FBF726FDFBF76EFB6D
:104FC00002460B4620462946FBF70AFAFBF7BEFBD2
:104FD00005B0BDE8F08F00BF9A9999999999B93FAA
:104FE0002D431CEBE2361A3F333333BF417B5C3A2F
:104FF0009A9999BEB41C0D3AA0F13C039BB2B3F54B
:10500000717F16D34FF0000CACF11E0040B2704718
:105010000133DBB2502BF7D8084A32F81320121AAA
:10502000002AB8BF52429142F2DD91B20FFA83FCDE
:10503000EEE700239C464FF6FF71EBE7186B000884
:10504000F8B507460E461546002405E037F814006B
:10505000FFF7D2FF30550134A542F7DCF8BD000060
:10506000014B1868704700BF1C00002070B50D4E42
:105070000D4D761BB61006D0002455F8043B0134C4
:105080009847A642F9D1094E094D01F01DFD761B46
:10509000B61006D0002455F8043B01349847A642C8
:1050A000F9D170BDCC6B0008CC6B0008D46B000844
:1050B000CC6B0008830730B548D0541E002A3FD07F
:1050C0000346CAB201E0013C3AD303F8012B9D0725
:1050D000F9D1032C2DD9CDB245EA05250F2C45EA8F
:1050E000054536D9A4F1100222F00F0C03F1200E71
:1050F000E6444FEA121C03F1100242E9045542E96A
:10510000025510327245F8D10CF1010214F00C0F67
:1051100003EB021204F00F0C13D0ACF1040323F0E4
:1051200003030433134442F8045B9342FBD10CF0B5
:1051300003042CB1CAB21C4403F8012B9C42FBD1DE
:1051400030BD64461346002CF4D1F9E703461446FB
:10515000BFE71A46A446E0E730B5054689B00846E1
:105160000C4600F04FF801210223214A04940692D4
:10517000AA6B04AC0590084401940791AC680293B3
:10518000039022B3636E13F0010FB4F90C309AB29E
:1051900001D1980525D5910406D4626E43F40053DD
:1051A00022F40052A3816266284601AA214600F03B
:1051B00015F9636E002814BF4FF0FF350A25DA0792
:1051C00002D4A3899B0506D5284609B030BD2846E0
:1051D00000F05CF8D6E7A06D00F0A2FA284609B00E
:1051E00030BDA06D00F09AFAB4F90C309AB2D2E753
:1051F000C06B0008024B01461868FFF7ADBF00BF47
:105200001C00002020F0030110F00300C0F100009A
:1052100051F8043B00F1040C4FEACC0C6FF0000293
:105220001CBF22FA0CF213434FF0010C4CEA0C2C79
:105230004CEA0C4CA3EB0C0222EA030212EACC1259
:1052400004BF51F8043B0430F4D0C2F1000102EA7B
:105250000102B2FA82F2C2F11F0200EBD2007047E3
:10526000024B13B1024800F005B87047000000007F
:10527000B1530008002301461A46184601F094B8BD
:10528000014900F023BA00BF596400082DE9F04736
:105290008246394800F042FADAF83840002C66D1EC
:1052A000042303223549DAF80450CAF83C10DFF829
:1052B000D090DFF8D080344F344E0AF53B71CAE904
:1052C000B921CAF8E0422146EB600822C5E9004452
:1052D000C5E904446C66AC60AC6105F15C00FFF7A5
:1052E000E9FEC5E90759C5E90987EE6205F15800ED
:1052F00000F010FADAF80850254B2146EB6008223E
:10530000C5E90044C5E904446C66AC60AC6105F1D4
:105310005C00FFF7CFFEC5E90759C5E90987EE62D2
:1053200005F1580000F0F6F9DAF80C50194B214657
:10533000EB600822C5E90044C5E904446C66AC6032
:10534000AC6105F15C00FFF7B5FE05F15800C5E959
:105350000759C5E90A76C5F8248000F0DBF9012376
:105360000548CAF83830BDE8F04700F0D9B902481E
:10537000BDE8F04700F0D4B9F012002081520008D7
:105380001D6200084162000881620008A1620008F5
:105390000900010012000200014800F0BFB900BF7F
:1053A000EC120020014800F0BBB900BFEC12002055
:1053B00038B5084B084D5B1B9C1007D0043B1D44BF
:1053C000013C55F804399847002CF9D1BDE8384024
:1053D00001F080BBD86B0008D46B00089368002BE9
:1053E00000F0B7802DE9F04FB1F90C300C461907E9
:1053F0008046174683B098B225D523691BB310F0B9
:1054000002033D682DD04FF0000B5E46DFF8B8A2D6
:10541000002E00F08B80564533465A4628BF53462F
:105420004046E169D4F824C0E047002840F3878073
:10543000BB6883441B1A361ABB60002BE8D10020DE
:1054400003B0BDE8F08F2146404600F043FF00283E
:1054500040F03681B4F90C303D6898B210F0020388
:10546000D1D110F0010976D14E46002E5AD08205D6
:10547000D4F808B040F1B580B3455A4600F2CD806B
:1054800010F4906F00F0CB8023682169A3EB010B2F
:10549000636903EB430A0AEBDA7A0BF101034FEA83
:1054A0006A0A33445345524684BF9A4652464305DE
:1054B00040F1EA801146404600F034F9002800F03F
:1054C000F9805A4621690190FBF792FDA289019B60
:1054D00022F4906242F08002A28103EB0B00236170
:1054E0003246AAEB0B03B346C4F814A0A3602060B5
:1054F000B24600264946019200F008FCA3682168E4
:10550000019AA3EB0B030A44A3602260B868D1445C
:10551000A0EB0A00B860002891D0B4F90C0080B26A
:10552000002EA4D1D5E9009608359EE7D5E900B64E
:1055300008356DE72146404601F086F880B3B4F99E
:105540000C304FF0FF3043F04003A38103B0BDE8BF
:10555000F08F002070471E46AA46994618461D4601
:1055600056B3002832D04A4620682169B24228BF8B
:1055700032468842636904D9A16803EB010B5A459E
:1055800074DC934265DC2A464046E169D4F824C0C5
:10559000E047B0F1000BD2DDB9EB0B09CAD0012016
:1055A000BB685D44A3EB0B03A6EB0B06BB60002BB3
:1055B0003FF445AF002ED4D10AF1080353F8046C30
:1055C0009A4653F8085C0833002EF7D032460A2179
:1055D000284600F053FB002869D00130A0EB0509F4
:1055E000C1E72068236998421BD86369B34218D881
:1055F0006FF0004CB44528BFB4469CFBF3FC4A4610
:1056000003FB0CF34046E169D4F824C0E047B0F155
:10561000000A94DDA6EB0A0678E7B3463246206816
:1056200066E7B345DA4628BFB2464946524600F01F
:105630006DFBA3682268A3EB0A035244A3602260B7
:10564000002BE7D12146404600F0FEFF0028E1D0C4
:1056500075E729469346019200F058FBA368019A2A
:105660009B1AA36023681A44226095E729465A468C
:1056700000F04CFB236821465B444046236000F069
:10568000E3FF002888D05AE7404600F0C7FB0346F6
:1056900000287FF422AF4046216901F053F80C2224
:1056A000B4F90C30C8F8002023F0800349E7721CDD
:1056B000914659E70C22B4F90C30C8F8002040E7B5
:1056C0004FF0FF30BCE600BF00FCFF7F2DE9F84340
:1056D0004FF000090746884600F53876D6E90154B0
:1056E000013D10D4A389013D012B08D9B4F90E3036
:1056F000013304D021463846C04749EA00096B1CF3
:1057000004F16804EED13668002EE7D14846BDE8C2
:10571000F88300BF704700BF704700BF704700BFED
:10572000704700BF2DE9F04F01F10B05162D06461D
:1057300083B025D8102900F2B88000F063FB102553
:1057400018224FF0020CB54F3A445368A2F10801F9
:105750008B4200F0B7805A68D96822F003021A44DD
:105760009C683046E1608C60516803F1080441F0A8
:105770000101516000F04CFB204603B0BDE8F08F02
:1057800035F0070500F19180A94200F28E8000F00B
:1057900039FBB5F5FC7FC0F094816B0A00F08C807A
:1057A000042B00F26A81AB0903F1390C03F13804D0
:1057B0004FEACC00994F384443680838984206D1E4
:1057C0000CE0002980F22681DB68984206D05A68F6
:1057D00022F00302511B0F29F3DDA4463C69DFF8D8
:1057E00040E274457AD0626822F00302531B0F2B0B
:1057F00000F37681002BC7E904EE80F26781B2F5F1
:10580000007F80F019810121D30852090B44914097
:105810007A6857F833000A4307EBC3010839A060E0
:10582000E1607A6047F83340C46001214FEAAC037D
:105830009940914259D8114206D12CF0030C4900ED
:1058400011420CF1040CFAD007EBCC09484664462F
:10585000D0F80C80404508D11CE1002B80F221815A
:10586000D8F80C80404500F01581D8F8042022F0CB
:105870000302531B0F2BF0DD08EB050145F001057A
:10588000C8F804503046D8E90264F460A66043F0DA
:105890000104C7E904114C60C1E902EE48F8023086
:1058A00000F0B6FA08F1080402E00C23002433608B
:1058B000204603B0BDE8F08F4FF400704FF0400C6D
:1058C0003F2477E7D3689A4208BF0CF1020C7FF4BB
:1058D00042AF3C69DFF848E1744584D101217A6820
:1058E0004FEAAC0399409142A5D9BC68636823F0A4
:1058F00003094D4503D8A9EB05030F2B7ADCDFF82C
:1059000024B1494BDBF800201B6801322B4404EB27
:10591000090A00F02F8103F580530F3323F47F68C9
:1059200028F00F084146304600F066FC411C024654
:1059300000F0EF80824500F2EA803C4B1968414458
:105940000846196000F04981DBF80010019301312D
:105950001BBFA2EB0A0A5044CBF80020186012F0DB
:10596000070B00F01181CBF108010A44CBF58051FF
:1059700090440831A1EB0801C1F30B0A51463046AF
:10598000009200F039FC421CDDE9002300F04B815D
:10599000801A00EB0A08196848F001005144BC4223
:1059A000BA601960506000F02481B9F10F0F40F225
:1059B00022814FF0050E6068A9F10C0C2CF0070C49
:1059C00000F0010040EA0C006060BCF10F0F04EB36
:1059D0000C00C0E901EE00F22E8114465068144B11
:1059E0001A688A4238BF1960124B1A688A4238BF57
:1059F000196090E0621943F0010345F0010565600C
:105A00003046BA600834536000F002FA204603B012
:105A1000BDE8F08FD9681A44A2E600BF4C0400200C
:105A2000540400205408002024130020F412002005
:105A30001C13002020130020B2F5206F4FEA5223E0
:105A40005FD3142B00F2B18003F15C01C9005B331A
:105A5000781879580838884200F08F804B6823F016
:105A60000303934202D989688842F7D1C8687A68EB
:105A7000C4E902108460CC60D7E6142B59D9542BAA
:105A800000F29B802B0B03F16F0C03F16E044FEAC5
:105A9000CC008FE60134A30700F108007FF4D8AEF4
:105AA00053E0444642445368D8F80C1043F00103D5
:105AB000536054F8083F3046D9608B6000F0A8F975
:105AC000F6E64FEAD50C05F108023CE6224453689D
:105AD000304643F00103536000F09AF90834E7E6DA
