:020000040800F2
:1000000000C00020AD160008F5120008F712000825
:10001000F9120008FB120008FD12000800000000A1
:10002000000000000000000000000000FF120008B7
:100030000113000800000000031300080513000866
:10004000F5160008F5160008F5160008F516000864
:10005000F5160008F5160008F5160008F516000854
:10006000F5160008F5160008F51600080D1300082F
:10007000F5160008F5160008F5160008F516000834
:10008000F5160008F5160008F5160008F516000824
:10009000F5160008F5160008F5160008F516000814
:1000A00000000000F5160008F5160008F516000817
:1000B0001D130008F5160008F5160008F5160008CF
:1000C000F5160008F5160008F5160008F5160008E4
:1000D000F5160008F51600082D1300083D1300085A
:1000E000F5160008F5160008F5160008F5160008C4
:1000F000F5160008F5160008F5160008F5160008B4
:10010000F51600084D130008F5160008F51600084E
:10011000F5160008F5160008F516000800000000A6
:10012000F5160008000000000000000000000000BC
:0C01300000000000000000005FF808F173
:1001400010B5054C237833B9044B13B10448AFF311
:1001500000800123237010BD500400200000000027
:10016000284D000808B5034B1BB103490348AFF302
:10017000008008BD0000000054040020284D000845
:1001800081F0004102E000BF83F0004330B54FEA48
:1001900041044FEA430594EA050F08BF90EA020FB5
:1001A0001FBF54EA000C55EA020C7FEA645C7FEA48
:1001B000655C00F0E2804FEA5454D4EB5555B8BF6B
:1001C0006D420CDD2C4480EA020281EA030382EADC
:1001D000000083EA010180EA020281EA0303362D6E
:1001E00088BF30BD11F0004F4FEA01314FF4801C41
:1001F0004CEA113102D0404261EB410113F0004F53
:100200004FEA03334CEA133302D0524263EB430309
:1002100094EA050F00F0A780A4F10104D5F1200EA7
:100220000DDB02FA0EFC22FA05F2801841F1000102
:1002300003FA0EF2801843FA05F359410EE0A5F1D6
:1002400020050EF1200E012A03FA0EFC28BF4CF007
:10025000020C43FA05F3C01851EBE37101F00045BD
:1002600007D54FF0000EDCF1000C7EEB00006EEBCA
:100270000101B1F5801F1BD3B1F5001F0CD3490854
:100280005FEA30004FEA3C0C04F101044FEA4452AB
:1002900012F5800F80F09A80BCF1004F08BF5FEA32
:1002A000500C50F1000041EB045141EA050130BD12
:1002B0005FEA4C0C404141EB0101013C28BFB1F524
:1002C000801FE9D291F0000F04BF01460020B1FA6F
:1002D00081F308BF2033A3F10B03B3F120020CDA42
:1002E0000C3208DD02F1140CC2F10C0201FA0CF020
:1002F00021FA02F10CE002F11402D8BFC2F1200C85
:1003000001FA02F120FA0CFCDCBF41EA0C0190403A
:10031000E41AA2BF01EB0451294330BD6FEA040483
:100320001F3C1CDA0C340EDC04F11404C4F120026E
:1003300020FA04F001FA02F340EA030021FA04F380
:1003400045EA030130BDC4F10C04C4F1200220FAD7
:1003500002F001FA04F340EA0300294630BD21FA15
:1003600004F0294630BD94F0000F83F4801306BFDB
:1003700081F480110134013D4EE77FEA645C18BFCF
:100380007FEA655C29D094EA050F08BF90EA020F66
:1003900005D054EA000C04BF1946104630BD91EA5E
:1003A000030F1EBF0021002030BD5FEA545C05D161
:1003B0004000494128BF41F0004130BD14F58004A0
:1003C0003CBF01F5801130BD01F0004545F0FE4114
:1003D00041F470014FF0000030BD7FEA645C1ABF49
:1003E000194610467FEA655C1CBF0B46024650EA80
:1003F000013406BF52EA033591EA030F41F40021AC
:1004000030BD00BF90F0000F04BF0021704730B531
:100410004FF4806404F132044FF000054FF0000106
:1004200050E700BF90F0000F04BF0021704730B5C7
:100430004FF4806404F1320410F0004548BF40429C
:100440004FF000013EE700BF42004FEAE2014FEAF1
:1004500031014FEA02701FBF12F07F4393F07F4FCC
:1004600081F06051704732F07F4208BF704793F0CF
:100470007F4F04BF41F40021704730B54FF46074E2
:1004800001F0004521F000411CE700BF50EA0102E5
:1004900008BF704730B54FF000050AE050EA01028E
:1004A00008BF704730B511F0004502D5404261EBFE
:1004B00041014FF4806404F132045FEA915C3FF43F
:1004C000D8AE4FF003025FEADC0C18BF03325FEADC
:1004D000DC0C18BF033202EBDC02C2F1200300FA8D
:1004E00003FC20FA02F001FA03FE40EA0E0021FAB2
:1004F00002F11444BDE600BF70B54FF0FF0C4CF4A0
:10050000E06C1CEA11541DBF1CEA135594EA0C0F51
:1005100095EA0C0F00F0DEF82C4481EA030621EA8C
:100520004C5123EA4C5350EA013518BF52EA0335C7
:1005300041F4801143F4801338D0A0FB02CE4FF079
:100540000005E1FB02E506F00042E0FB03E54FF0A9
:100550000006E1FB03569CF0000F18BF4EF0010EA1
:10056000A4F1FF04B6F5007F64F5407404D25FEA9D
:100570004E0E6D4146EB060642EAC62141EA555150
:100580004FEAC52040EA5E504FEACE2EB4F1FD0C92
:1005900088BFBCF5E06F1ED8BEF1004F08BF5FEA10
:1005A000500E50F1000041EB045170BD06F00046C2
:1005B00046EA010140EA020081EA0301B4EB5C046F
:1005C000C2BFD4EB0C0541EA045170BD41F4801167
:1005D0004FF0000E013C00F3AB8014F1360FDEBF8C
:1005E000002001F0004170BDC4F10004203C35DA68
:1005F0000C341BDC04F11404C4F1200500FA05F3EB
:1006000020FA04F001FA05F240EA020001F000428B
:1006100021F0004110EBD37021FA04F642EB060101
:100620005EEA430E08BF20EAD37070BDC4F10C042B
:10063000C4F1200500FA04F320FA05F001FA04F2EF
:1006400040EA020001F0004110EBD37041F10001DB
:100650005EEA430E08BF20EAD37070BDC4F12005E6
:1006600000FA05F24EEA020E20FA04F301FA05F24E
:1006700043EA020321FA04F001F0004121FA04F2F6
:1006800020EA020000EBD3705EEA430E08BF20EAC6
:10069000D37070BD94F0000F0FD101F00046400000
:1006A00041EB010111F4801F08BF013CF7D041EA82
:1006B000060195F0000F18BF704703F00046520086
:1006C00043EB030313F4801F08BF013DF7D043EA57
:1006D0000603704794EA0C0F0CEA135518BF95EA0D
:1006E0000C0F0CD050EA410618BF52EA4306D1D194
:1006F00081EA030101F000414FF0000070BD50EAB3
:10070000410606BF1046194652EA430619D094EA3C
:100710000C0F02D150EA013613D195EA0C0F05D126
:1007200052EA03361CBF104619460AD181EA03017A
:1007300001F0004141F0FE4141F470014FF0000032
:1007400070BD41F0FE4141F4780170BD70B54FF0CD
:10075000FF0C4CF4E06C1CEA11541DBF1CEA13554D
:1007600094EA0C0F95EA0C0F00F0A7F8A4EB05042F
:1007700081EA030E52EA03354FEA013100F0888026
:100780004FEA03334FF0805545EA131343EA1263EF
:100790004FEA022245EA111545EA10654FEA0026A4
:1007A0000EF000419D4208BF964244F1FD0404F55D
:1007B000407402D25B084FEA3202B61A65EB0305B9
:1007C0005B084FEA32024FF480104FF4002CB6EB76
:1007D000020E75EB030E22BFB61A754640EA0C00F6
:1007E0005B084FEA3202B6EB020E75EB030E22BF36
:1007F000B61A754640EA5C005B084FEA3202B6EB77
:10080000020E75EB030E22BFB61A754640EA9C0035
:100810005B084FEA3202B6EB020E75EB030E22BF05
:10082000B61A754640EADC0055EA060E18D04FEAC3
:10083000051545EA16754FEA06164FEAC30343EA63
:1008400052734FEAC2025FEA1C1CC0D111F4801F30
:100850000BD141EA00014FF000004FF0004CB6E729
:1008600011F4801F04BF01430020B4F1FD0C88BFC8
:10087000BCF5E06F3FF6AFAEB5EB030C04BFB6EBD3
:10088000020C5FEA500C50F1000041EB045170BDC6
:100890000EF0004E4EEA113114EB5C04C2BFD4EBF3
:1008A0000C0541EA045170BD41F480114FF0000E77
:1008B000013C90E645EA060E8DE60CEA135594EAF3
:1008C0000C0F08BF95EA0C0F3FF43BAF94EA0C0FF6
:1008D0000AD150EA01347FF434AF95EA0C0F7FF46B
:1008E00025AF104619462CE795EA0C0F06D152EABF
:1008F00003353FF4FDAE1046194622E750EA4106A3
:1009000018BF52EA43067FF4C5AE50EA41047FF4B3
:100910000DAF52EA43057FF4EBAE12E74A0011D265
:1009200012F5001211D20DD56FF47873B3EB625249
:100930000ED44FEAC12343F0004343EA505323FA55
:1009400002F070474FF00000704750EA013002D1CA
:100950004FF0FF3070474FF00000704753B94AB96D
:10096000002908BF00281CBF4FF0FF314FF0FF30B7
:1009700000F076B9ADF1080C6DE904CE00F006F890
:10098000DDF804E0DDE9022304B070472DE9F0470B
:10099000089E0D4604468846002B4DD18A42944657
:1009A00068D9B2FA82F252B101FA02F3C2F120011F
:1009B00020FA01F10CFA02FC41EA030894404FEAE4
:1009C0001C41B8FBF1F71FFA8CFE01FB178807FBEF
:1009D0000EF0230C43EA084398420AD91CEB0303A8
:1009E00007F1FF3580F01E81984240F21B81023FE3
:1009F00063441B1AB3FBF1F001FB103300FB0EFE46
:100A0000A4B244EA0344A6450AD91CEB040400F14D
:100A1000FF3380F00981A64540F206816444023824
:100A20000021A4EB0E0440EA07401EB10023D4408D
:100A3000C6E90043BDE8F0878B4208D9002E00F0DC
:100A4000EE800021C6E900050846BDE8F087B3FA4C
:100A500083F100294AD1AB4202D3824200F2FC80EA
:100A6000841A65EB030301209846002EE2D0C6E904
:100A70000048DFE702B9FFDEB2FA82F2002A40F056
:100A80009180A1EB0C0001214FEA1C471FFA8CFE5C
:100A9000B0FBF7F307FB1300250C45EA00450EFBFE
:100AA00003F0A84208D91CEB050503F1FF3802D278
:100AB000A84200F2CE8043462D1AB5FBF7F007FBA3
:100AC00010550EFB00FEA4B244EA0544A64508D921
:100AD0001CEB040400F1FF3502D2A64500F2B680FB
:100AE0002846A4EB0E0440EA03409EE7C1F120072C
:100AF0008B4022FA07FC4CEA030C25FA07FA4FEA6E
:100B00001C49BAFBF9F820FA07F309FB18AA8D4033
:100B10001FFA8CFE1D4300FA01F308FB0EF02C0CAB
:100B200044EA0A44A04202FA01F20BD91CEB040485
:100B300008F1FF3A80F08880A04240F28580A8F159
:100B400002086444241AB4FBF9F009FB104400FBCA
:100B50000EFEADB245EA0444A64508D91CEB0404D8
:100B600000F1FF356CD2A6456AD90238644440EAE8
:100B70000840A0FB0295A4EB0E04AC42C846AE466A
:100B800056D353D0002E69D0B3EB080264EB0E04A9
:100B900022FA01F304FA07F71F43CC40C6E90074B8
:100BA000002147E70CFA02FCC2F1200125FA01F30B
:100BB0004FEA1C4720FA01F195400D43B3FBF7F1D2
:100BC00007FB11331FFA8CFE280C40EA034001FB9F
:100BD0000EF3834204FA02F408D91CEB000001F181
:100BE000FF382FD283422DD902396044C01AB0FB9E
:100BF000F7F307FB1300ADB245EA004503FB0EF027
:100C0000A84208D91CEB050503F1FF3816D2A8420B
:100C100014D9023B6544281A43EA014138E73146BA
:100C2000304607E72F46E4E61846F9E64B45A9D2D9
:100C3000B9EB020865EB0C0E0138A3E74346EAE77F
:100C4000284694E74146D1E7D0467BE76444023822
:100C500047E7023B65442FE7084606E73146E9E6E9
:100C6000704700BF844641EA000313F0030349D1F3
:100C7000403A23D30B6803604B6843608B68836002
:100C8000CB68C3600B6903614B6943618B69836106
:100C9000CB69C3610B6A03624B6A43628B6A8362EE
:100CA000CB6AC3620B6B03634B6B43638B6B8363D6
:100CB000CB6BC36340304031403ADBD230320BD390
:100CC0000B6803604B6843608B688360CB68C360CC
:100CD00010301031103AF3D20C3205D351F8043BE6
:100CE00040F8043B043AF9D2043208D0D2071CBFC2
:100CF00011F8013B00F8013B01D30B8803806046EB
:100D0000704700BF082A13D38B07B1D010F003033C
:100D1000AED0C3F10403D21ADB071CBF11F8013BAC
:100D200000F8013BA4D331F8023B20F8023B9FE7D7
:100D3000043AD9D3013A11F8013B00F8013BF9D24A
:100D40000B7803704B7843708B78837060467047E4
:100D500000B585B000230193029303937D487E4A3A
:100D6000026043604FF080728260C3604FF4807213
:100D7000026143618361C3610362012280F8242020
:100D80001022826280F82C304263836380F83C300A
:100D900000F010FD002840F0A9800B2301930123EF
:100DA0000293042303930DEB03016A4800F016FE3F
:100DB000002840F09E800A2301930223029301A998
:100DC000644800F00BFE002840F096800D2301934C
:100DD0000323029301A95F4800F000FE002840F0C1
:100DE0008E800C230193042302930DEB03015948D9
:100DF00000F0F4FD002840F08580012301930523D5
:100E0000029301A9534800F0E9FD00287DD1002399
:100E100001930623029301A94E4800F0DFFD00284C
:100E200076D1052301930723029301A9494800F0D5
:100E3000D5FD00286FD1042301930823029301A953
:100E4000444800F0CBFD002868D106230193092314
:100E5000029301A93F4800F0C1FD002861D107239A
:100E600001930A23029301A93A4800F0B7FD002834
:100E70005AD1082301930B23029301A9354800F0AE
:100E8000ADFD002853D10E2301930C23029301A939
:100E9000304800F0A3FD00284CD1122301930D230C
:100EA000029301A92B4800F099FD002845D1132396
:100EB00001930E23029301A9264800F08FFD00281C
:100EC0003ED1142301930F23029301A9214800F07E
:100ED00085FDC0BB152301931023029301A91D4872
:100EE00000F07CFD90BB05B05DF804FB00F024F938
:100EF00053E700F021F95EE700F01EF966E700F025
:100F00001BF96EE700F018F977E700F015F97EE7B6
:100F100000F012F985E700F00FF98CE700F00CF90A
:100F200093E700F009F99AE700F006F9A1E700F06D
:100F300003F9A8E700F000F9AFE700F0FDF8B6E725
:100F400000F0FAF8BDE700F0F7F8C3E700F0F4F8B6
:100F5000C9E700BF6C0400200024014070B58AB0CE
:100F60000023059306930793089309930268304B77
:100F70009A4201D00AB070BD044603F58A331A6A5A
:100F800042F400721A621A6A02F400720192019A23
:100F9000DA6942F00402DA61DA6902F004020292CC
:100FA000029ADA6942F00102DA61DA6902F00102BA
:100FB0000392039ADA6942F00202DA61DB6903F014
:100FC00002030493049B1F2305930326069605A999
:100FD000184801F073F9F323059306960025079549
:100FE00005A9154801F06AF94FF201030593069629
:100FF000079505A9114801F061F91148114B0360EB
:10100000456085608023C3604FF4807303614FF4B3
:101010008063436120238361C56100F0E9FE18B954
:10102000074B63645C62A5E700F086F8F8E700BF51
:101030000024014000080240000002400004024079
:10104000C00400200860024000B583B00A4BDA6992
:1010500042F08072DA61DB6903F080730193019BD7
:10106000002211460B2000F04DFE0B2000F082FE06
:1010700003B05DF804FB00BF00380240F0B58BB050
:10108000002405940694079408940994274BDA6980
:1010900042F02002DA61DA6902F020020092009A3E
:1010A000DA6942F00402DA61DA6902F004020192BC
:1010B000019ADA6942F00102DA61DA6902F00102AA
:1010C0000292029ADA6942F00202DA61DA6902F007
:1010D00002020392039ADA6942F00802DA61DB69DC
:1010E00003F008030493049B114F0122202138468A
:1010F00001F0D8F90F4E01220221304601F0D2F959
:1011000020230593012506950795089405A93846DF
:1011100001F0D4F80223059306950795089405A9D4
:10112000304601F0CBF80BB0F0BD00BF00380240F4
:10113000000802400004024072B6FEE700B593B01A
:101140003422002105A803F02DFD00230093019314
:1011500002930393049314490A6822F4C05242F4A0
:1011600000620A600B220592052206920122089273
:10117000102109910A920E9305A801F0E1F970B9C6
:101180000F23009302230193002102910391049104
:10119000684601F0B3FC20B913B05DF804FBFFF71B
:1011A000CBFFFFF7C9FF00BF0070004000B58FB054
:1011B00000F0CAFAFFF7C2FFFFF760FFFFF744FF36
:1011C000FFF7C6FD00F0A4F900F088F900F0C8F8B8
:1011D00000F06AF900F000F92A4C012221462A4861
:1011E00002F069FB01222146284802F064FB01223B
:1011F0002146274802F05FFB4FF46071254803F059
:10120000A9F926E0244B1A7003F0B2F828E0234B2A
:1012100001221A70224801F027FE1B4CEC4604F113
:10122000100EBEE80F00ACE80F00BEE80F00ACE8FF
:101230000F00BEE80F00ACE80F009EE803008CE84A
:10124000030094E80F0002F0F7FD10E0322000F0F8
:101250009DFA144B00221A700F4B1B78002BD1D132
:10126000114B1B781BB90D4B1B78002BCFD00E4BAD
:101270001B78002BEAD00D4B1B78002BE6D002F038
:101280002DFBE3E7D10A00209C0B0020540B00202B
:10129000E40B002028060020CB090020C80900200C
:1012A000D40A0020CD090020CA090020270600200A
:1012B00084B00F4B5A6A42F000425A625A6A02F0F6
:1012C00000420192019A1A6A42F001021A621A6AF5
:1012D00002F001020292029A5A6A42F080525A6265
:1012E0005B6A03F080530393039B04B0704700BF15
:1012F00000380240FEE7FEE7FEE7FEE7FEE7704744
:101300007047704708B500F02FFA08BD08B50248CD
:1013100000F042FE08BD00BFC004002008B502482E
:1013200001F06DFE08BD00BFD40A002008B50248D8
:1013300002F062F908BD00BF540B002008B5024856
:1013400002F05AF908BD00BF9C0B002008B5024806
:1013500002F052F908BD00BFE40B00207047000006
:1013600000B587B000230293039304930593009381
:10137000019318484FF08042026048F6FF724260C5
:10138000836041F63F72C2600361436101F047FD33
:10139000B8B94FF48053029302A90E4801F0ACFD96
:1013A00090B900230093019369460A4801F0C4FEF6
:1013B00068B9084B1B686FF001021A6107B05DF84D
:1013C00004FBFFF7B9FEE4E7FFF7B6FEE9E7FFF736
:1013D000B3FEEEE7D40A002000B587B000230293E5
:1013E000039304930593009301931548154A0260F3
:1013F00048F6FF72426083600822C2600361436165
:1014000001F00DFD90B94FF48053029302A90C48EE
:1014100001F072FD68B90023009301936946084802
:1014200001F08AFE40B907B05DF804FBFFF784FEC7
:10143000E9E7FFF781FEEEE7FFF77EFEF3E700BF87
:10144000140B00200004004000B583B00368B3F122
:10145000804F05D0124A934216D003B05DF804FBCA
:1014600003F50E335A6A42F001025A625B6A03F0D6
:1014700001030093009B002211461C2000F042FC57
:101480001C2000F077FCE8E7064B5A6A42F00202A3
:101490005A625B6A03F002030193019BDDE700BF20
:1014A000000400400038024008B50A480A4B0360B7
:1014B0004FF4E133436000238360C36003610C2277
:1014C00042618361C36101F07DFF00B908BDFFF790
:1014D00033FEFBE7E40B00200050004008B50A484B
:1014E0000A4B03604FF41653436000238360C360CC
:1014F00003610C2242618361C36101F063FF00B9A3
:1015000008BDFFF719FEFBE7540B00200044004024
:1015100008B50A480A4B03604FF416534360002392
:101520008360C36003610C2242618361C36101F087
:1015300049FF00B908BDFFF7FFFDFBE79C0B00204A
:1015400000480040F0B58DB000230793089309933D
:101550000A930B9303684D4A934207D04C4A934237
:1015600042D04C4A934267D00DB0F0BD4A4B5A6A04
:1015700042F480125A625A6A02F480120092009A6F
:10158000DA6942F00402DA61DA6902F004020192D7
:10159000019ADA6942F00802DA61DB6903F00803B4
:1015A0000293029B4FF4805307930227089701266A
:1015B000099603250A9508240B9407A9374800F0DB
:1015C0007DFE04230793089709960A950B9407A9B3
:1015D000334800F073FE00221146312000F092FBE8
:1015E000312000F0C7FBBFE72B4B5A6A42F40032B0
:1015F0005A625A6A02F400320392039ADA6942F09C
:101600000102DA61DB6903F001030493049B0C23FC
:1016100007930223089303230A9307230B9307A935
:10162000204800F04BFE00221146262000F06AFB05
:10163000262000F09FFB97E7174B5A6A42F480225E
:101640005A625A6A02F480220592059ADA6942F0D7
:101650000202DA61DB6903F002030693069B4FF492
:10166000406307930223089303230A9307230B93F2
:1016700007A90D4800F022FE00221146272000F0A5
:1016800041FB272000F076FB6EE700BF00500040D2
:10169000004400400048004000380240000802407A
:1016A000000C02400000024000040240FFF756FE1A
:1016B0000B480C490C4A002302E0D458C4500433B0
:1016C000C4188C42F9D3094A094C002301E0136085
:1016D0000432A242FBD303F041FAFFF767FD7047E3
:1016E000000000204C040020204E00085004002080
:1016F000500D0020FEE70000104B1B680BB90120C5
:10170000704710B504464FF47A70B0FBF3F30C4AFF
:101710001068B0FBF3F000F03BFB68B90F2C01D967
:1017200001200AE0002221464FF0FF3000F0EAFAE3
:10173000044B1C60002000E0012010BD04000020CC
:10174000000000200800002010B5032000F0C8FAB7
:101750000F20FFF7D1FF10B10124204610BD044631
:10176000FFF7A6FDF9E70000034A1368034909687B
:101770000B441360704700BF2C0C002004000020B5
:10178000014B1868704700BF2C0C002038B5044688
:10179000FFF7F6FF0546B4F1FF3F02D0044B1B688C
:1017A0001C44FFF7EDFF401BA042FAD338BD00BF39
:1017B00004000020002800F0BC8070B582B0044610
:1017C000C36C002B5FD0E36C13F0100F40F0B380BC
:1017D000E36C23F4885323F0020343F00203E36431
:1017E000564A536823F4403361680B435360E368FF
:1017F0006269134394F83C104FF4007292FAA2F21B
:10180000B2FA82F201FA02F21343226A1A4394F8FE
:101810002400022393FAA3F3B3FA83F300FA03F349
:101820001343626B102A02D0A16B0A43134325684D
:101830002A6812F0400214D1A1690B43A168E6693D
:1018400031432669B6F5807F30D0012E2BD00A4374
:1018500094F82C1001292BD06868394901400A43BB
:101860006A6021688868374A02401A438A602269A0
:10187000B2F5807F33D0012A31D021680A6B22F083
:10188000F8720A633AE0036580F848302E4B1A6A12
:1018900042F001021A621B6A03F001030193019BEB
:1018A000FFF75CFB8FE74FF48072D0E73246CEE75C
:1018B00060B9216B01394FF4604090FAA0F0B0FAA2
:1018C00080F0814041F400610A43C5E7E16C41F0DA
:1018D0002001E164216D41F001012165BCE725682B
:1018E0002A6B22F0F872A16A01394FF0F87090FA71
:1018F000A0F0B0FA80F081400A432A632268916820
:10190000124A0A409A420BD0E36C23F0120343F0D0
:101910001003E364236D43F00103236501200BE012
:1019200000202065E36C23F0030343F00103E3642C
:1019300002E001207047012002B070BD0027014085
:10194000FF16FCFC89F1FFC000380240FEFF80BF9B
:1019500008B5436ADA6C12F0500F27D1DA6C42F402
:101960000072DA641A68916811F0405F1AD193F836
:101970002410B9B9116B11F0F87F03D0916811F4FC
:10198000806F0FD1516821F020015160DA6C22F490
:101990008072DA64DA6C12F4805F03D1DA6C42F0A0
:1019A0000102DA64184602F007FA08BD5B6C1B6B93
:1019B0009847FAE7704708B5406AFFF7FBFF08BD94
:1019C000704708B5406AC36C43F04003C364036DBD
:1019D00043F004030365FFF7F3FF08BD30B482B0A2
:1019E0000023019390F84830012B00F0CB800123B5
:1019F00080F848304B68062B2CD80468226C03EB27
:101A00008303053B4FF01F0C0CFA03FC22EA0C0287
:101A10000D6805FA03F3134323640B68092B5BD8A5
:101A20000468626903EB43034FF0070C0CFA03FCF4
:101A300022EA0C028D6805FA03F3134363610B6815
:101A4000103B012B79D9002380F84830184602B0AA
:101A500030BC70470C2B0ED80568EA6B03EB830390
:101A6000233B1F249C4022EA04020C6804FA03F37F
:101A70001343EB63D1E7122B0ED80568AA6B03EB77
:101A80008303413B1F249C4022EA04020C6804FAB1
:101A900003F31343AB63C0E7182B0ED805686A6BDA
:101AA00003EB83035F3B1F249C4022EA04020C6883
:101AB00004FA03F313436B63AFE705682A6B03EB88
:101AC00083037D3B1F249C4022EA04020C6804FA35
:101AD00003F313432B63A0E7132B0ED805682A6981
:101AE00003EB43031E3B07249C4022EA04028C685C
:101AF00004FA03F313432B61A1E71D2B0ED80568ED
:101B0000EA6803EB43033C3B07249C4022EA0402BF
:101B10008C6804FA03F31343EB6090E70568EA6D01
:101B200003EB43035A3B07249C4022EA04028C68DF
:101B300004FA03F31343EB6581E7134B5B6813F47B
:101B4000000F80D1104A536843F4000353600B68C0
:101B5000102B7FF478AF0D4B1B6802F1467202F533
:101B60002D3202F28332A2FB03239B0C03EB83038F
:101B70005B00019302E0019B013B0193019B002B61
:101B8000F9D160E7022062E7002701400000002051
:101B900030B583B00023019303681A6812F0400F38
:101BA00035D104469A6842F001029A60194B1B68CD
:101BB000194AA2FB03239B0C03EB4303019302E0AE
:101BC000019B013B0193019B002BF9D1FFF7D8FD4D
:101BD000054623681B6813F0400F16D1FFF7D0FDB0
:101BE000431B022BF5D923681B6813F0400FF0D17B
:101BF000E36C43F01003E364236D43F001032365BA
:101C0000002384F84830012002E0002000E000209A
:101C100003B030BD0000002083DE1B43F8B50D4645
:101C200090F84810012952D004461646012380F846
:101C30004830FFF7ADFF0746002849D1E16C21F499
:101C4000E06121F0010141F48071E16423685B6887
:101C500013F4806F05D0E36C23F4405343F48053B6
:101C6000E364E36C13F4805F2ED0236D23F006034E
:101C70002365002384F84830636C164A9A62636CCB
:101C8000154ADA62636C154A1A6323686FF0220200
:101C90001A602268536843F0806353602268936837
:101CA00043F480739360216833462A465831606C50
:101CB00000F0EAF823689A6812F0405F08D19A6849
:101CC00042F080429A6003E000232365D1E70227B7
:101CD0003846F8BD51190008B7190008C3190008A3
:101CE000074AD36823F4E0631B041B0C000200F4D2
:101CF000E060034343F0BF6343F40033D3607047B5
:101D000000ED00E000B5194BDB68C3F30223C3F11B
:101D1000070CBCF1040F28BF4FF0040C03F1040EB4
:101D2000BEF1060F18D9033B4FF0FF3E0EFA0CFC34
:101D300021EA0C0199400EFA03F322EA0303194346
:101D400000280BDB0901C9B200F1604000F56140D9
:101D500080F800135DF804FB0023E5E700F00F00B6
:101D60000901C9B2024B1954F4E700BF00ED00E0CD
:101D700014ED00E0002807DB00F01F0240090123FA
:101D80009340024A42F82030704700BF00E100E073
:101D90000138B0F1807F0BD24FF0E0235861054A43
:101DA000F02182F823100020986107221A61704701
:101DB0000120704700ED00E010B4046C04F01C0C2E
:101DC000012404FA0CF4D0F83CC0CCF804400468B8
:101DD00063604368102B05D0036899600368DA607C
:101DE00010BC704703689A600368D960F8E7000088
:101DF00000283AD010B4024600681D4B984229D8FA
:101E00001C4B03441C49A1FB03131B099B001364D7
:101E10001A4BD363022382F82130016821F4FF4179
:101E200021F07001536894682343D46823431469F4
:101E300023435469234394692343D46923430B43C5
:101E4000036000209063012382F8213082F8200093
:101E500010BC70470A4B03440749A1FB03131B093D
:101E60009B001364074BD363D4E70120704700BF86
:101E700007640240F89FFDBFCDCCCCCC006002408F
:101E8000F89BFDBF0064024038B5044690F820007E
:101E9000012832D0012084F8200094F82100C0B23B
:101EA000012804D0002384F82030022038BD02200D
:101EB00084F821000020A0632568286820F0010034
:101EC00028602046FFF778FFE36A5BB12268136859
:101ED00043F00E0313602268136843F0010313609C
:101EE0000020E3E72268136823F0040313602268EC
:101EF000136843F00A031360EDE70220D6E790F879
:101F00002130DBB2022B06D004238363002380F848
:101F10002030012070470268136823F00E0313601D
:101F20000268136823F001031360036C03F01C03C1
:101F3000C16B012202FA03F34B6080F821200023D9
:101F400080F820301846704708B590F82130DBB291
:101F5000022B03D004238363012008BD02681368A9
:101F600023F00E0313600268136823F0010313606B
:101F7000036C03F01C03C16B012202FA03F34B60F4
:101F800080F82120002380F82030436B13B198475C
:101F90000020E2E70020E0E738B5C36B1968046869
:101FA0002568036C03F01C0304229A400A4215D0F2
:101FB00015F0040F12D0236813F0200F03D123680B
:101FC00023F004032360036C03F01C02C16B0423A1
:101FD00093404B60C36A03B1984738BD02229A40D0
:101FE0000A421CD015F0020F19D0236813F0200FFD
:101FF00006D1236823F00A032360012380F82130EF
:10200000036C03F01C02C16B022393404B6000235E
:1020100080F82030836A002BDFD09847DDE7082264
:1020200002FA03F30B42D8D015F0080FD5D023687D
:1020300023F00E032360036C03F01C03C16B012229
:1020400002FA03F34B60826380F82120002380F8BA
:102050002030036B002BC0D09847BEE71F4B9B6915
:1020600013F4807306D01E4A536943F00203536190
:102070004FF48073194A926912F4007F06D0184910
:102080004A6942F001024A6143F40073134A9269BB
:1020900012F4006F06D012494A6942F004024A6104
:1020A00043F400630D4A926912F4805F06D00C4934
:1020B0004A6942F020024A6143F48053074A926918
:1020C00012F4806F06D006494A6942F008024A615C
:1020D00043F48063014A9361704700BF003C0240B3
:1020E000300C0020144B5B6813F0020F1DD0124B14
:1020F0005B6813F0010F08D00F4B104ADA60104AEA
:10210000DA605B6813F0010F11D10B4B0D4A1A61B5
:10211000A2F1F342A2F51922A2F6A9121A615B6894
:1021200013F0020F05D100207047002070470120F6
:1021300070470120704700BF003C0240EFCDAB89E3
:1021400005040302BFAE9D8C034A536843F00203AB
:1021500053600020704700BF003C024038B5044681
:10216000FFF70EFB05461B4B9B6913F0010F0AD0CE
:10217000B4F1FF3FF7D024B1FFF702FB401BA042B0
:10218000F1D9032025E0134B9B6913F0020F02D015
:10219000104B02229A610F4B9B6913F4807F15D17B
:1021A0000C4B9B6913F4006F10D10A4B9B6913F41D
:1021B000805F0BD1074B9B6913F4806F06D1054BF1
:1021C0009B6913F4007F01D1002002E0FFF746FF76
:1021D000012038BD003C024038B50E4B1B7C012B62
:1021E00016D00D4614460B4B01221A744CF2503097
:1021F000FFF7B4FF18B1074B00221A7438BD054B26
:1022000000225A612C604CF25030FFF7A7FFF2E732
:102210000220F3E7300C00200021074B5961074BE7
:102220005A6842F400725A605A6842F008025A60D2
:1022300020F0FF0001607047300C0020003C02409D
:102240001C4B1B7C012B31D070B505460E46194B3B
:1022500001221A744CF25030FFF780FF014600BB98
:102260004FF0FF3333606C6801E004F58074AA68B6
:102270006B6803EB0223A34213D92046FFF7CCFF80
:102280004CF25030FFF76AFF0B4B5A6822F00802FD
:102290005A605A6822F400725A6001460028E4D05D
:1022A0003460044B00221A74084670BD02210846AF
:1022B000704700BF300C0020003C024070B582B077
:1022C000002365E085685E000324B44025EA040528
:1022D000CC68B4402C438460446824EA0C0C4C68FD
:1022E000C4F300149C4044EA0C04446061E0DD083F
:1022F000083550F8256003F007044FEA840C0F24DA
:1023000004FA0CF426EA040E0C6904FA0CF444EA0C
:102310000E0440F8254063E0062400E0002404FA9F
:102320000EF42C430CF1020C5A4D45F82C405A4C3B
:10233000A568D44325EA0206D1F804C01CF4801F26
:1023400001D042EA0506544DAE60ED6804EA050688
:10235000D1F804C01CF4001F01D042EA05064E4D1E
:10236000EE606D6804EA0506D1F804C01CF4003F75
:1023700001D042EA0506484D6E602D682C404E683B
:1023800016F4803F01D042EA0504434A1460013349
:102390000A6832FA03F47BD04FF0010C0CFA03FC0C
:1023A0001CEA0202F3D04C6804F00304013C012C47
:1023B00088D94C6804F00304032C0CD0C4685D0079
:1023C0004FF0030C0CFA05FC24EA0C0C8C68AC40B2
:1023D00044EA0C04C4604C6804F00304022C86D068
:1023E00004684FEA430E4FF0030C0CFA0EFC24EA8B
:1023F0000C0C4C6804F0030404FA0EF444EA0C04D8
:1024000004604C6814F4403FC1D0244C256A45F068
:1024100001052562246A04F001040194019C4FEA3D
:10242000930C0CF102051B4C54F8255003F00304E7
:102430004FEA840E0F2404FA0EF425EA0405184C22
:10244000A0423FF46BAF04F58064A04216D004F5BF
:102450008064A04214D004F58064A04212D004F538
:102460008064A04210D004F58064A0420ED004F530
:102470008064A0423FF450AF072450E701244EE7A8
:1024800002244CE703244AE7042448E7052446E7EE
:1024900002B070BD0000014000040140003802405D
:1024A000000002400AB181617047090481617047F0
:1024B00010B483B01F4B9B6813F0F00328D11D4A62
:1024C000526A12F0805F10D01B4A126802F4C052A8
:1024D000B2F5C05F1DD1B0F5404F1AD1174A13684D
:1024E00043F004031360012313E012494A6A42F0E7
:1024F00080524A624A6A02F080520192019A0E4A60
:10250000126802F4C0524C6A24F080544C62DFE737
:1025100000230A490A6822F001021A430A600A6885
:1025200002F001029A4203D1002003B010BC7047B0
:102530000120FAE70038024000700040003C0240F1
:10254000002800F05E82F0B583B00446A24B9D687F
:1025500005F00C059E6806F48036036813F0010F41
:102560001DD0082D12D00C2D0ED06368012B35D054
:10257000002B49D1984B1A6822F480321A601A68ED
:1025800022F480221A602EE0002EEED0924B1B68BF
:1025900013F4003F03D06368002B00F034822368FB
:1025A00013F0020F68D0042D55D00C2D51D0E368E4
:1025B000002B00F0C780894B01221A60FFF7E0F87A
:1025C0000646854B1B6813F0020F40F0B280FFF700
:1025D000D7F8801B0228F4D903201DE27E4A136835
:1025E00043F480331360636823B3FFF7C9F80746E9
:1025F000794B1B6813F4003FD1D1FFF7C1F8C01B22
:102600006428F5D9032007E2052B09D0724B1A681C
:1026100022F480321A601A6822F480221A60E2E7FB
:102620006D4B1A6842F480221A601A6842F48032B4
:102630001A60D8E7FFF7A4F80746674B1B6813F446
:10264000003FACD0FFF79CF8C01B6428F5D90320ED
:10265000E2E1002EABD1604B1B6813F0020F03D0F8
:10266000E368012B40F0D1815B4A536823F4F853AF
:10267000216943EA01235360236813F0100F3BD014
:10268000002D40F08580544B1B6813F4007F03D06D
:10269000A369002B00F0BB81206A4F4B5B6803F4F9
:1026A0006043984260D9FFF703FF002840F0B181F2
:1026B000494A536823F46043216A0B4353605368CB
:1026C00023F07F43E16943EA01635360236A5B0BB4
:1026D0005A1C4FF4004393403F4A9268C2F30312DE
:1026E0003F498A5CD3403F4A13603F4B1868FFF76D
:1026F00003F8002840F09081236813F0080F00F0E1
:102700009B806369002B00F08480344B0122C3F866
:102710008026FFF735F806462F4B5B6B13F0020F50
:1027200040F08A80FFF72CF8801B0228F4D90320A0
:1027300072E1294A536823F4F853216943EA0123DB
:10274000536099E7254B00221A60FFF719F80646F7
:10275000214B1B6813F0020F8ED0FFF711F8801B7E
:102760000228F5D9032057E11B4A536823F460433C
:1027700018435060536823F07F43E16943EA0163E3
:102780005360206AFFF794FE00289FD0012043E1A8
:10279000A3695BB3114B01221A62FEF7F1FF0646F3
:1027A0000D4B1B6813F4007F06D1FEF7E9FF801B79
:1027B0000228F5D903202FE1074A536823F4604328
:1027C000216A0B435360536823F07F43E16943EA76
:1027D0000163536090E700BF0038024000004742A9
:1027E000404D000800000020080000208F4B002210
:1027F0001A62FEF7C5FF06468D4B1B6813F4007F77
:102800003FF47AAFFEF7BCFF801B0228F4D9032007
:1028100002E1864B0022C3F88026FEF7B1FF064690
:10282000834B5B6B13F0020F06D0FEF7A9FF801BF2
:102830000228F5D90320EFE0236813F0040F79D0C4
:102840007B4B5B6A13F0805F0BD1794B5A6A42F085
:1028500080525A625B6A03F080530193019B012608
:1028600000E00026734B1B6813F4807F0ED0A36832
:10287000012B1FD0002B35D16D4B5A6B22F4807287
:102880005A635A6B22F480625A6318E0694A1368EB
:1028900043F480731360FEF773FF0746654B1B68B4
:1028A00013F4807FE3D1FEF76BFFC01B6428F5D9DA
:1028B0000320B1E05E4A536B43F480735363A36813
:1028C00033B3FEF75DFF0746594B5B6B13F4007F94
:1028D0002FD1FEF755FFC01B41F288339842F3D940
:1028E000032099E0052B09D0514B5A6B22F48072DA
:1028F0005A635A6B22F480625A63E0E74C4B5A6B7E
:1029000042F480625A635A6B42F480725A63D6E78B
:10291000FEF736FF0746464B5B6B13F4007F08D08B
:10292000FEF72EFFC01B41F288339842F3D90320F3
:1029300072E0C6B9636A002B6DD00C2D4CD0022B0F
:1029400017D03A4B00221A66FEF71AFF0446384B9E
:102950001B6813F0007F3DD0FEF712FF001B02281A
:10296000F5D9032058E0324A536A23F0805353626A
:10297000E0E72E4B00221A66FEF702FF05462C4BBD
:102980001B6813F0007F06D0FEF7FAFE401B0228FA
:10299000F5D9032040E026498B6823F47D03A26A21
:1029A000E06A0243206B024313438B601F4B0122FA
:1029B0001A66FEF7E5FE04461D4B1B6813F0007F08
:1029C00006D1FEF7DDFE001B0228F5D9032023E027
:1029D000002021E000201FE0012B1FD0144B9B683A
:1029E00003F48031A26A91421AD103F47012E16AB1
:1029F0008A4217D103F44003226B934214D1002082
:102A00000AE001207047012006E0012004E00120D7
:102A100002E0012000E0002003B0F0BD0120FBE750
:102A20000120F9E70120F7E70120F5E70000474220
:102A3000003802400070004008B52D4B9A6802F043
:102A40000C03082B4FD00C2B0AD0042B4ED0284B54
:102A50005868C0F34230431C4FF40040984046E0B1
:102A6000C2F38343234911F803C0C2F381520132F8
:102A70001F4B9B6813F4803F16D04FEACC01B1EB9B
:102A80000C0163EB03035B0143EAD163490111EBE2
:102A90000C0143F100034FEA034C002308044CEA05
:102AA0001141FDF75BFF22E04FEA4C11B1EB0C0046
:102AB0006EEB0E0E4FEA8E1343EA90638101091A02
:102AC00063EB0E03DB0043EA5173C90011EB0C0CFE
:102AD00043F10003990200234FEA8C2041EA9C5104
:102AE000FDF73CFF03E04FF4610000E0024808BD41
:102AF00000380240584D00080024F400002800F07F
:102B0000D98070B50C4605466E4B1B6803F0010377
:102B10008B420DD2012928D06A4A136823F00103A1
:102B200023431360136803F00103A34240F0C48001
:102B30002B6813F0020F06D0634A936823F0F0036A
:102B4000A9680B4393602B6813F0010F72D06B6878
:102B5000022B10D0032B32D0012B37D05A4A1268E7
:102B600012F4007F0DD101209DE0564A136843F016
:102B700004031360D0E7544A126812F4003F00F0D7
:102B80009D8051498A6822F0030213438B60FEF74F
:102B9000F7FD06466B68022B1FD0032B2CD0012BB0
:102BA00039D0494B9B6813F00C0F43D0FEF7E8FD7A
:102BB000801B41F288339842F3D9032073E0424AE4
:102BC000126812F0007FDCD101206CE03E4A1268EE
:102BD00012F0020FD5D1012065E03B4B9B6803F05A
:102BE0000C03082B26D0FEF7CBFD831B41F2883265
:102BF0009342F2D9032056E0334B9B6803F00C0359
:102C00000C2B17D0FEF7BCFD801B41F28833984295
:102C1000F2D9032047E02C4B9B6803F00C03042BF4
:102C200008D0FEF7ADFD801B41F288339842F2D9FF
:102C3000032038E0234B1B6803F00103A3420CD9A7
:102C4000012C31D01F4A136823F001032343136082
:102C5000136803F00103A34232D12B6813F0040F71
:102C600006D0194A936823F4E063E9680B43936044
:102C70002B6813F0080F07D0134A936823F46053AE
:102C8000296943EAC1039360FFF7D6FE0E4B9B68A8
:102C9000C3F303130D4AD35CD8400D4B18600D4BA2
:102CA0001868FEF729FD70BD064A136843F0040357
:102CB0001360C7E7012070470120F4E70120F2E725
:102CC0000120F0E7003C024000380240404D00087F
:102CD0000000002008000020014B1868704700BF6A
:102CE0000000002008B5FFF7F7FF044B9B68C3F313
:102CF0000223034AD35CD84008BD00BF003802401D
:102D0000504D000808B5FFF7E7FF044B9B68C3F37D
:102D1000C223034AD35CD84008BD00BF003802403C
:102D2000504D00080368B0F1804F0ED01E4A90420B
:102D30000BD002F58062904207D002F5806290428B
:102D400003D002F57C42904203D123F070034A681D
:102D50001343B0F1804F16D0134A904213D002F5BE
:102D6000806290420FD002F5806290420BD002F553
:102D70007C42904207D002F58062904203D002F577
:102D80008062904203D123F44073CA68134323F056
:102D900080030A69134303608B68C3620B68836214
:102DA00001234361704700BF0004004010B4036A70
:102DB000046A24F001040462846924F0F00C4CEAF3
:102DC000021223F00A030B438261036210BC7047B6
:102DD00010B4036A046A24F010040462846924F4C1
:102DE000704C4CEA023223F0A00343EA01138261E3
:102DF000036210BC7047836823F070030B4343F0F9
:102E000007038360704710B4846824F47F4C42EA5F
:102E100003220A4342EA0C02826010BC704700B3EE
:102E200010B5044690F83930B3B1022384F8393034
:102E3000214651F8040BFFF775FF012384F83E305B
:102E400084F83A3084F83B3084F83C3084F83D30E4
:102E500084F83930002010BD80F83830FEF7F4FADD
:102E6000E3E701207047000090F83930DBB2012B16
:102E700027D1022380F839300268D36843F0010378
:102E8000D3600368B3F1804F10D0104A93420DD045
:102E900002F58062934209D002F58032934205D058
:102EA0001A6842F001021A60002070479A6802F026
:102EB0000702062A07D01A6842F001021A600020B1
:102EC0007047012070470020704700BF0004004099
:102ED0000268D36823F00103D3600368196A41F2E2
:102EE0001112114203D11A6822F001021A60012363
:102EF00080F839300020704790F83830012B78D0B6
:102F000010B50446012380F83830022380F83930A8
:102F10000268936823F47F4323F0770393600B6880
:102F2000602B4CD029D8402B54D00CD9502B22D117
:102F3000CA6849680068FFF739FF50212068FFF729
:102F40005AFF002005E0202B0DD009D9302B0AD0E4
:102F50000120012384F83930002384F8383010BD73
:102F60000BB1102B05D119462068FFF744FF002054
:102F7000EFE70120EDE70120EBE7B3F5805F34D008
:102F8000B3F5005F0CD1CB684A6889680068FFF729
:102F90003AFF2268936843F4804393600020D8E7A7
:102FA000702B24D1CB684A6889680068FFF72BFF33
:102FB0002268936843F0770393600020C9E7CA68EA
:102FC00049680068FFF704FF60212068FFF713FFDE
:102FD0000020BEE7CA6849680068FFF7E7FE4021A5
:102FE0002068FFF708FF0020B3E70020B1E70120C9
:102FF000AFE702207047704770477047704710B5C1
:10300000044603681A6912F0020F11D0DA6812F050
:10301000020F0DD06FF002021A61012303760368DC
:103020009B6913F0030F5ED0FFF7E6FF00232376C2
:1030300023681A6912F0040F12D0DA6812F0040F34
:103040000ED06FF004021A610223237623689B6975
:1030500013F4407F4DD02046FFF7CEFF00232376A8
:1030600023681A6912F0080F12D0DA6812F0080FFC
:103070000ED06FF008021A61042323762368DB69FF
:1030800013F0030F3CD02046FFF7B6FF0023237652
:1030900023681A6912F0100F12D0DA6812F0100FBC
:1030A0000ED06FF010021A61082323762368DB69C3
:1030B00013F4407F2BD02046FFF79EFF002323769A
:1030C00023681A6912F0010F03D0DA6812F0010FB9
:1030D00024D123681A6912F0400F03D0DA6812F085
:1030E000400F22D110BDFFF786FF2046FFF785FF76
:1030F0009CE72046FFF77FFF2046FFF77EFFADE706
:103100002046FFF778FF2046FFF777FFBEE720460F
:10311000FFF771FF2046FFF770FFCFE76FF0010266
:103120001A61204600F05CFED3E76FF040021A619E
:103130002046FFF763FFD5E790F83830012B2CD0FD
:1031400010B4012380F83830022380F83930036846
:103150005A689C6822F0700C0A6842EA0C025A60B5
:103160000368B3F1804F0AD00D4A934207D002F5AD
:103170008062934203D002F58032934204D124F05E
:1031800080044A6814439C60012380F8393000238E
:1031900080F83830184610BC70470220704700BFD6
:1031A00000040040026802F10C0353E8003F23F4DE
:1031B00090730C3242E800310029F3D1026802F129
:1031C000140353E8003F23F00103143242E80031B6
:1031D0000029F3D1036B012B05D0202380F8423066
:1031E000002303637047026802F10C0353E8003FB9
:1031F00023F010030C3242E800310029F3D1ECE750
:1032000090F84130DBB2212B01D002207047836857
:10321000B3F5805F17D0036A5A1C02621A780368FC
:103220005A60C38C9BB2013B9BB2C3844BB902680A
:10323000D36823F08003D3600268D36843F040036F
:10324000D360002070470369002BE4D1036A1B8818
:103250000268C3F308035360036A02330362E0E7C2
:1032600038B504460268136923F44053C1680B4320
:10327000136183680269134342691343C2691A43A5
:103280000168CB6823F4164323F00C031343CB608F
:103290000268536923F4407381690B4353610268E8
:1032A000244B9A4223D0FFF71DFDE369B3F5004F8D
:1032B00020D000EB800202EB820260688000B2FB4B
:1032C000F0F21D48A0FB02314909642303FB1123DE
:1032D0001B013233A0FB03235B0903F0F00202EB76
:1032E000011203F00F03216813448B6038BDFFF710
:1032F00009FDDAE700EB800000EB800063685B000B
:10330000B0FBF3F00C4DA5FB00325109642303FB25
:103310001103DB003233A5FB03235B095A0002F4DF
:10332000F87202EB011203F00703216813448B606B
:10333000DCE700BF003801401F85EB512DE9F84361
:1033400005460F4616469946DDF820802C6824680D
:1033500037EA04030CBF4FF0010C4FF0000CB445EA
:103360002DD1B8F1FF3FF1D0B8F1000F05D0FEF735
:1033700007FAA0EB09004045E8D92A6802F10C03DE
:1033800053E8003F23F4D0730C3242E800310029A7
:10339000F3D12A6802F1140353E8003F23F001033C
:1033A000143242E800310029F3D1202385F841305E
:1033B00085F84230002385F84030032000E00020EB
:1033C000BDE8F88360B310B5044690F8413013B3FC
:1033D000242384F841302268D36823F40053D36057
:1033E0002046FFF73DFF2268136923F490431361E1
:1033F0002268536923F02A0353612268D36843F497
:103400000053D36000206064202384F8413084F8A6
:103410004230606310BD80F84030FEF793F8D7E784
:10342000012070472DE9F04182B01E4690F84130EE
:10343000DBB2202B4BD104460D46904600294AD0E2
:103440000AB9012044E000234364212380F841307D
:10345000FEF796F90746A4F82480A4F82680A3680E
:10346000B3F5805F02D04FF000080FE02369FBB195
:103470004FF000080AE038F8023B2268C3F3080363
:103480005360E28C92B2013A92B2E284E38C9BB236
:103490008BB100963B46002280212046FFF74EFF6D
:1034A000D8B9002DE7D015F8012B23685A60E8E75A
:1034B000A8460025EAE700963B4600224021204628
:1034C000FFF73CFF58B9202384F8413000E0022088
:1034D00002B0BDE8F0810120FAE70320F8E70320FD
:1034E000F6E7704708B50168CA6822F04002CA6072
:1034F000202280F84120FFF7F4FF002008BD70472C
:1035000008B5406A0023C385C384FFF7F8FF08BDF0
:10351000704790F84230DBB2222B69D18368B3F553
:10352000805F4FD0826AB3F5805F04D0002B56D104
:103530000369002B53D103685B681370836A0133FE
:103540008362C38D9BB2013B9BB2C385002B51D1DB
:1035500000B583B00268D36823F02003D36002680B
:10356000D36823F48073D3600268536923F00103A6
:103570005361202380F8423000234363036B012B07
:1035800033D100230363026802F10C0353E8003FC8
:1035900023F010030C3242E800310029F3D1036814
:1035A0001A6812F0100F06D0002201921A680192D8
:1035B0005B680193019B818DFFF7AAFF002003B098
:1035C0005DF804FB0269002AACD1826A03685B687B
:1035D000C3F308031380836A02338362B1E703688D
:1035E0005B6803F07F031370A8E700F03BFBE5E79F
:1035F000022070470020704730B583B0044602684F
:103600001368D068516913F00F0505D113F0200F2E
:1036100002D010F0200F19D12DB111F0010119D1F4
:1036200010F4907F16D1216B01297DD013F0800F0B
:1036300003D010F0800F40F0188113F0400F03D03A
:1036400010F0400F40F0158103B030BD2046FFF769
:1036500060FFF9E713F0010F06D010F4807F03D06C
:10366000626C42F00102626413F0040F04D019B1DD
:10367000626C42F00202626413F0020F04D019B1CE
:10368000626C42F00402626413F0080F07D010F07D
:10369000200F00D119B1626C42F008026264626CC2
:1036A000002AD1D013F0200F02D010F0200F29D122
:1036B00023685B6903F04003626C12F0080F00D1CD
:1036C00063B32046FFF76EFD23685B6913F0400F7C
:1036D00020D0226802F1140353E8003F23F0400396
:1036E000143242E800310029F3D1E36B73B1634A2D
:1036F0005A63E06BFEF728FC0028A5D0E06B436B13
:103700009847A1E72046FFF704FFD1E72046FFF7DF
:10371000F6FE99E72046FFF7F2FE95E72046FFF711
:10372000EEFE002363648FE713F0100F3FF47EAFCB
:1037300010F0100F3FF47AAF002301931368019348
:1037400053680193019B536913F0400F51D0E26B12
:1037500013685B689BB2002B3FF476AFA18D994252
:103760007FF672AFE3859369202B37D0226802F190
:103770000C0353E8003F23F480730C3242E800311D
:103780000029F3D1226802F1140353E8003F23F02B
:103790000103143242E800310029F3D1226802F11A
:1037A000140353E8003F23F04003143242E8003191
:1037B0000029F3D1202384F84230002323632268B8
:1037C00002F10C0353E8003F23F010030C3242E8EF
:1037D00000310029F3D1E06BFEF791FB0223636314
:1037E000A18DE38D9BB2C91A89B22046FFF790FEE6
:1037F0002AE7A18DE38D9BB2C91A89B2E38D9BB2F2
:10380000002B3FF421AF00293FF41EAF226802F1E4
:103810000C0353E8003F23F490730C3242E800306D
:103820000028F3D1226802F1140353E8003F23F08B
:103830000103143242E800300028F3D1202384F839
:10384000423000232363226802F10C0353E8003F57
:1038500023F010030C3242E800300028F3D1022399
:1038600063632046FFF754FEEEE62046FFF7C8FCF0
:10387000EAE62046FFF736FEE6E600BF013500081F
:1038800081628285C28500234364222380F842300E
:10389000036923B10268D36843F48073D36002687C
:1038A000536943F0010353610268D36843F0200376
:1038B000D3600020704708B590F84230DBB2202B6F
:1038C00008D149B10AB9012008BD00230363FFF7FD
:1038D000D7FFF9E70220F7E70120F5E72DE9F041EE
:1038E0008EB0B148FFF7C0FAB04E6C4606F1100535
:1038F0000FCD0FC40FCD0FC40FCD0FC495E803003B
:1039000084E8030096E80F0000F0AAFAA84B012211
:103910001A70A74B1B784BB1A64B1B7833B9A64B3B
:103920001B78002BF5D0A34B01221A70A14B1B78FA
:103930000BB904231AE0A14B00221A701321702046
:1039400000F0F8FC0EB0BDE8F0819D49CC5C5A1C3B
:10395000895C5A080632C2EBC2029A4800EBC202E6
:10396000D06941EA042202800233DBB2132BECD986
:10397000FF220021924801F015F98B48FFF774FAF5
:10398000914E6C4606F110050FCD0FC40FCD0FC43C
:103990000FCD0FC495E8030084E8030096E80F00FC
:1039A00000F05EFA824B01221A70814B1B784BB1FA
:1039B000804B1B7833B9804B1B78002BF5D07D4BA7
:1039C00001221A707B4B1B78A3B90423132B19D83F
:1039D0007B49CC5C5A1C895C5A08023AC2EBC20291
:1039E000784800EBC202D06941EA04220280023327
:1039F000DBB2EBE7714B00221A701321702000F04C
:103A000099FC9FE7FF2200216D4801F0CBF8664842
:103A1000FFF72AFA10226D496D48FEF7FFF86D4B4B
:103A200001221A706B4B1B7803F0FF06002BF9D1B3
:103A300010226949654801F081F834461BE0614F66
:103A40004FEAC408C4EBC40007EBC00090F90410AF
:103A5000C2691288B0F82AC0CDF800C0DBB2C9B282
:103A6000C08800F075FEA8EB040507EBC507C7E9A1
:103A700008010134E4B20F2C3FF664AF2546C4EBD5
:103A8000C403504A02EBC30393F83230002BF0D04A
:103A9000514B1B57C4EBC40102EBC100037612F873
:103AA0003120A13A052AE4D801A151F822F000BF43
:103AB0003F3A0008C93A0008173B00084D3B000890
:103AC0007B3B00081D3C00083E4F4FEAC408C4EB96
:103AD000C40007EBC00090F90410C2691288B0F866
:103AE00030C0CDF80CC0B0F82EC0CDF808C0B0F88A
:103AF0002CC0CDF804C0B0F82AC0CDF800C0DBB2AD
:103B0000C9B2C08800F084FEA8EB040507EBC50726
:103B1000C7E90801ADE72B4F4FEAC408C4EBC40066
:103B200007EBC00090F90410C2691288B0F82AC0EF
:103B3000CDF800C0DBB2C9B2C08800F0A9FDA8EB87
:103B4000040507EBC507C7E9080192E71D4F4FEAD7
:103B5000C408C4EBC40007EBC00090F90410C269AC
:103B6000DBB21288C9B2C08800F04AFDA8EB040598
:103B700007EBC507C7E908017BE7124F4FEAC40806
:103B8000C4EBC40007EBC00090F90410C269DBB2BB
:103B90001288C9B2C08800F0EBFCA8EB040507EB63
:103BA000C507C7E9080164E7D40A00209C0B002080
:103BB000C8090020CD090020C9090020CA09002039
:103BC000D009002028060020540B00200805002002
:103BD0006C04002004050020A80900200133DBB29A
:103BE0000F2B1ED8C5EBC5021D4901EBC20252883E
:103BF0001A4112F0010FF1D00A46C3EBC30102EBE8
:103C0000C101CF69C5EBC50102EBC102D169421CFC
:103C1000B7F800C021F810C0D0B2DFE73346304615
:103C2000DEE74FEAC508C5EBC5000D4F07EBC00046
:103C300090F9041090F91830828D0292428D019211
:103C400042780092DBB2C269C9B2063000F07CFE55
:103C5000A8EB050507EBC507C7E9080109E700BFA1
:103C60002806002038B50446424B1B78424A1370A0
:103C7000026842498A4208D0A1F580618A4204D094
:103C800022683F4B9A425CD038BDBB2B1BD03D4ACB
:103C9000127862B13C490A78501C08703B498B5439
:103CA0003B4A127893421BD01344394A1370314D6A
:103CB000012229463748FFF7FEFD012229463648F2
:103CC000FFF7F9FDDCE7AA2BE1D12E4A01211170A3
:103CD0002D490A78501C08702C49AA208854D6E730
:103CE000AA2BE1D0CB78052B1ED0284BDB78732B89
:103CF00023D00024244B1C70224B1C70244B1C70BE
:103D0000264B1C701B4D012229462248FFF7D3FD8C
:103D1000012229462048FFF7CEFD214D2846FFF716
:103D2000D7F82B685C62AFE71E4B01221A70FF22A6
:103D30000021164800F036FFD7E71B4B00221A700F
:103D4000D7E7114A1378591C11700A4D2978174A80
:103D5000D154174C2046FFF7BBF8236800225A6263
:103D60002046FFF781F8012229461248FFF7A3FDFC
:103D70008AE700BFD10A0020480C0020004800401C
:103D800000500040CC090020D00A0020D0090020BB
:103D9000CF0A00209C0B0020540B0020C8090020F3
:103DA000D40A0020CA090020270600202805002088
:103DB000140B0020E40B002008B50268054B9A4262
:103DC00000D008BD044B00221A700448FFF780F8A9
:103DD000F7E700BF0024014004050020D40A0020BA
:103DE0000368B3F1804F04D002680C4B9A420DD0A7
:103DF00070470B4B01221A7000230A4A13700A4ABB
:103E000013700A4A13700A4A1370EDE7084B002238
:103E10001A70084B01221A70EAE700BF0004004044
:103E2000C9090020C8090020CA090020270600206F
:103E3000D00A0020CB09002084B008B50DF1080C91
:103E40008CE80F004FF6FF73072204496046FFF726
:103E5000E9FABDE8084004B0704700BF0C0000203C
:103E600084B008B50DF1080C8CE80F004FF6FF7315
:103E7000052204496046FFF7D5FABDE8084004B0C2
:103E8000704700BF1400002000B54FF0000E4FF641
:103E9000FF7210E052080133DBB2072B07D812F093
:103EA000010FF7D04AF2010C8CEA5202F3E70EF14F
:103EB000010E5FFA8EFE8E4504D210F80E305A4085
:103EC0000023EAE752BA90B25DF804FB70B5394BB3
:103ED000A0221A7001229A706022DA70364AC0EB72
:103EE000C00102EBC10412F831201A716288110A74
:103EF00059719A71002307241EE02F49C0EBC002BC
:103F000003EB820201EB4202B2F806E004F1010C7D
:103F10005FFA8CFC274D4FEA1E222A55A21CD2B212
:103F200005F80CE00334E4B2C0EBC00C01EBCC01AB
:103F30000979A9540133DBB2C0EBC0021E4901EB81
:103F4000C20252789A42D8D8002314E0C0EBC002D3
:103F500003EB82021432184901EB42025588621CBD
:103F6000D2B214494FEA152C01F804C00234E4B26D
:103F70008D540133DBB2C0EBC0020F4901EBC2022A
:103F800092F828209A42E1D8A61CF6B2094D6E702C
:103F900021462846FFF778FF631CDBB2020A2A5548
:103FA000E8544FF0FF33324629460448FFF73AFA07
:103FB00070BD00BF4C0C002028060020E40B002040
:103FC000F8B5464BA0221A7001229A707122DA705D
:103FD0004FF0000CE646052443E04148C3EBC30123
:103FE00002EB810100EB4101CF88661CF6B23B4D2C
:103FF000390A2955A11CC9B2AF550334E4B2C3EB49
:10400000C30600EBC600007968540132D2B2C3EB9C
:10401000C301334800EBC10149789142DDD8002249
:1040200012E0C3EBC30102EB810114312C4800EB19
:1040300041014D88611CC9B228482E0A0655023438
:10404000E4B245540132D2B2C3EBC301244800EBC1
:10405000C10191F828109142E3D80CF1010C5FFAEC
:104060008CFCBCF10F0F22D86346CCEBCC021C4970
:1040700001EBC20292F83220012AEED10EF1010EBC
:104080005FFA8EFE601CC0B20A46CCEBCC0102EB9C
:10409000C10512F8312011490A556D88A21CD2B20F
:1040A0002E0A0E540334E4B28D540022AFE70B4DB8
:1040B00085F804E0A61CF6B26E7021462846FFF78C
:1040C000E3FE631CDBB2020A2A55E8544FF0FF33CB
:1040D000324629460348FFF7A5F9F8BD4C0C0020ED
:1040E00028060020E40B00202DE9F04707463C4B52
:1040F000A0221A7001229A707022DA70394AC0EB3D
:10410000C00102EBC10012F831201A714288110A75
:1041100059719A710025062444E0324BC7EBC7025F
:1041200003EBC202D2F81CC03CF81510601CC0B2F0
:104130002B4E090A31553CF815C0A11CC9B206F82E
:1041400000C004F1030A5FFA8AFA127E7254C5EBCA
:10415000C50203EBC203D3E9088940464946FCF790
:10416000DDFB034680B2221DD2B2C3F3072306F85B
:104170000A3004F1050A5FFA8AFAB054FCF752F9E2
:1041800002460B4640464946FBF7FEFF0022164B0F
:10419000FCF7B2F90634E4B2FCF7C0FB06F80A00FB
:1041A0000135EDB2C7EBC7030E4A02EBC3035B78E0
:1041B000AB42B2D8A61CF6B2094D6E702146284615
:1041C000FFF762FE631CDBB2020A2A55E8544FF087
:1041D000FF33324629460548FFF724F9BDE8F0874A
:1041E0004C0C00202806002000005940E40B002061
:1041F0002DE9F04F83B04B4BA0221A7001229A7028
:104200007122DA704FF0000BCDF804B005244AE0BB
:10421000C7EBC703444A02EBC303D86930F8152043
:10422000611CC9B23F4E120A325530F81500A21C6B
:10423000D2B2705404F1030A5FFA8AFA197EB154BB
:10424000D3E9088940464946FCF768FB034680B23B
:10425000221DD2B2C3F3072306F80A3004F1050A7F
:104260005FFA8AFAB054FCF7DDF802460B46404686
:104270004946FBF789FF00222C4BFCF73DF9063439
:10428000E4B2FCF74BFB06F80A000135EDB2C7EBD0
:10429000C703254A02EBC3035B78AB42B8D80BF1E6
:1042A000010B5FFA8BFBBBF10F0F22D85F46CBEB04
:1042B000CB031D4A02EBC30393F83230012BEED13E
:1042C000019B0133DBB20193611CC9B21346CBEBF6
:1042D000CB0203EBC20013F83230124A1355408868
:1042E000A31CDBB2050A55540334E4B2D0540025B4
:1042F000CDE70C4D019B2B71A61CF6B26E702146CA
:104300002846FFF7C1FD631CDBB2020A2A55E854B8
:104310004FF0FF33324629460548FFF783F803B0D4
:10432000BDE8F08F4C0C002028060020000059400A
:10433000E40B002038B50C4CA023237007256570D2
:104340000123A370E070217105212046FFF79CFD39
:10435000030A6371A0714FF0FF332A4621460348D8
:10436000FFF760F838BD00BF4C0C0020E40B0020C4
:10437000F8B5614B1B78A02B38D1002425465E4B45
:104380009E78012E32D15B78FF2B2BD15A4890F8C2
:10439000FD3090F8FE7047EA0327FD21FFF774FD1A
:1043A000874224D1544BDB78402B00F089801DD309
:1043B000712B1BD8502B19D3503B212B16D8DFE87B
:1043C00003F02C15151515151515151515151515BD
:1043D00015151C211515151515151515151515157A
:1043E0001515242915213046FFF7A4FFF8BD142127
:1043F000414BD878FFF79EFFF8E73F4B1879FFF75E
:1044000073FEF3E7FFF7F4FEF0E73B4B1879FFF795
:104410005DFDEBE7FFF7D4FDE8E70027BC463B4630
:1044200027E0364CC3EBC30C04EBCC00478004F808
:104430003C10314991F807C080F828C000200AE0FC
:10444000C2EBC20100EB810114312C4C04EB4101A1
:1044500000244C8001308445F2DCC2EBC2022749C3
:1044600001EBC202012182F83210B4461C4601332E
:10447000DBB20F2B15D8204A11791A4641FA03F006
:1044800010F0010FF3D00135EDB2BCF1000FC8D030
:10449000C3EBC302194901EBC202022182F83210B8
:1044A000E5E71648C4EBC40400EBC40465704FF4A0
:1044B000607100F025F8A0215020FFF73BFF95E741
:1044C000FFF70CFA0C4B1E79C6EBC6040B4F07EB3B
:1044D000C4046278E169A01DFCF7C4FB94F91830AC
:1044E00023714FF46071384600F00AF8A021502083
:1044F000FFF720FF7AE700BF2805002028060020EC
:10450000F0B585B006460D46FDF7ECFD002301939E
:104510000F4B029301230393694601A8FDF790FE18
:10452000074690B1FDF710FE384605B0F0BD0434E3
:10453000A542F7D9325B04F1006101F5BF210220E9
:10454000FDF74AFE0028F2D0ECE70024F0E700BFB8
:1045500000F80508002306E003F1006202F5BF221F
:104560001278C25401339942F6D870470000000017
:104570002DE9F0410E4690461F46FBF753FF1AA364
:10458000D3E90023FBF7B8FF02460B46FBF7B4FF65
:1045900004460D464046FBF745FF13A3D3E900232D
:1045A000FBF7AAFF02460B46FBF7A6FF22462B4667
:1045B000FBF7EAFD0EA3D3E90023FBF79DFF0446BA
:1045C0000D46B81BFBF72EFF0BA3D3E90023FBF727
:1045D00093FF02460B4620462946FBF7D7FDBDE870
:1045E000F08100BFAFF300809A9999999999B93FEA
:1045F00022CD0EA782406D3F9A99999999990140D1
:104600002DE9F0410E4690461F46FBF70BFF1AA31B
:10461000D3E90023FBF770FF02460B46FBF76CFF64
:1046200004460D464046FBF7FDFE13A3D3E90023E5
:10463000FBF762FF02460B46FBF75EFF22462B4666
:10464000FBF7A2FD0EA3D3E90023FBF755FF0446B9
:104650000D46B81BFBF7E6FE0BA3D3E90023FBF7DF
:104660004BFF02460B4620462946FBF78FFDBDE86F
:10467000F08100BFAFF300809A9999999999B93F59
:10468000192543E966DA693F9A9999999999014000
:104690002DE9F84F8A4614469B46FBF7C3FE24A338
:1046A000D3E90023FBF728FF02460B46FBF724FF64
:1046B000804689462046FBF7B5FE1DA3D3E90023BB
:1046C000FBF71AFF02460B46FBF716FF06460F469E
:1046D000BDF82800FBF7A6FE17A3D3E90023FBF7DC
:1046E0000BFF17A3D3E90023FBF706FF04460D4693
:1046F00042464B4630463946FBF746FD02460B46DE
:1047000020462946FBF7F8FE04460D46ABEB0A00AF
:10471000FBF788FE0CA3D3E90023FBF7EDFE02466E
:104720000B4620462946FBF731FDBDE8F88F00BF58
:104730009A9999999999B93F7B14AE47E17A843F48
:10474000B19FACB58353473F9A9999999999014084
:104750002DE9F84F8A4614469B46FBF763FE24A3D7
:10476000D3E90023FBF7C8FE02460B46FBF7C4FE65
:10477000804689462046FBF755FE1DA3D3E900235A
:10478000FBF7BAFE02460B46FBF7B6FE06460F469F
:10479000BDF82800FBF746FE17A3D3E90023FBF77B
:1047A000ABFE17A3D3E90023FBF7A6FE04460D4694
:1047B00042464B4630463946FBF7E6FC02460B467E
:1047C00020462946FBF798FE04460D46ABEB0A004F
:1047D000FBF728FE0CA3D3E90023FBF78DFE02466E
:1047E0000B4620462946FBF7D1FCBDE8F88F00BFF9
:1047F0009A9999999999B93F7B14AE47E17A843F88
:104800004EAC9D7296A3413F9A999999999901400E
:104810002DE9F84F8B4614469A46FBF703FE44A356
:10482000D3E90023FBF768FE02460B46FBF764FE64
:1048300041A3D3E90023FBF75FFE8046894620466B
:10484000FBF7F0FD3AA3D3E90023FBF755FE024640
:104850000B46FBF751FE38A3D3E90023FBF74CFED0
:1048600006460F46BDF82800FBF7DCFD34A3D3E96C
:104870000023FBF741FE04460D4642464B463046B8
:104880003946FBF781FC06460F4602460B4620469A
:104890002946FBF731FE02460B4630463946FBF708
:1048A0002BFE04460D46BDF82C00FBF7BBFD24A3F0
:1048B000D3E90023FBF720FE02460B46304639467B
:1048C000FBF71AFE02460B4620462946FBF75EFC24
:1048D00004460D46BDF83000FBF7A4FD18A3D3E94C
:1048E0000023FBF709FE02460B4620462946FBF74C
:1048F0004DFC04460D46BDF83400FBF793FD10A3B4
:10490000D3E90023FBF7F8FD06460F46AAEB0B00A0
:10491000FBF788FD32463B46FBF7EEFD02460B46B1
:1049200020462946FBF732FCBDE8F88FAFF3008044
:104930009A9999999999B93FFCA9F1D24D62503F42
:104940007B14AE47E17A843F2DE9F04F89B083466E
:104950000E4691461F469DF84880B8F1040F11D0CD
:1049600057A4D4E90034CDE90034B8F1030F0ED0D8
:1049700055A4D4E90034CDE906344FF0000A0024F0
:10498000002528E000235A4CCDE90034EDE750A47F
:10499000D4E90034CDE900344FA4D4E90034CDE9A2
:1049A0000634EAE73BF81A00FBF73CFD4CA3D3E9D9
:1049B0000023FBF7A1FD02460B46FBF79DFD0246D7
:1049C0000B4620462946FBF7E1FB04460D460AF15B
:1049D000010A5FFA8AFAC245E4D34046FBF722FD9A
:1049E00002460B46CDE9022320462946FBF7AEFEE0
:1049F000CDE904014FF0000A0024002518E039F841
:104A00001A00FBF70FFD36A3D3E90023FBF774FD73
:104A100002460B46FBF770FD02460B462046294630
:104A2000FBF7B4FB04460D460AF1010A5FFA8AFA65
:104A3000C245E4D3DDE9022320462946FBF786FE82
:104A400080468946BDF84C00FBF7ECFC26A3D3E971
:104A50000023FBF751FDDDE90623FBF74DFD04467E
:104A60000D46DDE9042340464946FBF78DFB02462F
:104A70000B4620462946FBF73FFD04460D46BDF890
:104A80005000FBF7CFFC18A3D3E90023FBF734FD5C
:104A900002460B4620462946FBF776FB04460D46A8
:104AA000B81BFBF7BFFCDDE90023FBF725FD024641
:104AB0000B4620462946FBF769FB09B0BDE8F08F9D
:104AC000666666666666E6BF06046312688F4B3FDD
:104AD000333333333333D3BF4EAC9D7296A3413F50
:104AE0009A9999999999B93F7B14AE47E17A843F95
:104AF0000000E0BFA0F13C039BB2B3F5717F16D379
:104B00004FF0000CACF11E0040B270470133DBB235
:104B1000502BF7D8084A32F81320121A002AB8BFCF
:104B200052429142F2DD91B20FFA83FCEEE700238C
:104B30009C464FF6FF71EBE7644D0008F8B5074659
:104B40000E461546002405E037F81400FFF7D2FFA3
:104B500030550134A542F7DCF8BD000070B50D4EAC
:104B60000D4D761BB61006D0002455F8043B0134D9
:104B70009847A642F9D1094E094D00F0D5F8761BA9
:104B8000B61006D0002455F8043B01349847A642DD
:104B9000F9D170BD144E0008144E00081C4E0008D8
:104BA000144E0008830730B548D0541E002A3FD069
:104BB0000346CAB201E0013C3AD303F8012B9D073A
:104BC000F9D1032C2DD9CDB245EA05250F2C45EAA4
:104BD000054536D9A4F1100222F00F0C03F1200E86
:104BE000E6444FEA121C03F1100242E9045542E97F
:104BF000025510327245F8D10CF1010214F00C0F7D
:104C000003EB021204F00F0C13D0ACF1040323F0F9
:104C100003030433134442F8045B9342FBD10CF0CA
:104C200003042CB1CAB21C4403F8012B9C42FBD1F3
:104C300030BD64461346002CF4D1F9E70346144610
:104C4000BFE71A46A446E0E7024B13B1024800F062
:104C500005B8704700000000694C000800230146B9
:104C60001A46184600F01AB838B5084B084D5B1BB9
:104C70009C1007D0043B1D44013C55F8043998476B
:104C8000002CF9D1BDE8384000F054B8204E00089F
:104C90001C4E0008704700BF704700BF2DE9F04769
:104CA000DFF87CA00646DAF8000098460F469146E9
:104CB000FFF7F0FF1B4B1B68D3F8484124B365682E
:104CC0001F2D26DC5EB96B1C0235DAF8000063602C
:104CD00044F82570FFF7E0FF0020BDE8F0870123CE
:104CE00004EB8501C1F88890D4F88821AB401A43C1
:104CF000022EC4F88821C1F80881E4D1D4F88C21AF
:104D00001343C4F88C31DEE703F5A674C3F84841B9
:104D1000D5E7DAF80000FFF7BFFF4FF0FF30DCE720
:104D200048040020084E0008F8B500BFF8BC08BCD5
:104D30009E467047F8B500BFF8BC08BC9E46704759
:104D4000000000000000000001020304060708093B
:104D50000000000001020304030406080C101820E0
:104D600030000000FF03EE03D803C203AC03950339
:104D70007F03680351033B0324030E03F802E2029E
:104D8000CC02B602A1028C02770262024E023B0202
:104D9000270214020202F001DE01CD01BD01AC01C7
:104DA0009D018D017F0170016201550148013C01A7
:104DB0003001240119010E010601F900F000E6009E
:104DC000DD00D500CD00C500BD00B600AF00A800D5
:104DD000A1009B0095008F008A00850080007B0069
:104DE000760071006D006900650061005D005A0089
:104DF0005700530050004D004A0048004500430052
:0C4E000040003E003C00000020000020AC
:084E0C0080BBFF7F01000000E4
:084E1400494C0008650100088B
:044E1C004101000848
:104E200068FF1F000100000010000000AABB018500
:104E30000000EB00AAAA0173C800000000000000F7
:104E4000000000000C03002074030020DC0300209D
:104E50000000000000000000000000000000000052
:104E60000000000000000000000000000000000042
:104E70000000000000000000000000000000000032
:104E80000000000000000000000000000000000022
:104E90000000000000000000000000000000000012
:104EA0000000000000000000000000000000000002
:104EB00000000000000000000000000000000000F2
:104EC00000000000000000000000000000000000E2
:104ED00000000000000000000000000000000000D2
:104EE00000000000000000000100000000000000C1
:104EF0000E33CDAB34126DE6ECDE05000B00000086
:104F000000000000000000000000000000000000A1
:104F10000000000000000000000000000000000091
:104F20000000000000000000000000000000000081
:104F30000000000000000000000000000000000071
:0C52600000000000000000004C0D0020C9
:04000005080016AD2C
:00000001FF
